{
  "abi": [
    {
      "inputs": [],
      "stateMutability": "nonpayable",
      "type": "constructor"
    },
    {
      "inputs": [
        {
          "internalType": "bool",
          "name": "approve",
          "type": "bool"
        },
        {
          "internalType": "uint256",
          "name": "id",
          "type": "uint256"
        }
      ],
      "name": "approveContractByBorrower",
      "outputs": [],
      "stateMutability": "nonpayable",
      "type": "function"
    },
    {
      "inputs": [
        {
          "internalType": "address payable",
          "name": "lender",
          "type": "address"
        },
        {
          "internalType": "address payable",
          "name": "borrowerAdress",
          "type": "address"
        },
        {
          "internalType": "uint256",
          "name": "cashBorrowed",
          "type": "uint256"
        },
        {
          "internalType": "uint256",
          "name": "maintenanceMargin",
          "type": "uint256"
        },
        {
          "internalType": "uint256",
          "name": "liquidationTime",
          "type": "uint256"
        },
        {
          "internalType": "uint256",
          "name": "gradePermited",
          "type": "uint256"
        }
      ],
      "name": "initiateContract",
      "outputs": [],
      "stateMutability": "nonpayable",
      "type": "function"
    },
    {
      "inputs": [
        {
          "internalType": "uint256",
          "name": "id",
          "type": "uint256"
        },
        {
          "internalType": "uint256",
          "name": "collateralValueAsked",
          "type": "uint256"
        }
      ],
      "name": "issueMarginCall",
      "outputs": [],
      "stateMutability": "nonpayable",
      "type": "function"
    },
    {
      "inputs": [
        {
          "internalType": "uint256",
          "name": "id",
          "type": "uint256"
        }
      ],
      "name": "liquidateAllPositions",
      "outputs": [],
      "stateMutability": "payable",
      "type": "function"
    },
    {
      "inputs": [
        {
          "internalType": "uint256",
          "name": "id",
          "type": "uint256"
        }
      ],
      "name": "submitCashToBorrower",
      "outputs": [],
      "stateMutability": "payable",
      "type": "function"
    },
    {
      "inputs": [
        {
          "components": [
            {
              "internalType": "string",
              "name": "cusip",
              "type": "string"
            },
            {
              "internalType": "uint256",
              "name": "price",
              "type": "uint256"
            },
            {
              "internalType": "uint256",
              "name": "quantity",
              "type": "uint256"
            },
            {
              "internalType": "uint256",
              "name": "grade",
              "type": "uint256"
            }
          ],
          "internalType": "struct Custodian.Collateral",
          "name": "collateral",
          "type": "tuple"
        },
        {
          "internalType": "uint256",
          "name": "id",
          "type": "uint256"
        }
      ],
      "name": "submitCollateral",
      "outputs": [],
      "stateMutability": "nonpayable",
      "type": "function"
    },
    {
      "inputs": [
        {
          "internalType": "uint256",
          "name": "",
          "type": "uint256"
        }
      ],
      "name": "trades",
      "outputs": [
        {
          "internalType": "uint256",
          "name": "id",
          "type": "uint256"
        },
        {
          "internalType": "address payable",
          "name": "borrowerAdress",
          "type": "address"
        },
        {
          "internalType": "address payable",
          "name": "lenderAdress",
          "type": "address"
        },
        {
          "internalType": "uint256",
          "name": "cashBorrowed",
          "type": "uint256"
        },
        {
          "components": [
            {
              "internalType": "uint256",
              "name": "maintenanceMargin",
              "type": "uint256"
            },
            {
              "internalType": "uint256",
              "name": "liquidationTime",
              "type": "uint256"
            },
            {
              "internalType": "uint256",
              "name": "gradePermitted",
              "type": "uint256"
            }
          ],
          "internalType": "struct Custodian.Rules",
          "name": "rules",
          "type": "tuple"
        },
        {
          "internalType": "bool",
          "name": "approvedByCounterParty",
          "type": "bool"
        },
        {
          "components": [
            {
              "internalType": "uint256",
              "name": "collateralValueAsked",
              "type": "uint256"
            },
            {
              "internalType": "uint256",
              "name": "timeMarginCallStarted",
              "type": "uint256"
            },
            {
              "internalType": "bool",
              "name": "marginCallTrigerred",
              "type": "bool"
            }
          ],
          "internalType": "struct Custodian.MarginCall",
          "name": "marginCall",
          "type": "tuple"
        }
      ],
      "stateMutability": "view",
      "type": "function"
    },
    {
      "inputs": [
        {
          "internalType": "uint256",
          "name": "id",
          "type": "uint256"
        }
      ],
      "name": "valuateCollateral",
      "outputs": [
        {
          "internalType": "uint256",
          "name": "",
          "type": "uint256"
        }
      ],
      "stateMutability": "view",
      "type": "function"
    }
  ],
  "devdoc": {
    "kind": "dev",
    "methods": {},
    "version": 1
  },
  "evm": {
    "assembly": "    /* \"custodian.sol\":25:4243  contract Custodian {... */\n  mstore(0x40, 0x80)\n    /* \"custodian.sol\":734:735  0 */\n  0x00\n    /* \"custodian.sol\":716:735  uint tradeIndex = 0 */\n  dup1\n  sstore\n    /* \"custodian.sol\":757:758  0 */\n  0x00\n    /* \"custodian.sol\":742:758  uint indexColl=0 */\n  0x01\n  sstore\n    /* \"custodian.sol\":809:831  constructor() {... */\n  callvalue\n  dup1\n  iszero\n  tag_1\n  jumpi\n  0x00\n  dup1\n  revert\ntag_1:\n  pop\n    /* \"custodian.sol\":25:4243  contract Custodian {... */\n  dataSize(sub_0)\n  dup1\n  dataOffset(sub_0)\n  0x00\n  codecopy\n  0x00\n  return\nstop\n\nsub_0: assembly {\n        /* \"custodian.sol\":25:4243  contract Custodian {... */\n      mstore(0x40, 0x80)\n      jumpi(tag_1, lt(calldatasize, 0x04))\n      shr(0xe0, calldataload(0x00))\n      dup1\n      0xb72032c5\n      gt\n      tag_10\n      jumpi\n      dup1\n      0xb72032c5\n      eq\n      tag_6\n      jumpi\n      dup1\n      0xe40c7cc0\n      eq\n      tag_7\n      jumpi\n      dup1\n      0xe67dd31e\n      eq\n      tag_8\n      jumpi\n      dup1\n      0xf62d915a\n      eq\n      tag_9\n      jumpi\n      jump(tag_1)\n    tag_10:\n      dup1\n      0x1e6c598e\n      eq\n      tag_2\n      jumpi\n      dup1\n      0x4902575a\n      eq\n      tag_3\n      jumpi\n      dup1\n      0x5885c655\n      eq\n      tag_4\n      jumpi\n      dup1\n      0x94a53f7c\n      eq\n      tag_5\n      jumpi\n    tag_1:\n      0x00\n      dup1\n      revert\n        /* \"custodian.sol\":764:800  mapping(uint => Trade) public trades */\n    tag_2:\n      callvalue\n      dup1\n      iszero\n      tag_11\n      jumpi\n      0x00\n      dup1\n      revert\n    tag_11:\n      pop\n      tag_12\n      0x04\n      dup1\n      calldatasize\n      sub\n      dup2\n      add\n      swap1\n      tag_13\n      swap2\n      swap1\n      tag_14\n      jump\t// in\n    tag_13:\n      tag_15\n      jump\t// in\n    tag_12:\n      mload(0x40)\n      tag_16\n      swap8\n      swap7\n      swap6\n      swap5\n      swap4\n      swap3\n      swap2\n      swap1\n      tag_17\n      jump\t// in\n    tag_16:\n      mload(0x40)\n      dup1\n      swap2\n      sub\n      swap1\n      return\n        /* \"custodian.sol\":3489:3617  function liquidateAllPositions(uint id) public restricted(id) payable{... */\n    tag_3:\n      tag_18\n      0x04\n      dup1\n      calldatasize\n      sub\n      dup2\n      add\n      swap1\n      tag_19\n      swap2\n      swap1\n      tag_14\n      jump\t// in\n    tag_19:\n      tag_20\n      jump\t// in\n    tag_18:\n      stop\n        /* \"custodian.sol\":2400:2900  function submitCollateral(Collateral memory collateral,uint id ) public restricted(id) tradeApproved(id) collateralPermitted(id,collateral) {... */\n    tag_4:\n      callvalue\n      dup1\n      iszero\n      tag_21\n      jumpi\n      0x00\n      dup1\n      revert\n    tag_21:\n      pop\n      tag_22\n      0x04\n      dup1\n      calldatasize\n      sub\n      dup2\n      add\n      swap1\n      tag_23\n      swap2\n      swap1\n      tag_24\n      jump\t// in\n    tag_23:\n      tag_25\n      jump\t// in\n    tag_22:\n      stop\n        /* \"custodian.sol\":3623:3951  function valuateCollateral(uint id ) public restricted(id)  view returns (uint)  {... */\n    tag_5:\n      callvalue\n      dup1\n      iszero\n      tag_26\n      jumpi\n      0x00\n      dup1\n      revert\n    tag_26:\n      pop\n      tag_27\n      0x04\n      dup1\n      calldatasize\n      sub\n      dup2\n      add\n      swap1\n      tag_28\n      swap2\n      swap1\n      tag_14\n      jump\t// in\n    tag_28:\n      tag_29\n      jump\t// in\n    tag_27:\n      mload(0x40)\n      tag_30\n      swap2\n      swap1\n      tag_31\n      jump\t// in\n    tag_30:\n      mload(0x40)\n      dup1\n      swap2\n      sub\n      swap1\n      return\n        /* \"custodian.sol\":1809:2394  function initiateContract(address payable lender,  address payable borrowerAdress,uint cashBorrowed,uint maintenanceMargin,uint  liquidationTime,uint gradePermited ) public... */\n    tag_6:\n      callvalue\n      dup1\n      iszero\n      tag_32\n      jumpi\n      0x00\n      dup1\n      revert\n    tag_32:\n      pop\n      tag_33\n      0x04\n      dup1\n      calldatasize\n      sub\n      dup2\n      add\n      swap1\n      tag_34\n      swap2\n      swap1\n      tag_35\n      jump\t// in\n    tag_34:\n      tag_36\n      jump\t// in\n    tag_33:\n      stop\n        /* \"custodian.sol\":3957:4094  function approveContractByBorrower(bool approve,uint id ) public restricted(id){... */\n    tag_7:\n      callvalue\n      dup1\n      iszero\n      tag_37\n      jumpi\n      0x00\n      dup1\n      revert\n    tag_37:\n      pop\n      tag_38\n      0x04\n      dup1\n      calldatasize\n      sub\n      dup2\n      add\n      swap1\n      tag_39\n      swap2\n      swap1\n      tag_40\n      jump\t// in\n    tag_39:\n      tag_41\n      jump\t// in\n    tag_38:\n      stop\n        /* \"custodian.sol\":3165:3483  function issueMarginCall(uint id, uint  collateralValueAsked) public restricted(id) marginCallPermitted(id) {... */\n    tag_8:\n      callvalue\n      dup1\n      iszero\n      tag_42\n      jumpi\n      0x00\n      dup1\n      revert\n    tag_42:\n      pop\n      tag_43\n      0x04\n      dup1\n      calldatasize\n      sub\n      dup2\n      add\n      swap1\n      tag_44\n      swap2\n      swap1\n      tag_45\n      jump\t// in\n    tag_44:\n      tag_46\n      jump\t// in\n    tag_43:\n      stop\n        /* \"custodian.sol\":2906:3159  function submitCashToBorrower(uint id) public restricted(id) fullyCollateralized(id,msg.value) payable {... */\n    tag_9:\n      tag_47\n      0x04\n      dup1\n      calldatasize\n      sub\n      dup2\n      add\n      swap1\n      tag_48\n      swap2\n      swap1\n      tag_14\n      jump\t// in\n    tag_48:\n      tag_49\n      jump\t// in\n    tag_47:\n      stop\n        /* \"custodian.sol\":764:800  mapping(uint => Trade) public trades */\n    tag_15:\n      mstore(0x20, 0x02)\n      dup1\n      0x00\n      mstore\n      keccak256(0x00, 0x40)\n      0x00\n      swap2\n      pop\n      swap1\n      pop\n      dup1\n      0x00\n      add\n      sload\n      swap1\n      dup1\n      0x01\n      add\n      0x00\n      swap1\n      sload\n      swap1\n      0x0100\n      exp\n      swap1\n      div\n      0xffffffffffffffffffffffffffffffffffffffff\n      and\n      swap1\n      dup1\n      0x02\n      add\n      0x00\n      swap1\n      sload\n      swap1\n      0x0100\n      exp\n      swap1\n      div\n      0xffffffffffffffffffffffffffffffffffffffff\n      and\n      swap1\n      dup1\n      0x03\n      add\n      sload\n      swap1\n      dup1\n      0x05\n      add\n      mload(0x40)\n      dup1\n      0x60\n      add\n      0x40\n      mstore\n      swap1\n      dup2\n      0x00\n      dup3\n      add\n      sload\n      dup2\n      mstore\n      0x20\n      add\n      0x01\n      dup3\n      add\n      sload\n      dup2\n      mstore\n      0x20\n      add\n      0x02\n      dup3\n      add\n      sload\n      dup2\n      mstore\n      pop\n      pop\n      swap1\n      dup1\n      0x08\n      add\n      0x00\n      swap1\n      sload\n      swap1\n      0x0100\n      exp\n      swap1\n      div\n      0xff\n      and\n      swap1\n      dup1\n      0x09\n      add\n      mload(0x40)\n      dup1\n      0x60\n      add\n      0x40\n      mstore\n      swap1\n      dup2\n      0x00\n      dup3\n      add\n      sload\n      dup2\n      mstore\n      0x20\n      add\n      0x01\n      dup3\n      add\n      sload\n      dup2\n      mstore\n      0x20\n      add\n      0x02\n      dup3\n      add\n      0x00\n      swap1\n      sload\n      swap1\n      0x0100\n      exp\n      swap1\n      div\n      0xff\n      and\n      iszero\n      iszero\n      iszero\n      iszero\n      dup2\n      mstore\n      pop\n      pop\n      swap1\n      pop\n      dup8\n      jump\t// out\n        /* \"custodian.sol\":3489:3617  function liquidateAllPositions(uint id) public restricted(id) payable{... */\n    tag_20:\n        /* \"custodian.sol\":3547:3549  id */\n      dup1\n        /* \"custodian.sol\":898:904  trades */\n      0x02\n        /* \"custodian.sol\":898:908  trades[id] */\n      0x00\n        /* \"custodian.sol\":905:907  id */\n      dup3\n        /* \"custodian.sol\":898:908  trades[id] */\n      dup2\n      mstore\n      0x20\n      add\n      swap1\n      dup2\n      mstore\n      0x20\n      add\n      0x00\n      keccak256\n        /* \"custodian.sol\":898:923  trades[id].borrowerAdress */\n      0x01\n      add\n      0x00\n      swap1\n      sload\n      swap1\n      0x0100\n      exp\n      swap1\n      div\n      0xffffffffffffffffffffffffffffffffffffffff\n      and\n        /* \"custodian.sol\":884:923  msg.sender == trades[id].borrowerAdress */\n      0xffffffffffffffffffffffffffffffffffffffff\n      and\n        /* \"custodian.sol\":884:894  msg.sender */\n      caller\n        /* \"custodian.sol\":884:923  msg.sender == trades[id].borrowerAdress */\n      0xffffffffffffffffffffffffffffffffffffffff\n      and\n      eq\n        /* \"custodian.sol\":884:964  msg.sender == trades[id].borrowerAdress || msg.sender == trades[id].lenderAdress */\n      dup1\n      tag_51\n      jumpi\n      pop\n        /* \"custodian.sol\":941:947  trades */\n      0x02\n        /* \"custodian.sol\":941:951  trades[id] */\n      0x00\n        /* \"custodian.sol\":948:950  id */\n      dup3\n        /* \"custodian.sol\":941:951  trades[id] */\n      dup2\n      mstore\n      0x20\n      add\n      swap1\n      dup2\n      mstore\n      0x20\n      add\n      0x00\n      keccak256\n        /* \"custodian.sol\":941:964  trades[id].lenderAdress */\n      0x02\n      add\n      0x00\n      swap1\n      sload\n      swap1\n      0x0100\n      exp\n      swap1\n      div\n      0xffffffffffffffffffffffffffffffffffffffff\n      and\n        /* \"custodian.sol\":927:964  msg.sender == trades[id].lenderAdress */\n      0xffffffffffffffffffffffffffffffffffffffff\n      and\n        /* \"custodian.sol\":927:937  msg.sender */\n      caller\n        /* \"custodian.sol\":927:964  msg.sender == trades[id].lenderAdress */\n      0xffffffffffffffffffffffffffffffffffffffff\n      and\n      eq\n        /* \"custodian.sol\":884:964  msg.sender == trades[id].borrowerAdress || msg.sender == trades[id].lenderAdress */\n    tag_51:\n        /* \"custodian.sol\":876:984  require(msg.sender == trades[id].borrowerAdress || msg.sender == trades[id].lenderAdress, \"privilege acces\") */\n      tag_52\n      jumpi\n      mload(0x40)\n      0x08c379a000000000000000000000000000000000000000000000000000000000\n      dup2\n      mstore\n      0x04\n      add\n      tag_53\n      swap1\n      tag_54\n      jump\t// in\n    tag_53:\n      mload(0x40)\n      dup1\n      swap2\n      sub\n      swap1\n      revert\n    tag_52:\n        /* \"custodian.sol\":3568:3574  trades */\n      0x02\n        /* \"custodian.sol\":3568:3578  trades[id] */\n      0x00\n        /* \"custodian.sol\":3575:3577  id */\n      dup4\n        /* \"custodian.sol\":3568:3578  trades[id] */\n      dup2\n      mstore\n      0x20\n      add\n      swap1\n      dup2\n      mstore\n      0x20\n      add\n      0x00\n      keccak256\n        /* \"custodian.sol\":3568:3591  trades[id].lenderAdress */\n      0x02\n      add\n      0x00\n      swap1\n      sload\n      swap1\n      0x0100\n      exp\n      swap1\n      div\n      0xffffffffffffffffffffffffffffffffffffffff\n      and\n        /* \"custodian.sol\":3568:3600  trades[id].lenderAdress.transfer */\n      0xffffffffffffffffffffffffffffffffffffffff\n      and\n        /* \"custodian.sol\":3568:3610  trades[id].lenderAdress.transfer(1000 wei) */\n      0x08fc\n        /* \"custodian.sol\":3601:3609  1000 wei */\n      0x03e8\n        /* \"custodian.sol\":3568:3610  trades[id].lenderAdress.transfer(1000 wei) */\n      swap1\n      dup2\n      iszero\n      mul\n      swap1\n      mload(0x40)\n      0x00\n      mload(0x40)\n      dup1\n      dup4\n      sub\n      dup2\n      dup6\n      dup9\n      dup9\n      call\n      swap4\n      pop\n      pop\n      pop\n      pop\n      iszero\n      dup1\n      iszero\n      tag_57\n      jumpi\n      returndatasize\n      0x00\n      dup1\n      returndatacopy\n      revert(0x00, returndatasize)\n    tag_57:\n      pop\n        /* \"custodian.sol\":3489:3617  function liquidateAllPositions(uint id) public restricted(id) payable{... */\n      pop\n      pop\n      jump\t// out\n        /* \"custodian.sol\":2400:2900  function submitCollateral(Collateral memory collateral,uint id ) public restricted(id) tradeApproved(id) collateralPermitted(id,collateral) {... */\n    tag_25:\n        /* \"custodian.sol\":2483:2485  id */\n      dup1\n        /* \"custodian.sol\":898:904  trades */\n      0x02\n        /* \"custodian.sol\":898:908  trades[id] */\n      0x00\n        /* \"custodian.sol\":905:907  id */\n      dup3\n        /* \"custodian.sol\":898:908  trades[id] */\n      dup2\n      mstore\n      0x20\n      add\n      swap1\n      dup2\n      mstore\n      0x20\n      add\n      0x00\n      keccak256\n        /* \"custodian.sol\":898:923  trades[id].borrowerAdress */\n      0x01\n      add\n      0x00\n      swap1\n      sload\n      swap1\n      0x0100\n      exp\n      swap1\n      div\n      0xffffffffffffffffffffffffffffffffffffffff\n      and\n        /* \"custodian.sol\":884:923  msg.sender == trades[id].borrowerAdress */\n      0xffffffffffffffffffffffffffffffffffffffff\n      and\n        /* \"custodian.sol\":884:894  msg.sender */\n      caller\n        /* \"custodian.sol\":884:923  msg.sender == trades[id].borrowerAdress */\n      0xffffffffffffffffffffffffffffffffffffffff\n      and\n      eq\n        /* \"custodian.sol\":884:964  msg.sender == trades[id].borrowerAdress || msg.sender == trades[id].lenderAdress */\n      dup1\n      tag_59\n      jumpi\n      pop\n        /* \"custodian.sol\":941:947  trades */\n      0x02\n        /* \"custodian.sol\":941:951  trades[id] */\n      0x00\n        /* \"custodian.sol\":948:950  id */\n      dup3\n        /* \"custodian.sol\":941:951  trades[id] */\n      dup2\n      mstore\n      0x20\n      add\n      swap1\n      dup2\n      mstore\n      0x20\n      add\n      0x00\n      keccak256\n        /* \"custodian.sol\":941:964  trades[id].lenderAdress */\n      0x02\n      add\n      0x00\n      swap1\n      sload\n      swap1\n      0x0100\n      exp\n      swap1\n      div\n      0xffffffffffffffffffffffffffffffffffffffff\n      and\n        /* \"custodian.sol\":927:964  msg.sender == trades[id].lenderAdress */\n      0xffffffffffffffffffffffffffffffffffffffff\n      and\n        /* \"custodian.sol\":927:937  msg.sender */\n      caller\n        /* \"custodian.sol\":927:964  msg.sender == trades[id].lenderAdress */\n      0xffffffffffffffffffffffffffffffffffffffff\n      and\n      eq\n        /* \"custodian.sol\":884:964  msg.sender == trades[id].borrowerAdress || msg.sender == trades[id].lenderAdress */\n    tag_59:\n        /* \"custodian.sol\":876:984  require(msg.sender == trades[id].borrowerAdress || msg.sender == trades[id].lenderAdress, \"privilege acces\") */\n      tag_60\n      jumpi\n      mload(0x40)\n      0x08c379a000000000000000000000000000000000000000000000000000000000\n      dup2\n      mstore\n      0x04\n      add\n      tag_61\n      swap1\n      tag_54\n      jump\t// in\n    tag_61:\n      mload(0x40)\n      dup1\n      swap2\n      sub\n      swap1\n      revert\n    tag_60:\n        /* \"custodian.sol\":2501:2503  id */\n      dup2\n        /* \"custodian.sol\":1057:1063  trades */\n      0x02\n        /* \"custodian.sol\":1057:1067  trades[id] */\n      0x00\n        /* \"custodian.sol\":1064:1066  id */\n      dup3\n        /* \"custodian.sol\":1057:1067  trades[id] */\n      dup2\n      mstore\n      0x20\n      add\n      swap1\n      dup2\n      mstore\n      0x20\n      add\n      0x00\n      keccak256\n        /* \"custodian.sol\":1057:1090  trades[id].approvedByCounterParty */\n      0x08\n      add\n      0x00\n      swap1\n      sload\n      swap1\n      0x0100\n      exp\n      swap1\n      div\n      0xff\n      and\n        /* \"custodian.sol\":1049:1129  require(trades[id].approvedByCounterParty, \"trade not approved by both parties\") */\n      tag_63\n      jumpi\n      mload(0x40)\n      0x08c379a000000000000000000000000000000000000000000000000000000000\n      dup2\n      mstore\n      0x04\n      add\n      tag_64\n      swap1\n      tag_65\n      jump\t// in\n    tag_64:\n      mload(0x40)\n      dup1\n      swap2\n      sub\n      swap1\n      revert\n    tag_63:\n        /* \"custodian.sol\":2525:2527  id */\n      dup3\n        /* \"custodian.sol\":2528:2538  collateral */\n      dup5\n        /* \"custodian.sol\":1554:1564  collateral */\n      dup1\n        /* \"custodian.sol\":1554:1570  collateral.grade */\n      0x60\n      add\n      mload\n        /* \"custodian.sol\":1521:1527  trades */\n      0x02\n        /* \"custodian.sol\":1521:1531  trades[id] */\n      0x00\n        /* \"custodian.sol\":1528:1530  id */\n      dup5\n        /* \"custodian.sol\":1521:1531  trades[id] */\n      dup2\n      mstore\n      0x20\n      add\n      swap1\n      dup2\n      mstore\n      0x20\n      add\n      0x00\n      keccak256\n        /* \"custodian.sol\":1521:1537  trades[id].rules */\n      0x05\n      add\n        /* \"custodian.sol\":1521:1552  trades[id].rules.gradePermitted */\n      0x02\n      add\n      sload\n        /* \"custodian.sol\":1521:1570  trades[id].rules.gradePermitted==collateral.grade */\n      eq\n        /* \"custodian.sol\":1513:1602  require(trades[id].rules.gradePermitted==collateral.grade, \"collateral is not permitted\") */\n      tag_67\n      jumpi\n      mload(0x40)\n      0x08c379a000000000000000000000000000000000000000000000000000000000\n      dup2\n      mstore\n      0x04\n      add\n      tag_68\n      swap1\n      tag_69\n      jump\t// in\n    tag_68:\n      mload(0x40)\n      dup1\n      swap2\n      sub\n      swap1\n      revert\n    tag_67:\n        /* \"custodian.sol\":2584:2594  collateral */\n      dup6\n        /* \"custodian.sol\":2550:2556  trades */\n      0x02\n        /* \"custodian.sol\":2550:2560  trades[id] */\n      0x00\n        /* \"custodian.sol\":2557:2559  id */\n      dup8\n        /* \"custodian.sol\":2550:2560  trades[id] */\n      dup2\n      mstore\n      0x20\n      add\n      swap1\n      dup2\n      mstore\n      0x20\n      add\n      0x00\n      keccak256\n        /* \"custodian.sol\":2550:2572  trades[id].collaterals */\n      0x04\n      add\n        /* \"custodian.sol\":2573:2582  indexColl */\n      sload(0x01)\n        /* \"custodian.sol\":2550:2583  trades[id].collaterals[indexColl] */\n      dup2\n      sload\n      dup2\n      lt\n      tag_71\n      jumpi\n      mstore(0x00, 0x4e487b7100000000000000000000000000000000000000000000000000000000)\n      mstore(0x04, 0x32)\n      revert(0x00, 0x24)\n    tag_71:\n      swap1\n      0x00\n      mstore\n      keccak256(0x00, 0x20)\n      swap1\n      0x04\n      mul\n      add\n        /* \"custodian.sol\":2550:2594  trades[id].collaterals[indexColl]=collateral */\n      0x00\n      dup3\n      add\n      mload\n      dup2\n      0x00\n      add\n      swap1\n      dup1\n      mload\n      swap1\n      0x20\n      add\n      swap1\n      tag_73\n      swap3\n      swap2\n      swap1\n      tag_74\n      jump\t// in\n    tag_73:\n      pop\n      0x20\n      dup3\n      add\n      mload\n      dup2\n      0x01\n      add\n      sstore\n      0x40\n      dup3\n      add\n      mload\n      dup2\n      0x02\n      add\n      sstore\n      0x60\n      dup3\n      add\n      mload\n      dup2\n      0x03\n      add\n      sstore\n      swap1\n      pop\n      pop\n        /* \"custodian.sol\":2612:2618  trades */\n      0x02\n        /* \"custodian.sol\":2612:2622  trades[id] */\n      0x00\n        /* \"custodian.sol\":2619:2621  id */\n      dup7\n        /* \"custodian.sol\":2612:2622  trades[id] */\n      dup2\n      mstore\n      0x20\n      add\n      swap1\n      dup2\n      mstore\n      0x20\n      add\n      0x00\n      keccak256\n        /* \"custodian.sol\":2612:2633  trades[id].marginCall */\n      0x09\n      add\n        /* \"custodian.sol\":2612:2653  trades[id].marginCall.marginCallTrigerred */\n      0x02\n      add\n      0x00\n      swap1\n      sload\n      swap1\n      0x0100\n      exp\n      swap1\n      div\n      0xff\n      and\n        /* \"custodian.sol\":2609:2873  if(trades[id].marginCall.marginCallTrigerred)... */\n      iszero\n      tag_75\n      jumpi\n        /* \"custodian.sol\":2706:2712  trades */\n      0x02\n        /* \"custodian.sol\":2706:2716  trades[id] */\n      0x00\n        /* \"custodian.sol\":2713:2715  id */\n      dup7\n        /* \"custodian.sol\":2706:2716  trades[id] */\n      dup2\n      mstore\n      0x20\n      add\n      swap1\n      dup2\n      mstore\n      0x20\n      add\n      0x00\n      keccak256\n        /* \"custodian.sol\":2706:2727  trades[id].marginCall */\n      0x09\n      add\n        /* \"custodian.sol\":2706:2748  trades[id].marginCall.collateralValueAsked */\n      0x00\n      add\n      sload\n        /* \"custodian.sol\":2687:2697  collateral */\n      dup7\n        /* \"custodian.sol\":2687:2703  collateral.price */\n      0x20\n      add\n      mload\n        /* \"custodian.sol\":2667:2677  collateral */\n      dup8\n        /* \"custodian.sol\":2667:2686  collateral.quantity */\n      0x40\n      add\n      mload\n        /* \"custodian.sol\":2667:2703  collateral.quantity*collateral.price */\n      tag_76\n      swap2\n      swap1\n      tag_77\n      jump\t// in\n    tag_76:\n        /* \"custodian.sol\":2666:2748  (collateral.quantity*collateral.price)>=trades[id].marginCall.collateralValueAsked */\n      lt\n        /* \"custodian.sol\":2663:2873  if((collateral.quantity*collateral.price)>=trades[id].marginCall.collateralValueAsked){... */\n      tag_78\n      jumpi\n        /* \"custodian.sol\":2801:2806  false */\n      0x00\n        /* \"custodian.sol\":2759:2765  trades */\n      0x02\n        /* \"custodian.sol\":2759:2769  trades[id] */\n      0x00\n        /* \"custodian.sol\":2766:2768  id */\n      dup8\n        /* \"custodian.sol\":2759:2769  trades[id] */\n      dup2\n      mstore\n      0x20\n      add\n      swap1\n      dup2\n      mstore\n      0x20\n      add\n      0x00\n      keccak256\n        /* \"custodian.sol\":2759:2780  trades[id].marginCall */\n      0x09\n      add\n        /* \"custodian.sol\":2759:2800  trades[id].marginCall.marginCallTrigerred */\n      0x02\n      add\n      0x00\n        /* \"custodian.sol\":2759:2806  trades[id].marginCall.marginCallTrigerred=false */\n      0x0100\n      exp\n      dup2\n      sload\n      dup2\n      0xff\n      mul\n      not\n      and\n      swap1\n      dup4\n      iszero\n      iszero\n      mul\n      or\n      swap1\n      sstore\n      pop\n        /* \"custodian.sol\":2860:2861  0 */\n      0x00\n        /* \"custodian.sol\":2816:2822  trades */\n      0x02\n        /* \"custodian.sol\":2816:2826  trades[id] */\n      0x00\n        /* \"custodian.sol\":2823:2825  id */\n      dup8\n        /* \"custodian.sol\":2816:2826  trades[id] */\n      dup2\n      mstore\n      0x20\n      add\n      swap1\n      dup2\n      mstore\n      0x20\n      add\n      0x00\n      keccak256\n        /* \"custodian.sol\":2816:2837  trades[id].marginCall */\n      0x09\n      add\n        /* \"custodian.sol\":2816:2859  trades[id].marginCall.timeMarginCallStarted */\n      0x01\n      add\n        /* \"custodian.sol\":2816:2861  trades[id].marginCall.timeMarginCallStarted=0 */\n      dup2\n      swap1\n      sstore\n      pop\n        /* \"custodian.sol\":2663:2873  if((collateral.quantity*collateral.price)>=trades[id].marginCall.collateralValueAsked){... */\n    tag_78:\n        /* \"custodian.sol\":2609:2873  if(trades[id].marginCall.marginCallTrigerred)... */\n    tag_75:\n        /* \"custodian.sol\":2882:2891  indexColl */\n      0x01\n      0x00\n        /* \"custodian.sol\":2882:2893  indexColl++ */\n      dup2\n      sload\n      dup1\n      swap3\n      swap2\n      swap1\n      tag_79\n      swap1\n      tag_80\n      jump\t// in\n    tag_79:\n      swap2\n      swap1\n      pop\n      sstore\n      pop\n        /* \"custodian.sol\":1139:1140  _ */\n      pop\n      pop\n        /* \"custodian.sol\":994:995  _ */\n      pop\n        /* \"custodian.sol\":2400:2900  function submitCollateral(Collateral memory collateral,uint id ) public restricted(id) tradeApproved(id) collateralPermitted(id,collateral) {... */\n      pop\n      pop\n      pop\n      jump\t// out\n        /* \"custodian.sol\":3623:3951  function valuateCollateral(uint id ) public restricted(id)  view returns (uint)  {... */\n    tag_29:\n        /* \"custodian.sol\":3697:3701  uint */\n      0x00\n        /* \"custodian.sol\":3678:3680  id */\n      dup2\n        /* \"custodian.sol\":898:904  trades */\n      0x02\n        /* \"custodian.sol\":898:908  trades[id] */\n      0x00\n        /* \"custodian.sol\":905:907  id */\n      dup3\n        /* \"custodian.sol\":898:908  trades[id] */\n      dup2\n      mstore\n      0x20\n      add\n      swap1\n      dup2\n      mstore\n      0x20\n      add\n      0x00\n      keccak256\n        /* \"custodian.sol\":898:923  trades[id].borrowerAdress */\n      0x01\n      add\n      0x00\n      swap1\n      sload\n      swap1\n      0x0100\n      exp\n      swap1\n      div\n      0xffffffffffffffffffffffffffffffffffffffff\n      and\n        /* \"custodian.sol\":884:923  msg.sender == trades[id].borrowerAdress */\n      0xffffffffffffffffffffffffffffffffffffffff\n      and\n        /* \"custodian.sol\":884:894  msg.sender */\n      caller\n        /* \"custodian.sol\":884:923  msg.sender == trades[id].borrowerAdress */\n      0xffffffffffffffffffffffffffffffffffffffff\n      and\n      eq\n        /* \"custodian.sol\":884:964  msg.sender == trades[id].borrowerAdress || msg.sender == trades[id].lenderAdress */\n      dup1\n      tag_82\n      jumpi\n      pop\n        /* \"custodian.sol\":941:947  trades */\n      0x02\n        /* \"custodian.sol\":941:951  trades[id] */\n      0x00\n        /* \"custodian.sol\":948:950  id */\n      dup3\n        /* \"custodian.sol\":941:951  trades[id] */\n      dup2\n      mstore\n      0x20\n      add\n      swap1\n      dup2\n      mstore\n      0x20\n      add\n      0x00\n      keccak256\n        /* \"custodian.sol\":941:964  trades[id].lenderAdress */\n      0x02\n      add\n      0x00\n      swap1\n      sload\n      swap1\n      0x0100\n      exp\n      swap1\n      div\n      0xffffffffffffffffffffffffffffffffffffffff\n      and\n        /* \"custodian.sol\":927:964  msg.sender == trades[id].lenderAdress */\n      0xffffffffffffffffffffffffffffffffffffffff\n      and\n        /* \"custodian.sol\":927:937  msg.sender */\n      caller\n        /* \"custodian.sol\":927:964  msg.sender == trades[id].lenderAdress */\n      0xffffffffffffffffffffffffffffffffffffffff\n      and\n      eq\n        /* \"custodian.sol\":884:964  msg.sender == trades[id].borrowerAdress || msg.sender == trades[id].lenderAdress */\n    tag_82:\n        /* \"custodian.sol\":876:984  require(msg.sender == trades[id].borrowerAdress || msg.sender == trades[id].lenderAdress, \"privilege acces\") */\n      tag_83\n      jumpi\n      mload(0x40)\n      0x08c379a000000000000000000000000000000000000000000000000000000000\n      dup2\n      mstore\n      0x04\n      add\n      tag_84\n      swap1\n      tag_54\n      jump\t// in\n    tag_84:\n      mload(0x40)\n      dup1\n      swap2\n      sub\n      swap1\n      revert\n    tag_83:\n        /* \"custodian.sol\":3714:3733  uint totalValuation */\n      0x00\n        /* \"custodian.sol\":3750:3756  uint i */\n      dup1\n        /* \"custodian.sol\":3745:3912  for (uint i = 0; i < trades[id].collaterals.length; ++i) {... */\n    tag_86:\n        /* \"custodian.sol\":3766:3772  trades */\n      0x02\n        /* \"custodian.sol\":3766:3776  trades[id] */\n      0x00\n        /* \"custodian.sol\":3773:3775  id */\n      dup7\n        /* \"custodian.sol\":3766:3776  trades[id] */\n      dup2\n      mstore\n      0x20\n      add\n      swap1\n      dup2\n      mstore\n      0x20\n      add\n      0x00\n      keccak256\n        /* \"custodian.sol\":3766:3788  trades[id].collaterals */\n      0x04\n      add\n        /* \"custodian.sol\":3766:3795  trades[id].collaterals.length */\n      dup1\n      sload\n      swap1\n      pop\n        /* \"custodian.sol\":3762:3763  i */\n      dup2\n        /* \"custodian.sol\":3762:3795  i < trades[id].collaterals.length */\n      lt\n        /* \"custodian.sol\":3745:3912  for (uint i = 0; i < trades[id].collaterals.length; ++i) {... */\n      iszero\n      tag_87\n      jumpi\n        /* \"custodian.sol\":3870:3876  trades */\n      0x02\n        /* \"custodian.sol\":3870:3880  trades[id] */\n      0x00\n        /* \"custodian.sol\":3877:3879  id */\n      dup7\n        /* \"custodian.sol\":3870:3880  trades[id] */\n      dup2\n      mstore\n      0x20\n      add\n      swap1\n      dup2\n      mstore\n      0x20\n      add\n      0x00\n      keccak256\n        /* \"custodian.sol\":3870:3892  trades[id].collaterals */\n      0x04\n      add\n        /* \"custodian.sol\":3893:3894  i */\n      dup2\n        /* \"custodian.sol\":3870:3895  trades[id].collaterals[i] */\n      dup2\n      sload\n      dup2\n      lt\n      tag_89\n      jumpi\n      mstore(0x00, 0x4e487b7100000000000000000000000000000000000000000000000000000000)\n      mstore(0x04, 0x32)\n      revert(0x00, 0x24)\n    tag_89:\n      swap1\n      0x00\n      mstore\n      keccak256(0x00, 0x20)\n      swap1\n      0x04\n      mul\n      add\n        /* \"custodian.sol\":3870:3901  trades[id].collaterals[i].price */\n      0x01\n      add\n      sload\n        /* \"custodian.sol\":3833:3839  trades */\n      0x02\n        /* \"custodian.sol\":3833:3843  trades[id] */\n      0x00\n        /* \"custodian.sol\":3840:3842  id */\n      dup8\n        /* \"custodian.sol\":3833:3843  trades[id] */\n      dup2\n      mstore\n      0x20\n      add\n      swap1\n      dup2\n      mstore\n      0x20\n      add\n      0x00\n      keccak256\n        /* \"custodian.sol\":3833:3855  trades[id].collaterals */\n      0x04\n      add\n        /* \"custodian.sol\":3856:3857  i */\n      dup3\n        /* \"custodian.sol\":3833:3858  trades[id].collaterals[i] */\n      dup2\n      sload\n      dup2\n      lt\n      tag_91\n      jumpi\n      mstore(0x00, 0x4e487b7100000000000000000000000000000000000000000000000000000000)\n      mstore(0x04, 0x32)\n      revert(0x00, 0x24)\n    tag_91:\n      swap1\n      0x00\n      mstore\n      keccak256(0x00, 0x20)\n      swap1\n      0x04\n      mul\n      add\n        /* \"custodian.sol\":3833:3867  trades[id].collaterals[i].quantity */\n      0x02\n      add\n      sload\n        /* \"custodian.sol\":3833:3901  trades[id].collaterals[i].quantity * trades[id].collaterals[i].price */\n      tag_93\n      swap2\n      swap1\n      tag_77\n      jump\t// in\n    tag_93:\n        /* \"custodian.sol\":3816:3901  totalValuation+= trades[id].collaterals[i].quantity * trades[id].collaterals[i].price */\n      dup3\n      tag_94\n      swap2\n      swap1\n      tag_95\n      jump\t// in\n    tag_94:\n      swap2\n      pop\n        /* \"custodian.sol\":3797:3800  ++i */\n      dup1\n      tag_96\n      swap1\n      tag_80\n      jump\t// in\n    tag_96:\n      swap1\n      pop\n        /* \"custodian.sol\":3745:3912  for (uint i = 0; i < trades[id].collaterals.length; ++i) {... */\n      jump(tag_86)\n    tag_87:\n      pop\n        /* \"custodian.sol\":3930:3944  totalValuation */\n      dup1\n        /* \"custodian.sol\":3923:3944  return totalValuation */\n      swap3\n      pop\n      pop\n        /* \"custodian.sol\":3623:3951  function valuateCollateral(uint id ) public restricted(id)  view returns (uint)  {... */\n      pop\n      swap2\n      swap1\n      pop\n      jump\t// out\n        /* \"custodian.sol\":1809:2394  function initiateContract(address payable lender,  address payable borrowerAdress,uint cashBorrowed,uint maintenanceMargin,uint  liquidationTime,uint gradePermited ) public... */\n    tag_36:\n        /* \"custodian.sol\":1996:2003  uint id */\n      0x00\n        /* \"custodian.sol\":2005:2013  random() */\n      tag_98\n        /* \"custodian.sol\":2005:2011  random */\n      tag_99\n        /* \"custodian.sol\":2005:2013  random() */\n      jump\t// in\n    tag_98:\n        /* \"custodian.sol\":1996:2013  uint id =random() */\n      swap1\n      pop\n        /* \"custodian.sol\":2031:2050  Trade storage trade */\n      0x00\n        /* \"custodian.sol\":2053:2059  trades */\n      0x02\n        /* \"custodian.sol\":2053:2063  trades[id] */\n      0x00\n        /* \"custodian.sol\":2060:2062  id */\n      dup4\n        /* \"custodian.sol\":2053:2063  trades[id] */\n      dup2\n      mstore\n      0x20\n      add\n      swap1\n      dup2\n      mstore\n      0x20\n      add\n      0x00\n      keccak256\n        /* \"custodian.sol\":2031:2063  Trade storage trade = trades[id] */\n      swap1\n      pop\n        /* \"custodian.sol\":2082:2084  id */\n      dup2\n        /* \"custodian.sol\":2073:2078  trade */\n      dup2\n        /* \"custodian.sol\":2073:2081  trade.id */\n      0x00\n      add\n        /* \"custodian.sol\":2073:2084  trade.id=id */\n      dup2\n      swap1\n      sstore\n      pop\n        /* \"custodian.sol\":2113:2119  lender */\n      dup8\n        /* \"custodian.sol\":2094:2099  trade */\n      dup2\n        /* \"custodian.sol\":2094:2112  trade.lenderAdress */\n      0x02\n      add\n      0x00\n        /* \"custodian.sol\":2094:2119  trade.lenderAdress=lender */\n      0x0100\n      exp\n      dup2\n      sload\n      dup2\n      0xffffffffffffffffffffffffffffffffffffffff\n      mul\n      not\n      and\n      swap1\n      dup4\n      0xffffffffffffffffffffffffffffffffffffffff\n      and\n      mul\n      or\n      swap1\n      sstore\n      pop\n        /* \"custodian.sol\":2150:2164  borrowerAdress */\n      dup7\n        /* \"custodian.sol\":2129:2134  trade */\n      dup2\n        /* \"custodian.sol\":2129:2149  trade.borrowerAdress */\n      0x01\n      add\n      0x00\n        /* \"custodian.sol\":2129:2164  trade.borrowerAdress=borrowerAdress */\n      0x0100\n      exp\n      dup2\n      sload\n      dup2\n      0xffffffffffffffffffffffffffffffffffffffff\n      mul\n      not\n      and\n      swap1\n      dup4\n      0xffffffffffffffffffffffffffffffffffffffff\n      and\n      mul\n      or\n      swap1\n      sstore\n      pop\n        /* \"custodian.sol\":2193:2205  cashBorrowed */\n      dup6\n        /* \"custodian.sol\":2174:2179  trade */\n      dup2\n        /* \"custodian.sol\":2174:2192  trade.cashBorrowed */\n      0x03\n      add\n        /* \"custodian.sol\":2174:2205  trade.cashBorrowed=cashBorrowed */\n      dup2\n      swap1\n      sstore\n      pop\n        /* \"custodian.sol\":2245:2262  maintenanceMargin */\n      dup5\n        /* \"custodian.sol\":2215:2220  trade */\n      dup2\n        /* \"custodian.sol\":2215:2226  trade.rules */\n      0x05\n      add\n        /* \"custodian.sol\":2215:2244  trade.rules.maintenanceMargin */\n      0x00\n      add\n        /* \"custodian.sol\":2215:2262  trade.rules.maintenanceMargin=maintenanceMargin */\n      dup2\n      swap1\n      sstore\n      pop\n        /* \"custodian.sol\":2300:2315  liquidationTime */\n      dup4\n        /* \"custodian.sol\":2272:2277  trade */\n      dup2\n        /* \"custodian.sol\":2272:2283  trade.rules */\n      0x05\n      add\n        /* \"custodian.sol\":2272:2299  trade.rules.liquidationTime */\n      0x01\n      add\n        /* \"custodian.sol\":2272:2315  trade.rules.liquidationTime=liquidationTime */\n      dup2\n      swap1\n      sstore\n      pop\n        /* \"custodian.sol\":2352:2365  gradePermited */\n      dup3\n        /* \"custodian.sol\":2325:2330  trade */\n      dup2\n        /* \"custodian.sol\":2325:2336  trade.rules */\n      0x05\n      add\n        /* \"custodian.sol\":2325:2351  trade.rules.gradePermitted */\n      0x02\n      add\n        /* \"custodian.sol\":2325:2365  trade.rules.gradePermitted=gradePermited */\n      dup2\n      swap1\n      sstore\n      pop\n        /* \"custodian.sol\":2375:2385  tradeIndex */\n      0x00\n      dup1\n        /* \"custodian.sol\":2375:2387  tradeIndex++ */\n      dup2\n      sload\n      dup1\n      swap3\n      swap2\n      swap1\n      tag_100\n      swap1\n      tag_80\n      jump\t// in\n    tag_100:\n      swap2\n      swap1\n      pop\n      sstore\n      pop\n        /* \"custodian.sol\":1809:2394  function initiateContract(address payable lender,  address payable borrowerAdress,uint cashBorrowed,uint maintenanceMargin,uint  liquidationTime,uint gradePermited ) public... */\n      pop\n      pop\n      pop\n      pop\n      pop\n      pop\n      pop\n      pop\n      jump\t// out\n        /* \"custodian.sol\":3957:4094  function approveContractByBorrower(bool approve,uint id ) public restricted(id){... */\n    tag_41:\n        /* \"custodian.sol\":4033:4035  id */\n      dup1\n        /* \"custodian.sol\":898:904  trades */\n      0x02\n        /* \"custodian.sol\":898:908  trades[id] */\n      0x00\n        /* \"custodian.sol\":905:907  id */\n      dup3\n        /* \"custodian.sol\":898:908  trades[id] */\n      dup2\n      mstore\n      0x20\n      add\n      swap1\n      dup2\n      mstore\n      0x20\n      add\n      0x00\n      keccak256\n        /* \"custodian.sol\":898:923  trades[id].borrowerAdress */\n      0x01\n      add\n      0x00\n      swap1\n      sload\n      swap1\n      0x0100\n      exp\n      swap1\n      div\n      0xffffffffffffffffffffffffffffffffffffffff\n      and\n        /* \"custodian.sol\":884:923  msg.sender == trades[id].borrowerAdress */\n      0xffffffffffffffffffffffffffffffffffffffff\n      and\n        /* \"custodian.sol\":884:894  msg.sender */\n      caller\n        /* \"custodian.sol\":884:923  msg.sender == trades[id].borrowerAdress */\n      0xffffffffffffffffffffffffffffffffffffffff\n      and\n      eq\n        /* \"custodian.sol\":884:964  msg.sender == trades[id].borrowerAdress || msg.sender == trades[id].lenderAdress */\n      dup1\n      tag_102\n      jumpi\n      pop\n        /* \"custodian.sol\":941:947  trades */\n      0x02\n        /* \"custodian.sol\":941:951  trades[id] */\n      0x00\n        /* \"custodian.sol\":948:950  id */\n      dup3\n        /* \"custodian.sol\":941:951  trades[id] */\n      dup2\n      mstore\n      0x20\n      add\n      swap1\n      dup2\n      mstore\n      0x20\n      add\n      0x00\n      keccak256\n        /* \"custodian.sol\":941:964  trades[id].lenderAdress */\n      0x02\n      add\n      0x00\n      swap1\n      sload\n      swap1\n      0x0100\n      exp\n      swap1\n      div\n      0xffffffffffffffffffffffffffffffffffffffff\n      and\n        /* \"custodian.sol\":927:964  msg.sender == trades[id].lenderAdress */\n      0xffffffffffffffffffffffffffffffffffffffff\n      and\n        /* \"custodian.sol\":927:937  msg.sender */\n      caller\n        /* \"custodian.sol\":927:964  msg.sender == trades[id].lenderAdress */\n      0xffffffffffffffffffffffffffffffffffffffff\n      and\n      eq\n        /* \"custodian.sol\":884:964  msg.sender == trades[id].borrowerAdress || msg.sender == trades[id].lenderAdress */\n    tag_102:\n        /* \"custodian.sol\":876:984  require(msg.sender == trades[id].borrowerAdress || msg.sender == trades[id].lenderAdress, \"privilege acces\") */\n      tag_103\n      jumpi\n      mload(0x40)\n      0x08c379a000000000000000000000000000000000000000000000000000000000\n      dup2\n      mstore\n      0x04\n      add\n      tag_104\n      swap1\n      tag_54\n      jump\t// in\n    tag_104:\n      mload(0x40)\n      dup1\n      swap2\n      sub\n      swap1\n      revert\n    tag_103:\n        /* \"custodian.sol\":4080:4087  approve */\n      dup3\n        /* \"custodian.sol\":4046:4052  trades */\n      0x02\n        /* \"custodian.sol\":4046:4056  trades[id] */\n      0x00\n        /* \"custodian.sol\":4053:4055  id */\n      dup5\n        /* \"custodian.sol\":4046:4056  trades[id] */\n      dup2\n      mstore\n      0x20\n      add\n      swap1\n      dup2\n      mstore\n      0x20\n      add\n      0x00\n      keccak256\n        /* \"custodian.sol\":4046:4079  trades[id].approvedByCounterParty */\n      0x08\n      add\n      0x00\n        /* \"custodian.sol\":4046:4087  trades[id].approvedByCounterParty=approve */\n      0x0100\n      exp\n      dup2\n      sload\n      dup2\n      0xff\n      mul\n      not\n      and\n      swap1\n      dup4\n      iszero\n      iszero\n      mul\n      or\n      swap1\n      sstore\n      pop\n        /* \"custodian.sol\":3957:4094  function approveContractByBorrower(bool approve,uint id ) public restricted(id){... */\n      pop\n      pop\n      pop\n      jump\t// out\n        /* \"custodian.sol\":3165:3483  function issueMarginCall(uint id, uint  collateralValueAsked) public restricted(id) marginCallPermitted(id) {... */\n    tag_46:\n        /* \"custodian.sol\":3245:3247  id */\n      dup2\n        /* \"custodian.sol\":898:904  trades */\n      0x02\n        /* \"custodian.sol\":898:908  trades[id] */\n      0x00\n        /* \"custodian.sol\":905:907  id */\n      dup3\n        /* \"custodian.sol\":898:908  trades[id] */\n      dup2\n      mstore\n      0x20\n      add\n      swap1\n      dup2\n      mstore\n      0x20\n      add\n      0x00\n      keccak256\n        /* \"custodian.sol\":898:923  trades[id].borrowerAdress */\n      0x01\n      add\n      0x00\n      swap1\n      sload\n      swap1\n      0x0100\n      exp\n      swap1\n      div\n      0xffffffffffffffffffffffffffffffffffffffff\n      and\n        /* \"custodian.sol\":884:923  msg.sender == trades[id].borrowerAdress */\n      0xffffffffffffffffffffffffffffffffffffffff\n      and\n        /* \"custodian.sol\":884:894  msg.sender */\n      caller\n        /* \"custodian.sol\":884:923  msg.sender == trades[id].borrowerAdress */\n      0xffffffffffffffffffffffffffffffffffffffff\n      and\n      eq\n        /* \"custodian.sol\":884:964  msg.sender == trades[id].borrowerAdress || msg.sender == trades[id].lenderAdress */\n      dup1\n      tag_107\n      jumpi\n      pop\n        /* \"custodian.sol\":941:947  trades */\n      0x02\n        /* \"custodian.sol\":941:951  trades[id] */\n      0x00\n        /* \"custodian.sol\":948:950  id */\n      dup3\n        /* \"custodian.sol\":941:951  trades[id] */\n      dup2\n      mstore\n      0x20\n      add\n      swap1\n      dup2\n      mstore\n      0x20\n      add\n      0x00\n      keccak256\n        /* \"custodian.sol\":941:964  trades[id].lenderAdress */\n      0x02\n      add\n      0x00\n      swap1\n      sload\n      swap1\n      0x0100\n      exp\n      swap1\n      div\n      0xffffffffffffffffffffffffffffffffffffffff\n      and\n        /* \"custodian.sol\":927:964  msg.sender == trades[id].lenderAdress */\n      0xffffffffffffffffffffffffffffffffffffffff\n      and\n        /* \"custodian.sol\":927:937  msg.sender */\n      caller\n        /* \"custodian.sol\":927:964  msg.sender == trades[id].lenderAdress */\n      0xffffffffffffffffffffffffffffffffffffffff\n      and\n      eq\n        /* \"custodian.sol\":884:964  msg.sender == trades[id].borrowerAdress || msg.sender == trades[id].lenderAdress */\n    tag_107:\n        /* \"custodian.sol\":876:984  require(msg.sender == trades[id].borrowerAdress || msg.sender == trades[id].lenderAdress, \"privilege acces\") */\n      tag_108\n      jumpi\n      mload(0x40)\n      0x08c379a000000000000000000000000000000000000000000000000000000000\n      dup2\n      mstore\n      0x04\n      add\n      tag_109\n      swap1\n      tag_54\n      jump\t// in\n    tag_109:\n      mload(0x40)\n      dup1\n      swap2\n      sub\n      swap1\n      revert\n    tag_108:\n        /* \"custodian.sol\":3269:3271  id */\n      dup3\n        /* \"custodian.sol\":1208:1217  uint diff */\n      0x00\n        /* \"custodian.sol\":1264:1270  trades */\n      0x02\n        /* \"custodian.sol\":1264:1274  trades[id] */\n      0x00\n        /* \"custodian.sol\":1271:1273  id */\n      dup4\n        /* \"custodian.sol\":1264:1274  trades[id] */\n      dup2\n      mstore\n      0x20\n      add\n      swap1\n      dup2\n      mstore\n      0x20\n      add\n      0x00\n      keccak256\n        /* \"custodian.sol\":1264:1287  trades[id].cashBorrowed */\n      0x03\n      add\n      sload\n        /* \"custodian.sol\":1242:1263  valuateCollateral(id) */\n      tag_111\n        /* \"custodian.sol\":1260:1262  id */\n      dup4\n        /* \"custodian.sol\":1242:1259  valuateCollateral */\n      tag_29\n        /* \"custodian.sol\":1242:1263  valuateCollateral(id) */\n      jump\t// in\n    tag_111:\n        /* \"custodian.sol\":1242:1287  valuateCollateral(id)/trades[id].cashBorrowed */\n      tag_112\n      swap2\n      swap1\n      tag_113\n      jump\t// in\n    tag_112:\n        /* \"custodian.sol\":1218:1224  trades */\n      0x02\n        /* \"custodian.sol\":1218:1228  trades[id] */\n      0x00\n        /* \"custodian.sol\":1225:1227  id */\n      dup5\n        /* \"custodian.sol\":1218:1228  trades[id] */\n      dup2\n      mstore\n      0x20\n      add\n      swap1\n      dup2\n      mstore\n      0x20\n      add\n      0x00\n      keccak256\n        /* \"custodian.sol\":1218:1241  trades[id].cashBorrowed */\n      0x03\n      add\n      sload\n        /* \"custodian.sol\":1218:1287  trades[id].cashBorrowed-valuateCollateral(id)/trades[id].cashBorrowed */\n      tag_114\n      swap2\n      swap1\n      tag_115\n      jump\t// in\n    tag_114:\n        /* \"custodian.sol\":1208:1287  uint diff=trades[id].cashBorrowed-valuateCollateral(id)/trades[id].cashBorrowed */\n      swap1\n      pop\n        /* \"custodian.sol\":1314:1320  trades */\n      0x02\n        /* \"custodian.sol\":1314:1324  trades[id] */\n      0x00\n        /* \"custodian.sol\":1321:1323  id */\n      dup4\n        /* \"custodian.sol\":1314:1324  trades[id] */\n      dup2\n      mstore\n      0x20\n      add\n      swap1\n      dup2\n      mstore\n      0x20\n      add\n      0x00\n      keccak256\n        /* \"custodian.sol\":1314:1330  trades[id].rules */\n      0x05\n      add\n        /* \"custodian.sol\":1314:1348  trades[id].rules.maintenanceMargin */\n      0x00\n      add\n      sload\n        /* \"custodian.sol\":1310:1313  100 */\n      0x64\n        /* \"custodian.sol\":1305:1309  diff */\n      dup3\n        /* \"custodian.sol\":1305:1313  diff*100 */\n      tag_116\n      swap2\n      swap1\n      tag_77\n      jump\t// in\n    tag_116:\n        /* \"custodian.sol\":1305:1348  diff*100>trades[id].rules.maintenanceMargin */\n      gt\n        /* \"custodian.sol\":1297:1406  require(diff*100>trades[id].rules.maintenanceMargin, \"margin call does not meet the maintenance margin rule\") */\n      tag_117\n      jumpi\n      mload(0x40)\n      0x08c379a000000000000000000000000000000000000000000000000000000000\n      dup2\n      mstore\n      0x04\n      add\n      tag_118\n      swap1\n      tag_119\n      jump\t// in\n    tag_118:\n      mload(0x40)\n      dup1\n      swap2\n      sub\n      swap1\n      revert\n    tag_117:\n        /* \"custodian.sol\":3330:3334  true */\n      0x01\n        /* \"custodian.sol\":3288:3294  trades */\n      0x02\n        /* \"custodian.sol\":3288:3298  trades[id] */\n      0x00\n        /* \"custodian.sol\":3295:3297  id */\n      dup8\n        /* \"custodian.sol\":3288:3298  trades[id] */\n      dup2\n      mstore\n      0x20\n      add\n      swap1\n      dup2\n      mstore\n      0x20\n      add\n      0x00\n      keccak256\n        /* \"custodian.sol\":3288:3309  trades[id].marginCall */\n      0x09\n      add\n        /* \"custodian.sol\":3288:3329  trades[id].marginCall.marginCallTrigerred */\n      0x02\n      add\n      0x00\n        /* \"custodian.sol\":3288:3334  trades[id].marginCall.marginCallTrigerred=true */\n      0x0100\n      exp\n      dup2\n      sload\n      dup2\n      0xff\n      mul\n      not\n      and\n      swap1\n      dup4\n      iszero\n      iszero\n      mul\n      or\n      swap1\n      sstore\n      pop\n        /* \"custodian.sol\":3388:3403  block.timestamp */\n      timestamp\n        /* \"custodian.sol\":3344:3350  trades */\n      0x02\n        /* \"custodian.sol\":3344:3354  trades[id] */\n      0x00\n        /* \"custodian.sol\":3351:3353  id */\n      dup8\n        /* \"custodian.sol\":3344:3354  trades[id] */\n      dup2\n      mstore\n      0x20\n      add\n      swap1\n      dup2\n      mstore\n      0x20\n      add\n      0x00\n      keccak256\n        /* \"custodian.sol\":3344:3365  trades[id].marginCall */\n      0x09\n      add\n        /* \"custodian.sol\":3344:3387  trades[id].marginCall.timeMarginCallStarted */\n      0x01\n      add\n        /* \"custodian.sol\":3344:3403  trades[id].marginCall.timeMarginCallStarted=block.timestamp */\n      dup2\n      swap1\n      sstore\n      pop\n        /* \"custodian.sol\":3456:3476  collateralValueAsked */\n      dup4\n        /* \"custodian.sol\":3413:3419  trades */\n      0x02\n        /* \"custodian.sol\":3413:3423  trades[id] */\n      0x00\n        /* \"custodian.sol\":3420:3422  id */\n      dup8\n        /* \"custodian.sol\":3413:3423  trades[id] */\n      dup2\n      mstore\n      0x20\n      add\n      swap1\n      dup2\n      mstore\n      0x20\n      add\n      0x00\n      keccak256\n        /* \"custodian.sol\":3413:3434  trades[id].marginCall */\n      0x09\n      add\n        /* \"custodian.sol\":3413:3455  trades[id].marginCall.collateralValueAsked */\n      0x00\n      add\n        /* \"custodian.sol\":3413:3476  trades[id].marginCall.collateralValueAsked=collateralValueAsked */\n      dup2\n      swap1\n      sstore\n      pop\n        /* \"custodian.sol\":994:995  _ */\n      pop\n      pop\n        /* \"custodian.sol\":3165:3483  function issueMarginCall(uint id, uint  collateralValueAsked) public restricted(id) marginCallPermitted(id) {... */\n      pop\n      pop\n      pop\n      jump\t// out\n        /* \"custodian.sol\":2906:3159  function submitCashToBorrower(uint id) public restricted(id) fullyCollateralized(id,msg.value) payable {... */\n    tag_49:\n        /* \"custodian.sol\":2963:2965  id */\n      dup1\n        /* \"custodian.sol\":898:904  trades */\n      0x02\n        /* \"custodian.sol\":898:908  trades[id] */\n      0x00\n        /* \"custodian.sol\":905:907  id */\n      dup3\n        /* \"custodian.sol\":898:908  trades[id] */\n      dup2\n      mstore\n      0x20\n      add\n      swap1\n      dup2\n      mstore\n      0x20\n      add\n      0x00\n      keccak256\n        /* \"custodian.sol\":898:923  trades[id].borrowerAdress */\n      0x01\n      add\n      0x00\n      swap1\n      sload\n      swap1\n      0x0100\n      exp\n      swap1\n      div\n      0xffffffffffffffffffffffffffffffffffffffff\n      and\n        /* \"custodian.sol\":884:923  msg.sender == trades[id].borrowerAdress */\n      0xffffffffffffffffffffffffffffffffffffffff\n      and\n        /* \"custodian.sol\":884:894  msg.sender */\n      caller\n        /* \"custodian.sol\":884:923  msg.sender == trades[id].borrowerAdress */\n      0xffffffffffffffffffffffffffffffffffffffff\n      and\n      eq\n        /* \"custodian.sol\":884:964  msg.sender == trades[id].borrowerAdress || msg.sender == trades[id].lenderAdress */\n      dup1\n      tag_122\n      jumpi\n      pop\n        /* \"custodian.sol\":941:947  trades */\n      0x02\n        /* \"custodian.sol\":941:951  trades[id] */\n      0x00\n        /* \"custodian.sol\":948:950  id */\n      dup3\n        /* \"custodian.sol\":941:951  trades[id] */\n      dup2\n      mstore\n      0x20\n      add\n      swap1\n      dup2\n      mstore\n      0x20\n      add\n      0x00\n      keccak256\n        /* \"custodian.sol\":941:964  trades[id].lenderAdress */\n      0x02\n      add\n      0x00\n      swap1\n      sload\n      swap1\n      0x0100\n      exp\n      swap1\n      div\n      0xffffffffffffffffffffffffffffffffffffffff\n      and\n        /* \"custodian.sol\":927:964  msg.sender == trades[id].lenderAdress */\n      0xffffffffffffffffffffffffffffffffffffffff\n      and\n        /* \"custodian.sol\":927:937  msg.sender */\n      caller\n        /* \"custodian.sol\":927:964  msg.sender == trades[id].lenderAdress */\n      0xffffffffffffffffffffffffffffffffffffffff\n      and\n      eq\n        /* \"custodian.sol\":884:964  msg.sender == trades[id].borrowerAdress || msg.sender == trades[id].lenderAdress */\n    tag_122:\n        /* \"custodian.sol\":876:984  require(msg.sender == trades[id].borrowerAdress || msg.sender == trades[id].lenderAdress, \"privilege acces\") */\n      tag_123\n      jumpi\n      mload(0x40)\n      0x08c379a000000000000000000000000000000000000000000000000000000000\n      dup2\n      mstore\n      0x04\n      add\n      tag_124\n      swap1\n      tag_54\n      jump\t// in\n    tag_124:\n      mload(0x40)\n      dup1\n      swap2\n      sub\n      swap1\n      revert\n    tag_123:\n        /* \"custodian.sol\":2987:2989  id */\n      dup2\n        /* \"custodian.sol\":2990:2999  msg.value */\n      callvalue\n        /* \"custodian.sol\":1698:1719  valuateCollateral(id) */\n      tag_126\n        /* \"custodian.sol\":1716:1718  id */\n      dup3\n        /* \"custodian.sol\":1698:1715  valuateCollateral */\n      tag_29\n        /* \"custodian.sol\":1698:1719  valuateCollateral(id) */\n      jump\t// in\n    tag_126:\n        /* \"custodian.sol\":1693:1697  cash */\n      dup2\n        /* \"custodian.sol\":1693:1719  cash>valuateCollateral(id) */\n      gt\n        /* \"custodian.sol\":1685:1786  require(cash>valuateCollateral(id), \"Cash not fully collateralized,borrower can add more collateral\") */\n      tag_127\n      jumpi\n      mload(0x40)\n      0x08c379a000000000000000000000000000000000000000000000000000000000\n      dup2\n      mstore\n      0x04\n      add\n      tag_128\n      swap1\n      tag_129\n      jump\t// in\n    tag_128:\n      mload(0x40)\n      dup1\n      swap2\n      sub\n      swap1\n      revert\n    tag_127:\n        /* \"custodian.sol\":3019:3043  address payable borrower */\n      0x00\n        /* \"custodian.sol\":3045:3051  trades */\n      0x02\n        /* \"custodian.sol\":3045:3055  trades[id] */\n      0x00\n        /* \"custodian.sol\":3052:3054  id */\n      dup7\n        /* \"custodian.sol\":3045:3055  trades[id] */\n      dup2\n      mstore\n      0x20\n      add\n      swap1\n      dup2\n      mstore\n      0x20\n      add\n      0x00\n      keccak256\n        /* \"custodian.sol\":3045:3070  trades[id].borrowerAdress */\n      0x01\n      add\n      0x00\n      swap1\n      sload\n      swap1\n      0x0100\n      exp\n      swap1\n      div\n      0xffffffffffffffffffffffffffffffffffffffff\n      and\n        /* \"custodian.sol\":3019:3070  address payable borrower =trades[id].borrowerAdress */\n      swap1\n      pop\n        /* \"custodian.sol\":3105:3114  msg.value */\n      callvalue\n        /* \"custodian.sol\":3080:3086  trades */\n      0x02\n        /* \"custodian.sol\":3080:3090  trades[id] */\n      0x00\n        /* \"custodian.sol\":3087:3089  id */\n      dup8\n        /* \"custodian.sol\":3080:3090  trades[id] */\n      dup2\n      mstore\n      0x20\n      add\n      swap1\n      dup2\n      mstore\n      0x20\n      add\n      0x00\n      keccak256\n        /* \"custodian.sol\":3080:3103  trades[id].cashBorrowed */\n      0x03\n      add\n      0x00\n        /* \"custodian.sol\":3080:3114  trades[id].cashBorrowed+=msg.value */\n      dup3\n      dup3\n      sload\n      tag_131\n      swap2\n      swap1\n      tag_95\n      jump\t// in\n    tag_131:\n      swap3\n      pop\n      pop\n      dup2\n      swap1\n      sstore\n      pop\n        /* \"custodian.sol\":3124:3132  borrower */\n      dup1\n        /* \"custodian.sol\":3124:3141  borrower.transfer */\n      0xffffffffffffffffffffffffffffffffffffffff\n      and\n        /* \"custodian.sol\":3124:3152  borrower.transfer(msg.value) */\n      0x08fc\n        /* \"custodian.sol\":3142:3151  msg.value */\n      callvalue\n        /* \"custodian.sol\":3124:3152  borrower.transfer(msg.value) */\n      swap1\n      dup2\n      iszero\n      mul\n      swap1\n      mload(0x40)\n      0x00\n      mload(0x40)\n      dup1\n      dup4\n      sub\n      dup2\n      dup6\n      dup9\n      dup9\n      call\n      swap4\n      pop\n      pop\n      pop\n      pop\n      iszero\n      dup1\n      iszero\n      tag_133\n      jumpi\n      returndatasize\n      0x00\n      dup1\n      returndatacopy\n      revert(0x00, returndatasize)\n    tag_133:\n      pop\n        /* \"custodian.sol\":1796:1797  _ */\n      pop\n        /* \"custodian.sol\":994:995  _ */\n      pop\n      pop\n        /* \"custodian.sol\":2906:3159  function submitCashToBorrower(uint id) public restricted(id) fullyCollateralized(id,msg.value) payable {... */\n      pop\n      pop\n      jump\t// out\n        /* \"custodian.sol\":4102:4240  function random() private view returns (uint) {... */\n    tag_99:\n        /* \"custodian.sol\":4142:4146  uint */\n      0x00\n        /* \"custodian.sol\":4197:4213  block.difficulty */\n      difficulty\n        /* \"custodian.sol\":4215:4230  block.timestamp */\n      timestamp\n        /* \"custodian.sol\":4180:4231  abi.encodePacked(block.difficulty, block.timestamp) */\n      add(0x20, mload(0x40))\n      tag_135\n      swap3\n      swap2\n      swap1\n      tag_136\n      jump\t// in\n    tag_135:\n      mload(0x40)\n      0x20\n      dup2\n      dup4\n      sub\n      sub\n      dup2\n      mstore\n      swap1\n      0x40\n      mstore\n        /* \"custodian.sol\":4170:4232  keccak256(abi.encodePacked(block.difficulty, block.timestamp)) */\n      dup1\n      mload\n      swap1\n      0x20\n      add\n      keccak256\n        /* \"custodian.sol\":4165:4233  uint(keccak256(abi.encodePacked(block.difficulty, block.timestamp))) */\n      0x00\n      shr\n        /* \"custodian.sol\":4158:4233  return uint(keccak256(abi.encodePacked(block.difficulty, block.timestamp))) */\n      swap1\n      pop\n        /* \"custodian.sol\":4102:4240  function random() private view returns (uint) {... */\n      swap1\n      jump\t// out\n    tag_74:\n      dup3\n      dup1\n      sload\n      tag_137\n      swap1\n      tag_138\n      jump\t// in\n    tag_137:\n      swap1\n      0x00\n      mstore\n      keccak256(0x00, 0x20)\n      swap1\n      0x1f\n      add\n      0x20\n      swap1\n      div\n      dup2\n      add\n      swap3\n      dup3\n      tag_140\n      jumpi\n      0x00\n      dup6\n      sstore\n      jump(tag_139)\n    tag_140:\n      dup3\n      0x1f\n      lt\n      tag_141\n      jumpi\n      dup1\n      mload\n      not(0xff)\n      and\n      dup4\n      dup1\n      add\n      or\n      dup6\n      sstore\n      jump(tag_139)\n    tag_141:\n      dup3\n      dup1\n      add\n      0x01\n      add\n      dup6\n      sstore\n      dup3\n      iszero\n      tag_139\n      jumpi\n      swap2\n      dup3\n      add\n    tag_142:\n      dup3\n      dup2\n      gt\n      iszero\n      tag_143\n      jumpi\n      dup3\n      mload\n      dup3\n      sstore\n      swap2\n      0x20\n      add\n      swap2\n      swap1\n      0x01\n      add\n      swap1\n      jump(tag_142)\n    tag_143:\n    tag_139:\n      pop\n      swap1\n      pop\n      tag_144\n      swap2\n      swap1\n      tag_145\n      jump\t// in\n    tag_144:\n      pop\n      swap1\n      jump\t// out\n    tag_145:\n    tag_146:\n      dup1\n      dup3\n      gt\n      iszero\n      tag_147\n      jumpi\n      0x00\n      dup2\n      0x00\n      swap1\n      sstore\n      pop\n      0x01\n      add\n      jump(tag_146)\n    tag_147:\n      pop\n      swap1\n      jump\t// out\n        /* \"#utility.yul\":7:351   */\n    tag_149:\n      0x00\n        /* \"#utility.yul\":110:175   */\n      tag_151\n        /* \"#utility.yul\":125:174   */\n      tag_152\n        /* \"#utility.yul\":167:173   */\n      dup5\n        /* \"#utility.yul\":125:174   */\n      tag_153\n      jump\t// in\n    tag_152:\n        /* \"#utility.yul\":110:175   */\n      tag_154\n      jump\t// in\n    tag_151:\n        /* \"#utility.yul\":101:175   */\n      swap1\n      pop\n        /* \"#utility.yul\":198:204   */\n      dup3\n        /* \"#utility.yul\":191:196   */\n      dup2\n        /* \"#utility.yul\":184:205   */\n      mstore\n        /* \"#utility.yul\":236:240   */\n      0x20\n        /* \"#utility.yul\":229:234   */\n      dup2\n        /* \"#utility.yul\":225:241   */\n      add\n        /* \"#utility.yul\":274:277   */\n      dup5\n        /* \"#utility.yul\":265:271   */\n      dup5\n        /* \"#utility.yul\":260:263   */\n      dup5\n        /* \"#utility.yul\":256:272   */\n      add\n        /* \"#utility.yul\":253:278   */\n      gt\n        /* \"#utility.yul\":250:252   */\n      iszero\n      tag_155\n      jumpi\n        /* \"#utility.yul\":291:292   */\n      0x00\n        /* \"#utility.yul\":288:289   */\n      dup1\n        /* \"#utility.yul\":281:293   */\n      revert\n        /* \"#utility.yul\":250:252   */\n    tag_155:\n        /* \"#utility.yul\":304:345   */\n      tag_156\n        /* \"#utility.yul\":338:344   */\n      dup5\n        /* \"#utility.yul\":333:336   */\n      dup3\n        /* \"#utility.yul\":328:331   */\n      dup6\n        /* \"#utility.yul\":304:345   */\n      tag_157\n      jump\t// in\n    tag_156:\n        /* \"#utility.yul\":91:351   */\n      pop\n      swap4\n      swap3\n      pop\n      pop\n      pop\n      jump\t// out\n        /* \"#utility.yul\":357:512   */\n    tag_158:\n      0x00\n        /* \"#utility.yul\":449:455   */\n      dup2\n        /* \"#utility.yul\":436:456   */\n      calldataload\n        /* \"#utility.yul\":427:456   */\n      swap1\n      pop\n        /* \"#utility.yul\":465:506   */\n      tag_160\n        /* \"#utility.yul\":500:505   */\n      dup2\n        /* \"#utility.yul\":465:506   */\n      tag_161\n      jump\t// in\n    tag_160:\n        /* \"#utility.yul\":417:512   */\n      swap3\n      swap2\n      pop\n      pop\n      jump\t// out\n        /* \"#utility.yul\":518:651   */\n    tag_162:\n      0x00\n        /* \"#utility.yul\":599:605   */\n      dup2\n        /* \"#utility.yul\":586:606   */\n      calldataload\n        /* \"#utility.yul\":577:606   */\n      swap1\n      pop\n        /* \"#utility.yul\":615:645   */\n      tag_164\n        /* \"#utility.yul\":639:644   */\n      dup2\n        /* \"#utility.yul\":615:645   */\n      tag_165\n      jump\t// in\n    tag_164:\n        /* \"#utility.yul\":567:651   */\n      swap3\n      swap2\n      pop\n      pop\n      jump\t// out\n        /* \"#utility.yul\":671:944   */\n    tag_166:\n      0x00\n        /* \"#utility.yul\":776:779   */\n      dup3\n        /* \"#utility.yul\":769:773   */\n      0x1f\n        /* \"#utility.yul\":761:767   */\n      dup4\n        /* \"#utility.yul\":757:774   */\n      add\n        /* \"#utility.yul\":753:780   */\n      slt\n        /* \"#utility.yul\":743:745   */\n      tag_168\n      jumpi\n        /* \"#utility.yul\":794:795   */\n      0x00\n        /* \"#utility.yul\":791:792   */\n      dup1\n        /* \"#utility.yul\":784:796   */\n      revert\n        /* \"#utility.yul\":743:745   */\n    tag_168:\n        /* \"#utility.yul\":834:840   */\n      dup2\n        /* \"#utility.yul\":821:841   */\n      calldataload\n        /* \"#utility.yul\":859:938   */\n      tag_169\n        /* \"#utility.yul\":934:937   */\n      dup5\n        /* \"#utility.yul\":926:932   */\n      dup3\n        /* \"#utility.yul\":919:923   */\n      0x20\n        /* \"#utility.yul\":911:917   */\n      dup7\n        /* \"#utility.yul\":907:924   */\n      add\n        /* \"#utility.yul\":859:938   */\n      tag_149\n      jump\t// in\n    tag_169:\n        /* \"#utility.yul\":850:938   */\n      swap2\n      pop\n        /* \"#utility.yul\":733:944   */\n      pop\n      swap3\n      swap2\n      pop\n      pop\n      jump\t// out\n        /* \"#utility.yul\":985:1924   */\n    tag_170:\n      0x00\n        /* \"#utility.yul\":1104:1108   */\n      0x80\n        /* \"#utility.yul\":1092:1101   */\n      dup3\n        /* \"#utility.yul\":1087:1090   */\n      dup5\n        /* \"#utility.yul\":1083:1102   */\n      sub\n        /* \"#utility.yul\":1079:1109   */\n      slt\n        /* \"#utility.yul\":1076:1078   */\n      iszero\n      tag_172\n      jumpi\n        /* \"#utility.yul\":1122:1123   */\n      0x00\n        /* \"#utility.yul\":1119:1120   */\n      dup1\n        /* \"#utility.yul\":1112:1124   */\n      revert\n        /* \"#utility.yul\":1076:1078   */\n    tag_172:\n        /* \"#utility.yul\":1144:1164   */\n      tag_173\n        /* \"#utility.yul\":1159:1163   */\n      0x80\n        /* \"#utility.yul\":1144:1164   */\n      tag_154\n      jump\t// in\n    tag_173:\n        /* \"#utility.yul\":1135:1164   */\n      swap1\n      pop\n        /* \"#utility.yul\":1252:1253   */\n      0x00\n        /* \"#utility.yul\":1241:1250   */\n      dup3\n        /* \"#utility.yul\":1237:1254   */\n      add\n        /* \"#utility.yul\":1224:1255   */\n      calldataload\n        /* \"#utility.yul\":1282:1300   */\n      0xffffffffffffffff\n        /* \"#utility.yul\":1274:1280   */\n      dup2\n        /* \"#utility.yul\":1271:1301   */\n      gt\n        /* \"#utility.yul\":1268:1270   */\n      iszero\n      tag_174\n      jumpi\n        /* \"#utility.yul\":1314:1315   */\n      0x00\n        /* \"#utility.yul\":1311:1312   */\n      dup1\n        /* \"#utility.yul\":1304:1316   */\n      revert\n        /* \"#utility.yul\":1268:1270   */\n    tag_174:\n        /* \"#utility.yul\":1357:1416   */\n      tag_175\n        /* \"#utility.yul\":1412:1415   */\n      dup5\n        /* \"#utility.yul\":1403:1409   */\n      dup3\n        /* \"#utility.yul\":1392:1401   */\n      dup6\n        /* \"#utility.yul\":1388:1410   */\n      add\n        /* \"#utility.yul\":1357:1416   */\n      tag_166\n      jump\t// in\n    tag_175:\n        /* \"#utility.yul\":1350:1354   */\n      0x00\n        /* \"#utility.yul\":1343:1348   */\n      dup4\n        /* \"#utility.yul\":1339:1355   */\n      add\n        /* \"#utility.yul\":1332:1417   */\n      mstore\n        /* \"#utility.yul\":1174:1428   */\n      pop\n        /* \"#utility.yul\":1488:1490   */\n      0x20\n        /* \"#utility.yul\":1529:1578   */\n      tag_176\n        /* \"#utility.yul\":1574:1577   */\n      dup5\n        /* \"#utility.yul\":1565:1571   */\n      dup3\n        /* \"#utility.yul\":1554:1563   */\n      dup6\n        /* \"#utility.yul\":1550:1572   */\n      add\n        /* \"#utility.yul\":1529:1578   */\n      tag_177\n      jump\t// in\n    tag_176:\n        /* \"#utility.yul\":1522:1526   */\n      0x20\n        /* \"#utility.yul\":1515:1520   */\n      dup4\n        /* \"#utility.yul\":1511:1527   */\n      add\n        /* \"#utility.yul\":1504:1579   */\n      mstore\n        /* \"#utility.yul\":1438:1590   */\n      pop\n        /* \"#utility.yul\":1653:1655   */\n      0x40\n        /* \"#utility.yul\":1694:1743   */\n      tag_178\n        /* \"#utility.yul\":1739:1742   */\n      dup5\n        /* \"#utility.yul\":1730:1736   */\n      dup3\n        /* \"#utility.yul\":1719:1728   */\n      dup6\n        /* \"#utility.yul\":1715:1737   */\n      add\n        /* \"#utility.yul\":1694:1743   */\n      tag_177\n      jump\t// in\n    tag_178:\n        /* \"#utility.yul\":1687:1691   */\n      0x40\n        /* \"#utility.yul\":1680:1685   */\n      dup4\n        /* \"#utility.yul\":1676:1692   */\n      add\n        /* \"#utility.yul\":1669:1744   */\n      mstore\n        /* \"#utility.yul\":1600:1755   */\n      pop\n        /* \"#utility.yul\":1815:1817   */\n      0x60\n        /* \"#utility.yul\":1856:1905   */\n      tag_179\n        /* \"#utility.yul\":1901:1904   */\n      dup5\n        /* \"#utility.yul\":1892:1898   */\n      dup3\n        /* \"#utility.yul\":1881:1890   */\n      dup6\n        /* \"#utility.yul\":1877:1899   */\n      add\n        /* \"#utility.yul\":1856:1905   */\n      tag_177\n      jump\t// in\n    tag_179:\n        /* \"#utility.yul\":1849:1853   */\n      0x60\n        /* \"#utility.yul\":1842:1847   */\n      dup4\n        /* \"#utility.yul\":1838:1854   */\n      add\n        /* \"#utility.yul\":1831:1906   */\n      mstore\n        /* \"#utility.yul\":1765:1917   */\n      pop\n        /* \"#utility.yul\":1066:1924   */\n      swap3\n      swap2\n      pop\n      pop\n      jump\t// out\n        /* \"#utility.yul\":1930:2069   */\n    tag_177:\n      0x00\n        /* \"#utility.yul\":2014:2020   */\n      dup2\n        /* \"#utility.yul\":2001:2021   */\n      calldataload\n        /* \"#utility.yul\":1992:2021   */\n      swap1\n      pop\n        /* \"#utility.yul\":2030:2063   */\n      tag_181\n        /* \"#utility.yul\":2057:2062   */\n      dup2\n        /* \"#utility.yul\":2030:2063   */\n      tag_182\n      jump\t// in\n    tag_181:\n        /* \"#utility.yul\":1982:2069   */\n      swap3\n      swap2\n      pop\n      pop\n      jump\t// out\n        /* \"#utility.yul\":2075:3097   */\n    tag_35:\n      0x00\n      dup1\n      0x00\n      dup1\n      0x00\n      dup1\n        /* \"#utility.yul\":2284:2287   */\n      0xc0\n        /* \"#utility.yul\":2272:2281   */\n      dup8\n        /* \"#utility.yul\":2263:2270   */\n      dup10\n        /* \"#utility.yul\":2259:2282   */\n      sub\n        /* \"#utility.yul\":2255:2288   */\n      slt\n        /* \"#utility.yul\":2252:2254   */\n      iszero\n      tag_184\n      jumpi\n        /* \"#utility.yul\":2301:2302   */\n      0x00\n        /* \"#utility.yul\":2298:2299   */\n      dup1\n        /* \"#utility.yul\":2291:2303   */\n      revert\n        /* \"#utility.yul\":2252:2254   */\n    tag_184:\n        /* \"#utility.yul\":2344:2345   */\n      0x00\n        /* \"#utility.yul\":2369:2430   */\n      tag_185\n        /* \"#utility.yul\":2422:2429   */\n      dup10\n        /* \"#utility.yul\":2413:2419   */\n      dup3\n        /* \"#utility.yul\":2402:2411   */\n      dup11\n        /* \"#utility.yul\":2398:2420   */\n      add\n        /* \"#utility.yul\":2369:2430   */\n      tag_158\n      jump\t// in\n    tag_185:\n        /* \"#utility.yul\":2359:2430   */\n      swap7\n      pop\n        /* \"#utility.yul\":2315:2440   */\n      pop\n        /* \"#utility.yul\":2479:2481   */\n      0x20\n        /* \"#utility.yul\":2505:2566   */\n      tag_186\n        /* \"#utility.yul\":2558:2565   */\n      dup10\n        /* \"#utility.yul\":2549:2555   */\n      dup3\n        /* \"#utility.yul\":2538:2547   */\n      dup11\n        /* \"#utility.yul\":2534:2556   */\n      add\n        /* \"#utility.yul\":2505:2566   */\n      tag_158\n      jump\t// in\n    tag_186:\n        /* \"#utility.yul\":2495:2566   */\n      swap6\n      pop\n        /* \"#utility.yul\":2450:2576   */\n      pop\n        /* \"#utility.yul\":2615:2617   */\n      0x40\n        /* \"#utility.yul\":2641:2694   */\n      tag_187\n        /* \"#utility.yul\":2686:2693   */\n      dup10\n        /* \"#utility.yul\":2677:2683   */\n      dup3\n        /* \"#utility.yul\":2666:2675   */\n      dup11\n        /* \"#utility.yul\":2662:2684   */\n      add\n        /* \"#utility.yul\":2641:2694   */\n      tag_177\n      jump\t// in\n    tag_187:\n        /* \"#utility.yul\":2631:2694   */\n      swap5\n      pop\n        /* \"#utility.yul\":2586:2704   */\n      pop\n        /* \"#utility.yul\":2743:2745   */\n      0x60\n        /* \"#utility.yul\":2769:2822   */\n      tag_188\n        /* \"#utility.yul\":2814:2821   */\n      dup10\n        /* \"#utility.yul\":2805:2811   */\n      dup3\n        /* \"#utility.yul\":2794:2803   */\n      dup11\n        /* \"#utility.yul\":2790:2812   */\n      add\n        /* \"#utility.yul\":2769:2822   */\n      tag_177\n      jump\t// in\n    tag_188:\n        /* \"#utility.yul\":2759:2822   */\n      swap4\n      pop\n        /* \"#utility.yul\":2714:2832   */\n      pop\n        /* \"#utility.yul\":2871:2874   */\n      0x80\n        /* \"#utility.yul\":2898:2951   */\n      tag_189\n        /* \"#utility.yul\":2943:2950   */\n      dup10\n        /* \"#utility.yul\":2934:2940   */\n      dup3\n        /* \"#utility.yul\":2923:2932   */\n      dup11\n        /* \"#utility.yul\":2919:2941   */\n      add\n        /* \"#utility.yul\":2898:2951   */\n      tag_177\n      jump\t// in\n    tag_189:\n        /* \"#utility.yul\":2888:2951   */\n      swap3\n      pop\n        /* \"#utility.yul\":2842:2961   */\n      pop\n        /* \"#utility.yul\":3000:3003   */\n      0xa0\n        /* \"#utility.yul\":3027:3080   */\n      tag_190\n        /* \"#utility.yul\":3072:3079   */\n      dup10\n        /* \"#utility.yul\":3063:3069   */\n      dup3\n        /* \"#utility.yul\":3052:3061   */\n      dup11\n        /* \"#utility.yul\":3048:3070   */\n      add\n        /* \"#utility.yul\":3027:3080   */\n      tag_177\n      jump\t// in\n    tag_190:\n        /* \"#utility.yul\":3017:3080   */\n      swap2\n      pop\n        /* \"#utility.yul\":2971:3090   */\n      pop\n        /* \"#utility.yul\":2242:3097   */\n      swap3\n      swap6\n      pop\n      swap3\n      swap6\n      pop\n      swap3\n      swap6\n      jump\t// out\n        /* \"#utility.yul\":3103:3504   */\n    tag_40:\n      0x00\n      dup1\n        /* \"#utility.yul\":3225:3227   */\n      0x40\n        /* \"#utility.yul\":3213:3222   */\n      dup4\n        /* \"#utility.yul\":3204:3211   */\n      dup6\n        /* \"#utility.yul\":3200:3223   */\n      sub\n        /* \"#utility.yul\":3196:3228   */\n      slt\n        /* \"#utility.yul\":3193:3195   */\n      iszero\n      tag_192\n      jumpi\n        /* \"#utility.yul\":3241:3242   */\n      0x00\n        /* \"#utility.yul\":3238:3239   */\n      dup1\n        /* \"#utility.yul\":3231:3243   */\n      revert\n        /* \"#utility.yul\":3193:3195   */\n    tag_192:\n        /* \"#utility.yul\":3284:3285   */\n      0x00\n        /* \"#utility.yul\":3309:3359   */\n      tag_193\n        /* \"#utility.yul\":3351:3358   */\n      dup6\n        /* \"#utility.yul\":3342:3348   */\n      dup3\n        /* \"#utility.yul\":3331:3340   */\n      dup7\n        /* \"#utility.yul\":3327:3349   */\n      add\n        /* \"#utility.yul\":3309:3359   */\n      tag_162\n      jump\t// in\n    tag_193:\n        /* \"#utility.yul\":3299:3359   */\n      swap3\n      pop\n        /* \"#utility.yul\":3255:3369   */\n      pop\n        /* \"#utility.yul\":3408:3410   */\n      0x20\n        /* \"#utility.yul\":3434:3487   */\n      tag_194\n        /* \"#utility.yul\":3479:3486   */\n      dup6\n        /* \"#utility.yul\":3470:3476   */\n      dup3\n        /* \"#utility.yul\":3459:3468   */\n      dup7\n        /* \"#utility.yul\":3455:3477   */\n      add\n        /* \"#utility.yul\":3434:3487   */\n      tag_177\n      jump\t// in\n    tag_194:\n        /* \"#utility.yul\":3424:3487   */\n      swap2\n      pop\n        /* \"#utility.yul\":3379:3497   */\n      pop\n        /* \"#utility.yul\":3183:3504   */\n      swap3\n      pop\n      swap3\n      swap1\n      pop\n      jump\t// out\n        /* \"#utility.yul\":3510:4062   */\n    tag_24:\n      0x00\n      dup1\n        /* \"#utility.yul\":3661:3663   */\n      0x40\n        /* \"#utility.yul\":3649:3658   */\n      dup4\n        /* \"#utility.yul\":3640:3647   */\n      dup6\n        /* \"#utility.yul\":3636:3659   */\n      sub\n        /* \"#utility.yul\":3632:3664   */\n      slt\n        /* \"#utility.yul\":3629:3631   */\n      iszero\n      tag_196\n      jumpi\n        /* \"#utility.yul\":3677:3678   */\n      0x00\n        /* \"#utility.yul\":3674:3675   */\n      dup1\n        /* \"#utility.yul\":3667:3679   */\n      revert\n        /* \"#utility.yul\":3629:3631   */\n    tag_196:\n        /* \"#utility.yul\":3748:3749   */\n      0x00\n        /* \"#utility.yul\":3737:3746   */\n      dup4\n        /* \"#utility.yul\":3733:3750   */\n      add\n        /* \"#utility.yul\":3720:3751   */\n      calldataload\n        /* \"#utility.yul\":3778:3796   */\n      0xffffffffffffffff\n        /* \"#utility.yul\":3770:3776   */\n      dup2\n        /* \"#utility.yul\":3767:3797   */\n      gt\n        /* \"#utility.yul\":3764:3766   */\n      iszero\n      tag_197\n      jumpi\n        /* \"#utility.yul\":3810:3811   */\n      0x00\n        /* \"#utility.yul\":3807:3808   */\n      dup1\n        /* \"#utility.yul\":3800:3812   */\n      revert\n        /* \"#utility.yul\":3764:3766   */\n    tag_197:\n        /* \"#utility.yul\":3838:3917   */\n      tag_198\n        /* \"#utility.yul\":3909:3916   */\n      dup6\n        /* \"#utility.yul\":3900:3906   */\n      dup3\n        /* \"#utility.yul\":3889:3898   */\n      dup7\n        /* \"#utility.yul\":3885:3907   */\n      add\n        /* \"#utility.yul\":3838:3917   */\n      tag_170\n      jump\t// in\n    tag_198:\n        /* \"#utility.yul\":3828:3917   */\n      swap3\n      pop\n        /* \"#utility.yul\":3691:3927   */\n      pop\n        /* \"#utility.yul\":3966:3968   */\n      0x20\n        /* \"#utility.yul\":3992:4045   */\n      tag_199\n        /* \"#utility.yul\":4037:4044   */\n      dup6\n        /* \"#utility.yul\":4028:4034   */\n      dup3\n        /* \"#utility.yul\":4017:4026   */\n      dup7\n        /* \"#utility.yul\":4013:4035   */\n      add\n        /* \"#utility.yul\":3992:4045   */\n      tag_177\n      jump\t// in\n    tag_199:\n        /* \"#utility.yul\":3982:4045   */\n      swap2\n      pop\n        /* \"#utility.yul\":3937:4055   */\n      pop\n        /* \"#utility.yul\":3619:4062   */\n      swap3\n      pop\n      swap3\n      swap1\n      pop\n      jump\t// out\n        /* \"#utility.yul\":4068:4330   */\n    tag_14:\n      0x00\n        /* \"#utility.yul\":4176:4178   */\n      0x20\n        /* \"#utility.yul\":4164:4173   */\n      dup3\n        /* \"#utility.yul\":4155:4162   */\n      dup5\n        /* \"#utility.yul\":4151:4174   */\n      sub\n        /* \"#utility.yul\":4147:4179   */\n      slt\n        /* \"#utility.yul\":4144:4146   */\n      iszero\n      tag_201\n      jumpi\n        /* \"#utility.yul\":4192:4193   */\n      0x00\n        /* \"#utility.yul\":4189:4190   */\n      dup1\n        /* \"#utility.yul\":4182:4194   */\n      revert\n        /* \"#utility.yul\":4144:4146   */\n    tag_201:\n        /* \"#utility.yul\":4235:4236   */\n      0x00\n        /* \"#utility.yul\":4260:4313   */\n      tag_202\n        /* \"#utility.yul\":4305:4312   */\n      dup5\n        /* \"#utility.yul\":4296:4302   */\n      dup3\n        /* \"#utility.yul\":4285:4294   */\n      dup6\n        /* \"#utility.yul\":4281:4303   */\n      add\n        /* \"#utility.yul\":4260:4313   */\n      tag_177\n      jump\t// in\n    tag_202:\n        /* \"#utility.yul\":4250:4313   */\n      swap2\n      pop\n        /* \"#utility.yul\":4206:4323   */\n      pop\n        /* \"#utility.yul\":4134:4330   */\n      swap3\n      swap2\n      pop\n      pop\n      jump\t// out\n        /* \"#utility.yul\":4336:4743   */\n    tag_45:\n      0x00\n      dup1\n        /* \"#utility.yul\":4461:4463   */\n      0x40\n        /* \"#utility.yul\":4449:4458   */\n      dup4\n        /* \"#utility.yul\":4440:4447   */\n      dup6\n        /* \"#utility.yul\":4436:4459   */\n      sub\n        /* \"#utility.yul\":4432:4464   */\n      slt\n        /* \"#utility.yul\":4429:4431   */\n      iszero\n      tag_204\n      jumpi\n        /* \"#utility.yul\":4477:4478   */\n      0x00\n        /* \"#utility.yul\":4474:4475   */\n      dup1\n        /* \"#utility.yul\":4467:4479   */\n      revert\n        /* \"#utility.yul\":4429:4431   */\n    tag_204:\n        /* \"#utility.yul\":4520:4521   */\n      0x00\n        /* \"#utility.yul\":4545:4598   */\n      tag_205\n        /* \"#utility.yul\":4590:4597   */\n      dup6\n        /* \"#utility.yul\":4581:4587   */\n      dup3\n        /* \"#utility.yul\":4570:4579   */\n      dup7\n        /* \"#utility.yul\":4566:4588   */\n      add\n        /* \"#utility.yul\":4545:4598   */\n      tag_177\n      jump\t// in\n    tag_205:\n        /* \"#utility.yul\":4535:4598   */\n      swap3\n      pop\n        /* \"#utility.yul\":4491:4608   */\n      pop\n        /* \"#utility.yul\":4647:4649   */\n      0x20\n        /* \"#utility.yul\":4673:4726   */\n      tag_206\n        /* \"#utility.yul\":4718:4725   */\n      dup6\n        /* \"#utility.yul\":4709:4715   */\n      dup3\n        /* \"#utility.yul\":4698:4707   */\n      dup7\n        /* \"#utility.yul\":4694:4716   */\n      add\n        /* \"#utility.yul\":4673:4726   */\n      tag_177\n      jump\t// in\n    tag_206:\n        /* \"#utility.yul\":4663:4726   */\n      swap2\n      pop\n        /* \"#utility.yul\":4618:4736   */\n      pop\n        /* \"#utility.yul\":4419:4743   */\n      swap3\n      pop\n      swap3\n      swap1\n      pop\n      jump\t// out\n        /* \"#utility.yul\":4749:4891   */\n    tag_207:\n        /* \"#utility.yul\":4852:4884   */\n      tag_209\n        /* \"#utility.yul\":4878:4883   */\n      dup2\n        /* \"#utility.yul\":4852:4884   */\n      tag_210\n      jump\t// in\n    tag_209:\n        /* \"#utility.yul\":4847:4850   */\n      dup3\n        /* \"#utility.yul\":4840:4885   */\n      mstore\n        /* \"#utility.yul\":4830:4891   */\n      pop\n      pop\n      jump\t// out\n        /* \"#utility.yul\":4897:4996   */\n    tag_211:\n        /* \"#utility.yul\":4968:4989   */\n      tag_213\n        /* \"#utility.yul\":4983:4988   */\n      dup2\n        /* \"#utility.yul\":4968:4989   */\n      tag_214\n      jump\t// in\n    tag_213:\n        /* \"#utility.yul\":4963:4966   */\n      dup3\n        /* \"#utility.yul\":4956:4990   */\n      mstore\n        /* \"#utility.yul\":4946:4996   */\n      pop\n      pop\n      jump\t// out\n        /* \"#utility.yul\":5002:5111   */\n    tag_215:\n        /* \"#utility.yul\":5083:5104   */\n      tag_217\n        /* \"#utility.yul\":5098:5103   */\n      dup2\n        /* \"#utility.yul\":5083:5104   */\n      tag_214\n      jump\t// in\n    tag_217:\n        /* \"#utility.yul\":5078:5081   */\n      dup3\n        /* \"#utility.yul\":5071:5105   */\n      mstore\n        /* \"#utility.yul\":5061:5111   */\n      pop\n      pop\n      jump\t// out\n        /* \"#utility.yul\":5117:5430   */\n    tag_218:\n      0x00\n        /* \"#utility.yul\":5280:5347   */\n      tag_220\n        /* \"#utility.yul\":5344:5346   */\n      0x0f\n        /* \"#utility.yul\":5339:5342   */\n      dup4\n        /* \"#utility.yul\":5280:5347   */\n      tag_221\n      jump\t// in\n    tag_220:\n        /* \"#utility.yul\":5273:5347   */\n      swap2\n      pop\n        /* \"#utility.yul\":5377:5394   */\n      0x70726976696c6567652061636365730000000000000000000000000000000000\n        /* \"#utility.yul\":5373:5374   */\n      0x00\n        /* \"#utility.yul\":5368:5371   */\n      dup4\n        /* \"#utility.yul\":5364:5375   */\n      add\n        /* \"#utility.yul\":5357:5395   */\n      mstore\n        /* \"#utility.yul\":5421:5423   */\n      0x20\n        /* \"#utility.yul\":5416:5419   */\n      dup3\n        /* \"#utility.yul\":5412:5424   */\n      add\n        /* \"#utility.yul\":5405:5424   */\n      swap1\n      pop\n        /* \"#utility.yul\":5263:5430   */\n      swap2\n      swap1\n      pop\n      jump\t// out\n        /* \"#utility.yul\":5436:5761   */\n    tag_222:\n      0x00\n        /* \"#utility.yul\":5599:5666   */\n      tag_224\n        /* \"#utility.yul\":5663:5665   */\n      0x1b\n        /* \"#utility.yul\":5658:5661   */\n      dup4\n        /* \"#utility.yul\":5599:5666   */\n      tag_221\n      jump\t// in\n    tag_224:\n        /* \"#utility.yul\":5592:5666   */\n      swap2\n      pop\n        /* \"#utility.yul\":5696:5725   */\n      0x636f6c6c61746572616c206973206e6f74207065726d69747465640000000000\n        /* \"#utility.yul\":5692:5693   */\n      0x00\n        /* \"#utility.yul\":5687:5690   */\n      dup4\n        /* \"#utility.yul\":5683:5694   */\n      add\n        /* \"#utility.yul\":5676:5726   */\n      mstore\n        /* \"#utility.yul\":5752:5754   */\n      0x20\n        /* \"#utility.yul\":5747:5750   */\n      dup3\n        /* \"#utility.yul\":5743:5755   */\n      add\n        /* \"#utility.yul\":5736:5755   */\n      swap1\n      pop\n        /* \"#utility.yul\":5582:5761   */\n      swap2\n      swap1\n      pop\n      jump\t// out\n        /* \"#utility.yul\":5767:6133   */\n    tag_225:\n      0x00\n        /* \"#utility.yul\":5930:5997   */\n      tag_227\n        /* \"#utility.yul\":5994:5996   */\n      0x22\n        /* \"#utility.yul\":5989:5992   */\n      dup4\n        /* \"#utility.yul\":5930:5997   */\n      tag_221\n      jump\t// in\n    tag_227:\n        /* \"#utility.yul\":5923:5997   */\n      swap2\n      pop\n        /* \"#utility.yul\":6027:6061   */\n      0x7472616465206e6f7420617070726f76656420627920626f7468207061727469\n        /* \"#utility.yul\":6023:6024   */\n      0x00\n        /* \"#utility.yul\":6018:6021   */\n      dup4\n        /* \"#utility.yul\":6014:6025   */\n      add\n        /* \"#utility.yul\":6007:6062   */\n      mstore\n        /* \"#utility.yul\":6093:6097   */\n      0x6573000000000000000000000000000000000000000000000000000000000000\n        /* \"#utility.yul\":6088:6090   */\n      0x20\n        /* \"#utility.yul\":6083:6086   */\n      dup4\n        /* \"#utility.yul\":6079:6091   */\n      add\n        /* \"#utility.yul\":6072:6098   */\n      mstore\n        /* \"#utility.yul\":6124:6126   */\n      0x40\n        /* \"#utility.yul\":6119:6122   */\n      dup3\n        /* \"#utility.yul\":6115:6127   */\n      add\n        /* \"#utility.yul\":6108:6127   */\n      swap1\n      pop\n        /* \"#utility.yul\":5913:6133   */\n      swap2\n      swap1\n      pop\n      jump\t// out\n        /* \"#utility.yul\":6139:6524   */\n    tag_228:\n      0x00\n        /* \"#utility.yul\":6302:6369   */\n      tag_230\n        /* \"#utility.yul\":6366:6368   */\n      0x35\n        /* \"#utility.yul\":6361:6364   */\n      dup4\n        /* \"#utility.yul\":6302:6369   */\n      tag_221\n      jump\t// in\n    tag_230:\n        /* \"#utility.yul\":6295:6369   */\n      swap2\n      pop\n        /* \"#utility.yul\":6399:6433   */\n      0x6d617267696e2063616c6c20646f6573206e6f74206d65657420746865206d61\n        /* \"#utility.yul\":6395:6396   */\n      0x00\n        /* \"#utility.yul\":6390:6393   */\n      dup4\n        /* \"#utility.yul\":6386:6397   */\n      add\n        /* \"#utility.yul\":6379:6434   */\n      mstore\n        /* \"#utility.yul\":6465:6488   */\n      0x696e74656e616e6365206d617267696e2072756c650000000000000000000000\n        /* \"#utility.yul\":6460:6462   */\n      0x20\n        /* \"#utility.yul\":6455:6458   */\n      dup4\n        /* \"#utility.yul\":6451:6463   */\n      add\n        /* \"#utility.yul\":6444:6489   */\n      mstore\n        /* \"#utility.yul\":6515:6517   */\n      0x40\n        /* \"#utility.yul\":6510:6513   */\n      dup3\n        /* \"#utility.yul\":6506:6518   */\n      add\n        /* \"#utility.yul\":6499:6518   */\n      swap1\n      pop\n        /* \"#utility.yul\":6285:6524   */\n      swap2\n      swap1\n      pop\n      jump\t// out\n        /* \"#utility.yul\":6530:6924   */\n    tag_231:\n      0x00\n        /* \"#utility.yul\":6693:6760   */\n      tag_233\n        /* \"#utility.yul\":6757:6759   */\n      0x3e\n        /* \"#utility.yul\":6752:6755   */\n      dup4\n        /* \"#utility.yul\":6693:6760   */\n      tag_221\n      jump\t// in\n    tag_233:\n        /* \"#utility.yul\":6686:6760   */\n      swap2\n      pop\n        /* \"#utility.yul\":6790:6824   */\n      0x43617368206e6f742066756c6c7920636f6c6c61746572616c697a65642c626f\n        /* \"#utility.yul\":6786:6787   */\n      0x00\n        /* \"#utility.yul\":6781:6784   */\n      dup4\n        /* \"#utility.yul\":6777:6788   */\n      add\n        /* \"#utility.yul\":6770:6825   */\n      mstore\n        /* \"#utility.yul\":6856:6888   */\n      0x72726f7765722063616e20616464206d6f726520636f6c6c61746572616c0000\n        /* \"#utility.yul\":6851:6853   */\n      0x20\n        /* \"#utility.yul\":6846:6849   */\n      dup4\n        /* \"#utility.yul\":6842:6854   */\n      add\n        /* \"#utility.yul\":6835:6889   */\n      mstore\n        /* \"#utility.yul\":6915:6917   */\n      0x40\n        /* \"#utility.yul\":6910:6913   */\n      dup3\n        /* \"#utility.yul\":6906:6918   */\n      add\n        /* \"#utility.yul\":6899:6918   */\n      swap1\n      pop\n        /* \"#utility.yul\":6676:6924   */\n      swap2\n      swap1\n      pop\n      jump\t// out\n        /* \"#utility.yul\":6996:7719   */\n    tag_234:\n        /* \"#utility.yul\":7143:7147   */\n      0x60\n        /* \"#utility.yul\":7138:7141   */\n      dup3\n        /* \"#utility.yul\":7134:7148   */\n      add\n        /* \"#utility.yul\":7246:7250   */\n      0x00\n        /* \"#utility.yul\":7239:7244   */\n      dup3\n        /* \"#utility.yul\":7235:7251   */\n      add\n        /* \"#utility.yul\":7229:7252   */\n      mload\n        /* \"#utility.yul\":7265:7328   */\n      tag_236\n        /* \"#utility.yul\":7322:7326   */\n      0x00\n        /* \"#utility.yul\":7317:7320   */\n      dup6\n        /* \"#utility.yul\":7313:7327   */\n      add\n        /* \"#utility.yul\":7299:7311   */\n      dup3\n        /* \"#utility.yul\":7265:7328   */\n      tag_237\n      jump\t// in\n    tag_236:\n        /* \"#utility.yul\":7158:7338   */\n      pop\n        /* \"#utility.yul\":7437:7441   */\n      0x20\n        /* \"#utility.yul\":7430:7435   */\n      dup3\n        /* \"#utility.yul\":7426:7442   */\n      add\n        /* \"#utility.yul\":7420:7443   */\n      mload\n        /* \"#utility.yul\":7456:7519   */\n      tag_238\n        /* \"#utility.yul\":7513:7517   */\n      0x20\n        /* \"#utility.yul\":7508:7511   */\n      dup6\n        /* \"#utility.yul\":7504:7518   */\n      add\n        /* \"#utility.yul\":7490:7502   */\n      dup3\n        /* \"#utility.yul\":7456:7519   */\n      tag_237\n      jump\t// in\n    tag_238:\n        /* \"#utility.yul\":7348:7529   */\n      pop\n        /* \"#utility.yul\":7626:7630   */\n      0x40\n        /* \"#utility.yul\":7619:7624   */\n      dup3\n        /* \"#utility.yul\":7615:7631   */\n      add\n        /* \"#utility.yul\":7609:7632   */\n      mload\n        /* \"#utility.yul\":7645:7702   */\n      tag_239\n        /* \"#utility.yul\":7696:7700   */\n      0x40\n        /* \"#utility.yul\":7691:7694   */\n      dup6\n        /* \"#utility.yul\":7687:7701   */\n      add\n        /* \"#utility.yul\":7673:7685   */\n      dup3\n        /* \"#utility.yul\":7645:7702   */\n      tag_211\n      jump\t// in\n    tag_239:\n        /* \"#utility.yul\":7539:7712   */\n      pop\n        /* \"#utility.yul\":7112:7719   */\n      pop\n      pop\n      pop\n      jump\t// out\n        /* \"#utility.yul\":7781:8488   */\n    tag_240:\n        /* \"#utility.yul\":7920:7924   */\n      0x60\n        /* \"#utility.yul\":7915:7918   */\n      dup3\n        /* \"#utility.yul\":7911:7925   */\n      add\n        /* \"#utility.yul\":8020:8024   */\n      0x00\n        /* \"#utility.yul\":8013:8018   */\n      dup3\n        /* \"#utility.yul\":8009:8025   */\n      add\n        /* \"#utility.yul\":8003:8026   */\n      mload\n        /* \"#utility.yul\":8039:8102   */\n      tag_242\n        /* \"#utility.yul\":8096:8100   */\n      0x00\n        /* \"#utility.yul\":8091:8094   */\n      dup6\n        /* \"#utility.yul\":8087:8101   */\n      add\n        /* \"#utility.yul\":8073:8085   */\n      dup3\n        /* \"#utility.yul\":8039:8102   */\n      tag_237\n      jump\t// in\n    tag_242:\n        /* \"#utility.yul\":7935:8112   */\n      pop\n        /* \"#utility.yul\":8205:8209   */\n      0x20\n        /* \"#utility.yul\":8198:8203   */\n      dup3\n        /* \"#utility.yul\":8194:8210   */\n      add\n        /* \"#utility.yul\":8188:8211   */\n      mload\n        /* \"#utility.yul\":8224:8287   */\n      tag_243\n        /* \"#utility.yul\":8281:8285   */\n      0x20\n        /* \"#utility.yul\":8276:8279   */\n      dup6\n        /* \"#utility.yul\":8272:8286   */\n      add\n        /* \"#utility.yul\":8258:8270   */\n      dup3\n        /* \"#utility.yul\":8224:8287   */\n      tag_237\n      jump\t// in\n    tag_243:\n        /* \"#utility.yul\":8122:8297   */\n      pop\n        /* \"#utility.yul\":8389:8393   */\n      0x40\n        /* \"#utility.yul\":8382:8387   */\n      dup3\n        /* \"#utility.yul\":8378:8394   */\n      add\n        /* \"#utility.yul\":8372:8395   */\n      mload\n        /* \"#utility.yul\":8408:8471   */\n      tag_244\n        /* \"#utility.yul\":8465:8469   */\n      0x40\n        /* \"#utility.yul\":8460:8463   */\n      dup6\n        /* \"#utility.yul\":8456:8470   */\n      add\n        /* \"#utility.yul\":8442:8454   */\n      dup3\n        /* \"#utility.yul\":8408:8471   */\n      tag_237\n      jump\t// in\n    tag_244:\n        /* \"#utility.yul\":8307:8481   */\n      pop\n        /* \"#utility.yul\":7889:8488   */\n      pop\n      pop\n      pop\n      jump\t// out\n        /* \"#utility.yul\":8494:8602   */\n    tag_237:\n        /* \"#utility.yul\":8571:8595   */\n      tag_246\n        /* \"#utility.yul\":8589:8594   */\n      dup2\n        /* \"#utility.yul\":8571:8595   */\n      tag_247\n      jump\t// in\n    tag_246:\n        /* \"#utility.yul\":8566:8569   */\n      dup3\n        /* \"#utility.yul\":8559:8596   */\n      mstore\n        /* \"#utility.yul\":8549:8602   */\n      pop\n      pop\n      jump\t// out\n        /* \"#utility.yul\":8608:8726   */\n    tag_248:\n        /* \"#utility.yul\":8695:8719   */\n      tag_250\n        /* \"#utility.yul\":8713:8718   */\n      dup2\n        /* \"#utility.yul\":8695:8719   */\n      tag_247\n      jump\t// in\n    tag_250:\n        /* \"#utility.yul\":8690:8693   */\n      dup3\n        /* \"#utility.yul\":8683:8720   */\n      mstore\n        /* \"#utility.yul\":8673:8726   */\n      pop\n      pop\n      jump\t// out\n        /* \"#utility.yul\":8732:8889   */\n    tag_251:\n        /* \"#utility.yul\":8837:8882   */\n      tag_253\n        /* \"#utility.yul\":8857:8881   */\n      tag_254\n        /* \"#utility.yul\":8875:8880   */\n      dup3\n        /* \"#utility.yul\":8857:8881   */\n      tag_247\n      jump\t// in\n    tag_254:\n        /* \"#utility.yul\":8837:8882   */\n      tag_255\n      jump\t// in\n    tag_253:\n        /* \"#utility.yul\":8832:8835   */\n      dup3\n        /* \"#utility.yul\":8825:8883   */\n      mstore\n        /* \"#utility.yul\":8815:8889   */\n      pop\n      pop\n      jump\t// out\n        /* \"#utility.yul\":8895:9292   */\n    tag_136:\n      0x00\n        /* \"#utility.yul\":9050:9125   */\n      tag_257\n        /* \"#utility.yul\":9121:9124   */\n      dup3\n        /* \"#utility.yul\":9112:9118   */\n      dup6\n        /* \"#utility.yul\":9050:9125   */\n      tag_251\n      jump\t// in\n    tag_257:\n        /* \"#utility.yul\":9150:9152   */\n      0x20\n        /* \"#utility.yul\":9145:9148   */\n      dup3\n        /* \"#utility.yul\":9141:9153   */\n      add\n        /* \"#utility.yul\":9134:9153   */\n      swap2\n      pop\n        /* \"#utility.yul\":9163:9238   */\n      tag_258\n        /* \"#utility.yul\":9234:9237   */\n      dup3\n        /* \"#utility.yul\":9225:9231   */\n      dup5\n        /* \"#utility.yul\":9163:9238   */\n      tag_251\n      jump\t// in\n    tag_258:\n        /* \"#utility.yul\":9263:9265   */\n      0x20\n        /* \"#utility.yul\":9258:9261   */\n      dup3\n        /* \"#utility.yul\":9254:9266   */\n      add\n        /* \"#utility.yul\":9247:9266   */\n      swap2\n      pop\n        /* \"#utility.yul\":9283:9286   */\n      dup2\n        /* \"#utility.yul\":9276:9286   */\n      swap1\n      pop\n        /* \"#utility.yul\":9039:9292   */\n      swap4\n      swap3\n      pop\n      pop\n      pop\n      jump\t// out\n        /* \"#utility.yul\":9298:9717   */\n    tag_54:\n      0x00\n        /* \"#utility.yul\":9502:9504   */\n      0x20\n        /* \"#utility.yul\":9491:9500   */\n      dup3\n        /* \"#utility.yul\":9487:9505   */\n      add\n        /* \"#utility.yul\":9479:9505   */\n      swap1\n      pop\n        /* \"#utility.yul\":9551:9560   */\n      dup2\n        /* \"#utility.yul\":9545:9549   */\n      dup2\n        /* \"#utility.yul\":9541:9561   */\n      sub\n        /* \"#utility.yul\":9537:9538   */\n      0x00\n        /* \"#utility.yul\":9526:9535   */\n      dup4\n        /* \"#utility.yul\":9522:9539   */\n      add\n        /* \"#utility.yul\":9515:9562   */\n      mstore\n        /* \"#utility.yul\":9579:9710   */\n      tag_260\n        /* \"#utility.yul\":9705:9709   */\n      dup2\n        /* \"#utility.yul\":9579:9710   */\n      tag_218\n      jump\t// in\n    tag_260:\n        /* \"#utility.yul\":9571:9710   */\n      swap1\n      pop\n        /* \"#utility.yul\":9469:9717   */\n      swap2\n      swap1\n      pop\n      jump\t// out\n        /* \"#utility.yul\":9723:10142   */\n    tag_69:\n      0x00\n        /* \"#utility.yul\":9927:9929   */\n      0x20\n        /* \"#utility.yul\":9916:9925   */\n      dup3\n        /* \"#utility.yul\":9912:9930   */\n      add\n        /* \"#utility.yul\":9904:9930   */\n      swap1\n      pop\n        /* \"#utility.yul\":9976:9985   */\n      dup2\n        /* \"#utility.yul\":9970:9974   */\n      dup2\n        /* \"#utility.yul\":9966:9986   */\n      sub\n        /* \"#utility.yul\":9962:9963   */\n      0x00\n        /* \"#utility.yul\":9951:9960   */\n      dup4\n        /* \"#utility.yul\":9947:9964   */\n      add\n        /* \"#utility.yul\":9940:9987   */\n      mstore\n        /* \"#utility.yul\":10004:10135   */\n      tag_262\n        /* \"#utility.yul\":10130:10134   */\n      dup2\n        /* \"#utility.yul\":10004:10135   */\n      tag_222\n      jump\t// in\n    tag_262:\n        /* \"#utility.yul\":9996:10135   */\n      swap1\n      pop\n        /* \"#utility.yul\":9894:10142   */\n      swap2\n      swap1\n      pop\n      jump\t// out\n        /* \"#utility.yul\":10148:10567   */\n    tag_65:\n      0x00\n        /* \"#utility.yul\":10352:10354   */\n      0x20\n        /* \"#utility.yul\":10341:10350   */\n      dup3\n        /* \"#utility.yul\":10337:10355   */\n      add\n        /* \"#utility.yul\":10329:10355   */\n      swap1\n      pop\n        /* \"#utility.yul\":10401:10410   */\n      dup2\n        /* \"#utility.yul\":10395:10399   */\n      dup2\n        /* \"#utility.yul\":10391:10411   */\n      sub\n        /* \"#utility.yul\":10387:10388   */\n      0x00\n        /* \"#utility.yul\":10376:10385   */\n      dup4\n        /* \"#utility.yul\":10372:10389   */\n      add\n        /* \"#utility.yul\":10365:10412   */\n      mstore\n        /* \"#utility.yul\":10429:10560   */\n      tag_264\n        /* \"#utility.yul\":10555:10559   */\n      dup2\n        /* \"#utility.yul\":10429:10560   */\n      tag_225\n      jump\t// in\n    tag_264:\n        /* \"#utility.yul\":10421:10560   */\n      swap1\n      pop\n        /* \"#utility.yul\":10319:10567   */\n      swap2\n      swap1\n      pop\n      jump\t// out\n        /* \"#utility.yul\":10573:10992   */\n    tag_119:\n      0x00\n        /* \"#utility.yul\":10777:10779   */\n      0x20\n        /* \"#utility.yul\":10766:10775   */\n      dup3\n        /* \"#utility.yul\":10762:10780   */\n      add\n        /* \"#utility.yul\":10754:10780   */\n      swap1\n      pop\n        /* \"#utility.yul\":10826:10835   */\n      dup2\n        /* \"#utility.yul\":10820:10824   */\n      dup2\n        /* \"#utility.yul\":10816:10836   */\n      sub\n        /* \"#utility.yul\":10812:10813   */\n      0x00\n        /* \"#utility.yul\":10801:10810   */\n      dup4\n        /* \"#utility.yul\":10797:10814   */\n      add\n        /* \"#utility.yul\":10790:10837   */\n      mstore\n        /* \"#utility.yul\":10854:10985   */\n      tag_266\n        /* \"#utility.yul\":10980:10984   */\n      dup2\n        /* \"#utility.yul\":10854:10985   */\n      tag_228\n      jump\t// in\n    tag_266:\n        /* \"#utility.yul\":10846:10985   */\n      swap1\n      pop\n        /* \"#utility.yul\":10744:10992   */\n      swap2\n      swap1\n      pop\n      jump\t// out\n        /* \"#utility.yul\":10998:11417   */\n    tag_129:\n      0x00\n        /* \"#utility.yul\":11202:11204   */\n      0x20\n        /* \"#utility.yul\":11191:11200   */\n      dup3\n        /* \"#utility.yul\":11187:11205   */\n      add\n        /* \"#utility.yul\":11179:11205   */\n      swap1\n      pop\n        /* \"#utility.yul\":11251:11260   */\n      dup2\n        /* \"#utility.yul\":11245:11249   */\n      dup2\n        /* \"#utility.yul\":11241:11261   */\n      sub\n        /* \"#utility.yul\":11237:11238   */\n      0x00\n        /* \"#utility.yul\":11226:11235   */\n      dup4\n        /* \"#utility.yul\":11222:11239   */\n      add\n        /* \"#utility.yul\":11215:11262   */\n      mstore\n        /* \"#utility.yul\":11279:11410   */\n      tag_268\n        /* \"#utility.yul\":11405:11409   */\n      dup2\n        /* \"#utility.yul\":11279:11410   */\n      tag_231\n      jump\t// in\n    tag_268:\n        /* \"#utility.yul\":11271:11410   */\n      swap1\n      pop\n        /* \"#utility.yul\":11169:11417   */\n      swap2\n      swap1\n      pop\n      jump\t// out\n        /* \"#utility.yul\":11423:11645   */\n    tag_31:\n      0x00\n        /* \"#utility.yul\":11554:11556   */\n      0x20\n        /* \"#utility.yul\":11543:11552   */\n      dup3\n        /* \"#utility.yul\":11539:11557   */\n      add\n        /* \"#utility.yul\":11531:11557   */\n      swap1\n      pop\n        /* \"#utility.yul\":11567:11638   */\n      tag_270\n        /* \"#utility.yul\":11635:11636   */\n      0x00\n        /* \"#utility.yul\":11624:11633   */\n      dup4\n        /* \"#utility.yul\":11620:11637   */\n      add\n        /* \"#utility.yul\":11611:11617   */\n      dup5\n        /* \"#utility.yul\":11567:11638   */\n      tag_248\n      jump\t// in\n    tag_270:\n        /* \"#utility.yul\":11521:11645   */\n      swap3\n      swap2\n      pop\n      pop\n      jump\t// out\n        /* \"#utility.yul\":11651:12773   */\n    tag_17:\n      0x00\n        /* \"#utility.yul\":12068:12071   */\n      0x0160\n        /* \"#utility.yul\":12057:12066   */\n      dup3\n        /* \"#utility.yul\":12053:12072   */\n      add\n        /* \"#utility.yul\":12045:12072   */\n      swap1\n      pop\n        /* \"#utility.yul\":12082:12153   */\n      tag_272\n        /* \"#utility.yul\":12150:12151   */\n      0x00\n        /* \"#utility.yul\":12139:12148   */\n      dup4\n        /* \"#utility.yul\":12135:12152   */\n      add\n        /* \"#utility.yul\":12126:12132   */\n      dup11\n        /* \"#utility.yul\":12082:12153   */\n      tag_248\n      jump\t// in\n    tag_272:\n        /* \"#utility.yul\":12163:12251   */\n      tag_273\n        /* \"#utility.yul\":12247:12249   */\n      0x20\n        /* \"#utility.yul\":12236:12245   */\n      dup4\n        /* \"#utility.yul\":12232:12250   */\n      add\n        /* \"#utility.yul\":12223:12229   */\n      dup10\n        /* \"#utility.yul\":12163:12251   */\n      tag_207\n      jump\t// in\n    tag_273:\n        /* \"#utility.yul\":12261:12349   */\n      tag_274\n        /* \"#utility.yul\":12345:12347   */\n      0x40\n        /* \"#utility.yul\":12334:12343   */\n      dup4\n        /* \"#utility.yul\":12330:12348   */\n      add\n        /* \"#utility.yul\":12321:12327   */\n      dup9\n        /* \"#utility.yul\":12261:12349   */\n      tag_207\n      jump\t// in\n    tag_274:\n        /* \"#utility.yul\":12359:12431   */\n      tag_275\n        /* \"#utility.yul\":12427:12429   */\n      0x60\n        /* \"#utility.yul\":12416:12425   */\n      dup4\n        /* \"#utility.yul\":12412:12430   */\n      add\n        /* \"#utility.yul\":12403:12409   */\n      dup8\n        /* \"#utility.yul\":12359:12431   */\n      tag_248\n      jump\t// in\n    tag_275:\n        /* \"#utility.yul\":12441:12556   */\n      tag_276\n        /* \"#utility.yul\":12551:12554   */\n      0x80\n        /* \"#utility.yul\":12540:12549   */\n      dup4\n        /* \"#utility.yul\":12536:12555   */\n      add\n        /* \"#utility.yul\":12527:12533   */\n      dup7\n        /* \"#utility.yul\":12441:12556   */\n      tag_240\n      jump\t// in\n    tag_276:\n        /* \"#utility.yul\":12566:12633   */\n      tag_277\n        /* \"#utility.yul\":12628:12631   */\n      0xe0\n        /* \"#utility.yul\":12617:12626   */\n      dup4\n        /* \"#utility.yul\":12613:12632   */\n      add\n        /* \"#utility.yul\":12604:12610   */\n      dup6\n        /* \"#utility.yul\":12566:12633   */\n      tag_215\n      jump\t// in\n    tag_277:\n        /* \"#utility.yul\":12643:12766   */\n      tag_278\n        /* \"#utility.yul\":12761:12764   */\n      0x0100\n        /* \"#utility.yul\":12750:12759   */\n      dup4\n        /* \"#utility.yul\":12746:12765   */\n      add\n        /* \"#utility.yul\":12737:12743   */\n      dup5\n        /* \"#utility.yul\":12643:12766   */\n      tag_234\n      jump\t// in\n    tag_278:\n        /* \"#utility.yul\":12035:12773   */\n      swap9\n      swap8\n      pop\n      pop\n      pop\n      pop\n      pop\n      pop\n      pop\n      pop\n      jump\t// out\n        /* \"#utility.yul\":12779:13062   */\n    tag_154:\n      0x00\n        /* \"#utility.yul\":12845:12847   */\n      0x40\n        /* \"#utility.yul\":12839:12848   */\n      mload\n        /* \"#utility.yul\":12829:12848   */\n      swap1\n      pop\n        /* \"#utility.yul\":12887:12891   */\n      dup2\n        /* \"#utility.yul\":12879:12885   */\n      dup2\n        /* \"#utility.yul\":12875:12892   */\n      add\n        /* \"#utility.yul\":12994:13000   */\n      dup2\n        /* \"#utility.yul\":12982:12992   */\n      dup2\n        /* \"#utility.yul\":12979:13001   */\n      lt\n        /* \"#utility.yul\":12958:12976   */\n      0xffffffffffffffff\n        /* \"#utility.yul\":12946:12956   */\n      dup3\n        /* \"#utility.yul\":12943:12977   */\n      gt\n        /* \"#utility.yul\":12940:13002   */\n      or\n        /* \"#utility.yul\":12937:12939   */\n      iszero\n      tag_280\n      jumpi\n        /* \"#utility.yul\":13005:13023   */\n      tag_281\n      tag_282\n      jump\t// in\n    tag_281:\n        /* \"#utility.yul\":12937:12939   */\n    tag_280:\n        /* \"#utility.yul\":13045:13055   */\n      dup1\n        /* \"#utility.yul\":13041:13043   */\n      0x40\n        /* \"#utility.yul\":13034:13056   */\n      mstore\n        /* \"#utility.yul\":12819:13062   */\n      pop\n      swap2\n      swap1\n      pop\n      jump\t// out\n        /* \"#utility.yul\":13068:13400   */\n    tag_153:\n      0x00\n        /* \"#utility.yul\":13220:13238   */\n      0xffffffffffffffff\n        /* \"#utility.yul\":13212:13218   */\n      dup3\n        /* \"#utility.yul\":13209:13239   */\n      gt\n        /* \"#utility.yul\":13206:13208   */\n      iszero\n      tag_284\n      jumpi\n        /* \"#utility.yul\":13242:13260   */\n      tag_285\n      tag_282\n      jump\t// in\n    tag_285:\n        /* \"#utility.yul\":13206:13208   */\n    tag_284:\n        /* \"#utility.yul\":13327:13331   */\n      0x1f\n        /* \"#utility.yul\":13323:13332   */\n      not\n        /* \"#utility.yul\":13316:13320   */\n      0x1f\n        /* \"#utility.yul\":13308:13314   */\n      dup4\n        /* \"#utility.yul\":13304:13321   */\n      add\n        /* \"#utility.yul\":13300:13333   */\n      and\n        /* \"#utility.yul\":13292:13333   */\n      swap1\n      pop\n        /* \"#utility.yul\":13388:13392   */\n      0x20\n        /* \"#utility.yul\":13382:13386   */\n      dup2\n        /* \"#utility.yul\":13378:13393   */\n      add\n        /* \"#utility.yul\":13370:13393   */\n      swap1\n      pop\n        /* \"#utility.yul\":13135:13400   */\n      swap2\n      swap1\n      pop\n      jump\t// out\n        /* \"#utility.yul\":13406:13575   */\n    tag_221:\n      0x00\n        /* \"#utility.yul\":13524:13530   */\n      dup3\n        /* \"#utility.yul\":13519:13522   */\n      dup3\n        /* \"#utility.yul\":13512:13531   */\n      mstore\n        /* \"#utility.yul\":13564:13568   */\n      0x20\n        /* \"#utility.yul\":13559:13562   */\n      dup3\n        /* \"#utility.yul\":13555:13569   */\n      add\n        /* \"#utility.yul\":13540:13569   */\n      swap1\n      pop\n        /* \"#utility.yul\":13502:13575   */\n      swap3\n      swap2\n      pop\n      pop\n      jump\t// out\n        /* \"#utility.yul\":13581:13886   */\n    tag_95:\n      0x00\n        /* \"#utility.yul\":13640:13660   */\n      tag_288\n        /* \"#utility.yul\":13658:13659   */\n      dup3\n        /* \"#utility.yul\":13640:13660   */\n      tag_247\n      jump\t// in\n    tag_288:\n        /* \"#utility.yul\":13635:13660   */\n      swap2\n      pop\n        /* \"#utility.yul\":13674:13694   */\n      tag_289\n        /* \"#utility.yul\":13692:13693   */\n      dup4\n        /* \"#utility.yul\":13674:13694   */\n      tag_247\n      jump\t// in\n    tag_289:\n        /* \"#utility.yul\":13669:13694   */\n      swap3\n      pop\n        /* \"#utility.yul\":13828:13829   */\n      dup3\n        /* \"#utility.yul\":13760:13826   */\n      0xffffffffffffffffffffffffffffffffffffffffffffffffffffffffffffffff\n        /* \"#utility.yul\":13756:13830   */\n      sub\n        /* \"#utility.yul\":13753:13754   */\n      dup3\n        /* \"#utility.yul\":13750:13831   */\n      gt\n        /* \"#utility.yul\":13747:13749   */\n      iszero\n      tag_290\n      jumpi\n        /* \"#utility.yul\":13834:13852   */\n      tag_291\n      tag_292\n      jump\t// in\n    tag_291:\n        /* \"#utility.yul\":13747:13749   */\n    tag_290:\n        /* \"#utility.yul\":13878:13879   */\n      dup3\n        /* \"#utility.yul\":13875:13876   */\n      dup3\n        /* \"#utility.yul\":13871:13880   */\n      add\n        /* \"#utility.yul\":13864:13880   */\n      swap1\n      pop\n        /* \"#utility.yul\":13625:13886   */\n      swap3\n      swap2\n      pop\n      pop\n      jump\t// out\n        /* \"#utility.yul\":13892:14077   */\n    tag_113:\n      0x00\n        /* \"#utility.yul\":13949:13969   */\n      tag_294\n        /* \"#utility.yul\":13967:13968   */\n      dup3\n        /* \"#utility.yul\":13949:13969   */\n      tag_247\n      jump\t// in\n    tag_294:\n        /* \"#utility.yul\":13944:13969   */\n      swap2\n      pop\n        /* \"#utility.yul\":13983:14003   */\n      tag_295\n        /* \"#utility.yul\":14001:14002   */\n      dup4\n        /* \"#utility.yul\":13983:14003   */\n      tag_247\n      jump\t// in\n    tag_295:\n        /* \"#utility.yul\":13978:14003   */\n      swap3\n      pop\n        /* \"#utility.yul\":14022:14023   */\n      dup3\n        /* \"#utility.yul\":14012:14014   */\n      tag_296\n      jumpi\n        /* \"#utility.yul\":14027:14045   */\n      tag_297\n      tag_298\n      jump\t// in\n    tag_297:\n        /* \"#utility.yul\":14012:14014   */\n    tag_296:\n        /* \"#utility.yul\":14069:14070   */\n      dup3\n        /* \"#utility.yul\":14066:14067   */\n      dup3\n        /* \"#utility.yul\":14062:14071   */\n      div\n        /* \"#utility.yul\":14057:14071   */\n      swap1\n      pop\n        /* \"#utility.yul\":13934:14077   */\n      swap3\n      swap2\n      pop\n      pop\n      jump\t// out\n        /* \"#utility.yul\":14083:14431   */\n    tag_77:\n      0x00\n        /* \"#utility.yul\":14146:14166   */\n      tag_300\n        /* \"#utility.yul\":14164:14165   */\n      dup3\n        /* \"#utility.yul\":14146:14166   */\n      tag_247\n      jump\t// in\n    tag_300:\n        /* \"#utility.yul\":14141:14166   */\n      swap2\n      pop\n        /* \"#utility.yul\":14180:14200   */\n      tag_301\n        /* \"#utility.yul\":14198:14199   */\n      dup4\n        /* \"#utility.yul\":14180:14200   */\n      tag_247\n      jump\t// in\n    tag_301:\n        /* \"#utility.yul\":14175:14200   */\n      swap3\n      pop\n        /* \"#utility.yul\":14368:14369   */\n      dup2\n        /* \"#utility.yul\":14300:14366   */\n      0xffffffffffffffffffffffffffffffffffffffffffffffffffffffffffffffff\n        /* \"#utility.yul\":14296:14370   */\n      div\n        /* \"#utility.yul\":14293:14294   */\n      dup4\n        /* \"#utility.yul\":14290:14371   */\n      gt\n        /* \"#utility.yul\":14285:14286   */\n      dup3\n        /* \"#utility.yul\":14278:14287   */\n      iszero\n        /* \"#utility.yul\":14271:14288   */\n      iszero\n        /* \"#utility.yul\":14267:14372   */\n      and\n        /* \"#utility.yul\":14264:14266   */\n      iszero\n      tag_302\n      jumpi\n        /* \"#utility.yul\":14375:14393   */\n      tag_303\n      tag_292\n      jump\t// in\n    tag_303:\n        /* \"#utility.yul\":14264:14266   */\n    tag_302:\n        /* \"#utility.yul\":14423:14424   */\n      dup3\n        /* \"#utility.yul\":14420:14421   */\n      dup3\n        /* \"#utility.yul\":14416:14425   */\n      mul\n        /* \"#utility.yul\":14405:14425   */\n      swap1\n      pop\n        /* \"#utility.yul\":14131:14431   */\n      swap3\n      swap2\n      pop\n      pop\n      jump\t// out\n        /* \"#utility.yul\":14437:14628   */\n    tag_115:\n      0x00\n        /* \"#utility.yul\":14497:14517   */\n      tag_305\n        /* \"#utility.yul\":14515:14516   */\n      dup3\n        /* \"#utility.yul\":14497:14517   */\n      tag_247\n      jump\t// in\n    tag_305:\n        /* \"#utility.yul\":14492:14517   */\n      swap2\n      pop\n        /* \"#utility.yul\":14531:14551   */\n      tag_306\n        /* \"#utility.yul\":14549:14550   */\n      dup4\n        /* \"#utility.yul\":14531:14551   */\n      tag_247\n      jump\t// in\n    tag_306:\n        /* \"#utility.yul\":14526:14551   */\n      swap3\n      pop\n        /* \"#utility.yul\":14570:14571   */\n      dup3\n        /* \"#utility.yul\":14567:14568   */\n      dup3\n        /* \"#utility.yul\":14564:14572   */\n      lt\n        /* \"#utility.yul\":14561:14563   */\n      iszero\n      tag_307\n      jumpi\n        /* \"#utility.yul\":14575:14593   */\n      tag_308\n      tag_292\n      jump\t// in\n    tag_308:\n        /* \"#utility.yul\":14561:14563   */\n    tag_307:\n        /* \"#utility.yul\":14620:14621   */\n      dup3\n        /* \"#utility.yul\":14617:14618   */\n      dup3\n        /* \"#utility.yul\":14613:14622   */\n      sub\n        /* \"#utility.yul\":14605:14622   */\n      swap1\n      pop\n        /* \"#utility.yul\":14482:14628   */\n      swap3\n      swap2\n      pop\n      pop\n      jump\t// out\n        /* \"#utility.yul\":14634:14738   */\n    tag_210:\n      0x00\n        /* \"#utility.yul\":14708:14732   */\n      tag_310\n        /* \"#utility.yul\":14726:14731   */\n      dup3\n        /* \"#utility.yul\":14708:14732   */\n      tag_311\n      jump\t// in\n    tag_310:\n        /* \"#utility.yul\":14697:14732   */\n      swap1\n      pop\n        /* \"#utility.yul\":14687:14738   */\n      swap2\n      swap1\n      pop\n      jump\t// out\n        /* \"#utility.yul\":14744:14834   */\n    tag_214:\n      0x00\n        /* \"#utility.yul\":14821:14826   */\n      dup2\n        /* \"#utility.yul\":14814:14827   */\n      iszero\n        /* \"#utility.yul\":14807:14828   */\n      iszero\n        /* \"#utility.yul\":14796:14828   */\n      swap1\n      pop\n        /* \"#utility.yul\":14786:14834   */\n      swap2\n      swap1\n      pop\n      jump\t// out\n        /* \"#utility.yul\":14840:14966   */\n    tag_311:\n      0x00\n        /* \"#utility.yul\":14917:14959   */\n      0xffffffffffffffffffffffffffffffffffffffff\n        /* \"#utility.yul\":14910:14915   */\n      dup3\n        /* \"#utility.yul\":14906:14960   */\n      and\n        /* \"#utility.yul\":14895:14960   */\n      swap1\n      pop\n        /* \"#utility.yul\":14885:14966   */\n      swap2\n      swap1\n      pop\n      jump\t// out\n        /* \"#utility.yul\":14972:15049   */\n    tag_247:\n      0x00\n        /* \"#utility.yul\":15038:15043   */\n      dup2\n        /* \"#utility.yul\":15027:15043   */\n      swap1\n      pop\n        /* \"#utility.yul\":15017:15049   */\n      swap2\n      swap1\n      pop\n      jump\t// out\n        /* \"#utility.yul\":15055:15209   */\n    tag_157:\n        /* \"#utility.yul\":15139:15145   */\n      dup3\n        /* \"#utility.yul\":15134:15137   */\n      dup2\n        /* \"#utility.yul\":15129:15132   */\n      dup4\n        /* \"#utility.yul\":15116:15146   */\n      calldatacopy\n        /* \"#utility.yul\":15201:15202   */\n      0x00\n        /* \"#utility.yul\":15192:15198   */\n      dup4\n        /* \"#utility.yul\":15187:15190   */\n      dup4\n        /* \"#utility.yul\":15183:15199   */\n      add\n        /* \"#utility.yul\":15176:15203   */\n      mstore\n        /* \"#utility.yul\":15106:15209   */\n      pop\n      pop\n      pop\n      jump\t// out\n        /* \"#utility.yul\":15215:15535   */\n    tag_138:\n      0x00\n        /* \"#utility.yul\":15296:15297   */\n      0x02\n        /* \"#utility.yul\":15290:15294   */\n      dup3\n        /* \"#utility.yul\":15286:15298   */\n      div\n        /* \"#utility.yul\":15276:15298   */\n      swap1\n      pop\n        /* \"#utility.yul\":15343:15344   */\n      0x01\n        /* \"#utility.yul\":15337:15341   */\n      dup3\n        /* \"#utility.yul\":15333:15345   */\n      and\n        /* \"#utility.yul\":15364:15382   */\n      dup1\n        /* \"#utility.yul\":15354:15356   */\n      tag_317\n      jumpi\n        /* \"#utility.yul\":15420:15424   */\n      0x7f\n        /* \"#utility.yul\":15412:15418   */\n      dup3\n        /* \"#utility.yul\":15408:15425   */\n      and\n        /* \"#utility.yul\":15398:15425   */\n      swap2\n      pop\n        /* \"#utility.yul\":15354:15356   */\n    tag_317:\n        /* \"#utility.yul\":15482:15484   */\n      0x20\n        /* \"#utility.yul\":15474:15480   */\n      dup3\n        /* \"#utility.yul\":15471:15485   */\n      lt\n        /* \"#utility.yul\":15451:15469   */\n      dup2\n        /* \"#utility.yul\":15448:15486   */\n      eq\n        /* \"#utility.yul\":15445:15447   */\n      iszero\n      tag_318\n      jumpi\n        /* \"#utility.yul\":15501:15519   */\n      tag_319\n      tag_320\n      jump\t// in\n    tag_319:\n        /* \"#utility.yul\":15445:15447   */\n    tag_318:\n        /* \"#utility.yul\":15266:15535   */\n      pop\n      swap2\n      swap1\n      pop\n      jump\t// out\n        /* \"#utility.yul\":15541:15774   */\n    tag_80:\n      0x00\n        /* \"#utility.yul\":15603:15627   */\n      tag_322\n        /* \"#utility.yul\":15621:15626   */\n      dup3\n        /* \"#utility.yul\":15603:15627   */\n      tag_247\n      jump\t// in\n    tag_322:\n        /* \"#utility.yul\":15594:15627   */\n      swap2\n      pop\n        /* \"#utility.yul\":15649:15715   */\n      0xffffffffffffffffffffffffffffffffffffffffffffffffffffffffffffffff\n        /* \"#utility.yul\":15642:15647   */\n      dup3\n        /* \"#utility.yul\":15639:15716   */\n      eq\n        /* \"#utility.yul\":15636:15638   */\n      iszero\n      tag_323\n      jumpi\n        /* \"#utility.yul\":15719:15737   */\n      tag_324\n      tag_292\n      jump\t// in\n    tag_324:\n        /* \"#utility.yul\":15636:15638   */\n    tag_323:\n        /* \"#utility.yul\":15766:15767   */\n      0x01\n        /* \"#utility.yul\":15759:15764   */\n      dup3\n        /* \"#utility.yul\":15755:15768   */\n      add\n        /* \"#utility.yul\":15748:15768   */\n      swap1\n      pop\n        /* \"#utility.yul\":15584:15774   */\n      swap2\n      swap1\n      pop\n      jump\t// out\n        /* \"#utility.yul\":15780:15859   */\n    tag_255:\n      0x00\n        /* \"#utility.yul\":15848:15853   */\n      dup2\n        /* \"#utility.yul\":15837:15853   */\n      swap1\n      pop\n        /* \"#utility.yul\":15827:15859   */\n      swap2\n      swap1\n      pop\n      jump\t// out\n        /* \"#utility.yul\":15865:16045   */\n    tag_292:\n        /* \"#utility.yul\":15913:15990   */\n      0x4e487b7100000000000000000000000000000000000000000000000000000000\n        /* \"#utility.yul\":15910:15911   */\n      0x00\n        /* \"#utility.yul\":15903:15991   */\n      mstore\n        /* \"#utility.yul\":16010:16014   */\n      0x11\n        /* \"#utility.yul\":16007:16008   */\n      0x04\n        /* \"#utility.yul\":16000:16015   */\n      mstore\n        /* \"#utility.yul\":16034:16038   */\n      0x24\n        /* \"#utility.yul\":16031:16032   */\n      0x00\n        /* \"#utility.yul\":16024:16039   */\n      revert\n        /* \"#utility.yul\":16051:16231   */\n    tag_298:\n        /* \"#utility.yul\":16099:16176   */\n      0x4e487b7100000000000000000000000000000000000000000000000000000000\n        /* \"#utility.yul\":16096:16097   */\n      0x00\n        /* \"#utility.yul\":16089:16177   */\n      mstore\n        /* \"#utility.yul\":16196:16200   */\n      0x12\n        /* \"#utility.yul\":16193:16194   */\n      0x04\n        /* \"#utility.yul\":16186:16201   */\n      mstore\n        /* \"#utility.yul\":16220:16224   */\n      0x24\n        /* \"#utility.yul\":16217:16218   */\n      0x00\n        /* \"#utility.yul\":16210:16225   */\n      revert\n        /* \"#utility.yul\":16237:16417   */\n    tag_320:\n        /* \"#utility.yul\":16285:16362   */\n      0x4e487b7100000000000000000000000000000000000000000000000000000000\n        /* \"#utility.yul\":16282:16283   */\n      0x00\n        /* \"#utility.yul\":16275:16363   */\n      mstore\n        /* \"#utility.yul\":16382:16386   */\n      0x22\n        /* \"#utility.yul\":16379:16380   */\n      0x04\n        /* \"#utility.yul\":16372:16387   */\n      mstore\n        /* \"#utility.yul\":16406:16410   */\n      0x24\n        /* \"#utility.yul\":16403:16404   */\n      0x00\n        /* \"#utility.yul\":16396:16411   */\n      revert\n        /* \"#utility.yul\":16423:16603   */\n    tag_282:\n        /* \"#utility.yul\":16471:16548   */\n      0x4e487b7100000000000000000000000000000000000000000000000000000000\n        /* \"#utility.yul\":16468:16469   */\n      0x00\n        /* \"#utility.yul\":16461:16549   */\n      mstore\n        /* \"#utility.yul\":16568:16572   */\n      0x41\n        /* \"#utility.yul\":16565:16566   */\n      0x04\n        /* \"#utility.yul\":16558:16573   */\n      mstore\n        /* \"#utility.yul\":16592:16596   */\n      0x24\n        /* \"#utility.yul\":16589:16590   */\n      0x00\n        /* \"#utility.yul\":16582:16597   */\n      revert\n        /* \"#utility.yul\":16609:16747   */\n    tag_161:\n        /* \"#utility.yul\":16690:16722   */\n      tag_331\n        /* \"#utility.yul\":16716:16721   */\n      dup2\n        /* \"#utility.yul\":16690:16722   */\n      tag_210\n      jump\t// in\n    tag_331:\n        /* \"#utility.yul\":16683:16688   */\n      dup2\n        /* \"#utility.yul\":16680:16723   */\n      eq\n        /* \"#utility.yul\":16670:16672   */\n      tag_332\n      jumpi\n        /* \"#utility.yul\":16737:16738   */\n      0x00\n        /* \"#utility.yul\":16734:16735   */\n      dup1\n        /* \"#utility.yul\":16727:16739   */\n      revert\n        /* \"#utility.yul\":16670:16672   */\n    tag_332:\n        /* \"#utility.yul\":16660:16747   */\n      pop\n      jump\t// out\n        /* \"#utility.yul\":16753:16869   */\n    tag_165:\n        /* \"#utility.yul\":16823:16844   */\n      tag_334\n        /* \"#utility.yul\":16838:16843   */\n      dup2\n        /* \"#utility.yul\":16823:16844   */\n      tag_214\n      jump\t// in\n    tag_334:\n        /* \"#utility.yul\":16816:16821   */\n      dup2\n        /* \"#utility.yul\":16813:16845   */\n      eq\n        /* \"#utility.yul\":16803:16805   */\n      tag_335\n      jumpi\n        /* \"#utility.yul\":16859:16860   */\n      0x00\n        /* \"#utility.yul\":16856:16857   */\n      dup1\n        /* \"#utility.yul\":16849:16861   */\n      revert\n        /* \"#utility.yul\":16803:16805   */\n    tag_335:\n        /* \"#utility.yul\":16793:16869   */\n      pop\n      jump\t// out\n        /* \"#utility.yul\":16875:16997   */\n    tag_182:\n        /* \"#utility.yul\":16948:16972   */\n      tag_337\n        /* \"#utility.yul\":16966:16971   */\n      dup2\n        /* \"#utility.yul\":16948:16972   */\n      tag_247\n      jump\t// in\n    tag_337:\n        /* \"#utility.yul\":16941:16946   */\n      dup2\n        /* \"#utility.yul\":16938:16973   */\n      eq\n        /* \"#utility.yul\":16928:16930   */\n      tag_338\n      jumpi\n        /* \"#utility.yul\":16987:16988   */\n      0x00\n        /* \"#utility.yul\":16984:16985   */\n      dup1\n        /* \"#utility.yul\":16977:16989   */\n      revert\n        /* \"#utility.yul\":16928:16930   */\n    tag_338:\n        /* \"#utility.yul\":16918:16997   */\n      pop\n      jump\t// out\n\n    auxdata: 0xa264697066735822122005bab6f7c69bb17e63baabdc291dd9e415f00d6d839cb081476b67c84cf720c464736f6c63430008000033\n}\n",
    "bytecode": {
      "linkReferences": {},
      "object": "608060405260008055600060015534801561001957600080fd5b50611b75806100296000396000f3fe60806040526004361061007b5760003560e01c8063b72032c51161004e578063b72032c514610145578063e40c7cc01461016e578063e67dd31e14610197578063f62d915a146101c05761007b565b80631e6c598e146100805780634902575a146100c35780635885c655146100df57806394a53f7c14610108575b600080fd5b34801561008c57600080fd5b506100a760048036038101906100a29190611386565b6101dc565b6040516100ba979695949392919061176a565b60405180910390f35b6100dd60048036038101906100d89190611386565b6102cc565b005b3480156100eb57600080fd5b5061010660048036038101906101019190611332565b610460565b005b34801561011457600080fd5b5061012f600480360381019061012a9190611386565b6107a5565b60405161013c919061174f565b60405180910390f35b34801561015157600080fd5b5061016c6004803603810190610167919061126d565b6109d0565b005b34801561017a57600080fd5b50610195600480360381019061019091906112f6565b610ad0565b005b3480156101a357600080fd5b506101be60048036038101906101b991906113af565b610c14565b005b6101da60048036038101906101d59190611386565b610e51565b005b60026020528060005260406000206000915090508060000154908060010160009054906101000a900473ffffffffffffffffffffffffffffffffffffffff16908060020160009054906101000a900473ffffffffffffffffffffffffffffffffffffffff1690806003015490806005016040518060600160405290816000820154815260200160018201548152602001600282015481525050908060080160009054906101000a900460ff16908060090160405180606001604052908160008201548152602001600182015481526020016002820160009054906101000a900460ff161515151581525050905087565b806002600082815260200190815260200160002060010160009054906101000a900473ffffffffffffffffffffffffffffffffffffffff1673ffffffffffffffffffffffffffffffffffffffff163373ffffffffffffffffffffffffffffffffffffffff16148061039e57506002600082815260200190815260200160002060020160009054906101000a900473ffffffffffffffffffffffffffffffffffffffff1673ffffffffffffffffffffffffffffffffffffffff163373ffffffffffffffffffffffffffffffffffffffff16145b6103dd576040517f08c379a00000000000000000000000000000000000000000000000000000000081526004016103d4906116af565b60405180910390fd5b6002600083815260200190815260200160002060020160009054906101000a900473ffffffffffffffffffffffffffffffffffffffff1673ffffffffffffffffffffffffffffffffffffffff166108fc6103e89081150290604051600060405180830381858888f1935050505015801561045b573d6000803e3d6000fd5b505050565b806002600082815260200190815260200160002060010160009054906101000a900473ffffffffffffffffffffffffffffffffffffffff1673ffffffffffffffffffffffffffffffffffffffff163373ffffffffffffffffffffffffffffffffffffffff16148061053257506002600082815260200190815260200160002060020160009054906101000a900473ffffffffffffffffffffffffffffffffffffffff1673ffffffffffffffffffffffffffffffffffffffff163373ffffffffffffffffffffffffffffffffffffffff16145b610571576040517f08c379a0000000000000000000000000000000000000000000000000000000008152600401610568906116af565b60405180910390fd5b816002600082815260200190815260200160002060080160009054906101000a900460ff166105d5576040517f08c379a00000000000000000000000000000000000000000000000000000000081526004016105cc906116ef565b60405180910390fd5b82848060600151600260008481526020019081526020016000206005016002015414610636576040517f08c379a000000000000000000000000000000000000000000000000000000000815260040161062d906116cf565b60405180910390fd5b856002600087815260200190815260200160002060040160015481548110610687577f4e487b7100000000000000000000000000000000000000000000000000000000600052603260045260246000fd5b906000526020600020906004020160008201518160000190805190602001906106b1929190611097565b506020820151816001015560408201518160020155606082015181600301559050506002600086815260200190815260200160002060090160020160009054906101000a900460ff16156107855760026000868152602001908152602001600020600901600001548660200151876040015161072d91906118d4565b106107845760006002600087815260200190815260200160002060090160020160006101000a81548160ff021916908315150217905550600060026000878152602001908152602001600020600901600101819055505b5b60016000815480929190610798906119eb565b9190505550505050505050565b6000816002600082815260200190815260200160002060010160009054906101000a900473ffffffffffffffffffffffffffffffffffffffff1673ffffffffffffffffffffffffffffffffffffffff163373ffffffffffffffffffffffffffffffffffffffff16148061087957506002600082815260200190815260200160002060020160009054906101000a900473ffffffffffffffffffffffffffffffffffffffff1673ffffffffffffffffffffffffffffffffffffffff163373ffffffffffffffffffffffffffffffffffffffff16145b6108b8576040517f08c379a00000000000000000000000000000000000000000000000000000000081526004016108af906116af565b60405180910390fd5b6000805b60026000868152602001908152602001600020600401805490508110156109c55760026000868152602001908152602001600020600401818154811061092b577f4e487b7100000000000000000000000000000000000000000000000000000000600052603260045260246000fd5b90600052602060002090600402016001015460026000878152602001908152602001600020600401828154811061098b577f4e487b7100000000000000000000000000000000000000000000000000000000600052603260045260246000fd5b9060005260206000209060040201600201546109a791906118d4565b826109b2919061184d565b9150806109be906119eb565b90506108bc565b508092505050919050565b60006109da611064565b90506000600260008381526020019081526020016000209050818160000181905550878160020160006101000a81548173ffffffffffffffffffffffffffffffffffffffff021916908373ffffffffffffffffffffffffffffffffffffffff160217905550868160010160006101000a81548173ffffffffffffffffffffffffffffffffffffffff021916908373ffffffffffffffffffffffffffffffffffffffff160217905550858160030181905550848160050160000181905550838160050160010181905550828160050160020181905550600080815480929190610ac1906119eb565b91905055505050505050505050565b806002600082815260200190815260200160002060010160009054906101000a900473ffffffffffffffffffffffffffffffffffffffff1673ffffffffffffffffffffffffffffffffffffffff163373ffffffffffffffffffffffffffffffffffffffff161480610ba257506002600082815260200190815260200160002060020160009054906101000a900473ffffffffffffffffffffffffffffffffffffffff1673ffffffffffffffffffffffffffffffffffffffff163373ffffffffffffffffffffffffffffffffffffffff16145b610be1576040517f08c379a0000000000000000000000000000000000000000000000000000000008152600401610bd8906116af565b60405180910390fd5b826002600084815260200190815260200160002060080160006101000a81548160ff021916908315150217905550505050565b816002600082815260200190815260200160002060010160009054906101000a900473ffffffffffffffffffffffffffffffffffffffff1673ffffffffffffffffffffffffffffffffffffffff163373ffffffffffffffffffffffffffffffffffffffff161480610ce657506002600082815260200190815260200160002060020160009054906101000a900473ffffffffffffffffffffffffffffffffffffffff1673ffffffffffffffffffffffffffffffffffffffff163373ffffffffffffffffffffffffffffffffffffffff16145b610d25576040517f08c379a0000000000000000000000000000000000000000000000000000000008152600401610d1c906116af565b60405180910390fd5b8260006002600083815260200190815260200160002060030154610d48836107a5565b610d5291906118a3565b6002600084815260200190815260200160002060030154610d73919061192e565b90506002600083815260200190815260200160002060050160000154606482610d9c91906118d4565b11610ddc576040517f08c379a0000000000000000000000000000000000000000000000000000000008152600401610dd39061170f565b60405180910390fd5b60016002600087815260200190815260200160002060090160020160006101000a81548160ff0219169083151502179055504260026000878152602001908152602001600020600901600101819055508360026000878152602001908152602001600020600901600001819055505050505050565b806002600082815260200190815260200160002060010160009054906101000a900473ffffffffffffffffffffffffffffffffffffffff1673ffffffffffffffffffffffffffffffffffffffff163373ffffffffffffffffffffffffffffffffffffffff161480610f2357506002600082815260200190815260200160002060020160009054906101000a900473ffffffffffffffffffffffffffffffffffffffff1673ffffffffffffffffffffffffffffffffffffffff163373ffffffffffffffffffffffffffffffffffffffff16145b610f62576040517f08c379a0000000000000000000000000000000000000000000000000000000008152600401610f59906116af565b60405180910390fd5b8134610f6d826107a5565b8111610fae576040517f08c379a0000000000000000000000000000000000000000000000000000000008152600401610fa59061172f565b60405180910390fd5b60006002600086815260200190815260200160002060010160009054906101000a900473ffffffffffffffffffffffffffffffffffffffff1690503460026000878152602001908152602001600020600301600082825461100f919061184d565b925050819055508073ffffffffffffffffffffffffffffffffffffffff166108fc349081150290604051600060405180830381858888f1935050505015801561105c573d6000803e3d6000fd5b505050505050565b60004442604051602001611079929190611683565b6040516020818303038152906040528051906020012060001c905090565b8280546110a3906119b9565b90600052602060002090601f0160209004810192826110c5576000855561110c565b82601f106110de57805160ff191683800117855561110c565b8280016001018555821561110c579182015b8281111561110b5782518255916020019190600101906110f0565b5b509050611119919061111d565b5090565b5b8082111561113657600081600090555060010161111e565b5090565b600061114d6111488461180c565b6117db565b90508281526020810184848401111561116557600080fd5b6111708482856119aa565b509392505050565b60008135905061118781611afa565b92915050565b60008135905061119c81611b11565b92915050565b600082601f8301126111b357600080fd5b81356111c384826020860161113a565b91505092915050565b6000608082840312156111de57600080fd5b6111e860806117db565b9050600082013567ffffffffffffffff81111561120457600080fd5b611210848285016111a2565b600083015250602061122484828501611258565b602083015250604061123884828501611258565b604083015250606061124c84828501611258565b60608301525092915050565b60008135905061126781611b28565b92915050565b60008060008060008060c0878903121561128657600080fd5b600061129489828a01611178565b96505060206112a589828a01611178565b95505060406112b689828a01611258565b94505060606112c789828a01611258565b93505060806112d889828a01611258565b92505060a06112e989828a01611258565b9150509295509295509295565b6000806040838503121561130957600080fd5b60006113178582860161118d565b925050602061132885828601611258565b9150509250929050565b6000806040838503121561134557600080fd5b600083013567ffffffffffffffff81111561135f57600080fd5b61136b858286016111cc565b925050602061137c85828601611258565b9150509250929050565b60006020828403121561139857600080fd5b60006113a684828501611258565b91505092915050565b600080604083850312156113c257600080fd5b60006113d085828601611258565b92505060206113e185828601611258565b9150509250929050565b6113f481611962565b82525050565b61140381611974565b82525050565b61141281611974565b82525050565b6000611425600f8361183c565b91507f70726976696c65676520616363657300000000000000000000000000000000006000830152602082019050919050565b6000611465601b8361183c565b91507f636f6c6c61746572616c206973206e6f74207065726d697474656400000000006000830152602082019050919050565b60006114a560228361183c565b91507f7472616465206e6f7420617070726f76656420627920626f746820706172746960008301527f65730000000000000000000000000000000000000000000000000000000000006020830152604082019050919050565b600061150b60358361183c565b91507f6d617267696e2063616c6c20646f6573206e6f74206d65657420746865206d6160008301527f696e74656e616e6365206d617267696e2072756c6500000000000000000000006020830152604082019050919050565b6000611571603e8361183c565b91507f43617368206e6f742066756c6c7920636f6c6c61746572616c697a65642c626f60008301527f72726f7765722063616e20616464206d6f726520636f6c6c61746572616c00006020830152604082019050919050565b6060820160008201516115e0600085018261164e565b5060208201516115f3602085018261164e565b50604082015161160660408501826113fa565b50505050565b606082016000820151611622600085018261164e565b506020820151611635602085018261164e565b506040820151611648604085018261164e565b50505050565b611657816119a0565b82525050565b611666816119a0565b82525050565b61167d611678826119a0565b611a34565b82525050565b600061168f828561166c565b60208201915061169f828461166c565b6020820191508190509392505050565b600060208201905081810360008301526116c881611418565b9050919050565b600060208201905081810360008301526116e881611458565b9050919050565b6000602082019050818103600083015261170881611498565b9050919050565b60006020820190508181036000830152611728816114fe565b9050919050565b6000602082019050818103600083015261174881611564565b9050919050565b6000602082019050611764600083018461165d565b92915050565b600061016082019050611780600083018a61165d565b61178d60208301896113eb565b61179a60408301886113eb565b6117a7606083018761165d565b6117b4608083018661160c565b6117c160e0830185611409565b6117cf6101008301846115ca565b98975050505050505050565b6000604051905081810181811067ffffffffffffffff8211171561180257611801611acb565b5b8060405250919050565b600067ffffffffffffffff82111561182757611826611acb565b5b601f19601f8301169050602081019050919050565b600082825260208201905092915050565b6000611858826119a0565b9150611863836119a0565b9250827fffffffffffffffffffffffffffffffffffffffffffffffffffffffffffffffff0382111561189857611897611a3e565b5b828201905092915050565b60006118ae826119a0565b91506118b9836119a0565b9250826118c9576118c8611a6d565b5b828204905092915050565b60006118df826119a0565b91506118ea836119a0565b9250817fffffffffffffffffffffffffffffffffffffffffffffffffffffffffffffffff048311821515161561192357611922611a3e565b5b828202905092915050565b6000611939826119a0565b9150611944836119a0565b92508282101561195757611956611a3e565b5b828203905092915050565b600061196d82611980565b9050919050565b60008115159050919050565b600073ffffffffffffffffffffffffffffffffffffffff82169050919050565b6000819050919050565b82818337600083830152505050565b600060028204905060018216806119d157607f821691505b602082108114156119e5576119e4611a9c565b5b50919050565b60006119f6826119a0565b91507fffffffffffffffffffffffffffffffffffffffffffffffffffffffffffffffff821415611a2957611a28611a3e565b5b600182019050919050565b6000819050919050565b7f4e487b7100000000000000000000000000000000000000000000000000000000600052601160045260246000fd5b7f4e487b7100000000000000000000000000000000000000000000000000000000600052601260045260246000fd5b7f4e487b7100000000000000000000000000000000000000000000000000000000600052602260045260246000fd5b7f4e487b7100000000000000000000000000000000000000000000000000000000600052604160045260246000fd5b611b0381611962565b8114611b0e57600080fd5b50565b611b1a81611974565b8114611b2557600080fd5b50565b611b31816119a0565b8114611b3c57600080fd5b5056fea264697066735822122005bab6f7c69bb17e63baabdc291dd9e415f00d6d839cb081476b67c84cf720c464736f6c63430008000033",
      "opcodes": "PUSH1 0x80 PUSH1 0x40 MSTORE PUSH1 0x0 DUP1 SSTORE PUSH1 0x0 PUSH1 0x1 SSTORE CALLVALUE DUP1 ISZERO PUSH2 0x19 JUMPI PUSH1 0x0 DUP1 REVERT JUMPDEST POP PUSH2 0x1B75 DUP1 PUSH2 0x29 PUSH1 0x0 CODECOPY PUSH1 0x0 RETURN INVALID PUSH1 0x80 PUSH1 0x40 MSTORE PUSH1 0x4 CALLDATASIZE LT PUSH2 0x7B JUMPI PUSH1 0x0 CALLDATALOAD PUSH1 0xE0 SHR DUP1 PUSH4 0xB72032C5 GT PUSH2 0x4E JUMPI DUP1 PUSH4 0xB72032C5 EQ PUSH2 0x145 JUMPI DUP1 PUSH4 0xE40C7CC0 EQ PUSH2 0x16E JUMPI DUP1 PUSH4 0xE67DD31E EQ PUSH2 0x197 JUMPI DUP1 PUSH4 0xF62D915A EQ PUSH2 0x1C0 JUMPI PUSH2 0x7B JUMP JUMPDEST DUP1 PUSH4 0x1E6C598E EQ PUSH2 0x80 JUMPI DUP1 PUSH4 0x4902575A EQ PUSH2 0xC3 JUMPI DUP1 PUSH4 0x5885C655 EQ PUSH2 0xDF JUMPI DUP1 PUSH4 0x94A53F7C EQ PUSH2 0x108 JUMPI JUMPDEST PUSH1 0x0 DUP1 REVERT JUMPDEST CALLVALUE DUP1 ISZERO PUSH2 0x8C JUMPI PUSH1 0x0 DUP1 REVERT JUMPDEST POP PUSH2 0xA7 PUSH1 0x4 DUP1 CALLDATASIZE SUB DUP2 ADD SWAP1 PUSH2 0xA2 SWAP2 SWAP1 PUSH2 0x1386 JUMP JUMPDEST PUSH2 0x1DC JUMP JUMPDEST PUSH1 0x40 MLOAD PUSH2 0xBA SWAP8 SWAP7 SWAP6 SWAP5 SWAP4 SWAP3 SWAP2 SWAP1 PUSH2 0x176A JUMP JUMPDEST PUSH1 0x40 MLOAD DUP1 SWAP2 SUB SWAP1 RETURN JUMPDEST PUSH2 0xDD PUSH1 0x4 DUP1 CALLDATASIZE SUB DUP2 ADD SWAP1 PUSH2 0xD8 SWAP2 SWAP1 PUSH2 0x1386 JUMP JUMPDEST PUSH2 0x2CC JUMP JUMPDEST STOP JUMPDEST CALLVALUE DUP1 ISZERO PUSH2 0xEB JUMPI PUSH1 0x0 DUP1 REVERT JUMPDEST POP PUSH2 0x106 PUSH1 0x4 DUP1 CALLDATASIZE SUB DUP2 ADD SWAP1 PUSH2 0x101 SWAP2 SWAP1 PUSH2 0x1332 JUMP JUMPDEST PUSH2 0x460 JUMP JUMPDEST STOP JUMPDEST CALLVALUE DUP1 ISZERO PUSH2 0x114 JUMPI PUSH1 0x0 DUP1 REVERT JUMPDEST POP PUSH2 0x12F PUSH1 0x4 DUP1 CALLDATASIZE SUB DUP2 ADD SWAP1 PUSH2 0x12A SWAP2 SWAP1 PUSH2 0x1386 JUMP JUMPDEST PUSH2 0x7A5 JUMP JUMPDEST PUSH1 0x40 MLOAD PUSH2 0x13C SWAP2 SWAP1 PUSH2 0x174F JUMP JUMPDEST PUSH1 0x40 MLOAD DUP1 SWAP2 SUB SWAP1 RETURN JUMPDEST CALLVALUE DUP1 ISZERO PUSH2 0x151 JUMPI PUSH1 0x0 DUP1 REVERT JUMPDEST POP PUSH2 0x16C PUSH1 0x4 DUP1 CALLDATASIZE SUB DUP2 ADD SWAP1 PUSH2 0x167 SWAP2 SWAP1 PUSH2 0x126D JUMP JUMPDEST PUSH2 0x9D0 JUMP JUMPDEST STOP JUMPDEST CALLVALUE DUP1 ISZERO PUSH2 0x17A JUMPI PUSH1 0x0 DUP1 REVERT JUMPDEST POP PUSH2 0x195 PUSH1 0x4 DUP1 CALLDATASIZE SUB DUP2 ADD SWAP1 PUSH2 0x190 SWAP2 SWAP1 PUSH2 0x12F6 JUMP JUMPDEST PUSH2 0xAD0 JUMP JUMPDEST STOP JUMPDEST CALLVALUE DUP1 ISZERO PUSH2 0x1A3 JUMPI PUSH1 0x0 DUP1 REVERT JUMPDEST POP PUSH2 0x1BE PUSH1 0x4 DUP1 CALLDATASIZE SUB DUP2 ADD SWAP1 PUSH2 0x1B9 SWAP2 SWAP1 PUSH2 0x13AF JUMP JUMPDEST PUSH2 0xC14 JUMP JUMPDEST STOP JUMPDEST PUSH2 0x1DA PUSH1 0x4 DUP1 CALLDATASIZE SUB DUP2 ADD SWAP1 PUSH2 0x1D5 SWAP2 SWAP1 PUSH2 0x1386 JUMP JUMPDEST PUSH2 0xE51 JUMP JUMPDEST STOP JUMPDEST PUSH1 0x2 PUSH1 0x20 MSTORE DUP1 PUSH1 0x0 MSTORE PUSH1 0x40 PUSH1 0x0 KECCAK256 PUSH1 0x0 SWAP2 POP SWAP1 POP DUP1 PUSH1 0x0 ADD SLOAD SWAP1 DUP1 PUSH1 0x1 ADD PUSH1 0x0 SWAP1 SLOAD SWAP1 PUSH2 0x100 EXP SWAP1 DIV PUSH20 0xFFFFFFFFFFFFFFFFFFFFFFFFFFFFFFFFFFFFFFFF AND SWAP1 DUP1 PUSH1 0x2 ADD PUSH1 0x0 SWAP1 SLOAD SWAP1 PUSH2 0x100 EXP SWAP1 DIV PUSH20 0xFFFFFFFFFFFFFFFFFFFFFFFFFFFFFFFFFFFFFFFF AND SWAP1 DUP1 PUSH1 0x3 ADD SLOAD SWAP1 DUP1 PUSH1 0x5 ADD PUSH1 0x40 MLOAD DUP1 PUSH1 0x60 ADD PUSH1 0x40 MSTORE SWAP1 DUP2 PUSH1 0x0 DUP3 ADD SLOAD DUP2 MSTORE PUSH1 0x20 ADD PUSH1 0x1 DUP3 ADD SLOAD DUP2 MSTORE PUSH1 0x20 ADD PUSH1 0x2 DUP3 ADD SLOAD DUP2 MSTORE POP POP SWAP1 DUP1 PUSH1 0x8 ADD PUSH1 0x0 SWAP1 SLOAD SWAP1 PUSH2 0x100 EXP SWAP1 DIV PUSH1 0xFF AND SWAP1 DUP1 PUSH1 0x9 ADD PUSH1 0x40 MLOAD DUP1 PUSH1 0x60 ADD PUSH1 0x40 MSTORE SWAP1 DUP2 PUSH1 0x0 DUP3 ADD SLOAD DUP2 MSTORE PUSH1 0x20 ADD PUSH1 0x1 DUP3 ADD SLOAD DUP2 MSTORE PUSH1 0x20 ADD PUSH1 0x2 DUP3 ADD PUSH1 0x0 SWAP1 SLOAD SWAP1 PUSH2 0x100 EXP SWAP1 DIV PUSH1 0xFF AND ISZERO ISZERO ISZERO ISZERO DUP2 MSTORE POP POP SWAP1 POP DUP8 JUMP JUMPDEST DUP1 PUSH1 0x2 PUSH1 0x0 DUP3 DUP2 MSTORE PUSH1 0x20 ADD SWAP1 DUP2 MSTORE PUSH1 0x20 ADD PUSH1 0x0 KECCAK256 PUSH1 0x1 ADD PUSH1 0x0 SWAP1 SLOAD SWAP1 PUSH2 0x100 EXP SWAP1 DIV PUSH20 0xFFFFFFFFFFFFFFFFFFFFFFFFFFFFFFFFFFFFFFFF AND PUSH20 0xFFFFFFFFFFFFFFFFFFFFFFFFFFFFFFFFFFFFFFFF AND CALLER PUSH20 0xFFFFFFFFFFFFFFFFFFFFFFFFFFFFFFFFFFFFFFFF AND EQ DUP1 PUSH2 0x39E JUMPI POP PUSH1 0x2 PUSH1 0x0 DUP3 DUP2 MSTORE PUSH1 0x20 ADD SWAP1 DUP2 MSTORE PUSH1 0x20 ADD PUSH1 0x0 KECCAK256 PUSH1 0x2 ADD PUSH1 0x0 SWAP1 SLOAD SWAP1 PUSH2 0x100 EXP SWAP1 DIV PUSH20 0xFFFFFFFFFFFFFFFFFFFFFFFFFFFFFFFFFFFFFFFF AND PUSH20 0xFFFFFFFFFFFFFFFFFFFFFFFFFFFFFFFFFFFFFFFF AND CALLER PUSH20 0xFFFFFFFFFFFFFFFFFFFFFFFFFFFFFFFFFFFFFFFF AND EQ JUMPDEST PUSH2 0x3DD JUMPI PUSH1 0x40 MLOAD PUSH32 0x8C379A000000000000000000000000000000000000000000000000000000000 DUP2 MSTORE PUSH1 0x4 ADD PUSH2 0x3D4 SWAP1 PUSH2 0x16AF JUMP JUMPDEST PUSH1 0x40 MLOAD DUP1 SWAP2 SUB SWAP1 REVERT JUMPDEST PUSH1 0x2 PUSH1 0x0 DUP4 DUP2 MSTORE PUSH1 0x20 ADD SWAP1 DUP2 MSTORE PUSH1 0x20 ADD PUSH1 0x0 KECCAK256 PUSH1 0x2 ADD PUSH1 0x0 SWAP1 SLOAD SWAP1 PUSH2 0x100 EXP SWAP1 DIV PUSH20 0xFFFFFFFFFFFFFFFFFFFFFFFFFFFFFFFFFFFFFFFF AND PUSH20 0xFFFFFFFFFFFFFFFFFFFFFFFFFFFFFFFFFFFFFFFF AND PUSH2 0x8FC PUSH2 0x3E8 SWAP1 DUP2 ISZERO MUL SWAP1 PUSH1 0x40 MLOAD PUSH1 0x0 PUSH1 0x40 MLOAD DUP1 DUP4 SUB DUP2 DUP6 DUP9 DUP9 CALL SWAP4 POP POP POP POP ISZERO DUP1 ISZERO PUSH2 0x45B JUMPI RETURNDATASIZE PUSH1 0x0 DUP1 RETURNDATACOPY RETURNDATASIZE PUSH1 0x0 REVERT JUMPDEST POP POP POP JUMP JUMPDEST DUP1 PUSH1 0x2 PUSH1 0x0 DUP3 DUP2 MSTORE PUSH1 0x20 ADD SWAP1 DUP2 MSTORE PUSH1 0x20 ADD PUSH1 0x0 KECCAK256 PUSH1 0x1 ADD PUSH1 0x0 SWAP1 SLOAD SWAP1 PUSH2 0x100 EXP SWAP1 DIV PUSH20 0xFFFFFFFFFFFFFFFFFFFFFFFFFFFFFFFFFFFFFFFF AND PUSH20 0xFFFFFFFFFFFFFFFFFFFFFFFFFFFFFFFFFFFFFFFF AND CALLER PUSH20 0xFFFFFFFFFFFFFFFFFFFFFFFFFFFFFFFFFFFFFFFF AND EQ DUP1 PUSH2 0x532 JUMPI POP PUSH1 0x2 PUSH1 0x0 DUP3 DUP2 MSTORE PUSH1 0x20 ADD SWAP1 DUP2 MSTORE PUSH1 0x20 ADD PUSH1 0x0 KECCAK256 PUSH1 0x2 ADD PUSH1 0x0 SWAP1 SLOAD SWAP1 PUSH2 0x100 EXP SWAP1 DIV PUSH20 0xFFFFFFFFFFFFFFFFFFFFFFFFFFFFFFFFFFFFFFFF AND PUSH20 0xFFFFFFFFFFFFFFFFFFFFFFFFFFFFFFFFFFFFFFFF AND CALLER PUSH20 0xFFFFFFFFFFFFFFFFFFFFFFFFFFFFFFFFFFFFFFFF AND EQ JUMPDEST PUSH2 0x571 JUMPI PUSH1 0x40 MLOAD PUSH32 0x8C379A000000000000000000000000000000000000000000000000000000000 DUP2 MSTORE PUSH1 0x4 ADD PUSH2 0x568 SWAP1 PUSH2 0x16AF JUMP JUMPDEST PUSH1 0x40 MLOAD DUP1 SWAP2 SUB SWAP1 REVERT JUMPDEST DUP2 PUSH1 0x2 PUSH1 0x0 DUP3 DUP2 MSTORE PUSH1 0x20 ADD SWAP1 DUP2 MSTORE PUSH1 0x20 ADD PUSH1 0x0 KECCAK256 PUSH1 0x8 ADD PUSH1 0x0 SWAP1 SLOAD SWAP1 PUSH2 0x100 EXP SWAP1 DIV PUSH1 0xFF AND PUSH2 0x5D5 JUMPI PUSH1 0x40 MLOAD PUSH32 0x8C379A000000000000000000000000000000000000000000000000000000000 DUP2 MSTORE PUSH1 0x4 ADD PUSH2 0x5CC SWAP1 PUSH2 0x16EF JUMP JUMPDEST PUSH1 0x40 MLOAD DUP1 SWAP2 SUB SWAP1 REVERT JUMPDEST DUP3 DUP5 DUP1 PUSH1 0x60 ADD MLOAD PUSH1 0x2 PUSH1 0x0 DUP5 DUP2 MSTORE PUSH1 0x20 ADD SWAP1 DUP2 MSTORE PUSH1 0x20 ADD PUSH1 0x0 KECCAK256 PUSH1 0x5 ADD PUSH1 0x2 ADD SLOAD EQ PUSH2 0x636 JUMPI PUSH1 0x40 MLOAD PUSH32 0x8C379A000000000000000000000000000000000000000000000000000000000 DUP2 MSTORE PUSH1 0x4 ADD PUSH2 0x62D SWAP1 PUSH2 0x16CF JUMP JUMPDEST PUSH1 0x40 MLOAD DUP1 SWAP2 SUB SWAP1 REVERT JUMPDEST DUP6 PUSH1 0x2 PUSH1 0x0 DUP8 DUP2 MSTORE PUSH1 0x20 ADD SWAP1 DUP2 MSTORE PUSH1 0x20 ADD PUSH1 0x0 KECCAK256 PUSH1 0x4 ADD PUSH1 0x1 SLOAD DUP2 SLOAD DUP2 LT PUSH2 0x687 JUMPI PUSH32 0x4E487B7100000000000000000000000000000000000000000000000000000000 PUSH1 0x0 MSTORE PUSH1 0x32 PUSH1 0x4 MSTORE PUSH1 0x24 PUSH1 0x0 REVERT JUMPDEST SWAP1 PUSH1 0x0 MSTORE PUSH1 0x20 PUSH1 0x0 KECCAK256 SWAP1 PUSH1 0x4 MUL ADD PUSH1 0x0 DUP3 ADD MLOAD DUP2 PUSH1 0x0 ADD SWAP1 DUP1 MLOAD SWAP1 PUSH1 0x20 ADD SWAP1 PUSH2 0x6B1 SWAP3 SWAP2 SWAP1 PUSH2 0x1097 JUMP JUMPDEST POP PUSH1 0x20 DUP3 ADD MLOAD DUP2 PUSH1 0x1 ADD SSTORE PUSH1 0x40 DUP3 ADD MLOAD DUP2 PUSH1 0x2 ADD SSTORE PUSH1 0x60 DUP3 ADD MLOAD DUP2 PUSH1 0x3 ADD SSTORE SWAP1 POP POP PUSH1 0x2 PUSH1 0x0 DUP7 DUP2 MSTORE PUSH1 0x20 ADD SWAP1 DUP2 MSTORE PUSH1 0x20 ADD PUSH1 0x0 KECCAK256 PUSH1 0x9 ADD PUSH1 0x2 ADD PUSH1 0x0 SWAP1 SLOAD SWAP1 PUSH2 0x100 EXP SWAP1 DIV PUSH1 0xFF AND ISZERO PUSH2 0x785 JUMPI PUSH1 0x2 PUSH1 0x0 DUP7 DUP2 MSTORE PUSH1 0x20 ADD SWAP1 DUP2 MSTORE PUSH1 0x20 ADD PUSH1 0x0 KECCAK256 PUSH1 0x9 ADD PUSH1 0x0 ADD SLOAD DUP7 PUSH1 0x20 ADD MLOAD DUP8 PUSH1 0x40 ADD MLOAD PUSH2 0x72D SWAP2 SWAP1 PUSH2 0x18D4 JUMP JUMPDEST LT PUSH2 0x784 JUMPI PUSH1 0x0 PUSH1 0x2 PUSH1 0x0 DUP8 DUP2 MSTORE PUSH1 0x20 ADD SWAP1 DUP2 MSTORE PUSH1 0x20 ADD PUSH1 0x0 KECCAK256 PUSH1 0x9 ADD PUSH1 0x2 ADD PUSH1 0x0 PUSH2 0x100 EXP DUP2 SLOAD DUP2 PUSH1 0xFF MUL NOT AND SWAP1 DUP4 ISZERO ISZERO MUL OR SWAP1 SSTORE POP PUSH1 0x0 PUSH1 0x2 PUSH1 0x0 DUP8 DUP2 MSTORE PUSH1 0x20 ADD SWAP1 DUP2 MSTORE PUSH1 0x20 ADD PUSH1 0x0 KECCAK256 PUSH1 0x9 ADD PUSH1 0x1 ADD DUP2 SWAP1 SSTORE POP JUMPDEST JUMPDEST PUSH1 0x1 PUSH1 0x0 DUP2 SLOAD DUP1 SWAP3 SWAP2 SWAP1 PUSH2 0x798 SWAP1 PUSH2 0x19EB JUMP JUMPDEST SWAP2 SWAP1 POP SSTORE POP POP POP POP POP POP POP JUMP JUMPDEST PUSH1 0x0 DUP2 PUSH1 0x2 PUSH1 0x0 DUP3 DUP2 MSTORE PUSH1 0x20 ADD SWAP1 DUP2 MSTORE PUSH1 0x20 ADD PUSH1 0x0 KECCAK256 PUSH1 0x1 ADD PUSH1 0x0 SWAP1 SLOAD SWAP1 PUSH2 0x100 EXP SWAP1 DIV PUSH20 0xFFFFFFFFFFFFFFFFFFFFFFFFFFFFFFFFFFFFFFFF AND PUSH20 0xFFFFFFFFFFFFFFFFFFFFFFFFFFFFFFFFFFFFFFFF AND CALLER PUSH20 0xFFFFFFFFFFFFFFFFFFFFFFFFFFFFFFFFFFFFFFFF AND EQ DUP1 PUSH2 0x879 JUMPI POP PUSH1 0x2 PUSH1 0x0 DUP3 DUP2 MSTORE PUSH1 0x20 ADD SWAP1 DUP2 MSTORE PUSH1 0x20 ADD PUSH1 0x0 KECCAK256 PUSH1 0x2 ADD PUSH1 0x0 SWAP1 SLOAD SWAP1 PUSH2 0x100 EXP SWAP1 DIV PUSH20 0xFFFFFFFFFFFFFFFFFFFFFFFFFFFFFFFFFFFFFFFF AND PUSH20 0xFFFFFFFFFFFFFFFFFFFFFFFFFFFFFFFFFFFFFFFF AND CALLER PUSH20 0xFFFFFFFFFFFFFFFFFFFFFFFFFFFFFFFFFFFFFFFF AND EQ JUMPDEST PUSH2 0x8B8 JUMPI PUSH1 0x40 MLOAD PUSH32 0x8C379A000000000000000000000000000000000000000000000000000000000 DUP2 MSTORE PUSH1 0x4 ADD PUSH2 0x8AF SWAP1 PUSH2 0x16AF JUMP JUMPDEST PUSH1 0x40 MLOAD DUP1 SWAP2 SUB SWAP1 REVERT JUMPDEST PUSH1 0x0 DUP1 JUMPDEST PUSH1 0x2 PUSH1 0x0 DUP7 DUP2 MSTORE PUSH1 0x20 ADD SWAP1 DUP2 MSTORE PUSH1 0x20 ADD PUSH1 0x0 KECCAK256 PUSH1 0x4 ADD DUP1 SLOAD SWAP1 POP DUP2 LT ISZERO PUSH2 0x9C5 JUMPI PUSH1 0x2 PUSH1 0x0 DUP7 DUP2 MSTORE PUSH1 0x20 ADD SWAP1 DUP2 MSTORE PUSH1 0x20 ADD PUSH1 0x0 KECCAK256 PUSH1 0x4 ADD DUP2 DUP2 SLOAD DUP2 LT PUSH2 0x92B JUMPI PUSH32 0x4E487B7100000000000000000000000000000000000000000000000000000000 PUSH1 0x0 MSTORE PUSH1 0x32 PUSH1 0x4 MSTORE PUSH1 0x24 PUSH1 0x0 REVERT JUMPDEST SWAP1 PUSH1 0x0 MSTORE PUSH1 0x20 PUSH1 0x0 KECCAK256 SWAP1 PUSH1 0x4 MUL ADD PUSH1 0x1 ADD SLOAD PUSH1 0x2 PUSH1 0x0 DUP8 DUP2 MSTORE PUSH1 0x20 ADD SWAP1 DUP2 MSTORE PUSH1 0x20 ADD PUSH1 0x0 KECCAK256 PUSH1 0x4 ADD DUP3 DUP2 SLOAD DUP2 LT PUSH2 0x98B JUMPI PUSH32 0x4E487B7100000000000000000000000000000000000000000000000000000000 PUSH1 0x0 MSTORE PUSH1 0x32 PUSH1 0x4 MSTORE PUSH1 0x24 PUSH1 0x0 REVERT JUMPDEST SWAP1 PUSH1 0x0 MSTORE PUSH1 0x20 PUSH1 0x0 KECCAK256 SWAP1 PUSH1 0x4 MUL ADD PUSH1 0x2 ADD SLOAD PUSH2 0x9A7 SWAP2 SWAP1 PUSH2 0x18D4 JUMP JUMPDEST DUP3 PUSH2 0x9B2 SWAP2 SWAP1 PUSH2 0x184D JUMP JUMPDEST SWAP2 POP DUP1 PUSH2 0x9BE SWAP1 PUSH2 0x19EB JUMP JUMPDEST SWAP1 POP PUSH2 0x8BC JUMP JUMPDEST POP DUP1 SWAP3 POP POP POP SWAP2 SWAP1 POP JUMP JUMPDEST PUSH1 0x0 PUSH2 0x9DA PUSH2 0x1064 JUMP JUMPDEST SWAP1 POP PUSH1 0x0 PUSH1 0x2 PUSH1 0x0 DUP4 DUP2 MSTORE PUSH1 0x20 ADD SWAP1 DUP2 MSTORE PUSH1 0x20 ADD PUSH1 0x0 KECCAK256 SWAP1 POP DUP2 DUP2 PUSH1 0x0 ADD DUP2 SWAP1 SSTORE POP DUP8 DUP2 PUSH1 0x2 ADD PUSH1 0x0 PUSH2 0x100 EXP DUP2 SLOAD DUP2 PUSH20 0xFFFFFFFFFFFFFFFFFFFFFFFFFFFFFFFFFFFFFFFF MUL NOT AND SWAP1 DUP4 PUSH20 0xFFFFFFFFFFFFFFFFFFFFFFFFFFFFFFFFFFFFFFFF AND MUL OR SWAP1 SSTORE POP DUP7 DUP2 PUSH1 0x1 ADD PUSH1 0x0 PUSH2 0x100 EXP DUP2 SLOAD DUP2 PUSH20 0xFFFFFFFFFFFFFFFFFFFFFFFFFFFFFFFFFFFFFFFF MUL NOT AND SWAP1 DUP4 PUSH20 0xFFFFFFFFFFFFFFFFFFFFFFFFFFFFFFFFFFFFFFFF AND MUL OR SWAP1 SSTORE POP DUP6 DUP2 PUSH1 0x3 ADD DUP2 SWAP1 SSTORE POP DUP5 DUP2 PUSH1 0x5 ADD PUSH1 0x0 ADD DUP2 SWAP1 SSTORE POP DUP4 DUP2 PUSH1 0x5 ADD PUSH1 0x1 ADD DUP2 SWAP1 SSTORE POP DUP3 DUP2 PUSH1 0x5 ADD PUSH1 0x2 ADD DUP2 SWAP1 SSTORE POP PUSH1 0x0 DUP1 DUP2 SLOAD DUP1 SWAP3 SWAP2 SWAP1 PUSH2 0xAC1 SWAP1 PUSH2 0x19EB JUMP JUMPDEST SWAP2 SWAP1 POP SSTORE POP POP POP POP POP POP POP POP POP JUMP JUMPDEST DUP1 PUSH1 0x2 PUSH1 0x0 DUP3 DUP2 MSTORE PUSH1 0x20 ADD SWAP1 DUP2 MSTORE PUSH1 0x20 ADD PUSH1 0x0 KECCAK256 PUSH1 0x1 ADD PUSH1 0x0 SWAP1 SLOAD SWAP1 PUSH2 0x100 EXP SWAP1 DIV PUSH20 0xFFFFFFFFFFFFFFFFFFFFFFFFFFFFFFFFFFFFFFFF AND PUSH20 0xFFFFFFFFFFFFFFFFFFFFFFFFFFFFFFFFFFFFFFFF AND CALLER PUSH20 0xFFFFFFFFFFFFFFFFFFFFFFFFFFFFFFFFFFFFFFFF AND EQ DUP1 PUSH2 0xBA2 JUMPI POP PUSH1 0x2 PUSH1 0x0 DUP3 DUP2 MSTORE PUSH1 0x20 ADD SWAP1 DUP2 MSTORE PUSH1 0x20 ADD PUSH1 0x0 KECCAK256 PUSH1 0x2 ADD PUSH1 0x0 SWAP1 SLOAD SWAP1 PUSH2 0x100 EXP SWAP1 DIV PUSH20 0xFFFFFFFFFFFFFFFFFFFFFFFFFFFFFFFFFFFFFFFF AND PUSH20 0xFFFFFFFFFFFFFFFFFFFFFFFFFFFFFFFFFFFFFFFF AND CALLER PUSH20 0xFFFFFFFFFFFFFFFFFFFFFFFFFFFFFFFFFFFFFFFF AND EQ JUMPDEST PUSH2 0xBE1 JUMPI PUSH1 0x40 MLOAD PUSH32 0x8C379A000000000000000000000000000000000000000000000000000000000 DUP2 MSTORE PUSH1 0x4 ADD PUSH2 0xBD8 SWAP1 PUSH2 0x16AF JUMP JUMPDEST PUSH1 0x40 MLOAD DUP1 SWAP2 SUB SWAP1 REVERT JUMPDEST DUP3 PUSH1 0x2 PUSH1 0x0 DUP5 DUP2 MSTORE PUSH1 0x20 ADD SWAP1 DUP2 MSTORE PUSH1 0x20 ADD PUSH1 0x0 KECCAK256 PUSH1 0x8 ADD PUSH1 0x0 PUSH2 0x100 EXP DUP2 SLOAD DUP2 PUSH1 0xFF MUL NOT AND SWAP1 DUP4 ISZERO ISZERO MUL OR SWAP1 SSTORE POP POP POP POP JUMP JUMPDEST DUP2 PUSH1 0x2 PUSH1 0x0 DUP3 DUP2 MSTORE PUSH1 0x20 ADD SWAP1 DUP2 MSTORE PUSH1 0x20 ADD PUSH1 0x0 KECCAK256 PUSH1 0x1 ADD PUSH1 0x0 SWAP1 SLOAD SWAP1 PUSH2 0x100 EXP SWAP1 DIV PUSH20 0xFFFFFFFFFFFFFFFFFFFFFFFFFFFFFFFFFFFFFFFF AND PUSH20 0xFFFFFFFFFFFFFFFFFFFFFFFFFFFFFFFFFFFFFFFF AND CALLER PUSH20 0xFFFFFFFFFFFFFFFFFFFFFFFFFFFFFFFFFFFFFFFF AND EQ DUP1 PUSH2 0xCE6 JUMPI POP PUSH1 0x2 PUSH1 0x0 DUP3 DUP2 MSTORE PUSH1 0x20 ADD SWAP1 DUP2 MSTORE PUSH1 0x20 ADD PUSH1 0x0 KECCAK256 PUSH1 0x2 ADD PUSH1 0x0 SWAP1 SLOAD SWAP1 PUSH2 0x100 EXP SWAP1 DIV PUSH20 0xFFFFFFFFFFFFFFFFFFFFFFFFFFFFFFFFFFFFFFFF AND PUSH20 0xFFFFFFFFFFFFFFFFFFFFFFFFFFFFFFFFFFFFFFFF AND CALLER PUSH20 0xFFFFFFFFFFFFFFFFFFFFFFFFFFFFFFFFFFFFFFFF AND EQ JUMPDEST PUSH2 0xD25 JUMPI PUSH1 0x40 MLOAD PUSH32 0x8C379A000000000000000000000000000000000000000000000000000000000 DUP2 MSTORE PUSH1 0x4 ADD PUSH2 0xD1C SWAP1 PUSH2 0x16AF JUMP JUMPDEST PUSH1 0x40 MLOAD DUP1 SWAP2 SUB SWAP1 REVERT JUMPDEST DUP3 PUSH1 0x0 PUSH1 0x2 PUSH1 0x0 DUP4 DUP2 MSTORE PUSH1 0x20 ADD SWAP1 DUP2 MSTORE PUSH1 0x20 ADD PUSH1 0x0 KECCAK256 PUSH1 0x3 ADD SLOAD PUSH2 0xD48 DUP4 PUSH2 0x7A5 JUMP JUMPDEST PUSH2 0xD52 SWAP2 SWAP1 PUSH2 0x18A3 JUMP JUMPDEST PUSH1 0x2 PUSH1 0x0 DUP5 DUP2 MSTORE PUSH1 0x20 ADD SWAP1 DUP2 MSTORE PUSH1 0x20 ADD PUSH1 0x0 KECCAK256 PUSH1 0x3 ADD SLOAD PUSH2 0xD73 SWAP2 SWAP1 PUSH2 0x192E JUMP JUMPDEST SWAP1 POP PUSH1 0x2 PUSH1 0x0 DUP4 DUP2 MSTORE PUSH1 0x20 ADD SWAP1 DUP2 MSTORE PUSH1 0x20 ADD PUSH1 0x0 KECCAK256 PUSH1 0x5 ADD PUSH1 0x0 ADD SLOAD PUSH1 0x64 DUP3 PUSH2 0xD9C SWAP2 SWAP1 PUSH2 0x18D4 JUMP JUMPDEST GT PUSH2 0xDDC JUMPI PUSH1 0x40 MLOAD PUSH32 0x8C379A000000000000000000000000000000000000000000000000000000000 DUP2 MSTORE PUSH1 0x4 ADD PUSH2 0xDD3 SWAP1 PUSH2 0x170F JUMP JUMPDEST PUSH1 0x40 MLOAD DUP1 SWAP2 SUB SWAP1 REVERT JUMPDEST PUSH1 0x1 PUSH1 0x2 PUSH1 0x0 DUP8 DUP2 MSTORE PUSH1 0x20 ADD SWAP1 DUP2 MSTORE PUSH1 0x20 ADD PUSH1 0x0 KECCAK256 PUSH1 0x9 ADD PUSH1 0x2 ADD PUSH1 0x0 PUSH2 0x100 EXP DUP2 SLOAD DUP2 PUSH1 0xFF MUL NOT AND SWAP1 DUP4 ISZERO ISZERO MUL OR SWAP1 SSTORE POP TIMESTAMP PUSH1 0x2 PUSH1 0x0 DUP8 DUP2 MSTORE PUSH1 0x20 ADD SWAP1 DUP2 MSTORE PUSH1 0x20 ADD PUSH1 0x0 KECCAK256 PUSH1 0x9 ADD PUSH1 0x1 ADD DUP2 SWAP1 SSTORE POP DUP4 PUSH1 0x2 PUSH1 0x0 DUP8 DUP2 MSTORE PUSH1 0x20 ADD SWAP1 DUP2 MSTORE PUSH1 0x20 ADD PUSH1 0x0 KECCAK256 PUSH1 0x9 ADD PUSH1 0x0 ADD DUP2 SWAP1 SSTORE POP POP POP POP POP POP JUMP JUMPDEST DUP1 PUSH1 0x2 PUSH1 0x0 DUP3 DUP2 MSTORE PUSH1 0x20 ADD SWAP1 DUP2 MSTORE PUSH1 0x20 ADD PUSH1 0x0 KECCAK256 PUSH1 0x1 ADD PUSH1 0x0 SWAP1 SLOAD SWAP1 PUSH2 0x100 EXP SWAP1 DIV PUSH20 0xFFFFFFFFFFFFFFFFFFFFFFFFFFFFFFFFFFFFFFFF AND PUSH20 0xFFFFFFFFFFFFFFFFFFFFFFFFFFFFFFFFFFFFFFFF AND CALLER PUSH20 0xFFFFFFFFFFFFFFFFFFFFFFFFFFFFFFFFFFFFFFFF AND EQ DUP1 PUSH2 0xF23 JUMPI POP PUSH1 0x2 PUSH1 0x0 DUP3 DUP2 MSTORE PUSH1 0x20 ADD SWAP1 DUP2 MSTORE PUSH1 0x20 ADD PUSH1 0x0 KECCAK256 PUSH1 0x2 ADD PUSH1 0x0 SWAP1 SLOAD SWAP1 PUSH2 0x100 EXP SWAP1 DIV PUSH20 0xFFFFFFFFFFFFFFFFFFFFFFFFFFFFFFFFFFFFFFFF AND PUSH20 0xFFFFFFFFFFFFFFFFFFFFFFFFFFFFFFFFFFFFFFFF AND CALLER PUSH20 0xFFFFFFFFFFFFFFFFFFFFFFFFFFFFFFFFFFFFFFFF AND EQ JUMPDEST PUSH2 0xF62 JUMPI PUSH1 0x40 MLOAD PUSH32 0x8C379A000000000000000000000000000000000000000000000000000000000 DUP2 MSTORE PUSH1 0x4 ADD PUSH2 0xF59 SWAP1 PUSH2 0x16AF JUMP JUMPDEST PUSH1 0x40 MLOAD DUP1 SWAP2 SUB SWAP1 REVERT JUMPDEST DUP2 CALLVALUE PUSH2 0xF6D DUP3 PUSH2 0x7A5 JUMP JUMPDEST DUP2 GT PUSH2 0xFAE JUMPI PUSH1 0x40 MLOAD PUSH32 0x8C379A000000000000000000000000000000000000000000000000000000000 DUP2 MSTORE PUSH1 0x4 ADD PUSH2 0xFA5 SWAP1 PUSH2 0x172F JUMP JUMPDEST PUSH1 0x40 MLOAD DUP1 SWAP2 SUB SWAP1 REVERT JUMPDEST PUSH1 0x0 PUSH1 0x2 PUSH1 0x0 DUP7 DUP2 MSTORE PUSH1 0x20 ADD SWAP1 DUP2 MSTORE PUSH1 0x20 ADD PUSH1 0x0 KECCAK256 PUSH1 0x1 ADD PUSH1 0x0 SWAP1 SLOAD SWAP1 PUSH2 0x100 EXP SWAP1 DIV PUSH20 0xFFFFFFFFFFFFFFFFFFFFFFFFFFFFFFFFFFFFFFFF AND SWAP1 POP CALLVALUE PUSH1 0x2 PUSH1 0x0 DUP8 DUP2 MSTORE PUSH1 0x20 ADD SWAP1 DUP2 MSTORE PUSH1 0x20 ADD PUSH1 0x0 KECCAK256 PUSH1 0x3 ADD PUSH1 0x0 DUP3 DUP3 SLOAD PUSH2 0x100F SWAP2 SWAP1 PUSH2 0x184D JUMP JUMPDEST SWAP3 POP POP DUP2 SWAP1 SSTORE POP DUP1 PUSH20 0xFFFFFFFFFFFFFFFFFFFFFFFFFFFFFFFFFFFFFFFF AND PUSH2 0x8FC CALLVALUE SWAP1 DUP2 ISZERO MUL SWAP1 PUSH1 0x40 MLOAD PUSH1 0x0 PUSH1 0x40 MLOAD DUP1 DUP4 SUB DUP2 DUP6 DUP9 DUP9 CALL SWAP4 POP POP POP POP ISZERO DUP1 ISZERO PUSH2 0x105C JUMPI RETURNDATASIZE PUSH1 0x0 DUP1 RETURNDATACOPY RETURNDATASIZE PUSH1 0x0 REVERT JUMPDEST POP POP POP POP POP POP JUMP JUMPDEST PUSH1 0x0 DIFFICULTY TIMESTAMP PUSH1 0x40 MLOAD PUSH1 0x20 ADD PUSH2 0x1079 SWAP3 SWAP2 SWAP1 PUSH2 0x1683 JUMP JUMPDEST PUSH1 0x40 MLOAD PUSH1 0x20 DUP2 DUP4 SUB SUB DUP2 MSTORE SWAP1 PUSH1 0x40 MSTORE DUP1 MLOAD SWAP1 PUSH1 0x20 ADD KECCAK256 PUSH1 0x0 SHR SWAP1 POP SWAP1 JUMP JUMPDEST DUP3 DUP1 SLOAD PUSH2 0x10A3 SWAP1 PUSH2 0x19B9 JUMP JUMPDEST SWAP1 PUSH1 0x0 MSTORE PUSH1 0x20 PUSH1 0x0 KECCAK256 SWAP1 PUSH1 0x1F ADD PUSH1 0x20 SWAP1 DIV DUP2 ADD SWAP3 DUP3 PUSH2 0x10C5 JUMPI PUSH1 0x0 DUP6 SSTORE PUSH2 0x110C JUMP JUMPDEST DUP3 PUSH1 0x1F LT PUSH2 0x10DE JUMPI DUP1 MLOAD PUSH1 0xFF NOT AND DUP4 DUP1 ADD OR DUP6 SSTORE PUSH2 0x110C JUMP JUMPDEST DUP3 DUP1 ADD PUSH1 0x1 ADD DUP6 SSTORE DUP3 ISZERO PUSH2 0x110C JUMPI SWAP2 DUP3 ADD JUMPDEST DUP3 DUP2 GT ISZERO PUSH2 0x110B JUMPI DUP3 MLOAD DUP3 SSTORE SWAP2 PUSH1 0x20 ADD SWAP2 SWAP1 PUSH1 0x1 ADD SWAP1 PUSH2 0x10F0 JUMP JUMPDEST JUMPDEST POP SWAP1 POP PUSH2 0x1119 SWAP2 SWAP1 PUSH2 0x111D JUMP JUMPDEST POP SWAP1 JUMP JUMPDEST JUMPDEST DUP1 DUP3 GT ISZERO PUSH2 0x1136 JUMPI PUSH1 0x0 DUP2 PUSH1 0x0 SWAP1 SSTORE POP PUSH1 0x1 ADD PUSH2 0x111E JUMP JUMPDEST POP SWAP1 JUMP JUMPDEST PUSH1 0x0 PUSH2 0x114D PUSH2 0x1148 DUP5 PUSH2 0x180C JUMP JUMPDEST PUSH2 0x17DB JUMP JUMPDEST SWAP1 POP DUP3 DUP2 MSTORE PUSH1 0x20 DUP2 ADD DUP5 DUP5 DUP5 ADD GT ISZERO PUSH2 0x1165 JUMPI PUSH1 0x0 DUP1 REVERT JUMPDEST PUSH2 0x1170 DUP5 DUP3 DUP6 PUSH2 0x19AA JUMP JUMPDEST POP SWAP4 SWAP3 POP POP POP JUMP JUMPDEST PUSH1 0x0 DUP2 CALLDATALOAD SWAP1 POP PUSH2 0x1187 DUP2 PUSH2 0x1AFA JUMP JUMPDEST SWAP3 SWAP2 POP POP JUMP JUMPDEST PUSH1 0x0 DUP2 CALLDATALOAD SWAP1 POP PUSH2 0x119C DUP2 PUSH2 0x1B11 JUMP JUMPDEST SWAP3 SWAP2 POP POP JUMP JUMPDEST PUSH1 0x0 DUP3 PUSH1 0x1F DUP4 ADD SLT PUSH2 0x11B3 JUMPI PUSH1 0x0 DUP1 REVERT JUMPDEST DUP2 CALLDATALOAD PUSH2 0x11C3 DUP5 DUP3 PUSH1 0x20 DUP7 ADD PUSH2 0x113A JUMP JUMPDEST SWAP2 POP POP SWAP3 SWAP2 POP POP JUMP JUMPDEST PUSH1 0x0 PUSH1 0x80 DUP3 DUP5 SUB SLT ISZERO PUSH2 0x11DE JUMPI PUSH1 0x0 DUP1 REVERT JUMPDEST PUSH2 0x11E8 PUSH1 0x80 PUSH2 0x17DB JUMP JUMPDEST SWAP1 POP PUSH1 0x0 DUP3 ADD CALLDATALOAD PUSH8 0xFFFFFFFFFFFFFFFF DUP2 GT ISZERO PUSH2 0x1204 JUMPI PUSH1 0x0 DUP1 REVERT JUMPDEST PUSH2 0x1210 DUP5 DUP3 DUP6 ADD PUSH2 0x11A2 JUMP JUMPDEST PUSH1 0x0 DUP4 ADD MSTORE POP PUSH1 0x20 PUSH2 0x1224 DUP5 DUP3 DUP6 ADD PUSH2 0x1258 JUMP JUMPDEST PUSH1 0x20 DUP4 ADD MSTORE POP PUSH1 0x40 PUSH2 0x1238 DUP5 DUP3 DUP6 ADD PUSH2 0x1258 JUMP JUMPDEST PUSH1 0x40 DUP4 ADD MSTORE POP PUSH1 0x60 PUSH2 0x124C DUP5 DUP3 DUP6 ADD PUSH2 0x1258 JUMP JUMPDEST PUSH1 0x60 DUP4 ADD MSTORE POP SWAP3 SWAP2 POP POP JUMP JUMPDEST PUSH1 0x0 DUP2 CALLDATALOAD SWAP1 POP PUSH2 0x1267 DUP2 PUSH2 0x1B28 JUMP JUMPDEST SWAP3 SWAP2 POP POP JUMP JUMPDEST PUSH1 0x0 DUP1 PUSH1 0x0 DUP1 PUSH1 0x0 DUP1 PUSH1 0xC0 DUP8 DUP10 SUB SLT ISZERO PUSH2 0x1286 JUMPI PUSH1 0x0 DUP1 REVERT JUMPDEST PUSH1 0x0 PUSH2 0x1294 DUP10 DUP3 DUP11 ADD PUSH2 0x1178 JUMP JUMPDEST SWAP7 POP POP PUSH1 0x20 PUSH2 0x12A5 DUP10 DUP3 DUP11 ADD PUSH2 0x1178 JUMP JUMPDEST SWAP6 POP POP PUSH1 0x40 PUSH2 0x12B6 DUP10 DUP3 DUP11 ADD PUSH2 0x1258 JUMP JUMPDEST SWAP5 POP POP PUSH1 0x60 PUSH2 0x12C7 DUP10 DUP3 DUP11 ADD PUSH2 0x1258 JUMP JUMPDEST SWAP4 POP POP PUSH1 0x80 PUSH2 0x12D8 DUP10 DUP3 DUP11 ADD PUSH2 0x1258 JUMP JUMPDEST SWAP3 POP POP PUSH1 0xA0 PUSH2 0x12E9 DUP10 DUP3 DUP11 ADD PUSH2 0x1258 JUMP JUMPDEST SWAP2 POP POP SWAP3 SWAP6 POP SWAP3 SWAP6 POP SWAP3 SWAP6 JUMP JUMPDEST PUSH1 0x0 DUP1 PUSH1 0x40 DUP4 DUP6 SUB SLT ISZERO PUSH2 0x1309 JUMPI PUSH1 0x0 DUP1 REVERT JUMPDEST PUSH1 0x0 PUSH2 0x1317 DUP6 DUP3 DUP7 ADD PUSH2 0x118D JUMP JUMPDEST SWAP3 POP POP PUSH1 0x20 PUSH2 0x1328 DUP6 DUP3 DUP7 ADD PUSH2 0x1258 JUMP JUMPDEST SWAP2 POP POP SWAP3 POP SWAP3 SWAP1 POP JUMP JUMPDEST PUSH1 0x0 DUP1 PUSH1 0x40 DUP4 DUP6 SUB SLT ISZERO PUSH2 0x1345 JUMPI PUSH1 0x0 DUP1 REVERT JUMPDEST PUSH1 0x0 DUP4 ADD CALLDATALOAD PUSH8 0xFFFFFFFFFFFFFFFF DUP2 GT ISZERO PUSH2 0x135F JUMPI PUSH1 0x0 DUP1 REVERT JUMPDEST PUSH2 0x136B DUP6 DUP3 DUP7 ADD PUSH2 0x11CC JUMP JUMPDEST SWAP3 POP POP PUSH1 0x20 PUSH2 0x137C DUP6 DUP3 DUP7 ADD PUSH2 0x1258 JUMP JUMPDEST SWAP2 POP POP SWAP3 POP SWAP3 SWAP1 POP JUMP JUMPDEST PUSH1 0x0 PUSH1 0x20 DUP3 DUP5 SUB SLT ISZERO PUSH2 0x1398 JUMPI PUSH1 0x0 DUP1 REVERT JUMPDEST PUSH1 0x0 PUSH2 0x13A6 DUP5 DUP3 DUP6 ADD PUSH2 0x1258 JUMP JUMPDEST SWAP2 POP POP SWAP3 SWAP2 POP POP JUMP JUMPDEST PUSH1 0x0 DUP1 PUSH1 0x40 DUP4 DUP6 SUB SLT ISZERO PUSH2 0x13C2 JUMPI PUSH1 0x0 DUP1 REVERT JUMPDEST PUSH1 0x0 PUSH2 0x13D0 DUP6 DUP3 DUP7 ADD PUSH2 0x1258 JUMP JUMPDEST SWAP3 POP POP PUSH1 0x20 PUSH2 0x13E1 DUP6 DUP3 DUP7 ADD PUSH2 0x1258 JUMP JUMPDEST SWAP2 POP POP SWAP3 POP SWAP3 SWAP1 POP JUMP JUMPDEST PUSH2 0x13F4 DUP2 PUSH2 0x1962 JUMP JUMPDEST DUP3 MSTORE POP POP JUMP JUMPDEST PUSH2 0x1403 DUP2 PUSH2 0x1974 JUMP JUMPDEST DUP3 MSTORE POP POP JUMP JUMPDEST PUSH2 0x1412 DUP2 PUSH2 0x1974 JUMP JUMPDEST DUP3 MSTORE POP POP JUMP JUMPDEST PUSH1 0x0 PUSH2 0x1425 PUSH1 0xF DUP4 PUSH2 0x183C JUMP JUMPDEST SWAP2 POP PUSH32 0x70726976696C6567652061636365730000000000000000000000000000000000 PUSH1 0x0 DUP4 ADD MSTORE PUSH1 0x20 DUP3 ADD SWAP1 POP SWAP2 SWAP1 POP JUMP JUMPDEST PUSH1 0x0 PUSH2 0x1465 PUSH1 0x1B DUP4 PUSH2 0x183C JUMP JUMPDEST SWAP2 POP PUSH32 0x636F6C6C61746572616C206973206E6F74207065726D69747465640000000000 PUSH1 0x0 DUP4 ADD MSTORE PUSH1 0x20 DUP3 ADD SWAP1 POP SWAP2 SWAP1 POP JUMP JUMPDEST PUSH1 0x0 PUSH2 0x14A5 PUSH1 0x22 DUP4 PUSH2 0x183C JUMP JUMPDEST SWAP2 POP PUSH32 0x7472616465206E6F7420617070726F76656420627920626F7468207061727469 PUSH1 0x0 DUP4 ADD MSTORE PUSH32 0x6573000000000000000000000000000000000000000000000000000000000000 PUSH1 0x20 DUP4 ADD MSTORE PUSH1 0x40 DUP3 ADD SWAP1 POP SWAP2 SWAP1 POP JUMP JUMPDEST PUSH1 0x0 PUSH2 0x150B PUSH1 0x35 DUP4 PUSH2 0x183C JUMP JUMPDEST SWAP2 POP PUSH32 0x6D617267696E2063616C6C20646F6573206E6F74206D65657420746865206D61 PUSH1 0x0 DUP4 ADD MSTORE PUSH32 0x696E74656E616E6365206D617267696E2072756C650000000000000000000000 PUSH1 0x20 DUP4 ADD MSTORE PUSH1 0x40 DUP3 ADD SWAP1 POP SWAP2 SWAP1 POP JUMP JUMPDEST PUSH1 0x0 PUSH2 0x1571 PUSH1 0x3E DUP4 PUSH2 0x183C JUMP JUMPDEST SWAP2 POP PUSH32 0x43617368206E6F742066756C6C7920636F6C6C61746572616C697A65642C626F PUSH1 0x0 DUP4 ADD MSTORE PUSH32 0x72726F7765722063616E20616464206D6F726520636F6C6C61746572616C0000 PUSH1 0x20 DUP4 ADD MSTORE PUSH1 0x40 DUP3 ADD SWAP1 POP SWAP2 SWAP1 POP JUMP JUMPDEST PUSH1 0x60 DUP3 ADD PUSH1 0x0 DUP3 ADD MLOAD PUSH2 0x15E0 PUSH1 0x0 DUP6 ADD DUP3 PUSH2 0x164E JUMP JUMPDEST POP PUSH1 0x20 DUP3 ADD MLOAD PUSH2 0x15F3 PUSH1 0x20 DUP6 ADD DUP3 PUSH2 0x164E JUMP JUMPDEST POP PUSH1 0x40 DUP3 ADD MLOAD PUSH2 0x1606 PUSH1 0x40 DUP6 ADD DUP3 PUSH2 0x13FA JUMP JUMPDEST POP POP POP POP JUMP JUMPDEST PUSH1 0x60 DUP3 ADD PUSH1 0x0 DUP3 ADD MLOAD PUSH2 0x1622 PUSH1 0x0 DUP6 ADD DUP3 PUSH2 0x164E JUMP JUMPDEST POP PUSH1 0x20 DUP3 ADD MLOAD PUSH2 0x1635 PUSH1 0x20 DUP6 ADD DUP3 PUSH2 0x164E JUMP JUMPDEST POP PUSH1 0x40 DUP3 ADD MLOAD PUSH2 0x1648 PUSH1 0x40 DUP6 ADD DUP3 PUSH2 0x164E JUMP JUMPDEST POP POP POP POP JUMP JUMPDEST PUSH2 0x1657 DUP2 PUSH2 0x19A0 JUMP JUMPDEST DUP3 MSTORE POP POP JUMP JUMPDEST PUSH2 0x1666 DUP2 PUSH2 0x19A0 JUMP JUMPDEST DUP3 MSTORE POP POP JUMP JUMPDEST PUSH2 0x167D PUSH2 0x1678 DUP3 PUSH2 0x19A0 JUMP JUMPDEST PUSH2 0x1A34 JUMP JUMPDEST DUP3 MSTORE POP POP JUMP JUMPDEST PUSH1 0x0 PUSH2 0x168F DUP3 DUP6 PUSH2 0x166C JUMP JUMPDEST PUSH1 0x20 DUP3 ADD SWAP2 POP PUSH2 0x169F DUP3 DUP5 PUSH2 0x166C JUMP JUMPDEST PUSH1 0x20 DUP3 ADD SWAP2 POP DUP2 SWAP1 POP SWAP4 SWAP3 POP POP POP JUMP JUMPDEST PUSH1 0x0 PUSH1 0x20 DUP3 ADD SWAP1 POP DUP2 DUP2 SUB PUSH1 0x0 DUP4 ADD MSTORE PUSH2 0x16C8 DUP2 PUSH2 0x1418 JUMP JUMPDEST SWAP1 POP SWAP2 SWAP1 POP JUMP JUMPDEST PUSH1 0x0 PUSH1 0x20 DUP3 ADD SWAP1 POP DUP2 DUP2 SUB PUSH1 0x0 DUP4 ADD MSTORE PUSH2 0x16E8 DUP2 PUSH2 0x1458 JUMP JUMPDEST SWAP1 POP SWAP2 SWAP1 POP JUMP JUMPDEST PUSH1 0x0 PUSH1 0x20 DUP3 ADD SWAP1 POP DUP2 DUP2 SUB PUSH1 0x0 DUP4 ADD MSTORE PUSH2 0x1708 DUP2 PUSH2 0x1498 JUMP JUMPDEST SWAP1 POP SWAP2 SWAP1 POP JUMP JUMPDEST PUSH1 0x0 PUSH1 0x20 DUP3 ADD SWAP1 POP DUP2 DUP2 SUB PUSH1 0x0 DUP4 ADD MSTORE PUSH2 0x1728 DUP2 PUSH2 0x14FE JUMP JUMPDEST SWAP1 POP SWAP2 SWAP1 POP JUMP JUMPDEST PUSH1 0x0 PUSH1 0x20 DUP3 ADD SWAP1 POP DUP2 DUP2 SUB PUSH1 0x0 DUP4 ADD MSTORE PUSH2 0x1748 DUP2 PUSH2 0x1564 JUMP JUMPDEST SWAP1 POP SWAP2 SWAP1 POP JUMP JUMPDEST PUSH1 0x0 PUSH1 0x20 DUP3 ADD SWAP1 POP PUSH2 0x1764 PUSH1 0x0 DUP4 ADD DUP5 PUSH2 0x165D JUMP JUMPDEST SWAP3 SWAP2 POP POP JUMP JUMPDEST PUSH1 0x0 PUSH2 0x160 DUP3 ADD SWAP1 POP PUSH2 0x1780 PUSH1 0x0 DUP4 ADD DUP11 PUSH2 0x165D JUMP JUMPDEST PUSH2 0x178D PUSH1 0x20 DUP4 ADD DUP10 PUSH2 0x13EB JUMP JUMPDEST PUSH2 0x179A PUSH1 0x40 DUP4 ADD DUP9 PUSH2 0x13EB JUMP JUMPDEST PUSH2 0x17A7 PUSH1 0x60 DUP4 ADD DUP8 PUSH2 0x165D JUMP JUMPDEST PUSH2 0x17B4 PUSH1 0x80 DUP4 ADD DUP7 PUSH2 0x160C JUMP JUMPDEST PUSH2 0x17C1 PUSH1 0xE0 DUP4 ADD DUP6 PUSH2 0x1409 JUMP JUMPDEST PUSH2 0x17CF PUSH2 0x100 DUP4 ADD DUP5 PUSH2 0x15CA JUMP JUMPDEST SWAP9 SWAP8 POP POP POP POP POP POP POP POP JUMP JUMPDEST PUSH1 0x0 PUSH1 0x40 MLOAD SWAP1 POP DUP2 DUP2 ADD DUP2 DUP2 LT PUSH8 0xFFFFFFFFFFFFFFFF DUP3 GT OR ISZERO PUSH2 0x1802 JUMPI PUSH2 0x1801 PUSH2 0x1ACB JUMP JUMPDEST JUMPDEST DUP1 PUSH1 0x40 MSTORE POP SWAP2 SWAP1 POP JUMP JUMPDEST PUSH1 0x0 PUSH8 0xFFFFFFFFFFFFFFFF DUP3 GT ISZERO PUSH2 0x1827 JUMPI PUSH2 0x1826 PUSH2 0x1ACB JUMP JUMPDEST JUMPDEST PUSH1 0x1F NOT PUSH1 0x1F DUP4 ADD AND SWAP1 POP PUSH1 0x20 DUP2 ADD SWAP1 POP SWAP2 SWAP1 POP JUMP JUMPDEST PUSH1 0x0 DUP3 DUP3 MSTORE PUSH1 0x20 DUP3 ADD SWAP1 POP SWAP3 SWAP2 POP POP JUMP JUMPDEST PUSH1 0x0 PUSH2 0x1858 DUP3 PUSH2 0x19A0 JUMP JUMPDEST SWAP2 POP PUSH2 0x1863 DUP4 PUSH2 0x19A0 JUMP JUMPDEST SWAP3 POP DUP3 PUSH32 0xFFFFFFFFFFFFFFFFFFFFFFFFFFFFFFFFFFFFFFFFFFFFFFFFFFFFFFFFFFFFFFFF SUB DUP3 GT ISZERO PUSH2 0x1898 JUMPI PUSH2 0x1897 PUSH2 0x1A3E JUMP JUMPDEST JUMPDEST DUP3 DUP3 ADD SWAP1 POP SWAP3 SWAP2 POP POP JUMP JUMPDEST PUSH1 0x0 PUSH2 0x18AE DUP3 PUSH2 0x19A0 JUMP JUMPDEST SWAP2 POP PUSH2 0x18B9 DUP4 PUSH2 0x19A0 JUMP JUMPDEST SWAP3 POP DUP3 PUSH2 0x18C9 JUMPI PUSH2 0x18C8 PUSH2 0x1A6D JUMP JUMPDEST JUMPDEST DUP3 DUP3 DIV SWAP1 POP SWAP3 SWAP2 POP POP JUMP JUMPDEST PUSH1 0x0 PUSH2 0x18DF DUP3 PUSH2 0x19A0 JUMP JUMPDEST SWAP2 POP PUSH2 0x18EA DUP4 PUSH2 0x19A0 JUMP JUMPDEST SWAP3 POP DUP2 PUSH32 0xFFFFFFFFFFFFFFFFFFFFFFFFFFFFFFFFFFFFFFFFFFFFFFFFFFFFFFFFFFFFFFFF DIV DUP4 GT DUP3 ISZERO ISZERO AND ISZERO PUSH2 0x1923 JUMPI PUSH2 0x1922 PUSH2 0x1A3E JUMP JUMPDEST JUMPDEST DUP3 DUP3 MUL SWAP1 POP SWAP3 SWAP2 POP POP JUMP JUMPDEST PUSH1 0x0 PUSH2 0x1939 DUP3 PUSH2 0x19A0 JUMP JUMPDEST SWAP2 POP PUSH2 0x1944 DUP4 PUSH2 0x19A0 JUMP JUMPDEST SWAP3 POP DUP3 DUP3 LT ISZERO PUSH2 0x1957 JUMPI PUSH2 0x1956 PUSH2 0x1A3E JUMP JUMPDEST JUMPDEST DUP3 DUP3 SUB SWAP1 POP SWAP3 SWAP2 POP POP JUMP JUMPDEST PUSH1 0x0 PUSH2 0x196D DUP3 PUSH2 0x1980 JUMP JUMPDEST SWAP1 POP SWAP2 SWAP1 POP JUMP JUMPDEST PUSH1 0x0 DUP2 ISZERO ISZERO SWAP1 POP SWAP2 SWAP1 POP JUMP JUMPDEST PUSH1 0x0 PUSH20 0xFFFFFFFFFFFFFFFFFFFFFFFFFFFFFFFFFFFFFFFF DUP3 AND SWAP1 POP SWAP2 SWAP1 POP JUMP JUMPDEST PUSH1 0x0 DUP2 SWAP1 POP SWAP2 SWAP1 POP JUMP JUMPDEST DUP3 DUP2 DUP4 CALLDATACOPY PUSH1 0x0 DUP4 DUP4 ADD MSTORE POP POP POP JUMP JUMPDEST PUSH1 0x0 PUSH1 0x2 DUP3 DIV SWAP1 POP PUSH1 0x1 DUP3 AND DUP1 PUSH2 0x19D1 JUMPI PUSH1 0x7F DUP3 AND SWAP2 POP JUMPDEST PUSH1 0x20 DUP3 LT DUP2 EQ ISZERO PUSH2 0x19E5 JUMPI PUSH2 0x19E4 PUSH2 0x1A9C JUMP JUMPDEST JUMPDEST POP SWAP2 SWAP1 POP JUMP JUMPDEST PUSH1 0x0 PUSH2 0x19F6 DUP3 PUSH2 0x19A0 JUMP JUMPDEST SWAP2 POP PUSH32 0xFFFFFFFFFFFFFFFFFFFFFFFFFFFFFFFFFFFFFFFFFFFFFFFFFFFFFFFFFFFFFFFF DUP3 EQ ISZERO PUSH2 0x1A29 JUMPI PUSH2 0x1A28 PUSH2 0x1A3E JUMP JUMPDEST JUMPDEST PUSH1 0x1 DUP3 ADD SWAP1 POP SWAP2 SWAP1 POP JUMP JUMPDEST PUSH1 0x0 DUP2 SWAP1 POP SWAP2 SWAP1 POP JUMP JUMPDEST PUSH32 0x4E487B7100000000000000000000000000000000000000000000000000000000 PUSH1 0x0 MSTORE PUSH1 0x11 PUSH1 0x4 MSTORE PUSH1 0x24 PUSH1 0x0 REVERT JUMPDEST PUSH32 0x4E487B7100000000000000000000000000000000000000000000000000000000 PUSH1 0x0 MSTORE PUSH1 0x12 PUSH1 0x4 MSTORE PUSH1 0x24 PUSH1 0x0 REVERT JUMPDEST PUSH32 0x4E487B7100000000000000000000000000000000000000000000000000000000 PUSH1 0x0 MSTORE PUSH1 0x22 PUSH1 0x4 MSTORE PUSH1 0x24 PUSH1 0x0 REVERT JUMPDEST PUSH32 0x4E487B7100000000000000000000000000000000000000000000000000000000 PUSH1 0x0 MSTORE PUSH1 0x41 PUSH1 0x4 MSTORE PUSH1 0x24 PUSH1 0x0 REVERT JUMPDEST PUSH2 0x1B03 DUP2 PUSH2 0x1962 JUMP JUMPDEST DUP2 EQ PUSH2 0x1B0E JUMPI PUSH1 0x0 DUP1 REVERT JUMPDEST POP JUMP JUMPDEST PUSH2 0x1B1A DUP2 PUSH2 0x1974 JUMP JUMPDEST DUP2 EQ PUSH2 0x1B25 JUMPI PUSH1 0x0 DUP1 REVERT JUMPDEST POP JUMP JUMPDEST PUSH2 0x1B31 DUP2 PUSH2 0x19A0 JUMP JUMPDEST DUP2 EQ PUSH2 0x1B3C JUMPI PUSH1 0x0 DUP1 REVERT JUMPDEST POP JUMP INVALID LOG2 PUSH5 0x6970667358 0x22 SLT KECCAK256 SDIV 0xBA 0xB6 0xF7 0xC6 SWAP12 0xB1 PUSH31 0x63BAABDC291DD9E415F00D6D839CB081476B67C84CF720C464736F6C634300 ADDMOD STOP STOP CALLER "
    },
    "gasEstimates": {
      "creation": {
        "codeDepositCost": "1405800",
        "executionCost": "11477",
        "totalCost": "1417277"
      },
      "external": {
        "approveContractByBorrower(bool,uint256)": "23476",
        "initiateContract(address,address,uint256,uint256,uint256,uint256)": "infinite",
        "issueMarginCall(uint256,uint256)": "infinite",
        "liquidateAllPositions(uint256)": "infinite",
        "submitCashToBorrower(uint256)": "infinite",
        "submitCollateral((string,uint256,uint256,uint256),uint256)": "infinite",
        "trades(uint256)": "infinite",
        "valuateCollateral(uint256)": "infinite"
      },
      "internal": {
        "random()": "infinite"
      }
    },
    "methodIdentifiers": {
      "approveContractByBorrower(bool,uint256)": "e40c7cc0",
      "initiateContract(address,address,uint256,uint256,uint256,uint256)": "b72032c5",
      "issueMarginCall(uint256,uint256)": "e67dd31e",
      "liquidateAllPositions(uint256)": "4902575a",
      "submitCashToBorrower(uint256)": "f62d915a",
      "submitCollateral((string,uint256,uint256,uint256),uint256)": "5885c655",
      "trades(uint256)": "1e6c598e",
      "valuateCollateral(uint256)": "94a53f7c"
    }
  },
  "storageLayout": {
    "storage": [
      {
        "astId": 48,
        "contract": "custodian.sol:Custodian",
        "label": "tradeIndex",
        "offset": 0,
        "slot": "0",
        "type": "t_uint256"
      },
      {
        "astId": 51,
        "contract": "custodian.sol:Custodian",
        "label": "indexColl",
        "offset": 0,
        "slot": "1",
        "type": "t_uint256"
      },
      {
        "astId": 56,
        "contract": "custodian.sol:Custodian",
        "label": "trades",
        "offset": 0,
        "slot": "2",
        "type": "t_mapping(t_uint256,t_struct(Trade)45_storage)"
      }
    ],
    "types": {
      "t_address_payable": {
        "encoding": "inplace",
        "label": "address payable",
        "numberOfBytes": "20"
      },
      "t_array(t_struct(Collateral)24_storage)dyn_storage": {
        "base": "t_struct(Collateral)24_storage",
        "encoding": "dynamic_array",
        "label": "struct Custodian.Collateral[]",
        "numberOfBytes": "32"
      },
      "t_bool": {
        "encoding": "inplace",
        "label": "bool",
        "numberOfBytes": "1"
      },
      "t_mapping(t_uint256,t_struct(Trade)45_storage)": {
        "encoding": "mapping",
        "key": "t_uint256",
        "label": "mapping(uint256 => struct Custodian.Trade)",
        "numberOfBytes": "32",
        "value": "t_struct(Trade)45_storage"
      },
      "t_string_storage": {
        "encoding": "bytes",
        "label": "string",
        "numberOfBytes": "32"
      },
      "t_struct(Collateral)24_storage": {
        "encoding": "inplace",
        "label": "struct Custodian.Collateral",
        "members": [
          {
            "astId": 17,
            "contract": "custodian.sol:Custodian",
            "label": "cusip",
            "offset": 0,
            "slot": "0",
            "type": "t_string_storage"
          },
          {
            "astId": 19,
            "contract": "custodian.sol:Custodian",
            "label": "price",
            "offset": 0,
            "slot": "1",
            "type": "t_uint256"
          },
          {
            "astId": 21,
            "contract": "custodian.sol:Custodian",
            "label": "quantity",
            "offset": 0,
            "slot": "2",
            "type": "t_uint256"
          },
          {
            "astId": 23,
            "contract": "custodian.sol:Custodian",
            "label": "grade",
            "offset": 0,
            "slot": "3",
            "type": "t_uint256"
          }
        ],
        "numberOfBytes": "128"
      },
      "t_struct(MarginCall)8_storage": {
        "encoding": "inplace",
        "label": "struct Custodian.MarginCall",
        "members": [
          {
            "astId": 3,
            "contract": "custodian.sol:Custodian",
            "label": "collateralValueAsked",
            "offset": 0,
            "slot": "0",
            "type": "t_uint256"
          },
          {
            "astId": 5,
            "contract": "custodian.sol:Custodian",
            "label": "timeMarginCallStarted",
            "offset": 0,
            "slot": "1",
            "type": "t_uint256"
          },
          {
            "astId": 7,
            "contract": "custodian.sol:Custodian",
            "label": "marginCallTrigerred",
            "offset": 0,
            "slot": "2",
            "type": "t_bool"
          }
        ],
        "numberOfBytes": "96"
      },
      "t_struct(Rules)15_storage": {
        "encoding": "inplace",
        "label": "struct Custodian.Rules",
        "members": [
          {
            "astId": 10,
            "contract": "custodian.sol:Custodian",
            "label": "maintenanceMargin",
            "offset": 0,
            "slot": "0",
            "type": "t_uint256"
          },
          {
            "astId": 12,
            "contract": "custodian.sol:Custodian",
            "label": "liquidationTime",
            "offset": 0,
            "slot": "1",
            "type": "t_uint256"
          },
          {
            "astId": 14,
            "contract": "custodian.sol:Custodian",
            "label": "gradePermitted",
            "offset": 0,
            "slot": "2",
            "type": "t_uint256"
          }
        ],
        "numberOfBytes": "96"
      },
      "t_struct(Trade)45_storage": {
        "encoding": "inplace",
        "label": "struct Custodian.Trade",
        "members": [
          {
            "astId": 26,
            "contract": "custodian.sol:Custodian",
            "label": "id",
            "offset": 0,
            "slot": "0",
            "type": "t_uint256"
          },
          {
            "astId": 28,
            "contract": "custodian.sol:Custodian",
            "label": "borrowerAdress",
            "offset": 0,
            "slot": "1",
            "type": "t_address_payable"
          },
          {
            "astId": 30,
            "contract": "custodian.sol:Custodian",
            "label": "lenderAdress",
            "offset": 0,
            "slot": "2",
            "type": "t_address_payable"
          },
          {
            "astId": 32,
            "contract": "custodian.sol:Custodian",
            "label": "cashBorrowed",
            "offset": 0,
            "slot": "3",
            "type": "t_uint256"
          },
          {
            "astId": 36,
            "contract": "custodian.sol:Custodian",
            "label": "collaterals",
            "offset": 0,
            "slot": "4",
            "type": "t_array(t_struct(Collateral)24_storage)dyn_storage"
          },
          {
            "astId": 39,
            "contract": "custodian.sol:Custodian",
            "label": "rules",
            "offset": 0,
            "slot": "5",
            "type": "t_struct(Rules)15_storage"
          },
          {
            "astId": 41,
            "contract": "custodian.sol:Custodian",
            "label": "approvedByCounterParty",
            "offset": 0,
            "slot": "8",
            "type": "t_bool"
          },
          {
            "astId": 44,
            "contract": "custodian.sol:Custodian",
            "label": "marginCall",
            "offset": 0,
            "slot": "9",
            "type": "t_struct(MarginCall)8_storage"
          }
        ],
        "numberOfBytes": "384"
      },
      "t_uint256": {
        "encoding": "inplace",
        "label": "uint256",
        "numberOfBytes": "32"
      }
    }
  },
  "userdoc": {
    "kind": "user",
    "methods": {},
    "version": 1
  }
}