{
  "abi": [
    {
      "inputs": [],
      "stateMutability": "nonpayable",
      "type": "constructor"
    },
    {
      "inputs": [
        {
          "internalType": "bool",
          "name": "approve",
          "type": "bool"
        },
        {
          "internalType": "uint256",
          "name": "id",
          "type": "uint256"
        }
      ],
      "name": "approveContractByBorrower",
      "outputs": [],
      "stateMutability": "nonpayable",
      "type": "function"
    },
    {
      "inputs": [
        {
          "internalType": "address payable",
          "name": "borrowerAdress",
          "type": "address"
        },
        {
          "internalType": "uint256",
          "name": "cashBorrowed",
          "type": "uint256"
        },
        {
          "internalType": "uint256",
          "name": "maintenanceMargin",
          "type": "uint256"
        },
        {
          "internalType": "uint256",
          "name": "liquidationTime",
          "type": "uint256"
        },
        {
          "internalType": "uint256",
          "name": "gradePermited",
          "type": "uint256"
        }
      ],
      "name": "initiateContract",
      "outputs": [],
      "stateMutability": "nonpayable",
      "type": "function"
    },
    {
      "inputs": [
        {
          "components": [
            {
              "internalType": "string",
              "name": "cusip",
              "type": "string"
            },
            {
              "internalType": "uint256",
              "name": "price",
              "type": "uint256"
            },
            {
              "internalType": "uint256",
              "name": "quantity",
              "type": "uint256"
            },
            {
              "internalType": "uint256",
              "name": "grade",
              "type": "uint256"
            }
          ],
          "internalType": "struct Custodian.Collateral",
          "name": "collateral",
          "type": "tuple"
        },
        {
          "internalType": "uint256",
          "name": "id",
          "type": "uint256"
        }
      ],
      "name": "submitCollateral",
      "outputs": [],
      "stateMutability": "nonpayable",
      "type": "function"
    },
    {
      "inputs": [
        {
          "internalType": "uint256",
          "name": "",
          "type": "uint256"
        }
      ],
      "name": "trades",
      "outputs": [
        {
          "internalType": "uint256",
          "name": "id",
          "type": "uint256"
        },
        {
          "internalType": "address payable",
          "name": "borrowerAdress",
          "type": "address"
        },
        {
          "internalType": "address",
          "name": "lenderAdress",
          "type": "address"
        },
        {
          "internalType": "uint256",
          "name": "cashBorrowed",
          "type": "uint256"
        },
        {
          "components": [
            {
              "internalType": "uint256",
              "name": "maintenanceMargin",
              "type": "uint256"
            },
            {
              "internalType": "uint256",
              "name": "liquidationTime",
              "type": "uint256"
            },
            {
              "internalType": "uint256",
              "name": "gradePermitted",
              "type": "uint256"
            }
          ],
          "internalType": "struct Custodian.Rules",
          "name": "rules",
          "type": "tuple"
        },
        {
          "internalType": "bool",
          "name": "approvedByCounterParty",
          "type": "bool"
        }
      ],
      "stateMutability": "view",
      "type": "function"
    }
  ],
  "devdoc": {
    "kind": "dev",
    "methods": {},
    "version": 1
  },
  "evm": {
    "assembly": "    /* \"custodian.sol\":25:2304  contract Custodian {... */\n  mstore(0x40, 0x80)\n    /* \"custodian.sol\":609:610  0 */\n  0x00\n    /* \"custodian.sol\":591:610  uint tradeIndex = 0 */\n  dup1\n  sstore\n    /* \"custodian.sol\":632:633  0 */\n  0x00\n    /* \"custodian.sol\":617:633  uint indexColl=0 */\n  0x01\n  sstore\n    /* \"custodian.sol\":684:706  constructor() {... */\n  callvalue\n  dup1\n  iszero\n  tag_1\n  jumpi\n  0x00\n  dup1\n  revert\ntag_1:\n  pop\n    /* \"custodian.sol\":25:2304  contract Custodian {... */\n  dataSize(sub_0)\n  dup1\n  dataOffset(sub_0)\n  0x00\n  codecopy\n  0x00\n  return\nstop\n\nsub_0: assembly {\n        /* \"custodian.sol\":25:2304  contract Custodian {... */\n      mstore(0x40, 0x80)\n      callvalue\n      dup1\n      iszero\n      tag_1\n      jumpi\n      0x00\n      dup1\n      revert\n    tag_1:\n      pop\n      jumpi(tag_2, lt(calldatasize, 0x04))\n      shr(0xe0, calldataload(0x00))\n      dup1\n      0x1e6c598e\n      eq\n      tag_3\n      jumpi\n      dup1\n      0x3bc36a95\n      eq\n      tag_4\n      jumpi\n      dup1\n      0x5885c655\n      eq\n      tag_5\n      jumpi\n      dup1\n      0xe40c7cc0\n      eq\n      tag_6\n      jumpi\n    tag_2:\n      0x00\n      dup1\n      revert\n        /* \"custodian.sol\":639:675  mapping(uint => Trade) public trades */\n    tag_3:\n      tag_7\n      0x04\n      dup1\n      calldatasize\n      sub\n      dup2\n      add\n      swap1\n      tag_8\n      swap2\n      swap1\n      tag_9\n      jump\t// in\n    tag_8:\n      tag_10\n      jump\t// in\n    tag_7:\n      mload(0x40)\n      tag_11\n      swap7\n      swap6\n      swap5\n      swap4\n      swap3\n      swap2\n      swap1\n      tag_12\n      jump\t// in\n    tag_11:\n      mload(0x40)\n      dup1\n      swap2\n      sub\n      swap1\n      return\n        /* \"custodian.sol\":1218:1783  function initiateContract( address payable borrowerAdress,uint cashBorrowed,uint maintenanceMargin,uint  liquidationTime,uint gradePermited ) public... */\n    tag_4:\n      tag_13\n      0x04\n      dup1\n      calldatasize\n      sub\n      dup2\n      add\n      swap1\n      tag_14\n      swap2\n      swap1\n      tag_15\n      jump\t// in\n    tag_14:\n      tag_16\n      jump\t// in\n    tag_13:\n      stop\n        /* \"custodian.sol\":1789:2011  function submitCollateral(Collateral memory collateral,uint id ) public restricted(id) tradeApproved(id) collateralPermitted(id,collateral) {... */\n    tag_5:\n      tag_17\n      0x04\n      dup1\n      calldatasize\n      sub\n      dup2\n      add\n      swap1\n      tag_18\n      swap2\n      swap1\n      tag_19\n      jump\t// in\n    tag_18:\n      tag_20\n      jump\t// in\n    tag_17:\n      stop\n        /* \"custodian.sol\":2018:2155  function approveContractByBorrower(bool approve,uint id ) public restricted(id){... */\n    tag_6:\n      tag_21\n      0x04\n      dup1\n      calldatasize\n      sub\n      dup2\n      add\n      swap1\n      tag_22\n      swap2\n      swap1\n      tag_23\n      jump\t// in\n    tag_22:\n      tag_24\n      jump\t// in\n    tag_21:\n      stop\n        /* \"custodian.sol\":639:675  mapping(uint => Trade) public trades */\n    tag_10:\n      mstore(0x20, 0x02)\n      dup1\n      0x00\n      mstore\n      keccak256(0x00, 0x40)\n      0x00\n      swap2\n      pop\n      swap1\n      pop\n      dup1\n      0x00\n      add\n      sload\n      swap1\n      dup1\n      0x01\n      add\n      0x00\n      swap1\n      sload\n      swap1\n      0x0100\n      exp\n      swap1\n      div\n      0xffffffffffffffffffffffffffffffffffffffff\n      and\n      swap1\n      dup1\n      0x02\n      add\n      0x00\n      swap1\n      sload\n      swap1\n      0x0100\n      exp\n      swap1\n      div\n      0xffffffffffffffffffffffffffffffffffffffff\n      and\n      swap1\n      dup1\n      0x03\n      add\n      sload\n      swap1\n      dup1\n      0x05\n      add\n      mload(0x40)\n      dup1\n      0x60\n      add\n      0x40\n      mstore\n      swap1\n      dup2\n      0x00\n      dup3\n      add\n      sload\n      dup2\n      mstore\n      0x20\n      add\n      0x01\n      dup3\n      add\n      sload\n      dup2\n      mstore\n      0x20\n      add\n      0x02\n      dup3\n      add\n      sload\n      dup2\n      mstore\n      pop\n      pop\n      swap1\n      dup1\n      0x08\n      add\n      0x00\n      swap1\n      sload\n      swap1\n      0x0100\n      exp\n      swap1\n      div\n      0xff\n      and\n      swap1\n      pop\n      dup7\n      jump\t// out\n        /* \"custodian.sol\":1218:1783  function initiateContract( address payable borrowerAdress,uint cashBorrowed,uint maintenanceMargin,uint  liquidationTime,uint gradePermited ) public... */\n    tag_16:\n        /* \"custodian.sol\":1381:1388  uint id */\n      0x00\n        /* \"custodian.sol\":1390:1398  random() */\n      tag_26\n        /* \"custodian.sol\":1390:1396  random */\n      tag_27\n        /* \"custodian.sol\":1390:1398  random() */\n      jump\t// in\n    tag_26:\n        /* \"custodian.sol\":1381:1398  uint id =random() */\n      swap1\n      pop\n        /* \"custodian.sol\":1416:1435  Trade storage trade */\n      0x00\n        /* \"custodian.sol\":1438:1444  trades */\n      0x02\n        /* \"custodian.sol\":1438:1448  trades[id] */\n      0x00\n        /* \"custodian.sol\":1445:1447  id */\n      dup4\n        /* \"custodian.sol\":1438:1448  trades[id] */\n      dup2\n      mstore\n      0x20\n      add\n      swap1\n      dup2\n      mstore\n      0x20\n      add\n      0x00\n      keccak256\n        /* \"custodian.sol\":1416:1448  Trade storage trade = trades[id] */\n      swap1\n      pop\n        /* \"custodian.sol\":1467:1469  id */\n      dup2\n        /* \"custodian.sol\":1458:1463  trade */\n      dup2\n        /* \"custodian.sol\":1458:1466  trade.id */\n      0x00\n      add\n        /* \"custodian.sol\":1458:1469  trade.id=id */\n      dup2\n      swap1\n      sstore\n      pop\n        /* \"custodian.sol\":1498:1508  msg.sender */\n      caller\n        /* \"custodian.sol\":1479:1484  trade */\n      dup2\n        /* \"custodian.sol\":1479:1497  trade.lenderAdress */\n      0x02\n      add\n      0x00\n        /* \"custodian.sol\":1479:1508  trade.lenderAdress=msg.sender */\n      0x0100\n      exp\n      dup2\n      sload\n      dup2\n      0xffffffffffffffffffffffffffffffffffffffff\n      mul\n      not\n      and\n      swap1\n      dup4\n      0xffffffffffffffffffffffffffffffffffffffff\n      and\n      mul\n      or\n      swap1\n      sstore\n      pop\n        /* \"custodian.sol\":1539:1553  borrowerAdress */\n      dup7\n        /* \"custodian.sol\":1518:1523  trade */\n      dup2\n        /* \"custodian.sol\":1518:1538  trade.borrowerAdress */\n      0x01\n      add\n      0x00\n        /* \"custodian.sol\":1518:1553  trade.borrowerAdress=borrowerAdress */\n      0x0100\n      exp\n      dup2\n      sload\n      dup2\n      0xffffffffffffffffffffffffffffffffffffffff\n      mul\n      not\n      and\n      swap1\n      dup4\n      0xffffffffffffffffffffffffffffffffffffffff\n      and\n      mul\n      or\n      swap1\n      sstore\n      pop\n        /* \"custodian.sol\":1582:1594  cashBorrowed */\n      dup6\n        /* \"custodian.sol\":1563:1568  trade */\n      dup2\n        /* \"custodian.sol\":1563:1581  trade.cashBorrowed */\n      0x03\n      add\n        /* \"custodian.sol\":1563:1594  trade.cashBorrowed=cashBorrowed */\n      dup2\n      swap1\n      sstore\n      pop\n        /* \"custodian.sol\":1634:1651  maintenanceMargin */\n      dup5\n        /* \"custodian.sol\":1604:1609  trade */\n      dup2\n        /* \"custodian.sol\":1604:1615  trade.rules */\n      0x05\n      add\n        /* \"custodian.sol\":1604:1633  trade.rules.maintenanceMargin */\n      0x00\n      add\n        /* \"custodian.sol\":1604:1651  trade.rules.maintenanceMargin=maintenanceMargin */\n      dup2\n      swap1\n      sstore\n      pop\n        /* \"custodian.sol\":1689:1704  liquidationTime */\n      dup4\n        /* \"custodian.sol\":1661:1666  trade */\n      dup2\n        /* \"custodian.sol\":1661:1672  trade.rules */\n      0x05\n      add\n        /* \"custodian.sol\":1661:1688  trade.rules.liquidationTime */\n      0x01\n      add\n        /* \"custodian.sol\":1661:1704  trade.rules.liquidationTime=liquidationTime */\n      dup2\n      swap1\n      sstore\n      pop\n        /* \"custodian.sol\":1741:1754  gradePermited */\n      dup3\n        /* \"custodian.sol\":1714:1719  trade */\n      dup2\n        /* \"custodian.sol\":1714:1725  trade.rules */\n      0x05\n      add\n        /* \"custodian.sol\":1714:1740  trade.rules.gradePermitted */\n      0x02\n      add\n        /* \"custodian.sol\":1714:1754  trade.rules.gradePermitted=gradePermited */\n      dup2\n      swap1\n      sstore\n      pop\n        /* \"custodian.sol\":1764:1774  tradeIndex */\n      0x00\n      dup1\n        /* \"custodian.sol\":1764:1776  tradeIndex++ */\n      dup2\n      sload\n      dup1\n      swap3\n      swap2\n      swap1\n      tag_28\n      swap1\n      tag_29\n      jump\t// in\n    tag_28:\n      swap2\n      swap1\n      pop\n      sstore\n      pop\n        /* \"custodian.sol\":1218:1783  function initiateContract( address payable borrowerAdress,uint cashBorrowed,uint maintenanceMargin,uint  liquidationTime,uint gradePermited ) public... */\n      pop\n      pop\n      pop\n      pop\n      pop\n      pop\n      pop\n      jump\t// out\n        /* \"custodian.sol\":1789:2011  function submitCollateral(Collateral memory collateral,uint id ) public restricted(id) tradeApproved(id) collateralPermitted(id,collateral) {... */\n    tag_20:\n        /* \"custodian.sol\":1872:1874  id */\n      dup1\n        /* \"custodian.sol\":773:779  trades */\n      0x02\n        /* \"custodian.sol\":773:783  trades[id] */\n      0x00\n        /* \"custodian.sol\":780:782  id */\n      dup3\n        /* \"custodian.sol\":773:783  trades[id] */\n      dup2\n      mstore\n      0x20\n      add\n      swap1\n      dup2\n      mstore\n      0x20\n      add\n      0x00\n      keccak256\n        /* \"custodian.sol\":773:798  trades[id].borrowerAdress */\n      0x01\n      add\n      0x00\n      swap1\n      sload\n      swap1\n      0x0100\n      exp\n      swap1\n      div\n      0xffffffffffffffffffffffffffffffffffffffff\n      and\n        /* \"custodian.sol\":759:798  msg.sender == trades[id].borrowerAdress */\n      0xffffffffffffffffffffffffffffffffffffffff\n      and\n        /* \"custodian.sol\":759:769  msg.sender */\n      caller\n        /* \"custodian.sol\":759:798  msg.sender == trades[id].borrowerAdress */\n      0xffffffffffffffffffffffffffffffffffffffff\n      and\n      eq\n        /* \"custodian.sol\":759:839  msg.sender == trades[id].borrowerAdress || msg.sender == trades[id].lenderAdress */\n      dup1\n      tag_31\n      jumpi\n      pop\n        /* \"custodian.sol\":816:822  trades */\n      0x02\n        /* \"custodian.sol\":816:826  trades[id] */\n      0x00\n        /* \"custodian.sol\":823:825  id */\n      dup3\n        /* \"custodian.sol\":816:826  trades[id] */\n      dup2\n      mstore\n      0x20\n      add\n      swap1\n      dup2\n      mstore\n      0x20\n      add\n      0x00\n      keccak256\n        /* \"custodian.sol\":816:839  trades[id].lenderAdress */\n      0x02\n      add\n      0x00\n      swap1\n      sload\n      swap1\n      0x0100\n      exp\n      swap1\n      div\n      0xffffffffffffffffffffffffffffffffffffffff\n      and\n        /* \"custodian.sol\":802:839  msg.sender == trades[id].lenderAdress */\n      0xffffffffffffffffffffffffffffffffffffffff\n      and\n        /* \"custodian.sol\":802:812  msg.sender */\n      caller\n        /* \"custodian.sol\":802:839  msg.sender == trades[id].lenderAdress */\n      0xffffffffffffffffffffffffffffffffffffffff\n      and\n      eq\n        /* \"custodian.sol\":759:839  msg.sender == trades[id].borrowerAdress || msg.sender == trades[id].lenderAdress */\n    tag_31:\n        /* \"custodian.sol\":751:859  require(msg.sender == trades[id].borrowerAdress || msg.sender == trades[id].lenderAdress, \"privilege acces\") */\n      tag_32\n      jumpi\n      mload(0x40)\n      0x08c379a000000000000000000000000000000000000000000000000000000000\n      dup2\n      mstore\n      0x04\n      add\n      tag_33\n      swap1\n      tag_34\n      jump\t// in\n    tag_33:\n      mload(0x40)\n      dup1\n      swap2\n      sub\n      swap1\n      revert\n    tag_32:\n        /* \"custodian.sol\":1890:1892  id */\n      dup2\n        /* \"custodian.sol\":932:938  trades */\n      0x02\n        /* \"custodian.sol\":932:942  trades[id] */\n      0x00\n        /* \"custodian.sol\":939:941  id */\n      dup3\n        /* \"custodian.sol\":932:942  trades[id] */\n      dup2\n      mstore\n      0x20\n      add\n      swap1\n      dup2\n      mstore\n      0x20\n      add\n      0x00\n      keccak256\n        /* \"custodian.sol\":932:965  trades[id].approvedByCounterParty */\n      0x08\n      add\n      0x00\n      swap1\n      sload\n      swap1\n      0x0100\n      exp\n      swap1\n      div\n      0xff\n      and\n        /* \"custodian.sol\":924:1004  require(trades[id].approvedByCounterParty, \"trade not approved by both parties\") */\n      tag_36\n      jumpi\n      mload(0x40)\n      0x08c379a000000000000000000000000000000000000000000000000000000000\n      dup2\n      mstore\n      0x04\n      add\n      tag_37\n      swap1\n      tag_38\n      jump\t// in\n    tag_37:\n      mload(0x40)\n      dup1\n      swap2\n      sub\n      swap1\n      revert\n    tag_36:\n        /* \"custodian.sol\":1914:1916  id */\n      dup3\n        /* \"custodian.sol\":1917:1927  collateral */\n      dup5\n        /* \"custodian.sol\":1146:1156  collateral */\n      dup1\n        /* \"custodian.sol\":1146:1162  collateral.grade */\n      0x60\n      add\n      mload\n        /* \"custodian.sol\":1113:1119  trades */\n      0x02\n        /* \"custodian.sol\":1113:1123  trades[id] */\n      0x00\n        /* \"custodian.sol\":1120:1122  id */\n      dup5\n        /* \"custodian.sol\":1113:1123  trades[id] */\n      dup2\n      mstore\n      0x20\n      add\n      swap1\n      dup2\n      mstore\n      0x20\n      add\n      0x00\n      keccak256\n        /* \"custodian.sol\":1113:1129  trades[id].rules */\n      0x05\n      add\n        /* \"custodian.sol\":1113:1144  trades[id].rules.gradePermitted */\n      0x02\n      add\n      sload\n        /* \"custodian.sol\":1113:1162  trades[id].rules.gradePermitted==collateral.grade */\n      eq\n        /* \"custodian.sol\":1105:1194  require(trades[id].rules.gradePermitted==collateral.grade, \"collateral is not permitted\") */\n      tag_40\n      jumpi\n      mload(0x40)\n      0x08c379a000000000000000000000000000000000000000000000000000000000\n      dup2\n      mstore\n      0x04\n      add\n      tag_41\n      swap1\n      tag_42\n      jump\t// in\n    tag_41:\n      mload(0x40)\n      dup1\n      swap2\n      sub\n      swap1\n      revert\n    tag_40:\n        /* \"custodian.sol\":1973:1983  collateral */\n      dup6\n        /* \"custodian.sol\":1939:1945  trades */\n      0x02\n        /* \"custodian.sol\":1939:1949  trades[id] */\n      0x00\n        /* \"custodian.sol\":1946:1948  id */\n      dup8\n        /* \"custodian.sol\":1939:1949  trades[id] */\n      dup2\n      mstore\n      0x20\n      add\n      swap1\n      dup2\n      mstore\n      0x20\n      add\n      0x00\n      keccak256\n        /* \"custodian.sol\":1939:1961  trades[id].collaterals */\n      0x04\n      add\n        /* \"custodian.sol\":1962:1971  indexColl */\n      sload(0x01)\n        /* \"custodian.sol\":1939:1972  trades[id].collaterals[indexColl] */\n      dup2\n      sload\n      dup2\n      lt\n      tag_44\n      jumpi\n      mstore(0x00, 0x4e487b7100000000000000000000000000000000000000000000000000000000)\n      mstore(0x04, 0x32)\n      revert(0x00, 0x24)\n    tag_44:\n      swap1\n      0x00\n      mstore\n      keccak256(0x00, 0x20)\n      swap1\n      0x04\n      mul\n      add\n        /* \"custodian.sol\":1939:1983  trades[id].collaterals[indexColl]=collateral */\n      0x00\n      dup3\n      add\n      mload\n      dup2\n      0x00\n      add\n      swap1\n      dup1\n      mload\n      swap1\n      0x20\n      add\n      swap1\n      tag_46\n      swap3\n      swap2\n      swap1\n      tag_47\n      jump\t// in\n    tag_46:\n      pop\n      0x20\n      dup3\n      add\n      mload\n      dup2\n      0x01\n      add\n      sstore\n      0x40\n      dup3\n      add\n      mload\n      dup2\n      0x02\n      add\n      sstore\n      0x60\n      dup3\n      add\n      mload\n      dup2\n      0x03\n      add\n      sstore\n      swap1\n      pop\n      pop\n        /* \"custodian.sol\":1993:2002  indexColl */\n      0x01\n      0x00\n        /* \"custodian.sol\":1993:2004  indexColl++ */\n      dup2\n      sload\n      dup1\n      swap3\n      swap2\n      swap1\n      tag_48\n      swap1\n      tag_29\n      jump\t// in\n    tag_48:\n      swap2\n      swap1\n      pop\n      sstore\n      pop\n        /* \"custodian.sol\":1014:1015  _ */\n      pop\n      pop\n        /* \"custodian.sol\":869:870  _ */\n      pop\n        /* \"custodian.sol\":1789:2011  function submitCollateral(Collateral memory collateral,uint id ) public restricted(id) tradeApproved(id) collateralPermitted(id,collateral) {... */\n      pop\n      pop\n      pop\n      jump\t// out\n        /* \"custodian.sol\":2018:2155  function approveContractByBorrower(bool approve,uint id ) public restricted(id){... */\n    tag_24:\n        /* \"custodian.sol\":2094:2096  id */\n      dup1\n        /* \"custodian.sol\":773:779  trades */\n      0x02\n        /* \"custodian.sol\":773:783  trades[id] */\n      0x00\n        /* \"custodian.sol\":780:782  id */\n      dup3\n        /* \"custodian.sol\":773:783  trades[id] */\n      dup2\n      mstore\n      0x20\n      add\n      swap1\n      dup2\n      mstore\n      0x20\n      add\n      0x00\n      keccak256\n        /* \"custodian.sol\":773:798  trades[id].borrowerAdress */\n      0x01\n      add\n      0x00\n      swap1\n      sload\n      swap1\n      0x0100\n      exp\n      swap1\n      div\n      0xffffffffffffffffffffffffffffffffffffffff\n      and\n        /* \"custodian.sol\":759:798  msg.sender == trades[id].borrowerAdress */\n      0xffffffffffffffffffffffffffffffffffffffff\n      and\n        /* \"custodian.sol\":759:769  msg.sender */\n      caller\n        /* \"custodian.sol\":759:798  msg.sender == trades[id].borrowerAdress */\n      0xffffffffffffffffffffffffffffffffffffffff\n      and\n      eq\n        /* \"custodian.sol\":759:839  msg.sender == trades[id].borrowerAdress || msg.sender == trades[id].lenderAdress */\n      dup1\n      tag_50\n      jumpi\n      pop\n        /* \"custodian.sol\":816:822  trades */\n      0x02\n        /* \"custodian.sol\":816:826  trades[id] */\n      0x00\n        /* \"custodian.sol\":823:825  id */\n      dup3\n        /* \"custodian.sol\":816:826  trades[id] */\n      dup2\n      mstore\n      0x20\n      add\n      swap1\n      dup2\n      mstore\n      0x20\n      add\n      0x00\n      keccak256\n        /* \"custodian.sol\":816:839  trades[id].lenderAdress */\n      0x02\n      add\n      0x00\n      swap1\n      sload\n      swap1\n      0x0100\n      exp\n      swap1\n      div\n      0xffffffffffffffffffffffffffffffffffffffff\n      and\n        /* \"custodian.sol\":802:839  msg.sender == trades[id].lenderAdress */\n      0xffffffffffffffffffffffffffffffffffffffff\n      and\n        /* \"custodian.sol\":802:812  msg.sender */\n      caller\n        /* \"custodian.sol\":802:839  msg.sender == trades[id].lenderAdress */\n      0xffffffffffffffffffffffffffffffffffffffff\n      and\n      eq\n        /* \"custodian.sol\":759:839  msg.sender == trades[id].borrowerAdress || msg.sender == trades[id].lenderAdress */\n    tag_50:\n        /* \"custodian.sol\":751:859  require(msg.sender == trades[id].borrowerAdress || msg.sender == trades[id].lenderAdress, \"privilege acces\") */\n      tag_51\n      jumpi\n      mload(0x40)\n      0x08c379a000000000000000000000000000000000000000000000000000000000\n      dup2\n      mstore\n      0x04\n      add\n      tag_52\n      swap1\n      tag_34\n      jump\t// in\n    tag_52:\n      mload(0x40)\n      dup1\n      swap2\n      sub\n      swap1\n      revert\n    tag_51:\n        /* \"custodian.sol\":2141:2148  approve */\n      dup3\n        /* \"custodian.sol\":2107:2113  trades */\n      0x02\n        /* \"custodian.sol\":2107:2117  trades[id] */\n      0x00\n        /* \"custodian.sol\":2114:2116  id */\n      dup5\n        /* \"custodian.sol\":2107:2117  trades[id] */\n      dup2\n      mstore\n      0x20\n      add\n      swap1\n      dup2\n      mstore\n      0x20\n      add\n      0x00\n      keccak256\n        /* \"custodian.sol\":2107:2140  trades[id].approvedByCounterParty */\n      0x08\n      add\n      0x00\n        /* \"custodian.sol\":2107:2148  trades[id].approvedByCounterParty=approve */\n      0x0100\n      exp\n      dup2\n      sload\n      dup2\n      0xff\n      mul\n      not\n      and\n      swap1\n      dup4\n      iszero\n      iszero\n      mul\n      or\n      swap1\n      sstore\n      pop\n        /* \"custodian.sol\":2018:2155  function approveContractByBorrower(bool approve,uint id ) public restricted(id){... */\n      pop\n      pop\n      pop\n      jump\t// out\n        /* \"custodian.sol\":2163:2301  function random() private view returns (uint) {... */\n    tag_27:\n        /* \"custodian.sol\":2203:2207  uint */\n      0x00\n        /* \"custodian.sol\":2258:2274  block.difficulty */\n      difficulty\n        /* \"custodian.sol\":2276:2291  block.timestamp */\n      timestamp\n        /* \"custodian.sol\":2241:2292  abi.encodePacked(block.difficulty, block.timestamp) */\n      add(0x20, mload(0x40))\n      tag_55\n      swap3\n      swap2\n      swap1\n      tag_56\n      jump\t// in\n    tag_55:\n      mload(0x40)\n      0x20\n      dup2\n      dup4\n      sub\n      sub\n      dup2\n      mstore\n      swap1\n      0x40\n      mstore\n        /* \"custodian.sol\":2231:2293  keccak256(abi.encodePacked(block.difficulty, block.timestamp)) */\n      dup1\n      mload\n      swap1\n      0x20\n      add\n      keccak256\n        /* \"custodian.sol\":2226:2294  uint(keccak256(abi.encodePacked(block.difficulty, block.timestamp))) */\n      0x00\n      shr\n        /* \"custodian.sol\":2219:2294  return uint(keccak256(abi.encodePacked(block.difficulty, block.timestamp))) */\n      swap1\n      pop\n        /* \"custodian.sol\":2163:2301  function random() private view returns (uint) {... */\n      swap1\n      jump\t// out\n    tag_47:\n      dup3\n      dup1\n      sload\n      tag_57\n      swap1\n      tag_58\n      jump\t// in\n    tag_57:\n      swap1\n      0x00\n      mstore\n      keccak256(0x00, 0x20)\n      swap1\n      0x1f\n      add\n      0x20\n      swap1\n      div\n      dup2\n      add\n      swap3\n      dup3\n      tag_60\n      jumpi\n      0x00\n      dup6\n      sstore\n      jump(tag_59)\n    tag_60:\n      dup3\n      0x1f\n      lt\n      tag_61\n      jumpi\n      dup1\n      mload\n      not(0xff)\n      and\n      dup4\n      dup1\n      add\n      or\n      dup6\n      sstore\n      jump(tag_59)\n    tag_61:\n      dup3\n      dup1\n      add\n      0x01\n      add\n      dup6\n      sstore\n      dup3\n      iszero\n      tag_59\n      jumpi\n      swap2\n      dup3\n      add\n    tag_62:\n      dup3\n      dup2\n      gt\n      iszero\n      tag_63\n      jumpi\n      dup3\n      mload\n      dup3\n      sstore\n      swap2\n      0x20\n      add\n      swap2\n      swap1\n      0x01\n      add\n      swap1\n      jump(tag_62)\n    tag_63:\n    tag_59:\n      pop\n      swap1\n      pop\n      tag_64\n      swap2\n      swap1\n      tag_65\n      jump\t// in\n    tag_64:\n      pop\n      swap1\n      jump\t// out\n    tag_65:\n    tag_66:\n      dup1\n      dup3\n      gt\n      iszero\n      tag_67\n      jumpi\n      0x00\n      dup2\n      0x00\n      swap1\n      sstore\n      pop\n      0x01\n      add\n      jump(tag_66)\n    tag_67:\n      pop\n      swap1\n      jump\t// out\n        /* \"#utility.yul\":7:351   */\n    tag_69:\n      0x00\n        /* \"#utility.yul\":110:175   */\n      tag_71\n        /* \"#utility.yul\":125:174   */\n      tag_72\n        /* \"#utility.yul\":167:173   */\n      dup5\n        /* \"#utility.yul\":125:174   */\n      tag_73\n      jump\t// in\n    tag_72:\n        /* \"#utility.yul\":110:175   */\n      tag_74\n      jump\t// in\n    tag_71:\n        /* \"#utility.yul\":101:175   */\n      swap1\n      pop\n        /* \"#utility.yul\":198:204   */\n      dup3\n        /* \"#utility.yul\":191:196   */\n      dup2\n        /* \"#utility.yul\":184:205   */\n      mstore\n        /* \"#utility.yul\":236:240   */\n      0x20\n        /* \"#utility.yul\":229:234   */\n      dup2\n        /* \"#utility.yul\":225:241   */\n      add\n        /* \"#utility.yul\":274:277   */\n      dup5\n        /* \"#utility.yul\":265:271   */\n      dup5\n        /* \"#utility.yul\":260:263   */\n      dup5\n        /* \"#utility.yul\":256:272   */\n      add\n        /* \"#utility.yul\":253:278   */\n      gt\n        /* \"#utility.yul\":250:252   */\n      iszero\n      tag_75\n      jumpi\n        /* \"#utility.yul\":291:292   */\n      0x00\n        /* \"#utility.yul\":288:289   */\n      dup1\n        /* \"#utility.yul\":281:293   */\n      revert\n        /* \"#utility.yul\":250:252   */\n    tag_75:\n        /* \"#utility.yul\":304:345   */\n      tag_76\n        /* \"#utility.yul\":338:344   */\n      dup5\n        /* \"#utility.yul\":333:336   */\n      dup3\n        /* \"#utility.yul\":328:331   */\n      dup6\n        /* \"#utility.yul\":304:345   */\n      tag_77\n      jump\t// in\n    tag_76:\n        /* \"#utility.yul\":91:351   */\n      pop\n      swap4\n      swap3\n      pop\n      pop\n      pop\n      jump\t// out\n        /* \"#utility.yul\":357:512   */\n    tag_78:\n      0x00\n        /* \"#utility.yul\":449:455   */\n      dup2\n        /* \"#utility.yul\":436:456   */\n      calldataload\n        /* \"#utility.yul\":427:456   */\n      swap1\n      pop\n        /* \"#utility.yul\":465:506   */\n      tag_80\n        /* \"#utility.yul\":500:505   */\n      dup2\n        /* \"#utility.yul\":465:506   */\n      tag_81\n      jump\t// in\n    tag_80:\n        /* \"#utility.yul\":417:512   */\n      swap3\n      swap2\n      pop\n      pop\n      jump\t// out\n        /* \"#utility.yul\":518:651   */\n    tag_82:\n      0x00\n        /* \"#utility.yul\":599:605   */\n      dup2\n        /* \"#utility.yul\":586:606   */\n      calldataload\n        /* \"#utility.yul\":577:606   */\n      swap1\n      pop\n        /* \"#utility.yul\":615:645   */\n      tag_84\n        /* \"#utility.yul\":639:644   */\n      dup2\n        /* \"#utility.yul\":615:645   */\n      tag_85\n      jump\t// in\n    tag_84:\n        /* \"#utility.yul\":567:651   */\n      swap3\n      swap2\n      pop\n      pop\n      jump\t// out\n        /* \"#utility.yul\":671:944   */\n    tag_86:\n      0x00\n        /* \"#utility.yul\":776:779   */\n      dup3\n        /* \"#utility.yul\":769:773   */\n      0x1f\n        /* \"#utility.yul\":761:767   */\n      dup4\n        /* \"#utility.yul\":757:774   */\n      add\n        /* \"#utility.yul\":753:780   */\n      slt\n        /* \"#utility.yul\":743:745   */\n      tag_88\n      jumpi\n        /* \"#utility.yul\":794:795   */\n      0x00\n        /* \"#utility.yul\":791:792   */\n      dup1\n        /* \"#utility.yul\":784:796   */\n      revert\n        /* \"#utility.yul\":743:745   */\n    tag_88:\n        /* \"#utility.yul\":834:840   */\n      dup2\n        /* \"#utility.yul\":821:841   */\n      calldataload\n        /* \"#utility.yul\":859:938   */\n      tag_89\n        /* \"#utility.yul\":934:937   */\n      dup5\n        /* \"#utility.yul\":926:932   */\n      dup3\n        /* \"#utility.yul\":919:923   */\n      0x20\n        /* \"#utility.yul\":911:917   */\n      dup7\n        /* \"#utility.yul\":907:924   */\n      add\n        /* \"#utility.yul\":859:938   */\n      tag_69\n      jump\t// in\n    tag_89:\n        /* \"#utility.yul\":850:938   */\n      swap2\n      pop\n        /* \"#utility.yul\":733:944   */\n      pop\n      swap3\n      swap2\n      pop\n      pop\n      jump\t// out\n        /* \"#utility.yul\":985:1924   */\n    tag_90:\n      0x00\n        /* \"#utility.yul\":1104:1108   */\n      0x80\n        /* \"#utility.yul\":1092:1101   */\n      dup3\n        /* \"#utility.yul\":1087:1090   */\n      dup5\n        /* \"#utility.yul\":1083:1102   */\n      sub\n        /* \"#utility.yul\":1079:1109   */\n      slt\n        /* \"#utility.yul\":1076:1078   */\n      iszero\n      tag_92\n      jumpi\n        /* \"#utility.yul\":1122:1123   */\n      0x00\n        /* \"#utility.yul\":1119:1120   */\n      dup1\n        /* \"#utility.yul\":1112:1124   */\n      revert\n        /* \"#utility.yul\":1076:1078   */\n    tag_92:\n        /* \"#utility.yul\":1144:1164   */\n      tag_93\n        /* \"#utility.yul\":1159:1163   */\n      0x80\n        /* \"#utility.yul\":1144:1164   */\n      tag_74\n      jump\t// in\n    tag_93:\n        /* \"#utility.yul\":1135:1164   */\n      swap1\n      pop\n        /* \"#utility.yul\":1252:1253   */\n      0x00\n        /* \"#utility.yul\":1241:1250   */\n      dup3\n        /* \"#utility.yul\":1237:1254   */\n      add\n        /* \"#utility.yul\":1224:1255   */\n      calldataload\n        /* \"#utility.yul\":1282:1300   */\n      0xffffffffffffffff\n        /* \"#utility.yul\":1274:1280   */\n      dup2\n        /* \"#utility.yul\":1271:1301   */\n      gt\n        /* \"#utility.yul\":1268:1270   */\n      iszero\n      tag_94\n      jumpi\n        /* \"#utility.yul\":1314:1315   */\n      0x00\n        /* \"#utility.yul\":1311:1312   */\n      dup1\n        /* \"#utility.yul\":1304:1316   */\n      revert\n        /* \"#utility.yul\":1268:1270   */\n    tag_94:\n        /* \"#utility.yul\":1357:1416   */\n      tag_95\n        /* \"#utility.yul\":1412:1415   */\n      dup5\n        /* \"#utility.yul\":1403:1409   */\n      dup3\n        /* \"#utility.yul\":1392:1401   */\n      dup6\n        /* \"#utility.yul\":1388:1410   */\n      add\n        /* \"#utility.yul\":1357:1416   */\n      tag_86\n      jump\t// in\n    tag_95:\n        /* \"#utility.yul\":1350:1354   */\n      0x00\n        /* \"#utility.yul\":1343:1348   */\n      dup4\n        /* \"#utility.yul\":1339:1355   */\n      add\n        /* \"#utility.yul\":1332:1417   */\n      mstore\n        /* \"#utility.yul\":1174:1428   */\n      pop\n        /* \"#utility.yul\":1488:1490   */\n      0x20\n        /* \"#utility.yul\":1529:1578   */\n      tag_96\n        /* \"#utility.yul\":1574:1577   */\n      dup5\n        /* \"#utility.yul\":1565:1571   */\n      dup3\n        /* \"#utility.yul\":1554:1563   */\n      dup6\n        /* \"#utility.yul\":1550:1572   */\n      add\n        /* \"#utility.yul\":1529:1578   */\n      tag_97\n      jump\t// in\n    tag_96:\n        /* \"#utility.yul\":1522:1526   */\n      0x20\n        /* \"#utility.yul\":1515:1520   */\n      dup4\n        /* \"#utility.yul\":1511:1527   */\n      add\n        /* \"#utility.yul\":1504:1579   */\n      mstore\n        /* \"#utility.yul\":1438:1590   */\n      pop\n        /* \"#utility.yul\":1653:1655   */\n      0x40\n        /* \"#utility.yul\":1694:1743   */\n      tag_98\n        /* \"#utility.yul\":1739:1742   */\n      dup5\n        /* \"#utility.yul\":1730:1736   */\n      dup3\n        /* \"#utility.yul\":1719:1728   */\n      dup6\n        /* \"#utility.yul\":1715:1737   */\n      add\n        /* \"#utility.yul\":1694:1743   */\n      tag_97\n      jump\t// in\n    tag_98:\n        /* \"#utility.yul\":1687:1691   */\n      0x40\n        /* \"#utility.yul\":1680:1685   */\n      dup4\n        /* \"#utility.yul\":1676:1692   */\n      add\n        /* \"#utility.yul\":1669:1744   */\n      mstore\n        /* \"#utility.yul\":1600:1755   */\n      pop\n        /* \"#utility.yul\":1815:1817   */\n      0x60\n        /* \"#utility.yul\":1856:1905   */\n      tag_99\n        /* \"#utility.yul\":1901:1904   */\n      dup5\n        /* \"#utility.yul\":1892:1898   */\n      dup3\n        /* \"#utility.yul\":1881:1890   */\n      dup6\n        /* \"#utility.yul\":1877:1899   */\n      add\n        /* \"#utility.yul\":1856:1905   */\n      tag_97\n      jump\t// in\n    tag_99:\n        /* \"#utility.yul\":1849:1853   */\n      0x60\n        /* \"#utility.yul\":1842:1847   */\n      dup4\n        /* \"#utility.yul\":1838:1854   */\n      add\n        /* \"#utility.yul\":1831:1906   */\n      mstore\n        /* \"#utility.yul\":1765:1917   */\n      pop\n        /* \"#utility.yul\":1066:1924   */\n      swap3\n      swap2\n      pop\n      pop\n      jump\t// out\n        /* \"#utility.yul\":1930:2069   */\n    tag_97:\n      0x00\n        /* \"#utility.yul\":2014:2020   */\n      dup2\n        /* \"#utility.yul\":2001:2021   */\n      calldataload\n        /* \"#utility.yul\":1992:2021   */\n      swap1\n      pop\n        /* \"#utility.yul\":2030:2063   */\n      tag_101\n        /* \"#utility.yul\":2057:2062   */\n      dup2\n        /* \"#utility.yul\":2030:2063   */\n      tag_102\n      jump\t// in\n    tag_101:\n        /* \"#utility.yul\":1982:2069   */\n      swap3\n      swap2\n      pop\n      pop\n      jump\t// out\n        /* \"#utility.yul\":2075:2935   */\n    tag_15:\n      0x00\n      dup1\n      0x00\n      dup1\n      0x00\n        /* \"#utility.yul\":2259:2262   */\n      0xa0\n        /* \"#utility.yul\":2247:2256   */\n      dup7\n        /* \"#utility.yul\":2238:2245   */\n      dup9\n        /* \"#utility.yul\":2234:2257   */\n      sub\n        /* \"#utility.yul\":2230:2263   */\n      slt\n        /* \"#utility.yul\":2227:2229   */\n      iszero\n      tag_104\n      jumpi\n        /* \"#utility.yul\":2276:2277   */\n      0x00\n        /* \"#utility.yul\":2273:2274   */\n      dup1\n        /* \"#utility.yul\":2266:2278   */\n      revert\n        /* \"#utility.yul\":2227:2229   */\n    tag_104:\n        /* \"#utility.yul\":2319:2320   */\n      0x00\n        /* \"#utility.yul\":2344:2405   */\n      tag_105\n        /* \"#utility.yul\":2397:2404   */\n      dup9\n        /* \"#utility.yul\":2388:2394   */\n      dup3\n        /* \"#utility.yul\":2377:2386   */\n      dup10\n        /* \"#utility.yul\":2373:2395   */\n      add\n        /* \"#utility.yul\":2344:2405   */\n      tag_78\n      jump\t// in\n    tag_105:\n        /* \"#utility.yul\":2334:2405   */\n      swap6\n      pop\n        /* \"#utility.yul\":2290:2415   */\n      pop\n        /* \"#utility.yul\":2454:2456   */\n      0x20\n        /* \"#utility.yul\":2480:2533   */\n      tag_106\n        /* \"#utility.yul\":2525:2532   */\n      dup9\n        /* \"#utility.yul\":2516:2522   */\n      dup3\n        /* \"#utility.yul\":2505:2514   */\n      dup10\n        /* \"#utility.yul\":2501:2523   */\n      add\n        /* \"#utility.yul\":2480:2533   */\n      tag_97\n      jump\t// in\n    tag_106:\n        /* \"#utility.yul\":2470:2533   */\n      swap5\n      pop\n        /* \"#utility.yul\":2425:2543   */\n      pop\n        /* \"#utility.yul\":2582:2584   */\n      0x40\n        /* \"#utility.yul\":2608:2661   */\n      tag_107\n        /* \"#utility.yul\":2653:2660   */\n      dup9\n        /* \"#utility.yul\":2644:2650   */\n      dup3\n        /* \"#utility.yul\":2633:2642   */\n      dup10\n        /* \"#utility.yul\":2629:2651   */\n      add\n        /* \"#utility.yul\":2608:2661   */\n      tag_97\n      jump\t// in\n    tag_107:\n        /* \"#utility.yul\":2598:2661   */\n      swap4\n      pop\n        /* \"#utility.yul\":2553:2671   */\n      pop\n        /* \"#utility.yul\":2710:2712   */\n      0x60\n        /* \"#utility.yul\":2736:2789   */\n      tag_108\n        /* \"#utility.yul\":2781:2788   */\n      dup9\n        /* \"#utility.yul\":2772:2778   */\n      dup3\n        /* \"#utility.yul\":2761:2770   */\n      dup10\n        /* \"#utility.yul\":2757:2779   */\n      add\n        /* \"#utility.yul\":2736:2789   */\n      tag_97\n      jump\t// in\n    tag_108:\n        /* \"#utility.yul\":2726:2789   */\n      swap3\n      pop\n        /* \"#utility.yul\":2681:2799   */\n      pop\n        /* \"#utility.yul\":2838:2841   */\n      0x80\n        /* \"#utility.yul\":2865:2918   */\n      tag_109\n        /* \"#utility.yul\":2910:2917   */\n      dup9\n        /* \"#utility.yul\":2901:2907   */\n      dup3\n        /* \"#utility.yul\":2890:2899   */\n      dup10\n        /* \"#utility.yul\":2886:2908   */\n      add\n        /* \"#utility.yul\":2865:2918   */\n      tag_97\n      jump\t// in\n    tag_109:\n        /* \"#utility.yul\":2855:2918   */\n      swap2\n      pop\n        /* \"#utility.yul\":2809:2928   */\n      pop\n        /* \"#utility.yul\":2217:2935   */\n      swap3\n      swap6\n      pop\n      swap3\n      swap6\n      swap1\n      swap4\n      pop\n      jump\t// out\n        /* \"#utility.yul\":2941:3342   */\n    tag_23:\n      0x00\n      dup1\n        /* \"#utility.yul\":3063:3065   */\n      0x40\n        /* \"#utility.yul\":3051:3060   */\n      dup4\n        /* \"#utility.yul\":3042:3049   */\n      dup6\n        /* \"#utility.yul\":3038:3061   */\n      sub\n        /* \"#utility.yul\":3034:3066   */\n      slt\n        /* \"#utility.yul\":3031:3033   */\n      iszero\n      tag_111\n      jumpi\n        /* \"#utility.yul\":3079:3080   */\n      0x00\n        /* \"#utility.yul\":3076:3077   */\n      dup1\n        /* \"#utility.yul\":3069:3081   */\n      revert\n        /* \"#utility.yul\":3031:3033   */\n    tag_111:\n        /* \"#utility.yul\":3122:3123   */\n      0x00\n        /* \"#utility.yul\":3147:3197   */\n      tag_112\n        /* \"#utility.yul\":3189:3196   */\n      dup6\n        /* \"#utility.yul\":3180:3186   */\n      dup3\n        /* \"#utility.yul\":3169:3178   */\n      dup7\n        /* \"#utility.yul\":3165:3187   */\n      add\n        /* \"#utility.yul\":3147:3197   */\n      tag_82\n      jump\t// in\n    tag_112:\n        /* \"#utility.yul\":3137:3197   */\n      swap3\n      pop\n        /* \"#utility.yul\":3093:3207   */\n      pop\n        /* \"#utility.yul\":3246:3248   */\n      0x20\n        /* \"#utility.yul\":3272:3325   */\n      tag_113\n        /* \"#utility.yul\":3317:3324   */\n      dup6\n        /* \"#utility.yul\":3308:3314   */\n      dup3\n        /* \"#utility.yul\":3297:3306   */\n      dup7\n        /* \"#utility.yul\":3293:3315   */\n      add\n        /* \"#utility.yul\":3272:3325   */\n      tag_97\n      jump\t// in\n    tag_113:\n        /* \"#utility.yul\":3262:3325   */\n      swap2\n      pop\n        /* \"#utility.yul\":3217:3335   */\n      pop\n        /* \"#utility.yul\":3021:3342   */\n      swap3\n      pop\n      swap3\n      swap1\n      pop\n      jump\t// out\n        /* \"#utility.yul\":3348:3900   */\n    tag_19:\n      0x00\n      dup1\n        /* \"#utility.yul\":3499:3501   */\n      0x40\n        /* \"#utility.yul\":3487:3496   */\n      dup4\n        /* \"#utility.yul\":3478:3485   */\n      dup6\n        /* \"#utility.yul\":3474:3497   */\n      sub\n        /* \"#utility.yul\":3470:3502   */\n      slt\n        /* \"#utility.yul\":3467:3469   */\n      iszero\n      tag_115\n      jumpi\n        /* \"#utility.yul\":3515:3516   */\n      0x00\n        /* \"#utility.yul\":3512:3513   */\n      dup1\n        /* \"#utility.yul\":3505:3517   */\n      revert\n        /* \"#utility.yul\":3467:3469   */\n    tag_115:\n        /* \"#utility.yul\":3586:3587   */\n      0x00\n        /* \"#utility.yul\":3575:3584   */\n      dup4\n        /* \"#utility.yul\":3571:3588   */\n      add\n        /* \"#utility.yul\":3558:3589   */\n      calldataload\n        /* \"#utility.yul\":3616:3634   */\n      0xffffffffffffffff\n        /* \"#utility.yul\":3608:3614   */\n      dup2\n        /* \"#utility.yul\":3605:3635   */\n      gt\n        /* \"#utility.yul\":3602:3604   */\n      iszero\n      tag_116\n      jumpi\n        /* \"#utility.yul\":3648:3649   */\n      0x00\n        /* \"#utility.yul\":3645:3646   */\n      dup1\n        /* \"#utility.yul\":3638:3650   */\n      revert\n        /* \"#utility.yul\":3602:3604   */\n    tag_116:\n        /* \"#utility.yul\":3676:3755   */\n      tag_117\n        /* \"#utility.yul\":3747:3754   */\n      dup6\n        /* \"#utility.yul\":3738:3744   */\n      dup3\n        /* \"#utility.yul\":3727:3736   */\n      dup7\n        /* \"#utility.yul\":3723:3745   */\n      add\n        /* \"#utility.yul\":3676:3755   */\n      tag_90\n      jump\t// in\n    tag_117:\n        /* \"#utility.yul\":3666:3755   */\n      swap3\n      pop\n        /* \"#utility.yul\":3529:3765   */\n      pop\n        /* \"#utility.yul\":3804:3806   */\n      0x20\n        /* \"#utility.yul\":3830:3883   */\n      tag_118\n        /* \"#utility.yul\":3875:3882   */\n      dup6\n        /* \"#utility.yul\":3866:3872   */\n      dup3\n        /* \"#utility.yul\":3855:3864   */\n      dup7\n        /* \"#utility.yul\":3851:3873   */\n      add\n        /* \"#utility.yul\":3830:3883   */\n      tag_97\n      jump\t// in\n    tag_118:\n        /* \"#utility.yul\":3820:3883   */\n      swap2\n      pop\n        /* \"#utility.yul\":3775:3893   */\n      pop\n        /* \"#utility.yul\":3457:3900   */\n      swap3\n      pop\n      swap3\n      swap1\n      pop\n      jump\t// out\n        /* \"#utility.yul\":3906:4168   */\n    tag_9:\n      0x00\n        /* \"#utility.yul\":4014:4016   */\n      0x20\n        /* \"#utility.yul\":4002:4011   */\n      dup3\n        /* \"#utility.yul\":3993:4000   */\n      dup5\n        /* \"#utility.yul\":3989:4012   */\n      sub\n        /* \"#utility.yul\":3985:4017   */\n      slt\n        /* \"#utility.yul\":3982:3984   */\n      iszero\n      tag_120\n      jumpi\n        /* \"#utility.yul\":4030:4031   */\n      0x00\n        /* \"#utility.yul\":4027:4028   */\n      dup1\n        /* \"#utility.yul\":4020:4032   */\n      revert\n        /* \"#utility.yul\":3982:3984   */\n    tag_120:\n        /* \"#utility.yul\":4073:4074   */\n      0x00\n        /* \"#utility.yul\":4098:4151   */\n      tag_121\n        /* \"#utility.yul\":4143:4150   */\n      dup5\n        /* \"#utility.yul\":4134:4140   */\n      dup3\n        /* \"#utility.yul\":4123:4132   */\n      dup6\n        /* \"#utility.yul\":4119:4141   */\n      add\n        /* \"#utility.yul\":4098:4151   */\n      tag_97\n      jump\t// in\n    tag_121:\n        /* \"#utility.yul\":4088:4151   */\n      swap2\n      pop\n        /* \"#utility.yul\":4044:4161   */\n      pop\n        /* \"#utility.yul\":3972:4168   */\n      swap3\n      swap2\n      pop\n      pop\n      jump\t// out\n        /* \"#utility.yul\":4174:4316   */\n    tag_122:\n        /* \"#utility.yul\":4277:4309   */\n      tag_124\n        /* \"#utility.yul\":4303:4308   */\n      dup2\n        /* \"#utility.yul\":4277:4309   */\n      tag_125\n      jump\t// in\n    tag_124:\n        /* \"#utility.yul\":4272:4275   */\n      dup3\n        /* \"#utility.yul\":4265:4310   */\n      mstore\n        /* \"#utility.yul\":4255:4316   */\n      pop\n      pop\n      jump\t// out\n        /* \"#utility.yul\":4322:4440   */\n    tag_126:\n        /* \"#utility.yul\":4409:4433   */\n      tag_128\n        /* \"#utility.yul\":4427:4432   */\n      dup2\n        /* \"#utility.yul\":4409:4433   */\n      tag_129\n      jump\t// in\n    tag_128:\n        /* \"#utility.yul\":4404:4407   */\n      dup3\n        /* \"#utility.yul\":4397:4434   */\n      mstore\n        /* \"#utility.yul\":4387:4440   */\n      pop\n      pop\n      jump\t// out\n        /* \"#utility.yul\":4446:4555   */\n    tag_130:\n        /* \"#utility.yul\":4527:4548   */\n      tag_132\n        /* \"#utility.yul\":4542:4547   */\n      dup2\n        /* \"#utility.yul\":4527:4548   */\n      tag_133\n      jump\t// in\n    tag_132:\n        /* \"#utility.yul\":4522:4525   */\n      dup3\n        /* \"#utility.yul\":4515:4549   */\n      mstore\n        /* \"#utility.yul\":4505:4555   */\n      pop\n      pop\n      jump\t// out\n        /* \"#utility.yul\":4561:4874   */\n    tag_134:\n      0x00\n        /* \"#utility.yul\":4724:4791   */\n      tag_136\n        /* \"#utility.yul\":4788:4790   */\n      0x0f\n        /* \"#utility.yul\":4783:4786   */\n      dup4\n        /* \"#utility.yul\":4724:4791   */\n      tag_137\n      jump\t// in\n    tag_136:\n        /* \"#utility.yul\":4717:4791   */\n      swap2\n      pop\n        /* \"#utility.yul\":4821:4838   */\n      0x70726976696c6567652061636365730000000000000000000000000000000000\n        /* \"#utility.yul\":4817:4818   */\n      0x00\n        /* \"#utility.yul\":4812:4815   */\n      dup4\n        /* \"#utility.yul\":4808:4819   */\n      add\n        /* \"#utility.yul\":4801:4839   */\n      mstore\n        /* \"#utility.yul\":4865:4867   */\n      0x20\n        /* \"#utility.yul\":4860:4863   */\n      dup3\n        /* \"#utility.yul\":4856:4868   */\n      add\n        /* \"#utility.yul\":4849:4868   */\n      swap1\n      pop\n        /* \"#utility.yul\":4707:4874   */\n      swap2\n      swap1\n      pop\n      jump\t// out\n        /* \"#utility.yul\":4880:5205   */\n    tag_138:\n      0x00\n        /* \"#utility.yul\":5043:5110   */\n      tag_140\n        /* \"#utility.yul\":5107:5109   */\n      0x1b\n        /* \"#utility.yul\":5102:5105   */\n      dup4\n        /* \"#utility.yul\":5043:5110   */\n      tag_137\n      jump\t// in\n    tag_140:\n        /* \"#utility.yul\":5036:5110   */\n      swap2\n      pop\n        /* \"#utility.yul\":5140:5169   */\n      0x636f6c6c61746572616c206973206e6f74207065726d69747465640000000000\n        /* \"#utility.yul\":5136:5137   */\n      0x00\n        /* \"#utility.yul\":5131:5134   */\n      dup4\n        /* \"#utility.yul\":5127:5138   */\n      add\n        /* \"#utility.yul\":5120:5170   */\n      mstore\n        /* \"#utility.yul\":5196:5198   */\n      0x20\n        /* \"#utility.yul\":5191:5194   */\n      dup3\n        /* \"#utility.yul\":5187:5199   */\n      add\n        /* \"#utility.yul\":5180:5199   */\n      swap1\n      pop\n        /* \"#utility.yul\":5026:5205   */\n      swap2\n      swap1\n      pop\n      jump\t// out\n        /* \"#utility.yul\":5211:5577   */\n    tag_141:\n      0x00\n        /* \"#utility.yul\":5374:5441   */\n      tag_143\n        /* \"#utility.yul\":5438:5440   */\n      0x22\n        /* \"#utility.yul\":5433:5436   */\n      dup4\n        /* \"#utility.yul\":5374:5441   */\n      tag_137\n      jump\t// in\n    tag_143:\n        /* \"#utility.yul\":5367:5441   */\n      swap2\n      pop\n        /* \"#utility.yul\":5471:5505   */\n      0x7472616465206e6f7420617070726f76656420627920626f7468207061727469\n        /* \"#utility.yul\":5467:5468   */\n      0x00\n        /* \"#utility.yul\":5462:5465   */\n      dup4\n        /* \"#utility.yul\":5458:5469   */\n      add\n        /* \"#utility.yul\":5451:5506   */\n      mstore\n        /* \"#utility.yul\":5537:5541   */\n      0x6573000000000000000000000000000000000000000000000000000000000000\n        /* \"#utility.yul\":5532:5534   */\n      0x20\n        /* \"#utility.yul\":5527:5530   */\n      dup4\n        /* \"#utility.yul\":5523:5535   */\n      add\n        /* \"#utility.yul\":5516:5542   */\n      mstore\n        /* \"#utility.yul\":5568:5570   */\n      0x40\n        /* \"#utility.yul\":5563:5566   */\n      dup3\n        /* \"#utility.yul\":5559:5571   */\n      add\n        /* \"#utility.yul\":5552:5571   */\n      swap1\n      pop\n        /* \"#utility.yul\":5357:5577   */\n      swap2\n      swap1\n      pop\n      jump\t// out\n        /* \"#utility.yul\":5639:6344   */\n    tag_144:\n        /* \"#utility.yul\":5776:5780   */\n      0x60\n        /* \"#utility.yul\":5771:5774   */\n      dup3\n        /* \"#utility.yul\":5767:5781   */\n      add\n        /* \"#utility.yul\":5876:5880   */\n      0x00\n        /* \"#utility.yul\":5869:5874   */\n      dup3\n        /* \"#utility.yul\":5865:5881   */\n      add\n        /* \"#utility.yul\":5859:5882   */\n      mload\n        /* \"#utility.yul\":5895:5958   */\n      tag_146\n        /* \"#utility.yul\":5952:5956   */\n      0x00\n        /* \"#utility.yul\":5947:5950   */\n      dup6\n        /* \"#utility.yul\":5943:5957   */\n      add\n        /* \"#utility.yul\":5929:5941   */\n      dup3\n        /* \"#utility.yul\":5895:5958   */\n      tag_147\n      jump\t// in\n    tag_146:\n        /* \"#utility.yul\":5791:5968   */\n      pop\n        /* \"#utility.yul\":6061:6065   */\n      0x20\n        /* \"#utility.yul\":6054:6059   */\n      dup3\n        /* \"#utility.yul\":6050:6066   */\n      add\n        /* \"#utility.yul\":6044:6067   */\n      mload\n        /* \"#utility.yul\":6080:6143   */\n      tag_148\n        /* \"#utility.yul\":6137:6141   */\n      0x20\n        /* \"#utility.yul\":6132:6135   */\n      dup6\n        /* \"#utility.yul\":6128:6142   */\n      add\n        /* \"#utility.yul\":6114:6126   */\n      dup3\n        /* \"#utility.yul\":6080:6143   */\n      tag_147\n      jump\t// in\n    tag_148:\n        /* \"#utility.yul\":5978:6153   */\n      pop\n        /* \"#utility.yul\":6245:6249   */\n      0x40\n        /* \"#utility.yul\":6238:6243   */\n      dup3\n        /* \"#utility.yul\":6234:6250   */\n      add\n        /* \"#utility.yul\":6228:6251   */\n      mload\n        /* \"#utility.yul\":6264:6327   */\n      tag_149\n        /* \"#utility.yul\":6321:6325   */\n      0x40\n        /* \"#utility.yul\":6316:6319   */\n      dup6\n        /* \"#utility.yul\":6312:6326   */\n      add\n        /* \"#utility.yul\":6298:6310   */\n      dup3\n        /* \"#utility.yul\":6264:6327   */\n      tag_147\n      jump\t// in\n    tag_149:\n        /* \"#utility.yul\":6163:6337   */\n      pop\n        /* \"#utility.yul\":5745:6344   */\n      pop\n      pop\n      pop\n      jump\t// out\n        /* \"#utility.yul\":6350:6458   */\n    tag_147:\n        /* \"#utility.yul\":6427:6451   */\n      tag_151\n        /* \"#utility.yul\":6445:6450   */\n      dup2\n        /* \"#utility.yul\":6427:6451   */\n      tag_152\n      jump\t// in\n    tag_151:\n        /* \"#utility.yul\":6422:6425   */\n      dup3\n        /* \"#utility.yul\":6415:6452   */\n      mstore\n        /* \"#utility.yul\":6405:6458   */\n      pop\n      pop\n      jump\t// out\n        /* \"#utility.yul\":6464:6582   */\n    tag_153:\n        /* \"#utility.yul\":6551:6575   */\n      tag_155\n        /* \"#utility.yul\":6569:6574   */\n      dup2\n        /* \"#utility.yul\":6551:6575   */\n      tag_152\n      jump\t// in\n    tag_155:\n        /* \"#utility.yul\":6546:6549   */\n      dup3\n        /* \"#utility.yul\":6539:6576   */\n      mstore\n        /* \"#utility.yul\":6529:6582   */\n      pop\n      pop\n      jump\t// out\n        /* \"#utility.yul\":6588:6745   */\n    tag_156:\n        /* \"#utility.yul\":6693:6738   */\n      tag_158\n        /* \"#utility.yul\":6713:6737   */\n      tag_159\n        /* \"#utility.yul\":6731:6736   */\n      dup3\n        /* \"#utility.yul\":6713:6737   */\n      tag_152\n      jump\t// in\n    tag_159:\n        /* \"#utility.yul\":6693:6738   */\n      tag_160\n      jump\t// in\n    tag_158:\n        /* \"#utility.yul\":6688:6691   */\n      dup3\n        /* \"#utility.yul\":6681:6739   */\n      mstore\n        /* \"#utility.yul\":6671:6745   */\n      pop\n      pop\n      jump\t// out\n        /* \"#utility.yul\":6751:7148   */\n    tag_56:\n      0x00\n        /* \"#utility.yul\":6906:6981   */\n      tag_162\n        /* \"#utility.yul\":6977:6980   */\n      dup3\n        /* \"#utility.yul\":6968:6974   */\n      dup6\n        /* \"#utility.yul\":6906:6981   */\n      tag_156\n      jump\t// in\n    tag_162:\n        /* \"#utility.yul\":7006:7008   */\n      0x20\n        /* \"#utility.yul\":7001:7004   */\n      dup3\n        /* \"#utility.yul\":6997:7009   */\n      add\n        /* \"#utility.yul\":6990:7009   */\n      swap2\n      pop\n        /* \"#utility.yul\":7019:7094   */\n      tag_163\n        /* \"#utility.yul\":7090:7093   */\n      dup3\n        /* \"#utility.yul\":7081:7087   */\n      dup5\n        /* \"#utility.yul\":7019:7094   */\n      tag_156\n      jump\t// in\n    tag_163:\n        /* \"#utility.yul\":7119:7121   */\n      0x20\n        /* \"#utility.yul\":7114:7117   */\n      dup3\n        /* \"#utility.yul\":7110:7122   */\n      add\n        /* \"#utility.yul\":7103:7122   */\n      swap2\n      pop\n        /* \"#utility.yul\":7139:7142   */\n      dup2\n        /* \"#utility.yul\":7132:7142   */\n      swap1\n      pop\n        /* \"#utility.yul\":6895:7148   */\n      swap4\n      swap3\n      pop\n      pop\n      pop\n      jump\t// out\n        /* \"#utility.yul\":7154:7573   */\n    tag_34:\n      0x00\n        /* \"#utility.yul\":7358:7360   */\n      0x20\n        /* \"#utility.yul\":7347:7356   */\n      dup3\n        /* \"#utility.yul\":7343:7361   */\n      add\n        /* \"#utility.yul\":7335:7361   */\n      swap1\n      pop\n        /* \"#utility.yul\":7407:7416   */\n      dup2\n        /* \"#utility.yul\":7401:7405   */\n      dup2\n        /* \"#utility.yul\":7397:7417   */\n      sub\n        /* \"#utility.yul\":7393:7394   */\n      0x00\n        /* \"#utility.yul\":7382:7391   */\n      dup4\n        /* \"#utility.yul\":7378:7395   */\n      add\n        /* \"#utility.yul\":7371:7418   */\n      mstore\n        /* \"#utility.yul\":7435:7566   */\n      tag_165\n        /* \"#utility.yul\":7561:7565   */\n      dup2\n        /* \"#utility.yul\":7435:7566   */\n      tag_134\n      jump\t// in\n    tag_165:\n        /* \"#utility.yul\":7427:7566   */\n      swap1\n      pop\n        /* \"#utility.yul\":7325:7573   */\n      swap2\n      swap1\n      pop\n      jump\t// out\n        /* \"#utility.yul\":7579:7998   */\n    tag_42:\n      0x00\n        /* \"#utility.yul\":7783:7785   */\n      0x20\n        /* \"#utility.yul\":7772:7781   */\n      dup3\n        /* \"#utility.yul\":7768:7786   */\n      add\n        /* \"#utility.yul\":7760:7786   */\n      swap1\n      pop\n        /* \"#utility.yul\":7832:7841   */\n      dup2\n        /* \"#utility.yul\":7826:7830   */\n      dup2\n        /* \"#utility.yul\":7822:7842   */\n      sub\n        /* \"#utility.yul\":7818:7819   */\n      0x00\n        /* \"#utility.yul\":7807:7816   */\n      dup4\n        /* \"#utility.yul\":7803:7820   */\n      add\n        /* \"#utility.yul\":7796:7843   */\n      mstore\n        /* \"#utility.yul\":7860:7991   */\n      tag_167\n        /* \"#utility.yul\":7986:7990   */\n      dup2\n        /* \"#utility.yul\":7860:7991   */\n      tag_138\n      jump\t// in\n    tag_167:\n        /* \"#utility.yul\":7852:7991   */\n      swap1\n      pop\n        /* \"#utility.yul\":7750:7998   */\n      swap2\n      swap1\n      pop\n      jump\t// out\n        /* \"#utility.yul\":8004:8423   */\n    tag_38:\n      0x00\n        /* \"#utility.yul\":8208:8210   */\n      0x20\n        /* \"#utility.yul\":8197:8206   */\n      dup3\n        /* \"#utility.yul\":8193:8211   */\n      add\n        /* \"#utility.yul\":8185:8211   */\n      swap1\n      pop\n        /* \"#utility.yul\":8257:8266   */\n      dup2\n        /* \"#utility.yul\":8251:8255   */\n      dup2\n        /* \"#utility.yul\":8247:8267   */\n      sub\n        /* \"#utility.yul\":8243:8244   */\n      0x00\n        /* \"#utility.yul\":8232:8241   */\n      dup4\n        /* \"#utility.yul\":8228:8245   */\n      add\n        /* \"#utility.yul\":8221:8268   */\n      mstore\n        /* \"#utility.yul\":8285:8416   */\n      tag_169\n        /* \"#utility.yul\":8411:8415   */\n      dup2\n        /* \"#utility.yul\":8285:8416   */\n      tag_141\n      jump\t// in\n    tag_169:\n        /* \"#utility.yul\":8277:8416   */\n      swap1\n      pop\n        /* \"#utility.yul\":8175:8423   */\n      swap2\n      swap1\n      pop\n      jump\t// out\n        /* \"#utility.yul\":8429:9304   */\n    tag_12:\n      0x00\n        /* \"#utility.yul\":8750:8753   */\n      0x0100\n        /* \"#utility.yul\":8739:8748   */\n      dup3\n        /* \"#utility.yul\":8735:8754   */\n      add\n        /* \"#utility.yul\":8727:8754   */\n      swap1\n      pop\n        /* \"#utility.yul\":8764:8835   */\n      tag_171\n        /* \"#utility.yul\":8832:8833   */\n      0x00\n        /* \"#utility.yul\":8821:8830   */\n      dup4\n        /* \"#utility.yul\":8817:8834   */\n      add\n        /* \"#utility.yul\":8808:8814   */\n      dup10\n        /* \"#utility.yul\":8764:8835   */\n      tag_153\n      jump\t// in\n    tag_171:\n        /* \"#utility.yul\":8845:8933   */\n      tag_172\n        /* \"#utility.yul\":8929:8931   */\n      0x20\n        /* \"#utility.yul\":8918:8927   */\n      dup4\n        /* \"#utility.yul\":8914:8932   */\n      add\n        /* \"#utility.yul\":8905:8911   */\n      dup9\n        /* \"#utility.yul\":8845:8933   */\n      tag_122\n      jump\t// in\n    tag_172:\n        /* \"#utility.yul\":8943:9015   */\n      tag_173\n        /* \"#utility.yul\":9011:9013   */\n      0x40\n        /* \"#utility.yul\":9000:9009   */\n      dup4\n        /* \"#utility.yul\":8996:9014   */\n      add\n        /* \"#utility.yul\":8987:8993   */\n      dup8\n        /* \"#utility.yul\":8943:9015   */\n      tag_126\n      jump\t// in\n    tag_173:\n        /* \"#utility.yul\":9025:9097   */\n      tag_174\n        /* \"#utility.yul\":9093:9095   */\n      0x60\n        /* \"#utility.yul\":9082:9091   */\n      dup4\n        /* \"#utility.yul\":9078:9096   */\n      add\n        /* \"#utility.yul\":9069:9075   */\n      dup7\n        /* \"#utility.yul\":9025:9097   */\n      tag_153\n      jump\t// in\n    tag_174:\n        /* \"#utility.yul\":9107:9220   */\n      tag_175\n        /* \"#utility.yul\":9215:9218   */\n      0x80\n        /* \"#utility.yul\":9204:9213   */\n      dup4\n        /* \"#utility.yul\":9200:9219   */\n      add\n        /* \"#utility.yul\":9191:9197   */\n      dup6\n        /* \"#utility.yul\":9107:9220   */\n      tag_144\n      jump\t// in\n    tag_175:\n        /* \"#utility.yul\":9230:9297   */\n      tag_176\n        /* \"#utility.yul\":9292:9295   */\n      0xe0\n        /* \"#utility.yul\":9281:9290   */\n      dup4\n        /* \"#utility.yul\":9277:9296   */\n      add\n        /* \"#utility.yul\":9268:9274   */\n      dup5\n        /* \"#utility.yul\":9230:9297   */\n      tag_130\n      jump\t// in\n    tag_176:\n        /* \"#utility.yul\":8717:9304   */\n      swap8\n      swap7\n      pop\n      pop\n      pop\n      pop\n      pop\n      pop\n      pop\n      jump\t// out\n        /* \"#utility.yul\":9310:9593   */\n    tag_74:\n      0x00\n        /* \"#utility.yul\":9376:9378   */\n      0x40\n        /* \"#utility.yul\":9370:9379   */\n      mload\n        /* \"#utility.yul\":9360:9379   */\n      swap1\n      pop\n        /* \"#utility.yul\":9418:9422   */\n      dup2\n        /* \"#utility.yul\":9410:9416   */\n      dup2\n        /* \"#utility.yul\":9406:9423   */\n      add\n        /* \"#utility.yul\":9525:9531   */\n      dup2\n        /* \"#utility.yul\":9513:9523   */\n      dup2\n        /* \"#utility.yul\":9510:9532   */\n      lt\n        /* \"#utility.yul\":9489:9507   */\n      0xffffffffffffffff\n        /* \"#utility.yul\":9477:9487   */\n      dup3\n        /* \"#utility.yul\":9474:9508   */\n      gt\n        /* \"#utility.yul\":9471:9533   */\n      or\n        /* \"#utility.yul\":9468:9470   */\n      iszero\n      tag_178\n      jumpi\n        /* \"#utility.yul\":9536:9554   */\n      tag_179\n      tag_180\n      jump\t// in\n    tag_179:\n        /* \"#utility.yul\":9468:9470   */\n    tag_178:\n        /* \"#utility.yul\":9576:9586   */\n      dup1\n        /* \"#utility.yul\":9572:9574   */\n      0x40\n        /* \"#utility.yul\":9565:9587   */\n      mstore\n        /* \"#utility.yul\":9350:9593   */\n      pop\n      swap2\n      swap1\n      pop\n      jump\t// out\n        /* \"#utility.yul\":9599:9931   */\n    tag_73:\n      0x00\n        /* \"#utility.yul\":9751:9769   */\n      0xffffffffffffffff\n        /* \"#utility.yul\":9743:9749   */\n      dup3\n        /* \"#utility.yul\":9740:9770   */\n      gt\n        /* \"#utility.yul\":9737:9739   */\n      iszero\n      tag_182\n      jumpi\n        /* \"#utility.yul\":9773:9791   */\n      tag_183\n      tag_180\n      jump\t// in\n    tag_183:\n        /* \"#utility.yul\":9737:9739   */\n    tag_182:\n        /* \"#utility.yul\":9858:9862   */\n      0x1f\n        /* \"#utility.yul\":9854:9863   */\n      not\n        /* \"#utility.yul\":9847:9851   */\n      0x1f\n        /* \"#utility.yul\":9839:9845   */\n      dup4\n        /* \"#utility.yul\":9835:9852   */\n      add\n        /* \"#utility.yul\":9831:9864   */\n      and\n        /* \"#utility.yul\":9823:9864   */\n      swap1\n      pop\n        /* \"#utility.yul\":9919:9923   */\n      0x20\n        /* \"#utility.yul\":9913:9917   */\n      dup2\n        /* \"#utility.yul\":9909:9924   */\n      add\n        /* \"#utility.yul\":9901:9924   */\n      swap1\n      pop\n        /* \"#utility.yul\":9666:9931   */\n      swap2\n      swap1\n      pop\n      jump\t// out\n        /* \"#utility.yul\":9937:10106   */\n    tag_137:\n      0x00\n        /* \"#utility.yul\":10055:10061   */\n      dup3\n        /* \"#utility.yul\":10050:10053   */\n      dup3\n        /* \"#utility.yul\":10043:10062   */\n      mstore\n        /* \"#utility.yul\":10095:10099   */\n      0x20\n        /* \"#utility.yul\":10090:10093   */\n      dup3\n        /* \"#utility.yul\":10086:10100   */\n      add\n        /* \"#utility.yul\":10071:10100   */\n      swap1\n      pop\n        /* \"#utility.yul\":10033:10106   */\n      swap3\n      swap2\n      pop\n      pop\n      jump\t// out\n        /* \"#utility.yul\":10112:10208   */\n    tag_129:\n      0x00\n        /* \"#utility.yul\":10178:10202   */\n      tag_186\n        /* \"#utility.yul\":10196:10201   */\n      dup3\n        /* \"#utility.yul\":10178:10202   */\n      tag_187\n      jump\t// in\n    tag_186:\n        /* \"#utility.yul\":10167:10202   */\n      swap1\n      pop\n        /* \"#utility.yul\":10157:10208   */\n      swap2\n      swap1\n      pop\n      jump\t// out\n        /* \"#utility.yul\":10214:10318   */\n    tag_125:\n      0x00\n        /* \"#utility.yul\":10288:10312   */\n      tag_189\n        /* \"#utility.yul\":10306:10311   */\n      dup3\n        /* \"#utility.yul\":10288:10312   */\n      tag_187\n      jump\t// in\n    tag_189:\n        /* \"#utility.yul\":10277:10312   */\n      swap1\n      pop\n        /* \"#utility.yul\":10267:10318   */\n      swap2\n      swap1\n      pop\n      jump\t// out\n        /* \"#utility.yul\":10324:10414   */\n    tag_133:\n      0x00\n        /* \"#utility.yul\":10401:10406   */\n      dup2\n        /* \"#utility.yul\":10394:10407   */\n      iszero\n        /* \"#utility.yul\":10387:10408   */\n      iszero\n        /* \"#utility.yul\":10376:10408   */\n      swap1\n      pop\n        /* \"#utility.yul\":10366:10414   */\n      swap2\n      swap1\n      pop\n      jump\t// out\n        /* \"#utility.yul\":10420:10546   */\n    tag_187:\n      0x00\n        /* \"#utility.yul\":10497:10539   */\n      0xffffffffffffffffffffffffffffffffffffffff\n        /* \"#utility.yul\":10490:10495   */\n      dup3\n        /* \"#utility.yul\":10486:10540   */\n      and\n        /* \"#utility.yul\":10475:10540   */\n      swap1\n      pop\n        /* \"#utility.yul\":10465:10546   */\n      swap2\n      swap1\n      pop\n      jump\t// out\n        /* \"#utility.yul\":10552:10629   */\n    tag_152:\n      0x00\n        /* \"#utility.yul\":10618:10623   */\n      dup2\n        /* \"#utility.yul\":10607:10623   */\n      swap1\n      pop\n        /* \"#utility.yul\":10597:10629   */\n      swap2\n      swap1\n      pop\n      jump\t// out\n        /* \"#utility.yul\":10635:10789   */\n    tag_77:\n        /* \"#utility.yul\":10719:10725   */\n      dup3\n        /* \"#utility.yul\":10714:10717   */\n      dup2\n        /* \"#utility.yul\":10709:10712   */\n      dup4\n        /* \"#utility.yul\":10696:10726   */\n      calldatacopy\n        /* \"#utility.yul\":10781:10782   */\n      0x00\n        /* \"#utility.yul\":10772:10778   */\n      dup4\n        /* \"#utility.yul\":10767:10770   */\n      dup4\n        /* \"#utility.yul\":10763:10779   */\n      add\n        /* \"#utility.yul\":10756:10783   */\n      mstore\n        /* \"#utility.yul\":10686:10789   */\n      pop\n      pop\n      pop\n      jump\t// out\n        /* \"#utility.yul\":10795:11115   */\n    tag_58:\n      0x00\n        /* \"#utility.yul\":10876:10877   */\n      0x02\n        /* \"#utility.yul\":10870:10874   */\n      dup3\n        /* \"#utility.yul\":10866:10878   */\n      div\n        /* \"#utility.yul\":10856:10878   */\n      swap1\n      pop\n        /* \"#utility.yul\":10923:10924   */\n      0x01\n        /* \"#utility.yul\":10917:10921   */\n      dup3\n        /* \"#utility.yul\":10913:10925   */\n      and\n        /* \"#utility.yul\":10944:10962   */\n      dup1\n        /* \"#utility.yul\":10934:10936   */\n      tag_195\n      jumpi\n        /* \"#utility.yul\":11000:11004   */\n      0x7f\n        /* \"#utility.yul\":10992:10998   */\n      dup3\n        /* \"#utility.yul\":10988:11005   */\n      and\n        /* \"#utility.yul\":10978:11005   */\n      swap2\n      pop\n        /* \"#utility.yul\":10934:10936   */\n    tag_195:\n        /* \"#utility.yul\":11062:11064   */\n      0x20\n        /* \"#utility.yul\":11054:11060   */\n      dup3\n        /* \"#utility.yul\":11051:11065   */\n      lt\n        /* \"#utility.yul\":11031:11049   */\n      dup2\n        /* \"#utility.yul\":11028:11066   */\n      eq\n        /* \"#utility.yul\":11025:11027   */\n      iszero\n      tag_196\n      jumpi\n        /* \"#utility.yul\":11081:11099   */\n      tag_197\n      tag_198\n      jump\t// in\n    tag_197:\n        /* \"#utility.yul\":11025:11027   */\n    tag_196:\n        /* \"#utility.yul\":10846:11115   */\n      pop\n      swap2\n      swap1\n      pop\n      jump\t// out\n        /* \"#utility.yul\":11121:11354   */\n    tag_29:\n      0x00\n        /* \"#utility.yul\":11183:11207   */\n      tag_200\n        /* \"#utility.yul\":11201:11206   */\n      dup3\n        /* \"#utility.yul\":11183:11207   */\n      tag_152\n      jump\t// in\n    tag_200:\n        /* \"#utility.yul\":11174:11207   */\n      swap2\n      pop\n        /* \"#utility.yul\":11229:11295   */\n      0xffffffffffffffffffffffffffffffffffffffffffffffffffffffffffffffff\n        /* \"#utility.yul\":11222:11227   */\n      dup3\n        /* \"#utility.yul\":11219:11296   */\n      eq\n        /* \"#utility.yul\":11216:11218   */\n      iszero\n      tag_201\n      jumpi\n        /* \"#utility.yul\":11299:11317   */\n      tag_202\n      tag_203\n      jump\t// in\n    tag_202:\n        /* \"#utility.yul\":11216:11218   */\n    tag_201:\n        /* \"#utility.yul\":11346:11347   */\n      0x01\n        /* \"#utility.yul\":11339:11344   */\n      dup3\n        /* \"#utility.yul\":11335:11348   */\n      add\n        /* \"#utility.yul\":11328:11348   */\n      swap1\n      pop\n        /* \"#utility.yul\":11164:11354   */\n      swap2\n      swap1\n      pop\n      jump\t// out\n        /* \"#utility.yul\":11360:11439   */\n    tag_160:\n      0x00\n        /* \"#utility.yul\":11428:11433   */\n      dup2\n        /* \"#utility.yul\":11417:11433   */\n      swap1\n      pop\n        /* \"#utility.yul\":11407:11439   */\n      swap2\n      swap1\n      pop\n      jump\t// out\n        /* \"#utility.yul\":11445:11625   */\n    tag_203:\n        /* \"#utility.yul\":11493:11570   */\n      0x4e487b7100000000000000000000000000000000000000000000000000000000\n        /* \"#utility.yul\":11490:11491   */\n      0x00\n        /* \"#utility.yul\":11483:11571   */\n      mstore\n        /* \"#utility.yul\":11590:11594   */\n      0x11\n        /* \"#utility.yul\":11587:11588   */\n      0x04\n        /* \"#utility.yul\":11580:11595   */\n      mstore\n        /* \"#utility.yul\":11614:11618   */\n      0x24\n        /* \"#utility.yul\":11611:11612   */\n      0x00\n        /* \"#utility.yul\":11604:11619   */\n      revert\n        /* \"#utility.yul\":11631:11811   */\n    tag_198:\n        /* \"#utility.yul\":11679:11756   */\n      0x4e487b7100000000000000000000000000000000000000000000000000000000\n        /* \"#utility.yul\":11676:11677   */\n      0x00\n        /* \"#utility.yul\":11669:11757   */\n      mstore\n        /* \"#utility.yul\":11776:11780   */\n      0x22\n        /* \"#utility.yul\":11773:11774   */\n      0x04\n        /* \"#utility.yul\":11766:11781   */\n      mstore\n        /* \"#utility.yul\":11800:11804   */\n      0x24\n        /* \"#utility.yul\":11797:11798   */\n      0x00\n        /* \"#utility.yul\":11790:11805   */\n      revert\n        /* \"#utility.yul\":11817:11997   */\n    tag_180:\n        /* \"#utility.yul\":11865:11942   */\n      0x4e487b7100000000000000000000000000000000000000000000000000000000\n        /* \"#utility.yul\":11862:11863   */\n      0x00\n        /* \"#utility.yul\":11855:11943   */\n      mstore\n        /* \"#utility.yul\":11962:11966   */\n      0x41\n        /* \"#utility.yul\":11959:11960   */\n      0x04\n        /* \"#utility.yul\":11952:11967   */\n      mstore\n        /* \"#utility.yul\":11986:11990   */\n      0x24\n        /* \"#utility.yul\":11983:11984   */\n      0x00\n        /* \"#utility.yul\":11976:11991   */\n      revert\n        /* \"#utility.yul\":12003:12141   */\n    tag_81:\n        /* \"#utility.yul\":12084:12116   */\n      tag_209\n        /* \"#utility.yul\":12110:12115   */\n      dup2\n        /* \"#utility.yul\":12084:12116   */\n      tag_125\n      jump\t// in\n    tag_209:\n        /* \"#utility.yul\":12077:12082   */\n      dup2\n        /* \"#utility.yul\":12074:12117   */\n      eq\n        /* \"#utility.yul\":12064:12066   */\n      tag_210\n      jumpi\n        /* \"#utility.yul\":12131:12132   */\n      0x00\n        /* \"#utility.yul\":12128:12129   */\n      dup1\n        /* \"#utility.yul\":12121:12133   */\n      revert\n        /* \"#utility.yul\":12064:12066   */\n    tag_210:\n        /* \"#utility.yul\":12054:12141   */\n      pop\n      jump\t// out\n        /* \"#utility.yul\":12147:12263   */\n    tag_85:\n        /* \"#utility.yul\":12217:12238   */\n      tag_212\n        /* \"#utility.yul\":12232:12237   */\n      dup2\n        /* \"#utility.yul\":12217:12238   */\n      tag_133\n      jump\t// in\n    tag_212:\n        /* \"#utility.yul\":12210:12215   */\n      dup2\n        /* \"#utility.yul\":12207:12239   */\n      eq\n        /* \"#utility.yul\":12197:12199   */\n      tag_213\n      jumpi\n        /* \"#utility.yul\":12253:12254   */\n      0x00\n        /* \"#utility.yul\":12250:12251   */\n      dup1\n        /* \"#utility.yul\":12243:12255   */\n      revert\n        /* \"#utility.yul\":12197:12199   */\n    tag_213:\n        /* \"#utility.yul\":12187:12263   */\n      pop\n      jump\t// out\n        /* \"#utility.yul\":12269:12391   */\n    tag_102:\n        /* \"#utility.yul\":12342:12366   */\n      tag_215\n        /* \"#utility.yul\":12360:12365   */\n      dup2\n        /* \"#utility.yul\":12342:12366   */\n      tag_152\n      jump\t// in\n    tag_215:\n        /* \"#utility.yul\":12335:12340   */\n      dup2\n        /* \"#utility.yul\":12332:12367   */\n      eq\n        /* \"#utility.yul\":12322:12324   */\n      tag_216\n      jumpi\n        /* \"#utility.yul\":12381:12382   */\n      0x00\n        /* \"#utility.yul\":12378:12379   */\n      dup1\n        /* \"#utility.yul\":12371:12383   */\n      revert\n        /* \"#utility.yul\":12322:12324   */\n    tag_216:\n        /* \"#utility.yul\":12312:12391   */\n      pop\n      jump\t// out\n\n    auxdata: 0xa2646970667358221220c7d664c796954290dd9c2226180339840f4accc2ba960b9fa2141fd94d947caf64736f6c63430008000033\n}\n",
    "bytecode": {
      "linkReferences": {},
      "object": "608060405260008055600060015534801561001957600080fd5b50610e7a806100296000396000f3fe608060405234801561001057600080fd5b506004361061004c5760003560e01c80631e6c598e146100515780633bc36a95146100865780635885c655146100a2578063e40c7cc0146100be575b600080fd5b61006b60048036038101906100669190610971565b6100da565b60405161007d96959493929190610bb0565b60405180910390f35b6100a0600480360381019061009b919061086a565b61018b565b005b6100bc60048036038101906100b7919061091d565b61028a565b005b6100d860048036038101906100d391906108e1565b61051d565b005b60026020528060005260406000206000915090508060000154908060010160009054906101000a900473ffffffffffffffffffffffffffffffffffffffff16908060020160009054906101000a900473ffffffffffffffffffffffffffffffffffffffff1690806003015490806005016040518060600160405290816000820154815260200160018201548152602001600282015481525050908060080160009054906101000a900460ff16905086565b6000610195610661565b90506000600260008381526020019081526020016000209050818160000181905550338160020160006101000a81548173ffffffffffffffffffffffffffffffffffffffff021916908373ffffffffffffffffffffffffffffffffffffffff160217905550868160010160006101000a81548173ffffffffffffffffffffffffffffffffffffffff021916908373ffffffffffffffffffffffffffffffffffffffff16021790555085816003018190555084816005016000018190555083816005016001018190555082816005016002018190555060008081548092919061027c90610d1f565b919050555050505050505050565b806002600082815260200190815260200160002060010160009054906101000a900473ffffffffffffffffffffffffffffffffffffffff1673ffffffffffffffffffffffffffffffffffffffff163373ffffffffffffffffffffffffffffffffffffffff16148061035c57506002600082815260200190815260200160002060020160009054906101000a900473ffffffffffffffffffffffffffffffffffffffff1673ffffffffffffffffffffffffffffffffffffffff163373ffffffffffffffffffffffffffffffffffffffff16145b61039b576040517f08c379a000000000000000000000000000000000000000000000000000000000815260040161039290610b50565b60405180910390fd5b816002600082815260200190815260200160002060080160009054906101000a900460ff166103ff576040517f08c379a00000000000000000000000000000000000000000000000000000000081526004016103f690610b90565b60405180910390fd5b82848060600151600260008481526020019081526020016000206005016002015414610460576040517f08c379a000000000000000000000000000000000000000000000000000000000815260040161045790610b70565b60405180910390fd5b8560026000878152602001908152602001600020600401600154815481106104b1577f4e487b7100000000000000000000000000000000000000000000000000000000600052603260045260246000fd5b906000526020600020906004020160008201518160000190805190602001906104db929190610694565b506020820151816001015560408201518160020155606082015181600301559050506001600081548092919061051090610d1f565b9190505550505050505050565b806002600082815260200190815260200160002060010160009054906101000a900473ffffffffffffffffffffffffffffffffffffffff1673ffffffffffffffffffffffffffffffffffffffff163373ffffffffffffffffffffffffffffffffffffffff1614806105ef57506002600082815260200190815260200160002060020160009054906101000a900473ffffffffffffffffffffffffffffffffffffffff1673ffffffffffffffffffffffffffffffffffffffff163373ffffffffffffffffffffffffffffffffffffffff16145b61062e576040517f08c379a000000000000000000000000000000000000000000000000000000000815260040161062590610b50565b60405180910390fd5b826002600084815260200190815260200160002060080160006101000a81548160ff021916908315150217905550505050565b60004442604051602001610676929190610b24565b6040516020818303038152906040528051906020012060001c905090565b8280546106a090610ced565b90600052602060002090601f0160209004810192826106c25760008555610709565b82601f106106db57805160ff1916838001178555610709565b82800160010185558215610709579182015b828111156107085782518255916020019190600101906106ed565b5b509050610716919061071a565b5090565b5b8082111561073357600081600090555060010161071b565b5090565b600061074a61074584610c43565b610c12565b90508281526020810184848401111561076257600080fd5b61076d848285610cde565b509392505050565b60008135905061078481610dff565b92915050565b60008135905061079981610e16565b92915050565b600082601f8301126107b057600080fd5b81356107c0848260208601610737565b91505092915050565b6000608082840312156107db57600080fd5b6107e56080610c12565b9050600082013567ffffffffffffffff81111561080157600080fd5b61080d8482850161079f565b600083015250602061082184828501610855565b602083015250604061083584828501610855565b604083015250606061084984828501610855565b60608301525092915050565b60008135905061086481610e2d565b92915050565b600080600080600060a0868803121561088257600080fd5b600061089088828901610775565b95505060206108a188828901610855565b94505060406108b288828901610855565b93505060606108c388828901610855565b92505060806108d488828901610855565b9150509295509295909350565b600080604083850312156108f457600080fd5b60006109028582860161078a565b925050602061091385828601610855565b9150509250929050565b6000806040838503121561093057600080fd5b600083013567ffffffffffffffff81111561094a57600080fd5b610956858286016107c9565b925050602061096785828601610855565b9150509250929050565b60006020828403121561098357600080fd5b600061099184828501610855565b91505092915050565b6109a381610c96565b82525050565b6109b281610c84565b82525050565b6109c181610ca8565b82525050565b60006109d4600f83610c73565b91507f70726976696c65676520616363657300000000000000000000000000000000006000830152602082019050919050565b6000610a14601b83610c73565b91507f636f6c6c61746572616c206973206e6f74207065726d697474656400000000006000830152602082019050919050565b6000610a54602283610c73565b91507f7472616465206e6f7420617070726f76656420627920626f746820706172746960008301527f65730000000000000000000000000000000000000000000000000000000000006020830152604082019050919050565b606082016000820151610ac36000850182610aef565b506020820151610ad66020850182610aef565b506040820151610ae96040850182610aef565b50505050565b610af881610cd4565b82525050565b610b0781610cd4565b82525050565b610b1e610b1982610cd4565b610d68565b82525050565b6000610b308285610b0d565b602082019150610b408284610b0d565b6020820191508190509392505050565b60006020820190508181036000830152610b69816109c7565b9050919050565b60006020820190508181036000830152610b8981610a07565b9050919050565b60006020820190508181036000830152610ba981610a47565b9050919050565b600061010082019050610bc66000830189610afe565b610bd3602083018861099a565b610be060408301876109a9565b610bed6060830186610afe565b610bfa6080830185610aad565b610c0760e08301846109b8565b979650505050505050565b6000604051905081810181811067ffffffffffffffff82111715610c3957610c38610dd0565b5b8060405250919050565b600067ffffffffffffffff821115610c5e57610c5d610dd0565b5b601f19601f8301169050602081019050919050565b600082825260208201905092915050565b6000610c8f82610cb4565b9050919050565b6000610ca182610cb4565b9050919050565b60008115159050919050565b600073ffffffffffffffffffffffffffffffffffffffff82169050919050565b6000819050919050565b82818337600083830152505050565b60006002820490506001821680610d0557607f821691505b60208210811415610d1957610d18610da1565b5b50919050565b6000610d2a82610cd4565b91507fffffffffffffffffffffffffffffffffffffffffffffffffffffffffffffffff821415610d5d57610d5c610d72565b5b600182019050919050565b6000819050919050565b7f4e487b7100000000000000000000000000000000000000000000000000000000600052601160045260246000fd5b7f4e487b7100000000000000000000000000000000000000000000000000000000600052602260045260246000fd5b7f4e487b7100000000000000000000000000000000000000000000000000000000600052604160045260246000fd5b610e0881610c96565b8114610e1357600080fd5b50565b610e1f81610ca8565b8114610e2a57600080fd5b50565b610e3681610cd4565b8114610e4157600080fd5b5056fea2646970667358221220c7d664c796954290dd9c2226180339840f4accc2ba960b9fa2141fd94d947caf64736f6c63430008000033",
      "opcodes": "PUSH1 0x80 PUSH1 0x40 MSTORE PUSH1 0x0 DUP1 SSTORE PUSH1 0x0 PUSH1 0x1 SSTORE CALLVALUE DUP1 ISZERO PUSH2 0x19 JUMPI PUSH1 0x0 DUP1 REVERT JUMPDEST POP PUSH2 0xE7A DUP1 PUSH2 0x29 PUSH1 0x0 CODECOPY PUSH1 0x0 RETURN INVALID PUSH1 0x80 PUSH1 0x40 MSTORE CALLVALUE DUP1 ISZERO PUSH2 0x10 JUMPI PUSH1 0x0 DUP1 REVERT JUMPDEST POP PUSH1 0x4 CALLDATASIZE LT PUSH2 0x4C JUMPI PUSH1 0x0 CALLDATALOAD PUSH1 0xE0 SHR DUP1 PUSH4 0x1E6C598E EQ PUSH2 0x51 JUMPI DUP1 PUSH4 0x3BC36A95 EQ PUSH2 0x86 JUMPI DUP1 PUSH4 0x5885C655 EQ PUSH2 0xA2 JUMPI DUP1 PUSH4 0xE40C7CC0 EQ PUSH2 0xBE JUMPI JUMPDEST PUSH1 0x0 DUP1 REVERT JUMPDEST PUSH2 0x6B PUSH1 0x4 DUP1 CALLDATASIZE SUB DUP2 ADD SWAP1 PUSH2 0x66 SWAP2 SWAP1 PUSH2 0x971 JUMP JUMPDEST PUSH2 0xDA JUMP JUMPDEST PUSH1 0x40 MLOAD PUSH2 0x7D SWAP7 SWAP6 SWAP5 SWAP4 SWAP3 SWAP2 SWAP1 PUSH2 0xBB0 JUMP JUMPDEST PUSH1 0x40 MLOAD DUP1 SWAP2 SUB SWAP1 RETURN JUMPDEST PUSH2 0xA0 PUSH1 0x4 DUP1 CALLDATASIZE SUB DUP2 ADD SWAP1 PUSH2 0x9B SWAP2 SWAP1 PUSH2 0x86A JUMP JUMPDEST PUSH2 0x18B JUMP JUMPDEST STOP JUMPDEST PUSH2 0xBC PUSH1 0x4 DUP1 CALLDATASIZE SUB DUP2 ADD SWAP1 PUSH2 0xB7 SWAP2 SWAP1 PUSH2 0x91D JUMP JUMPDEST PUSH2 0x28A JUMP JUMPDEST STOP JUMPDEST PUSH2 0xD8 PUSH1 0x4 DUP1 CALLDATASIZE SUB DUP2 ADD SWAP1 PUSH2 0xD3 SWAP2 SWAP1 PUSH2 0x8E1 JUMP JUMPDEST PUSH2 0x51D JUMP JUMPDEST STOP JUMPDEST PUSH1 0x2 PUSH1 0x20 MSTORE DUP1 PUSH1 0x0 MSTORE PUSH1 0x40 PUSH1 0x0 KECCAK256 PUSH1 0x0 SWAP2 POP SWAP1 POP DUP1 PUSH1 0x0 ADD SLOAD SWAP1 DUP1 PUSH1 0x1 ADD PUSH1 0x0 SWAP1 SLOAD SWAP1 PUSH2 0x100 EXP SWAP1 DIV PUSH20 0xFFFFFFFFFFFFFFFFFFFFFFFFFFFFFFFFFFFFFFFF AND SWAP1 DUP1 PUSH1 0x2 ADD PUSH1 0x0 SWAP1 SLOAD SWAP1 PUSH2 0x100 EXP SWAP1 DIV PUSH20 0xFFFFFFFFFFFFFFFFFFFFFFFFFFFFFFFFFFFFFFFF AND SWAP1 DUP1 PUSH1 0x3 ADD SLOAD SWAP1 DUP1 PUSH1 0x5 ADD PUSH1 0x40 MLOAD DUP1 PUSH1 0x60 ADD PUSH1 0x40 MSTORE SWAP1 DUP2 PUSH1 0x0 DUP3 ADD SLOAD DUP2 MSTORE PUSH1 0x20 ADD PUSH1 0x1 DUP3 ADD SLOAD DUP2 MSTORE PUSH1 0x20 ADD PUSH1 0x2 DUP3 ADD SLOAD DUP2 MSTORE POP POP SWAP1 DUP1 PUSH1 0x8 ADD PUSH1 0x0 SWAP1 SLOAD SWAP1 PUSH2 0x100 EXP SWAP1 DIV PUSH1 0xFF AND SWAP1 POP DUP7 JUMP JUMPDEST PUSH1 0x0 PUSH2 0x195 PUSH2 0x661 JUMP JUMPDEST SWAP1 POP PUSH1 0x0 PUSH1 0x2 PUSH1 0x0 DUP4 DUP2 MSTORE PUSH1 0x20 ADD SWAP1 DUP2 MSTORE PUSH1 0x20 ADD PUSH1 0x0 KECCAK256 SWAP1 POP DUP2 DUP2 PUSH1 0x0 ADD DUP2 SWAP1 SSTORE POP CALLER DUP2 PUSH1 0x2 ADD PUSH1 0x0 PUSH2 0x100 EXP DUP2 SLOAD DUP2 PUSH20 0xFFFFFFFFFFFFFFFFFFFFFFFFFFFFFFFFFFFFFFFF MUL NOT AND SWAP1 DUP4 PUSH20 0xFFFFFFFFFFFFFFFFFFFFFFFFFFFFFFFFFFFFFFFF AND MUL OR SWAP1 SSTORE POP DUP7 DUP2 PUSH1 0x1 ADD PUSH1 0x0 PUSH2 0x100 EXP DUP2 SLOAD DUP2 PUSH20 0xFFFFFFFFFFFFFFFFFFFFFFFFFFFFFFFFFFFFFFFF MUL NOT AND SWAP1 DUP4 PUSH20 0xFFFFFFFFFFFFFFFFFFFFFFFFFFFFFFFFFFFFFFFF AND MUL OR SWAP1 SSTORE POP DUP6 DUP2 PUSH1 0x3 ADD DUP2 SWAP1 SSTORE POP DUP5 DUP2 PUSH1 0x5 ADD PUSH1 0x0 ADD DUP2 SWAP1 SSTORE POP DUP4 DUP2 PUSH1 0x5 ADD PUSH1 0x1 ADD DUP2 SWAP1 SSTORE POP DUP3 DUP2 PUSH1 0x5 ADD PUSH1 0x2 ADD DUP2 SWAP1 SSTORE POP PUSH1 0x0 DUP1 DUP2 SLOAD DUP1 SWAP3 SWAP2 SWAP1 PUSH2 0x27C SWAP1 PUSH2 0xD1F JUMP JUMPDEST SWAP2 SWAP1 POP SSTORE POP POP POP POP POP POP POP POP JUMP JUMPDEST DUP1 PUSH1 0x2 PUSH1 0x0 DUP3 DUP2 MSTORE PUSH1 0x20 ADD SWAP1 DUP2 MSTORE PUSH1 0x20 ADD PUSH1 0x0 KECCAK256 PUSH1 0x1 ADD PUSH1 0x0 SWAP1 SLOAD SWAP1 PUSH2 0x100 EXP SWAP1 DIV PUSH20 0xFFFFFFFFFFFFFFFFFFFFFFFFFFFFFFFFFFFFFFFF AND PUSH20 0xFFFFFFFFFFFFFFFFFFFFFFFFFFFFFFFFFFFFFFFF AND CALLER PUSH20 0xFFFFFFFFFFFFFFFFFFFFFFFFFFFFFFFFFFFFFFFF AND EQ DUP1 PUSH2 0x35C JUMPI POP PUSH1 0x2 PUSH1 0x0 DUP3 DUP2 MSTORE PUSH1 0x20 ADD SWAP1 DUP2 MSTORE PUSH1 0x20 ADD PUSH1 0x0 KECCAK256 PUSH1 0x2 ADD PUSH1 0x0 SWAP1 SLOAD SWAP1 PUSH2 0x100 EXP SWAP1 DIV PUSH20 0xFFFFFFFFFFFFFFFFFFFFFFFFFFFFFFFFFFFFFFFF AND PUSH20 0xFFFFFFFFFFFFFFFFFFFFFFFFFFFFFFFFFFFFFFFF AND CALLER PUSH20 0xFFFFFFFFFFFFFFFFFFFFFFFFFFFFFFFFFFFFFFFF AND EQ JUMPDEST PUSH2 0x39B JUMPI PUSH1 0x40 MLOAD PUSH32 0x8C379A000000000000000000000000000000000000000000000000000000000 DUP2 MSTORE PUSH1 0x4 ADD PUSH2 0x392 SWAP1 PUSH2 0xB50 JUMP JUMPDEST PUSH1 0x40 MLOAD DUP1 SWAP2 SUB SWAP1 REVERT JUMPDEST DUP2 PUSH1 0x2 PUSH1 0x0 DUP3 DUP2 MSTORE PUSH1 0x20 ADD SWAP1 DUP2 MSTORE PUSH1 0x20 ADD PUSH1 0x0 KECCAK256 PUSH1 0x8 ADD PUSH1 0x0 SWAP1 SLOAD SWAP1 PUSH2 0x100 EXP SWAP1 DIV PUSH1 0xFF AND PUSH2 0x3FF JUMPI PUSH1 0x40 MLOAD PUSH32 0x8C379A000000000000000000000000000000000000000000000000000000000 DUP2 MSTORE PUSH1 0x4 ADD PUSH2 0x3F6 SWAP1 PUSH2 0xB90 JUMP JUMPDEST PUSH1 0x40 MLOAD DUP1 SWAP2 SUB SWAP1 REVERT JUMPDEST DUP3 DUP5 DUP1 PUSH1 0x60 ADD MLOAD PUSH1 0x2 PUSH1 0x0 DUP5 DUP2 MSTORE PUSH1 0x20 ADD SWAP1 DUP2 MSTORE PUSH1 0x20 ADD PUSH1 0x0 KECCAK256 PUSH1 0x5 ADD PUSH1 0x2 ADD SLOAD EQ PUSH2 0x460 JUMPI PUSH1 0x40 MLOAD PUSH32 0x8C379A000000000000000000000000000000000000000000000000000000000 DUP2 MSTORE PUSH1 0x4 ADD PUSH2 0x457 SWAP1 PUSH2 0xB70 JUMP JUMPDEST PUSH1 0x40 MLOAD DUP1 SWAP2 SUB SWAP1 REVERT JUMPDEST DUP6 PUSH1 0x2 PUSH1 0x0 DUP8 DUP2 MSTORE PUSH1 0x20 ADD SWAP1 DUP2 MSTORE PUSH1 0x20 ADD PUSH1 0x0 KECCAK256 PUSH1 0x4 ADD PUSH1 0x1 SLOAD DUP2 SLOAD DUP2 LT PUSH2 0x4B1 JUMPI PUSH32 0x4E487B7100000000000000000000000000000000000000000000000000000000 PUSH1 0x0 MSTORE PUSH1 0x32 PUSH1 0x4 MSTORE PUSH1 0x24 PUSH1 0x0 REVERT JUMPDEST SWAP1 PUSH1 0x0 MSTORE PUSH1 0x20 PUSH1 0x0 KECCAK256 SWAP1 PUSH1 0x4 MUL ADD PUSH1 0x0 DUP3 ADD MLOAD DUP2 PUSH1 0x0 ADD SWAP1 DUP1 MLOAD SWAP1 PUSH1 0x20 ADD SWAP1 PUSH2 0x4DB SWAP3 SWAP2 SWAP1 PUSH2 0x694 JUMP JUMPDEST POP PUSH1 0x20 DUP3 ADD MLOAD DUP2 PUSH1 0x1 ADD SSTORE PUSH1 0x40 DUP3 ADD MLOAD DUP2 PUSH1 0x2 ADD SSTORE PUSH1 0x60 DUP3 ADD MLOAD DUP2 PUSH1 0x3 ADD SSTORE SWAP1 POP POP PUSH1 0x1 PUSH1 0x0 DUP2 SLOAD DUP1 SWAP3 SWAP2 SWAP1 PUSH2 0x510 SWAP1 PUSH2 0xD1F JUMP JUMPDEST SWAP2 SWAP1 POP SSTORE POP POP POP POP POP POP POP JUMP JUMPDEST DUP1 PUSH1 0x2 PUSH1 0x0 DUP3 DUP2 MSTORE PUSH1 0x20 ADD SWAP1 DUP2 MSTORE PUSH1 0x20 ADD PUSH1 0x0 KECCAK256 PUSH1 0x1 ADD PUSH1 0x0 SWAP1 SLOAD SWAP1 PUSH2 0x100 EXP SWAP1 DIV PUSH20 0xFFFFFFFFFFFFFFFFFFFFFFFFFFFFFFFFFFFFFFFF AND PUSH20 0xFFFFFFFFFFFFFFFFFFFFFFFFFFFFFFFFFFFFFFFF AND CALLER PUSH20 0xFFFFFFFFFFFFFFFFFFFFFFFFFFFFFFFFFFFFFFFF AND EQ DUP1 PUSH2 0x5EF JUMPI POP PUSH1 0x2 PUSH1 0x0 DUP3 DUP2 MSTORE PUSH1 0x20 ADD SWAP1 DUP2 MSTORE PUSH1 0x20 ADD PUSH1 0x0 KECCAK256 PUSH1 0x2 ADD PUSH1 0x0 SWAP1 SLOAD SWAP1 PUSH2 0x100 EXP SWAP1 DIV PUSH20 0xFFFFFFFFFFFFFFFFFFFFFFFFFFFFFFFFFFFFFFFF AND PUSH20 0xFFFFFFFFFFFFFFFFFFFFFFFFFFFFFFFFFFFFFFFF AND CALLER PUSH20 0xFFFFFFFFFFFFFFFFFFFFFFFFFFFFFFFFFFFFFFFF AND EQ JUMPDEST PUSH2 0x62E JUMPI PUSH1 0x40 MLOAD PUSH32 0x8C379A000000000000000000000000000000000000000000000000000000000 DUP2 MSTORE PUSH1 0x4 ADD PUSH2 0x625 SWAP1 PUSH2 0xB50 JUMP JUMPDEST PUSH1 0x40 MLOAD DUP1 SWAP2 SUB SWAP1 REVERT JUMPDEST DUP3 PUSH1 0x2 PUSH1 0x0 DUP5 DUP2 MSTORE PUSH1 0x20 ADD SWAP1 DUP2 MSTORE PUSH1 0x20 ADD PUSH1 0x0 KECCAK256 PUSH1 0x8 ADD PUSH1 0x0 PUSH2 0x100 EXP DUP2 SLOAD DUP2 PUSH1 0xFF MUL NOT AND SWAP1 DUP4 ISZERO ISZERO MUL OR SWAP1 SSTORE POP POP POP POP JUMP JUMPDEST PUSH1 0x0 DIFFICULTY TIMESTAMP PUSH1 0x40 MLOAD PUSH1 0x20 ADD PUSH2 0x676 SWAP3 SWAP2 SWAP1 PUSH2 0xB24 JUMP JUMPDEST PUSH1 0x40 MLOAD PUSH1 0x20 DUP2 DUP4 SUB SUB DUP2 MSTORE SWAP1 PUSH1 0x40 MSTORE DUP1 MLOAD SWAP1 PUSH1 0x20 ADD KECCAK256 PUSH1 0x0 SHR SWAP1 POP SWAP1 JUMP JUMPDEST DUP3 DUP1 SLOAD PUSH2 0x6A0 SWAP1 PUSH2 0xCED JUMP JUMPDEST SWAP1 PUSH1 0x0 MSTORE PUSH1 0x20 PUSH1 0x0 KECCAK256 SWAP1 PUSH1 0x1F ADD PUSH1 0x20 SWAP1 DIV DUP2 ADD SWAP3 DUP3 PUSH2 0x6C2 JUMPI PUSH1 0x0 DUP6 SSTORE PUSH2 0x709 JUMP JUMPDEST DUP3 PUSH1 0x1F LT PUSH2 0x6DB JUMPI DUP1 MLOAD PUSH1 0xFF NOT AND DUP4 DUP1 ADD OR DUP6 SSTORE PUSH2 0x709 JUMP JUMPDEST DUP3 DUP1 ADD PUSH1 0x1 ADD DUP6 SSTORE DUP3 ISZERO PUSH2 0x709 JUMPI SWAP2 DUP3 ADD JUMPDEST DUP3 DUP2 GT ISZERO PUSH2 0x708 JUMPI DUP3 MLOAD DUP3 SSTORE SWAP2 PUSH1 0x20 ADD SWAP2 SWAP1 PUSH1 0x1 ADD SWAP1 PUSH2 0x6ED JUMP JUMPDEST JUMPDEST POP SWAP1 POP PUSH2 0x716 SWAP2 SWAP1 PUSH2 0x71A JUMP JUMPDEST POP SWAP1 JUMP JUMPDEST JUMPDEST DUP1 DUP3 GT ISZERO PUSH2 0x733 JUMPI PUSH1 0x0 DUP2 PUSH1 0x0 SWAP1 SSTORE POP PUSH1 0x1 ADD PUSH2 0x71B JUMP JUMPDEST POP SWAP1 JUMP JUMPDEST PUSH1 0x0 PUSH2 0x74A PUSH2 0x745 DUP5 PUSH2 0xC43 JUMP JUMPDEST PUSH2 0xC12 JUMP JUMPDEST SWAP1 POP DUP3 DUP2 MSTORE PUSH1 0x20 DUP2 ADD DUP5 DUP5 DUP5 ADD GT ISZERO PUSH2 0x762 JUMPI PUSH1 0x0 DUP1 REVERT JUMPDEST PUSH2 0x76D DUP5 DUP3 DUP6 PUSH2 0xCDE JUMP JUMPDEST POP SWAP4 SWAP3 POP POP POP JUMP JUMPDEST PUSH1 0x0 DUP2 CALLDATALOAD SWAP1 POP PUSH2 0x784 DUP2 PUSH2 0xDFF JUMP JUMPDEST SWAP3 SWAP2 POP POP JUMP JUMPDEST PUSH1 0x0 DUP2 CALLDATALOAD SWAP1 POP PUSH2 0x799 DUP2 PUSH2 0xE16 JUMP JUMPDEST SWAP3 SWAP2 POP POP JUMP JUMPDEST PUSH1 0x0 DUP3 PUSH1 0x1F DUP4 ADD SLT PUSH2 0x7B0 JUMPI PUSH1 0x0 DUP1 REVERT JUMPDEST DUP2 CALLDATALOAD PUSH2 0x7C0 DUP5 DUP3 PUSH1 0x20 DUP7 ADD PUSH2 0x737 JUMP JUMPDEST SWAP2 POP POP SWAP3 SWAP2 POP POP JUMP JUMPDEST PUSH1 0x0 PUSH1 0x80 DUP3 DUP5 SUB SLT ISZERO PUSH2 0x7DB JUMPI PUSH1 0x0 DUP1 REVERT JUMPDEST PUSH2 0x7E5 PUSH1 0x80 PUSH2 0xC12 JUMP JUMPDEST SWAP1 POP PUSH1 0x0 DUP3 ADD CALLDATALOAD PUSH8 0xFFFFFFFFFFFFFFFF DUP2 GT ISZERO PUSH2 0x801 JUMPI PUSH1 0x0 DUP1 REVERT JUMPDEST PUSH2 0x80D DUP5 DUP3 DUP6 ADD PUSH2 0x79F JUMP JUMPDEST PUSH1 0x0 DUP4 ADD MSTORE POP PUSH1 0x20 PUSH2 0x821 DUP5 DUP3 DUP6 ADD PUSH2 0x855 JUMP JUMPDEST PUSH1 0x20 DUP4 ADD MSTORE POP PUSH1 0x40 PUSH2 0x835 DUP5 DUP3 DUP6 ADD PUSH2 0x855 JUMP JUMPDEST PUSH1 0x40 DUP4 ADD MSTORE POP PUSH1 0x60 PUSH2 0x849 DUP5 DUP3 DUP6 ADD PUSH2 0x855 JUMP JUMPDEST PUSH1 0x60 DUP4 ADD MSTORE POP SWAP3 SWAP2 POP POP JUMP JUMPDEST PUSH1 0x0 DUP2 CALLDATALOAD SWAP1 POP PUSH2 0x864 DUP2 PUSH2 0xE2D JUMP JUMPDEST SWAP3 SWAP2 POP POP JUMP JUMPDEST PUSH1 0x0 DUP1 PUSH1 0x0 DUP1 PUSH1 0x0 PUSH1 0xA0 DUP7 DUP9 SUB SLT ISZERO PUSH2 0x882 JUMPI PUSH1 0x0 DUP1 REVERT JUMPDEST PUSH1 0x0 PUSH2 0x890 DUP9 DUP3 DUP10 ADD PUSH2 0x775 JUMP JUMPDEST SWAP6 POP POP PUSH1 0x20 PUSH2 0x8A1 DUP9 DUP3 DUP10 ADD PUSH2 0x855 JUMP JUMPDEST SWAP5 POP POP PUSH1 0x40 PUSH2 0x8B2 DUP9 DUP3 DUP10 ADD PUSH2 0x855 JUMP JUMPDEST SWAP4 POP POP PUSH1 0x60 PUSH2 0x8C3 DUP9 DUP3 DUP10 ADD PUSH2 0x855 JUMP JUMPDEST SWAP3 POP POP PUSH1 0x80 PUSH2 0x8D4 DUP9 DUP3 DUP10 ADD PUSH2 0x855 JUMP JUMPDEST SWAP2 POP POP SWAP3 SWAP6 POP SWAP3 SWAP6 SWAP1 SWAP4 POP JUMP JUMPDEST PUSH1 0x0 DUP1 PUSH1 0x40 DUP4 DUP6 SUB SLT ISZERO PUSH2 0x8F4 JUMPI PUSH1 0x0 DUP1 REVERT JUMPDEST PUSH1 0x0 PUSH2 0x902 DUP6 DUP3 DUP7 ADD PUSH2 0x78A JUMP JUMPDEST SWAP3 POP POP PUSH1 0x20 PUSH2 0x913 DUP6 DUP3 DUP7 ADD PUSH2 0x855 JUMP JUMPDEST SWAP2 POP POP SWAP3 POP SWAP3 SWAP1 POP JUMP JUMPDEST PUSH1 0x0 DUP1 PUSH1 0x40 DUP4 DUP6 SUB SLT ISZERO PUSH2 0x930 JUMPI PUSH1 0x0 DUP1 REVERT JUMPDEST PUSH1 0x0 DUP4 ADD CALLDATALOAD PUSH8 0xFFFFFFFFFFFFFFFF DUP2 GT ISZERO PUSH2 0x94A JUMPI PUSH1 0x0 DUP1 REVERT JUMPDEST PUSH2 0x956 DUP6 DUP3 DUP7 ADD PUSH2 0x7C9 JUMP JUMPDEST SWAP3 POP POP PUSH1 0x20 PUSH2 0x967 DUP6 DUP3 DUP7 ADD PUSH2 0x855 JUMP JUMPDEST SWAP2 POP POP SWAP3 POP SWAP3 SWAP1 POP JUMP JUMPDEST PUSH1 0x0 PUSH1 0x20 DUP3 DUP5 SUB SLT ISZERO PUSH2 0x983 JUMPI PUSH1 0x0 DUP1 REVERT JUMPDEST PUSH1 0x0 PUSH2 0x991 DUP5 DUP3 DUP6 ADD PUSH2 0x855 JUMP JUMPDEST SWAP2 POP POP SWAP3 SWAP2 POP POP JUMP JUMPDEST PUSH2 0x9A3 DUP2 PUSH2 0xC96 JUMP JUMPDEST DUP3 MSTORE POP POP JUMP JUMPDEST PUSH2 0x9B2 DUP2 PUSH2 0xC84 JUMP JUMPDEST DUP3 MSTORE POP POP JUMP JUMPDEST PUSH2 0x9C1 DUP2 PUSH2 0xCA8 JUMP JUMPDEST DUP3 MSTORE POP POP JUMP JUMPDEST PUSH1 0x0 PUSH2 0x9D4 PUSH1 0xF DUP4 PUSH2 0xC73 JUMP JUMPDEST SWAP2 POP PUSH32 0x70726976696C6567652061636365730000000000000000000000000000000000 PUSH1 0x0 DUP4 ADD MSTORE PUSH1 0x20 DUP3 ADD SWAP1 POP SWAP2 SWAP1 POP JUMP JUMPDEST PUSH1 0x0 PUSH2 0xA14 PUSH1 0x1B DUP4 PUSH2 0xC73 JUMP JUMPDEST SWAP2 POP PUSH32 0x636F6C6C61746572616C206973206E6F74207065726D69747465640000000000 PUSH1 0x0 DUP4 ADD MSTORE PUSH1 0x20 DUP3 ADD SWAP1 POP SWAP2 SWAP1 POP JUMP JUMPDEST PUSH1 0x0 PUSH2 0xA54 PUSH1 0x22 DUP4 PUSH2 0xC73 JUMP JUMPDEST SWAP2 POP PUSH32 0x7472616465206E6F7420617070726F76656420627920626F7468207061727469 PUSH1 0x0 DUP4 ADD MSTORE PUSH32 0x6573000000000000000000000000000000000000000000000000000000000000 PUSH1 0x20 DUP4 ADD MSTORE PUSH1 0x40 DUP3 ADD SWAP1 POP SWAP2 SWAP1 POP JUMP JUMPDEST PUSH1 0x60 DUP3 ADD PUSH1 0x0 DUP3 ADD MLOAD PUSH2 0xAC3 PUSH1 0x0 DUP6 ADD DUP3 PUSH2 0xAEF JUMP JUMPDEST POP PUSH1 0x20 DUP3 ADD MLOAD PUSH2 0xAD6 PUSH1 0x20 DUP6 ADD DUP3 PUSH2 0xAEF JUMP JUMPDEST POP PUSH1 0x40 DUP3 ADD MLOAD PUSH2 0xAE9 PUSH1 0x40 DUP6 ADD DUP3 PUSH2 0xAEF JUMP JUMPDEST POP POP POP POP JUMP JUMPDEST PUSH2 0xAF8 DUP2 PUSH2 0xCD4 JUMP JUMPDEST DUP3 MSTORE POP POP JUMP JUMPDEST PUSH2 0xB07 DUP2 PUSH2 0xCD4 JUMP JUMPDEST DUP3 MSTORE POP POP JUMP JUMPDEST PUSH2 0xB1E PUSH2 0xB19 DUP3 PUSH2 0xCD4 JUMP JUMPDEST PUSH2 0xD68 JUMP JUMPDEST DUP3 MSTORE POP POP JUMP JUMPDEST PUSH1 0x0 PUSH2 0xB30 DUP3 DUP6 PUSH2 0xB0D JUMP JUMPDEST PUSH1 0x20 DUP3 ADD SWAP2 POP PUSH2 0xB40 DUP3 DUP5 PUSH2 0xB0D JUMP JUMPDEST PUSH1 0x20 DUP3 ADD SWAP2 POP DUP2 SWAP1 POP SWAP4 SWAP3 POP POP POP JUMP JUMPDEST PUSH1 0x0 PUSH1 0x20 DUP3 ADD SWAP1 POP DUP2 DUP2 SUB PUSH1 0x0 DUP4 ADD MSTORE PUSH2 0xB69 DUP2 PUSH2 0x9C7 JUMP JUMPDEST SWAP1 POP SWAP2 SWAP1 POP JUMP JUMPDEST PUSH1 0x0 PUSH1 0x20 DUP3 ADD SWAP1 POP DUP2 DUP2 SUB PUSH1 0x0 DUP4 ADD MSTORE PUSH2 0xB89 DUP2 PUSH2 0xA07 JUMP JUMPDEST SWAP1 POP SWAP2 SWAP1 POP JUMP JUMPDEST PUSH1 0x0 PUSH1 0x20 DUP3 ADD SWAP1 POP DUP2 DUP2 SUB PUSH1 0x0 DUP4 ADD MSTORE PUSH2 0xBA9 DUP2 PUSH2 0xA47 JUMP JUMPDEST SWAP1 POP SWAP2 SWAP1 POP JUMP JUMPDEST PUSH1 0x0 PUSH2 0x100 DUP3 ADD SWAP1 POP PUSH2 0xBC6 PUSH1 0x0 DUP4 ADD DUP10 PUSH2 0xAFE JUMP JUMPDEST PUSH2 0xBD3 PUSH1 0x20 DUP4 ADD DUP9 PUSH2 0x99A JUMP JUMPDEST PUSH2 0xBE0 PUSH1 0x40 DUP4 ADD DUP8 PUSH2 0x9A9 JUMP JUMPDEST PUSH2 0xBED PUSH1 0x60 DUP4 ADD DUP7 PUSH2 0xAFE JUMP JUMPDEST PUSH2 0xBFA PUSH1 0x80 DUP4 ADD DUP6 PUSH2 0xAAD JUMP JUMPDEST PUSH2 0xC07 PUSH1 0xE0 DUP4 ADD DUP5 PUSH2 0x9B8 JUMP JUMPDEST SWAP8 SWAP7 POP POP POP POP POP POP POP JUMP JUMPDEST PUSH1 0x0 PUSH1 0x40 MLOAD SWAP1 POP DUP2 DUP2 ADD DUP2 DUP2 LT PUSH8 0xFFFFFFFFFFFFFFFF DUP3 GT OR ISZERO PUSH2 0xC39 JUMPI PUSH2 0xC38 PUSH2 0xDD0 JUMP JUMPDEST JUMPDEST DUP1 PUSH1 0x40 MSTORE POP SWAP2 SWAP1 POP JUMP JUMPDEST PUSH1 0x0 PUSH8 0xFFFFFFFFFFFFFFFF DUP3 GT ISZERO PUSH2 0xC5E JUMPI PUSH2 0xC5D PUSH2 0xDD0 JUMP JUMPDEST JUMPDEST PUSH1 0x1F NOT PUSH1 0x1F DUP4 ADD AND SWAP1 POP PUSH1 0x20 DUP2 ADD SWAP1 POP SWAP2 SWAP1 POP JUMP JUMPDEST PUSH1 0x0 DUP3 DUP3 MSTORE PUSH1 0x20 DUP3 ADD SWAP1 POP SWAP3 SWAP2 POP POP JUMP JUMPDEST PUSH1 0x0 PUSH2 0xC8F DUP3 PUSH2 0xCB4 JUMP JUMPDEST SWAP1 POP SWAP2 SWAP1 POP JUMP JUMPDEST PUSH1 0x0 PUSH2 0xCA1 DUP3 PUSH2 0xCB4 JUMP JUMPDEST SWAP1 POP SWAP2 SWAP1 POP JUMP JUMPDEST PUSH1 0x0 DUP2 ISZERO ISZERO SWAP1 POP SWAP2 SWAP1 POP JUMP JUMPDEST PUSH1 0x0 PUSH20 0xFFFFFFFFFFFFFFFFFFFFFFFFFFFFFFFFFFFFFFFF DUP3 AND SWAP1 POP SWAP2 SWAP1 POP JUMP JUMPDEST PUSH1 0x0 DUP2 SWAP1 POP SWAP2 SWAP1 POP JUMP JUMPDEST DUP3 DUP2 DUP4 CALLDATACOPY PUSH1 0x0 DUP4 DUP4 ADD MSTORE POP POP POP JUMP JUMPDEST PUSH1 0x0 PUSH1 0x2 DUP3 DIV SWAP1 POP PUSH1 0x1 DUP3 AND DUP1 PUSH2 0xD05 JUMPI PUSH1 0x7F DUP3 AND SWAP2 POP JUMPDEST PUSH1 0x20 DUP3 LT DUP2 EQ ISZERO PUSH2 0xD19 JUMPI PUSH2 0xD18 PUSH2 0xDA1 JUMP JUMPDEST JUMPDEST POP SWAP2 SWAP1 POP JUMP JUMPDEST PUSH1 0x0 PUSH2 0xD2A DUP3 PUSH2 0xCD4 JUMP JUMPDEST SWAP2 POP PUSH32 0xFFFFFFFFFFFFFFFFFFFFFFFFFFFFFFFFFFFFFFFFFFFFFFFFFFFFFFFFFFFFFFFF DUP3 EQ ISZERO PUSH2 0xD5D JUMPI PUSH2 0xD5C PUSH2 0xD72 JUMP JUMPDEST JUMPDEST PUSH1 0x1 DUP3 ADD SWAP1 POP SWAP2 SWAP1 POP JUMP JUMPDEST PUSH1 0x0 DUP2 SWAP1 POP SWAP2 SWAP1 POP JUMP JUMPDEST PUSH32 0x4E487B7100000000000000000000000000000000000000000000000000000000 PUSH1 0x0 MSTORE PUSH1 0x11 PUSH1 0x4 MSTORE PUSH1 0x24 PUSH1 0x0 REVERT JUMPDEST PUSH32 0x4E487B7100000000000000000000000000000000000000000000000000000000 PUSH1 0x0 MSTORE PUSH1 0x22 PUSH1 0x4 MSTORE PUSH1 0x24 PUSH1 0x0 REVERT JUMPDEST PUSH32 0x4E487B7100000000000000000000000000000000000000000000000000000000 PUSH1 0x0 MSTORE PUSH1 0x41 PUSH1 0x4 MSTORE PUSH1 0x24 PUSH1 0x0 REVERT JUMPDEST PUSH2 0xE08 DUP2 PUSH2 0xC96 JUMP JUMPDEST DUP2 EQ PUSH2 0xE13 JUMPI PUSH1 0x0 DUP1 REVERT JUMPDEST POP JUMP JUMPDEST PUSH2 0xE1F DUP2 PUSH2 0xCA8 JUMP JUMPDEST DUP2 EQ PUSH2 0xE2A JUMPI PUSH1 0x0 DUP1 REVERT JUMPDEST POP JUMP JUMPDEST PUSH2 0xE36 DUP2 PUSH2 0xCD4 JUMP JUMPDEST DUP2 EQ PUSH2 0xE41 JUMPI PUSH1 0x0 DUP1 REVERT JUMPDEST POP JUMP INVALID LOG2 PUSH5 0x6970667358 0x22 SLT KECCAK256 0xC7 0xD6 PUSH5 0xC796954290 0xDD SWAP13 0x22 0x26 XOR SUB CODECOPY DUP5 0xF 0x4A 0xCC 0xC2 0xBA SWAP7 SIGNEXTEND SWAP16 LOG2 EQ 0x1F 0xD9 0x4D SWAP5 PUSH29 0xAF64736F6C634300080000330000000000000000000000000000000000 "
    },
    "gasEstimates": {
      "creation": {
        "codeDepositCost": "741200",
        "executionCost": "10785",
        "totalCost": "751985"
      },
      "external": {
        "approveContractByBorrower(bool,uint256)": "23498",
        "initiateContract(address,uint256,uint256,uint256,uint256)": "infinite",
        "submitCollateral((string,uint256,uint256,uint256),uint256)": "infinite",
        "trades(uint256)": "infinite"
      },
      "internal": {
        "random()": "infinite"
      }
    },
    "methodIdentifiers": {
      "approveContractByBorrower(bool,uint256)": "e40c7cc0",
      "initiateContract(address,uint256,uint256,uint256,uint256)": "3bc36a95",
      "submitCollateral((string,uint256,uint256,uint256),uint256)": "5885c655",
      "trades(uint256)": "1e6c598e"
    }
  },
  "storageLayout": {
    "storage": [
      {
        "astId": 38,
        "contract": "custodian.sol:Custodian",
        "label": "tradeIndex",
        "offset": 0,
        "slot": "0",
        "type": "t_uint256"
      },
      {
        "astId": 41,
        "contract": "custodian.sol:Custodian",
        "label": "indexColl",
        "offset": 0,
        "slot": "1",
        "type": "t_uint256"
      },
      {
        "astId": 46,
        "contract": "custodian.sol:Custodian",
        "label": "trades",
        "offset": 0,
        "slot": "2",
        "type": "t_mapping(t_uint256,t_struct(Trade)35_storage)"
      }
    ],
    "types": {
      "t_address": {
        "encoding": "inplace",
        "label": "address",
        "numberOfBytes": "20"
      },
      "t_address_payable": {
        "encoding": "inplace",
        "label": "address payable",
        "numberOfBytes": "20"
      },
      "t_array(t_struct(Collateral)17_storage)dyn_storage": {
        "base": "t_struct(Collateral)17_storage",
        "encoding": "dynamic_array",
        "label": "struct Custodian.Collateral[]",
        "numberOfBytes": "32"
      },
      "t_bool": {
        "encoding": "inplace",
        "label": "bool",
        "numberOfBytes": "1"
      },
      "t_mapping(t_uint256,t_struct(Trade)35_storage)": {
        "encoding": "mapping",
        "key": "t_uint256",
        "label": "mapping(uint256 => struct Custodian.Trade)",
        "numberOfBytes": "32",
        "value": "t_struct(Trade)35_storage"
      },
      "t_string_storage": {
        "encoding": "bytes",
        "label": "string",
        "numberOfBytes": "32"
      },
      "t_struct(Collateral)17_storage": {
        "encoding": "inplace",
        "label": "struct Custodian.Collateral",
        "members": [
          {
            "astId": 10,
            "contract": "custodian.sol:Custodian",
            "label": "cusip",
            "offset": 0,
            "slot": "0",
            "type": "t_string_storage"
          },
          {
            "astId": 12,
            "contract": "custodian.sol:Custodian",
            "label": "price",
            "offset": 0,
            "slot": "1",
            "type": "t_uint256"
          },
          {
            "astId": 14,
            "contract": "custodian.sol:Custodian",
            "label": "quantity",
            "offset": 0,
            "slot": "2",
            "type": "t_uint256"
          },
          {
            "astId": 16,
            "contract": "custodian.sol:Custodian",
            "label": "grade",
            "offset": 0,
            "slot": "3",
            "type": "t_uint256"
          }
        ],
        "numberOfBytes": "128"
      },
      "t_struct(Rules)8_storage": {
        "encoding": "inplace",
        "label": "struct Custodian.Rules",
        "members": [
          {
            "astId": 3,
            "contract": "custodian.sol:Custodian",
            "label": "maintenanceMargin",
            "offset": 0,
            "slot": "0",
            "type": "t_uint256"
          },
          {
            "astId": 5,
            "contract": "custodian.sol:Custodian",
            "label": "liquidationTime",
            "offset": 0,
            "slot": "1",
            "type": "t_uint256"
          },
          {
            "astId": 7,
            "contract": "custodian.sol:Custodian",
            "label": "gradePermitted",
            "offset": 0,
            "slot": "2",
            "type": "t_uint256"
          }
        ],
        "numberOfBytes": "96"
      },
      "t_struct(Trade)35_storage": {
        "encoding": "inplace",
        "label": "struct Custodian.Trade",
        "members": [
          {
            "astId": 19,
            "contract": "custodian.sol:Custodian",
            "label": "id",
            "offset": 0,
            "slot": "0",
            "type": "t_uint256"
          },
          {
            "astId": 21,
            "contract": "custodian.sol:Custodian",
            "label": "borrowerAdress",
            "offset": 0,
            "slot": "1",
            "type": "t_address_payable"
          },
          {
            "astId": 23,
            "contract": "custodian.sol:Custodian",
            "label": "lenderAdress",
            "offset": 0,
            "slot": "2",
            "type": "t_address"
          },
          {
            "astId": 25,
            "contract": "custodian.sol:Custodian",
            "label": "cashBorrowed",
            "offset": 0,
            "slot": "3",
            "type": "t_uint256"
          },
          {
            "astId": 29,
            "contract": "custodian.sol:Custodian",
            "label": "collaterals",
            "offset": 0,
            "slot": "4",
            "type": "t_array(t_struct(Collateral)17_storage)dyn_storage"
          },
          {
            "astId": 32,
            "contract": "custodian.sol:Custodian",
            "label": "rules",
            "offset": 0,
            "slot": "5",
            "type": "t_struct(Rules)8_storage"
          },
          {
            "astId": 34,
            "contract": "custodian.sol:Custodian",
            "label": "approvedByCounterParty",
            "offset": 0,
            "slot": "8",
            "type": "t_bool"
          }
        ],
        "numberOfBytes": "288"
      },
      "t_uint256": {
        "encoding": "inplace",
        "label": "uint256",
        "numberOfBytes": "32"
      }
    }
  },
  "userdoc": {
    "kind": "user",
    "methods": {},
    "version": 1
  }
}