{
  "abi": [
    {
      "inputs": [],
      "stateMutability": "nonpayable",
      "type": "constructor"
    },
    {
      "inputs": [
        {
          "internalType": "bool",
          "name": "approve",
          "type": "bool"
        },
        {
          "internalType": "uint256",
          "name": "id",
          "type": "uint256"
        }
      ],
      "name": "approveContractByBorrower",
      "outputs": [],
      "stateMutability": "nonpayable",
      "type": "function"
    },
    {
      "inputs": [
        {
          "internalType": "address payable",
          "name": "borrowerAdress",
          "type": "address"
        },
        {
          "internalType": "uint256",
          "name": "cashBorrowed",
          "type": "uint256"
        },
        {
          "internalType": "uint256",
          "name": "maintenanceMargin",
          "type": "uint256"
        },
        {
          "internalType": "uint256",
          "name": "liquidationTime",
          "type": "uint256"
        },
        {
          "internalType": "uint256",
          "name": "gradePermited",
          "type": "uint256"
        }
      ],
      "name": "initiateContract",
      "outputs": [],
      "stateMutability": "nonpayable",
      "type": "function"
    },
    {
      "inputs": [
        {
          "internalType": "uint256",
          "name": "id",
          "type": "uint256"
        }
      ],
      "name": "submitCashToBorrower",
      "outputs": [],
      "stateMutability": "payable",
      "type": "function"
    },
    {
      "inputs": [
        {
          "components": [
            {
              "internalType": "string",
              "name": "cusip",
              "type": "string"
            },
            {
              "internalType": "uint256",
              "name": "price",
              "type": "uint256"
            },
            {
              "internalType": "uint256",
              "name": "quantity",
              "type": "uint256"
            },
            {
              "internalType": "uint256",
              "name": "grade",
              "type": "uint256"
            }
          ],
          "internalType": "struct Custodian.Collateral",
          "name": "collateral",
          "type": "tuple"
        },
        {
          "internalType": "uint256",
          "name": "id",
          "type": "uint256"
        }
      ],
      "name": "submitCollateral",
      "outputs": [],
      "stateMutability": "nonpayable",
      "type": "function"
    },
    {
      "inputs": [
        {
          "internalType": "uint256",
          "name": "",
          "type": "uint256"
        }
      ],
      "name": "trades",
      "outputs": [
        {
          "internalType": "uint256",
          "name": "id",
          "type": "uint256"
        },
        {
          "internalType": "address payable",
          "name": "borrowerAdress",
          "type": "address"
        },
        {
          "internalType": "address",
          "name": "lenderAdress",
          "type": "address"
        },
        {
          "internalType": "uint256",
          "name": "cashBorrowed",
          "type": "uint256"
        },
        {
          "components": [
            {
              "internalType": "uint256",
              "name": "maintenanceMargin",
              "type": "uint256"
            },
            {
              "internalType": "uint256",
              "name": "liquidationTime",
              "type": "uint256"
            },
            {
              "internalType": "uint256",
              "name": "gradePermitted",
              "type": "uint256"
            }
          ],
          "internalType": "struct Custodian.Rules",
          "name": "rules",
          "type": "tuple"
        },
        {
          "internalType": "bool",
          "name": "approvedByCounterParty",
          "type": "bool"
        }
      ],
      "stateMutability": "view",
      "type": "function"
    },
    {
      "inputs": [
        {
          "internalType": "uint256",
          "name": "id",
          "type": "uint256"
        }
      ],
      "name": "valuateCollateral",
      "outputs": [
        {
          "internalType": "uint256",
          "name": "",
          "type": "uint256"
        }
      ],
      "stateMutability": "view",
      "type": "function"
    }
  ],
  "devdoc": {
    "kind": "dev",
    "methods": {},
    "version": 1
  },
  "evm": {
    "assembly": "    /* \"custodian.sol\":25:2977  contract Custodian {... */\n  mstore(0x40, 0x80)\n    /* \"custodian.sol\":551:552  0 */\n  0x00\n    /* \"custodian.sol\":533:552  uint tradeIndex = 0 */\n  dup1\n  sstore\n    /* \"custodian.sol\":574:575  0 */\n  0x00\n    /* \"custodian.sol\":559:575  uint indexColl=0 */\n  0x01\n  sstore\n    /* \"custodian.sol\":626:648  constructor() {... */\n  callvalue\n  dup1\n  iszero\n  tag_1\n  jumpi\n  0x00\n  dup1\n  revert\ntag_1:\n  pop\n    /* \"custodian.sol\":25:2977  contract Custodian {... */\n  dataSize(sub_0)\n  dup1\n  dataOffset(sub_0)\n  0x00\n  codecopy\n  0x00\n  return\nstop\n\nsub_0: assembly {\n        /* \"custodian.sol\":25:2977  contract Custodian {... */\n      mstore(0x40, 0x80)\n      jumpi(tag_1, lt(calldatasize, 0x04))\n      shr(0xe0, calldataload(0x00))\n      dup1\n      0x1e6c598e\n      eq\n      tag_2\n      jumpi\n      dup1\n      0x3bc36a95\n      eq\n      tag_3\n      jumpi\n      dup1\n      0x5885c655\n      eq\n      tag_4\n      jumpi\n      dup1\n      0x94a53f7c\n      eq\n      tag_5\n      jumpi\n      dup1\n      0xe40c7cc0\n      eq\n      tag_6\n      jumpi\n      dup1\n      0xf62d915a\n      eq\n      tag_7\n      jumpi\n    tag_1:\n      0x00\n      dup1\n      revert\n        /* \"custodian.sol\":581:617  mapping(uint => Trade) public trades */\n    tag_2:\n      callvalue\n      dup1\n      iszero\n      tag_8\n      jumpi\n      0x00\n      dup1\n      revert\n    tag_8:\n      pop\n      tag_9\n      0x04\n      dup1\n      calldatasize\n      sub\n      dup2\n      add\n      swap1\n      tag_10\n      swap2\n      swap1\n      tag_11\n      jump\t// in\n    tag_10:\n      tag_12\n      jump\t// in\n    tag_9:\n      mload(0x40)\n      tag_13\n      swap7\n      swap6\n      swap5\n      swap4\n      swap3\n      swap2\n      swap1\n      tag_14\n      jump\t// in\n    tag_13:\n      mload(0x40)\n      dup1\n      swap2\n      sub\n      swap1\n      return\n        /* \"custodian.sol\":1343:1908  function initiateContract( address payable borrowerAdress,uint cashBorrowed,uint maintenanceMargin,uint  liquidationTime,uint gradePermited ) public... */\n    tag_3:\n      callvalue\n      dup1\n      iszero\n      tag_15\n      jumpi\n      0x00\n      dup1\n      revert\n    tag_15:\n      pop\n      tag_16\n      0x04\n      dup1\n      calldatasize\n      sub\n      dup2\n      add\n      swap1\n      tag_17\n      swap2\n      swap1\n      tag_18\n      jump\t// in\n    tag_17:\n      tag_19\n      jump\t// in\n    tag_16:\n      stop\n        /* \"custodian.sol\":1914:2136  function submitCollateral(Collateral memory collateral,uint id ) public restricted(id) tradeApproved(id) collateralPermitted(id,collateral) {... */\n    tag_4:\n      callvalue\n      dup1\n      iszero\n      tag_20\n      jumpi\n      0x00\n      dup1\n      revert\n    tag_20:\n      pop\n      tag_21\n      0x04\n      dup1\n      calldatasize\n      sub\n      dup2\n      add\n      swap1\n      tag_22\n      swap2\n      swap1\n      tag_23\n      jump\t// in\n    tag_22:\n      tag_24\n      jump\t// in\n    tag_21:\n      stop\n        /* \"custodian.sol\":2357:2685  function valuateCollateral(uint id ) public restricted(id)  view returns (uint)  {... */\n    tag_5:\n      callvalue\n      dup1\n      iszero\n      tag_25\n      jumpi\n      0x00\n      dup1\n      revert\n    tag_25:\n      pop\n      tag_26\n      0x04\n      dup1\n      calldatasize\n      sub\n      dup2\n      add\n      swap1\n      tag_27\n      swap2\n      swap1\n      tag_11\n      jump\t// in\n    tag_27:\n      tag_28\n      jump\t// in\n    tag_26:\n      mload(0x40)\n      tag_29\n      swap2\n      swap1\n      tag_30\n      jump\t// in\n    tag_29:\n      mload(0x40)\n      dup1\n      swap2\n      sub\n      swap1\n      return\n        /* \"custodian.sol\":2691:2828  function approveContractByBorrower(bool approve,uint id ) public restricted(id){... */\n    tag_6:\n      callvalue\n      dup1\n      iszero\n      tag_31\n      jumpi\n      0x00\n      dup1\n      revert\n    tag_31:\n      pop\n      tag_32\n      0x04\n      dup1\n      calldatasize\n      sub\n      dup2\n      add\n      swap1\n      tag_33\n      swap2\n      swap1\n      tag_34\n      jump\t// in\n    tag_33:\n      tag_35\n      jump\t// in\n    tag_32:\n      stop\n        /* \"custodian.sol\":2142:2351  function submitCashToBorrower(uint id) public restricted(id) fullyCollateralized(id,msg.value) payable {... */\n    tag_7:\n      tag_36\n      0x04\n      dup1\n      calldatasize\n      sub\n      dup2\n      add\n      swap1\n      tag_37\n      swap2\n      swap1\n      tag_11\n      jump\t// in\n    tag_37:\n      tag_38\n      jump\t// in\n    tag_36:\n      stop\n        /* \"custodian.sol\":581:617  mapping(uint => Trade) public trades */\n    tag_12:\n      mstore(0x20, 0x02)\n      dup1\n      0x00\n      mstore\n      keccak256(0x00, 0x40)\n      0x00\n      swap2\n      pop\n      swap1\n      pop\n      dup1\n      0x00\n      add\n      sload\n      swap1\n      dup1\n      0x01\n      add\n      0x00\n      swap1\n      sload\n      swap1\n      0x0100\n      exp\n      swap1\n      div\n      0xffffffffffffffffffffffffffffffffffffffff\n      and\n      swap1\n      dup1\n      0x02\n      add\n      0x00\n      swap1\n      sload\n      swap1\n      0x0100\n      exp\n      swap1\n      div\n      0xffffffffffffffffffffffffffffffffffffffff\n      and\n      swap1\n      dup1\n      0x03\n      add\n      sload\n      swap1\n      dup1\n      0x05\n      add\n      mload(0x40)\n      dup1\n      0x60\n      add\n      0x40\n      mstore\n      swap1\n      dup2\n      0x00\n      dup3\n      add\n      sload\n      dup2\n      mstore\n      0x20\n      add\n      0x01\n      dup3\n      add\n      sload\n      dup2\n      mstore\n      0x20\n      add\n      0x02\n      dup3\n      add\n      sload\n      dup2\n      mstore\n      pop\n      pop\n      swap1\n      dup1\n      0x08\n      add\n      0x00\n      swap1\n      sload\n      swap1\n      0x0100\n      exp\n      swap1\n      div\n      0xff\n      and\n      swap1\n      pop\n      dup7\n      jump\t// out\n        /* \"custodian.sol\":1343:1908  function initiateContract( address payable borrowerAdress,uint cashBorrowed,uint maintenanceMargin,uint  liquidationTime,uint gradePermited ) public... */\n    tag_19:\n        /* \"custodian.sol\":1506:1513  uint id */\n      0x00\n        /* \"custodian.sol\":1515:1523  random() */\n      tag_40\n        /* \"custodian.sol\":1515:1521  random */\n      tag_41\n        /* \"custodian.sol\":1515:1523  random() */\n      jump\t// in\n    tag_40:\n        /* \"custodian.sol\":1506:1523  uint id =random() */\n      swap1\n      pop\n        /* \"custodian.sol\":1541:1560  Trade storage trade */\n      0x00\n        /* \"custodian.sol\":1563:1569  trades */\n      0x02\n        /* \"custodian.sol\":1563:1573  trades[id] */\n      0x00\n        /* \"custodian.sol\":1570:1572  id */\n      dup4\n        /* \"custodian.sol\":1563:1573  trades[id] */\n      dup2\n      mstore\n      0x20\n      add\n      swap1\n      dup2\n      mstore\n      0x20\n      add\n      0x00\n      keccak256\n        /* \"custodian.sol\":1541:1573  Trade storage trade = trades[id] */\n      swap1\n      pop\n        /* \"custodian.sol\":1592:1594  id */\n      dup2\n        /* \"custodian.sol\":1583:1588  trade */\n      dup2\n        /* \"custodian.sol\":1583:1591  trade.id */\n      0x00\n      add\n        /* \"custodian.sol\":1583:1594  trade.id=id */\n      dup2\n      swap1\n      sstore\n      pop\n        /* \"custodian.sol\":1623:1633  msg.sender */\n      caller\n        /* \"custodian.sol\":1604:1609  trade */\n      dup2\n        /* \"custodian.sol\":1604:1622  trade.lenderAdress */\n      0x02\n      add\n      0x00\n        /* \"custodian.sol\":1604:1633  trade.lenderAdress=msg.sender */\n      0x0100\n      exp\n      dup2\n      sload\n      dup2\n      0xffffffffffffffffffffffffffffffffffffffff\n      mul\n      not\n      and\n      swap1\n      dup4\n      0xffffffffffffffffffffffffffffffffffffffff\n      and\n      mul\n      or\n      swap1\n      sstore\n      pop\n        /* \"custodian.sol\":1664:1678  borrowerAdress */\n      dup7\n        /* \"custodian.sol\":1643:1648  trade */\n      dup2\n        /* \"custodian.sol\":1643:1663  trade.borrowerAdress */\n      0x01\n      add\n      0x00\n        /* \"custodian.sol\":1643:1678  trade.borrowerAdress=borrowerAdress */\n      0x0100\n      exp\n      dup2\n      sload\n      dup2\n      0xffffffffffffffffffffffffffffffffffffffff\n      mul\n      not\n      and\n      swap1\n      dup4\n      0xffffffffffffffffffffffffffffffffffffffff\n      and\n      mul\n      or\n      swap1\n      sstore\n      pop\n        /* \"custodian.sol\":1707:1719  cashBorrowed */\n      dup6\n        /* \"custodian.sol\":1688:1693  trade */\n      dup2\n        /* \"custodian.sol\":1688:1706  trade.cashBorrowed */\n      0x03\n      add\n        /* \"custodian.sol\":1688:1719  trade.cashBorrowed=cashBorrowed */\n      dup2\n      swap1\n      sstore\n      pop\n        /* \"custodian.sol\":1759:1776  maintenanceMargin */\n      dup5\n        /* \"custodian.sol\":1729:1734  trade */\n      dup2\n        /* \"custodian.sol\":1729:1740  trade.rules */\n      0x05\n      add\n        /* \"custodian.sol\":1729:1758  trade.rules.maintenanceMargin */\n      0x00\n      add\n        /* \"custodian.sol\":1729:1776  trade.rules.maintenanceMargin=maintenanceMargin */\n      dup2\n      swap1\n      sstore\n      pop\n        /* \"custodian.sol\":1814:1829  liquidationTime */\n      dup4\n        /* \"custodian.sol\":1786:1791  trade */\n      dup2\n        /* \"custodian.sol\":1786:1797  trade.rules */\n      0x05\n      add\n        /* \"custodian.sol\":1786:1813  trade.rules.liquidationTime */\n      0x01\n      add\n        /* \"custodian.sol\":1786:1829  trade.rules.liquidationTime=liquidationTime */\n      dup2\n      swap1\n      sstore\n      pop\n        /* \"custodian.sol\":1866:1879  gradePermited */\n      dup3\n        /* \"custodian.sol\":1839:1844  trade */\n      dup2\n        /* \"custodian.sol\":1839:1850  trade.rules */\n      0x05\n      add\n        /* \"custodian.sol\":1839:1865  trade.rules.gradePermitted */\n      0x02\n      add\n        /* \"custodian.sol\":1839:1879  trade.rules.gradePermitted=gradePermited */\n      dup2\n      swap1\n      sstore\n      pop\n        /* \"custodian.sol\":1889:1899  tradeIndex */\n      0x00\n      dup1\n        /* \"custodian.sol\":1889:1901  tradeIndex++ */\n      dup2\n      sload\n      dup1\n      swap3\n      swap2\n      swap1\n      tag_42\n      swap1\n      tag_43\n      jump\t// in\n    tag_42:\n      swap2\n      swap1\n      pop\n      sstore\n      pop\n        /* \"custodian.sol\":1343:1908  function initiateContract( address payable borrowerAdress,uint cashBorrowed,uint maintenanceMargin,uint  liquidationTime,uint gradePermited ) public... */\n      pop\n      pop\n      pop\n      pop\n      pop\n      pop\n      pop\n      jump\t// out\n        /* \"custodian.sol\":1914:2136  function submitCollateral(Collateral memory collateral,uint id ) public restricted(id) tradeApproved(id) collateralPermitted(id,collateral) {... */\n    tag_24:\n        /* \"custodian.sol\":1997:1999  id */\n      dup1\n        /* \"custodian.sol\":715:721  trades */\n      0x02\n        /* \"custodian.sol\":715:725  trades[id] */\n      0x00\n        /* \"custodian.sol\":722:724  id */\n      dup3\n        /* \"custodian.sol\":715:725  trades[id] */\n      dup2\n      mstore\n      0x20\n      add\n      swap1\n      dup2\n      mstore\n      0x20\n      add\n      0x00\n      keccak256\n        /* \"custodian.sol\":715:740  trades[id].borrowerAdress */\n      0x01\n      add\n      0x00\n      swap1\n      sload\n      swap1\n      0x0100\n      exp\n      swap1\n      div\n      0xffffffffffffffffffffffffffffffffffffffff\n      and\n        /* \"custodian.sol\":701:740  msg.sender == trades[id].borrowerAdress */\n      0xffffffffffffffffffffffffffffffffffffffff\n      and\n        /* \"custodian.sol\":701:711  msg.sender */\n      caller\n        /* \"custodian.sol\":701:740  msg.sender == trades[id].borrowerAdress */\n      0xffffffffffffffffffffffffffffffffffffffff\n      and\n      eq\n        /* \"custodian.sol\":701:781  msg.sender == trades[id].borrowerAdress || msg.sender == trades[id].lenderAdress */\n      dup1\n      tag_45\n      jumpi\n      pop\n        /* \"custodian.sol\":758:764  trades */\n      0x02\n        /* \"custodian.sol\":758:768  trades[id] */\n      0x00\n        /* \"custodian.sol\":765:767  id */\n      dup3\n        /* \"custodian.sol\":758:768  trades[id] */\n      dup2\n      mstore\n      0x20\n      add\n      swap1\n      dup2\n      mstore\n      0x20\n      add\n      0x00\n      keccak256\n        /* \"custodian.sol\":758:781  trades[id].lenderAdress */\n      0x02\n      add\n      0x00\n      swap1\n      sload\n      swap1\n      0x0100\n      exp\n      swap1\n      div\n      0xffffffffffffffffffffffffffffffffffffffff\n      and\n        /* \"custodian.sol\":744:781  msg.sender == trades[id].lenderAdress */\n      0xffffffffffffffffffffffffffffffffffffffff\n      and\n        /* \"custodian.sol\":744:754  msg.sender */\n      caller\n        /* \"custodian.sol\":744:781  msg.sender == trades[id].lenderAdress */\n      0xffffffffffffffffffffffffffffffffffffffff\n      and\n      eq\n        /* \"custodian.sol\":701:781  msg.sender == trades[id].borrowerAdress || msg.sender == trades[id].lenderAdress */\n    tag_45:\n        /* \"custodian.sol\":693:801  require(msg.sender == trades[id].borrowerAdress || msg.sender == trades[id].lenderAdress, \"privilege acces\") */\n      tag_46\n      jumpi\n      mload(0x40)\n      0x08c379a000000000000000000000000000000000000000000000000000000000\n      dup2\n      mstore\n      0x04\n      add\n      tag_47\n      swap1\n      tag_48\n      jump\t// in\n    tag_47:\n      mload(0x40)\n      dup1\n      swap2\n      sub\n      swap1\n      revert\n    tag_46:\n        /* \"custodian.sol\":2015:2017  id */\n      dup2\n        /* \"custodian.sol\":874:880  trades */\n      0x02\n        /* \"custodian.sol\":874:884  trades[id] */\n      0x00\n        /* \"custodian.sol\":881:883  id */\n      dup3\n        /* \"custodian.sol\":874:884  trades[id] */\n      dup2\n      mstore\n      0x20\n      add\n      swap1\n      dup2\n      mstore\n      0x20\n      add\n      0x00\n      keccak256\n        /* \"custodian.sol\":874:907  trades[id].approvedByCounterParty */\n      0x08\n      add\n      0x00\n      swap1\n      sload\n      swap1\n      0x0100\n      exp\n      swap1\n      div\n      0xff\n      and\n        /* \"custodian.sol\":866:946  require(trades[id].approvedByCounterParty, \"trade not approved by both parties\") */\n      tag_50\n      jumpi\n      mload(0x40)\n      0x08c379a000000000000000000000000000000000000000000000000000000000\n      dup2\n      mstore\n      0x04\n      add\n      tag_51\n      swap1\n      tag_52\n      jump\t// in\n    tag_51:\n      mload(0x40)\n      dup1\n      swap2\n      sub\n      swap1\n      revert\n    tag_50:\n        /* \"custodian.sol\":2039:2041  id */\n      dup3\n        /* \"custodian.sol\":2042:2052  collateral */\n      dup5\n        /* \"custodian.sol\":1088:1098  collateral */\n      dup1\n        /* \"custodian.sol\":1088:1104  collateral.grade */\n      0x60\n      add\n      mload\n        /* \"custodian.sol\":1055:1061  trades */\n      0x02\n        /* \"custodian.sol\":1055:1065  trades[id] */\n      0x00\n        /* \"custodian.sol\":1062:1064  id */\n      dup5\n        /* \"custodian.sol\":1055:1065  trades[id] */\n      dup2\n      mstore\n      0x20\n      add\n      swap1\n      dup2\n      mstore\n      0x20\n      add\n      0x00\n      keccak256\n        /* \"custodian.sol\":1055:1071  trades[id].rules */\n      0x05\n      add\n        /* \"custodian.sol\":1055:1086  trades[id].rules.gradePermitted */\n      0x02\n      add\n      sload\n        /* \"custodian.sol\":1055:1104  trades[id].rules.gradePermitted==collateral.grade */\n      eq\n        /* \"custodian.sol\":1047:1136  require(trades[id].rules.gradePermitted==collateral.grade, \"collateral is not permitted\") */\n      tag_54\n      jumpi\n      mload(0x40)\n      0x08c379a000000000000000000000000000000000000000000000000000000000\n      dup2\n      mstore\n      0x04\n      add\n      tag_55\n      swap1\n      tag_56\n      jump\t// in\n    tag_55:\n      mload(0x40)\n      dup1\n      swap2\n      sub\n      swap1\n      revert\n    tag_54:\n        /* \"custodian.sol\":2098:2108  collateral */\n      dup6\n        /* \"custodian.sol\":2064:2070  trades */\n      0x02\n        /* \"custodian.sol\":2064:2074  trades[id] */\n      0x00\n        /* \"custodian.sol\":2071:2073  id */\n      dup8\n        /* \"custodian.sol\":2064:2074  trades[id] */\n      dup2\n      mstore\n      0x20\n      add\n      swap1\n      dup2\n      mstore\n      0x20\n      add\n      0x00\n      keccak256\n        /* \"custodian.sol\":2064:2086  trades[id].collaterals */\n      0x04\n      add\n        /* \"custodian.sol\":2087:2096  indexColl */\n      sload(0x01)\n        /* \"custodian.sol\":2064:2097  trades[id].collaterals[indexColl] */\n      dup2\n      sload\n      dup2\n      lt\n      tag_58\n      jumpi\n      mstore(0x00, 0x4e487b7100000000000000000000000000000000000000000000000000000000)\n      mstore(0x04, 0x32)\n      revert(0x00, 0x24)\n    tag_58:\n      swap1\n      0x00\n      mstore\n      keccak256(0x00, 0x20)\n      swap1\n      0x04\n      mul\n      add\n        /* \"custodian.sol\":2064:2108  trades[id].collaterals[indexColl]=collateral */\n      0x00\n      dup3\n      add\n      mload\n      dup2\n      0x00\n      add\n      swap1\n      dup1\n      mload\n      swap1\n      0x20\n      add\n      swap1\n      tag_60\n      swap3\n      swap2\n      swap1\n      tag_61\n      jump\t// in\n    tag_60:\n      pop\n      0x20\n      dup3\n      add\n      mload\n      dup2\n      0x01\n      add\n      sstore\n      0x40\n      dup3\n      add\n      mload\n      dup2\n      0x02\n      add\n      sstore\n      0x60\n      dup3\n      add\n      mload\n      dup2\n      0x03\n      add\n      sstore\n      swap1\n      pop\n      pop\n        /* \"custodian.sol\":2118:2127  indexColl */\n      0x01\n      0x00\n        /* \"custodian.sol\":2118:2129  indexColl++ */\n      dup2\n      sload\n      dup1\n      swap3\n      swap2\n      swap1\n      tag_62\n      swap1\n      tag_43\n      jump\t// in\n    tag_62:\n      swap2\n      swap1\n      pop\n      sstore\n      pop\n        /* \"custodian.sol\":956:957  _ */\n      pop\n      pop\n        /* \"custodian.sol\":811:812  _ */\n      pop\n        /* \"custodian.sol\":1914:2136  function submitCollateral(Collateral memory collateral,uint id ) public restricted(id) tradeApproved(id) collateralPermitted(id,collateral) {... */\n      pop\n      pop\n      pop\n      jump\t// out\n        /* \"custodian.sol\":2357:2685  function valuateCollateral(uint id ) public restricted(id)  view returns (uint)  {... */\n    tag_28:\n        /* \"custodian.sol\":2431:2435  uint */\n      0x00\n        /* \"custodian.sol\":2412:2414  id */\n      dup2\n        /* \"custodian.sol\":715:721  trades */\n      0x02\n        /* \"custodian.sol\":715:725  trades[id] */\n      0x00\n        /* \"custodian.sol\":722:724  id */\n      dup3\n        /* \"custodian.sol\":715:725  trades[id] */\n      dup2\n      mstore\n      0x20\n      add\n      swap1\n      dup2\n      mstore\n      0x20\n      add\n      0x00\n      keccak256\n        /* \"custodian.sol\":715:740  trades[id].borrowerAdress */\n      0x01\n      add\n      0x00\n      swap1\n      sload\n      swap1\n      0x0100\n      exp\n      swap1\n      div\n      0xffffffffffffffffffffffffffffffffffffffff\n      and\n        /* \"custodian.sol\":701:740  msg.sender == trades[id].borrowerAdress */\n      0xffffffffffffffffffffffffffffffffffffffff\n      and\n        /* \"custodian.sol\":701:711  msg.sender */\n      caller\n        /* \"custodian.sol\":701:740  msg.sender == trades[id].borrowerAdress */\n      0xffffffffffffffffffffffffffffffffffffffff\n      and\n      eq\n        /* \"custodian.sol\":701:781  msg.sender == trades[id].borrowerAdress || msg.sender == trades[id].lenderAdress */\n      dup1\n      tag_64\n      jumpi\n      pop\n        /* \"custodian.sol\":758:764  trades */\n      0x02\n        /* \"custodian.sol\":758:768  trades[id] */\n      0x00\n        /* \"custodian.sol\":765:767  id */\n      dup3\n        /* \"custodian.sol\":758:768  trades[id] */\n      dup2\n      mstore\n      0x20\n      add\n      swap1\n      dup2\n      mstore\n      0x20\n      add\n      0x00\n      keccak256\n        /* \"custodian.sol\":758:781  trades[id].lenderAdress */\n      0x02\n      add\n      0x00\n      swap1\n      sload\n      swap1\n      0x0100\n      exp\n      swap1\n      div\n      0xffffffffffffffffffffffffffffffffffffffff\n      and\n        /* \"custodian.sol\":744:781  msg.sender == trades[id].lenderAdress */\n      0xffffffffffffffffffffffffffffffffffffffff\n      and\n        /* \"custodian.sol\":744:754  msg.sender */\n      caller\n        /* \"custodian.sol\":744:781  msg.sender == trades[id].lenderAdress */\n      0xffffffffffffffffffffffffffffffffffffffff\n      and\n      eq\n        /* \"custodian.sol\":701:781  msg.sender == trades[id].borrowerAdress || msg.sender == trades[id].lenderAdress */\n    tag_64:\n        /* \"custodian.sol\":693:801  require(msg.sender == trades[id].borrowerAdress || msg.sender == trades[id].lenderAdress, \"privilege acces\") */\n      tag_65\n      jumpi\n      mload(0x40)\n      0x08c379a000000000000000000000000000000000000000000000000000000000\n      dup2\n      mstore\n      0x04\n      add\n      tag_66\n      swap1\n      tag_48\n      jump\t// in\n    tag_66:\n      mload(0x40)\n      dup1\n      swap2\n      sub\n      swap1\n      revert\n    tag_65:\n        /* \"custodian.sol\":2448:2467  uint totalValuation */\n      0x00\n        /* \"custodian.sol\":2484:2490  uint i */\n      dup1\n        /* \"custodian.sol\":2479:2646  for (uint i = 0; i < trades[id].collaterals.length; ++i) {... */\n    tag_68:\n        /* \"custodian.sol\":2500:2506  trades */\n      0x02\n        /* \"custodian.sol\":2500:2510  trades[id] */\n      0x00\n        /* \"custodian.sol\":2507:2509  id */\n      dup7\n        /* \"custodian.sol\":2500:2510  trades[id] */\n      dup2\n      mstore\n      0x20\n      add\n      swap1\n      dup2\n      mstore\n      0x20\n      add\n      0x00\n      keccak256\n        /* \"custodian.sol\":2500:2522  trades[id].collaterals */\n      0x04\n      add\n        /* \"custodian.sol\":2500:2529  trades[id].collaterals.length */\n      dup1\n      sload\n      swap1\n      pop\n        /* \"custodian.sol\":2496:2497  i */\n      dup2\n        /* \"custodian.sol\":2496:2529  i < trades[id].collaterals.length */\n      lt\n        /* \"custodian.sol\":2479:2646  for (uint i = 0; i < trades[id].collaterals.length; ++i) {... */\n      iszero\n      tag_69\n      jumpi\n        /* \"custodian.sol\":2604:2610  trades */\n      0x02\n        /* \"custodian.sol\":2604:2614  trades[id] */\n      0x00\n        /* \"custodian.sol\":2611:2613  id */\n      dup7\n        /* \"custodian.sol\":2604:2614  trades[id] */\n      dup2\n      mstore\n      0x20\n      add\n      swap1\n      dup2\n      mstore\n      0x20\n      add\n      0x00\n      keccak256\n        /* \"custodian.sol\":2604:2626  trades[id].collaterals */\n      0x04\n      add\n        /* \"custodian.sol\":2627:2628  i */\n      dup2\n        /* \"custodian.sol\":2604:2629  trades[id].collaterals[i] */\n      dup2\n      sload\n      dup2\n      lt\n      tag_71\n      jumpi\n      mstore(0x00, 0x4e487b7100000000000000000000000000000000000000000000000000000000)\n      mstore(0x04, 0x32)\n      revert(0x00, 0x24)\n    tag_71:\n      swap1\n      0x00\n      mstore\n      keccak256(0x00, 0x20)\n      swap1\n      0x04\n      mul\n      add\n        /* \"custodian.sol\":2604:2635  trades[id].collaterals[i].price */\n      0x01\n      add\n      sload\n        /* \"custodian.sol\":2567:2573  trades */\n      0x02\n        /* \"custodian.sol\":2567:2577  trades[id] */\n      0x00\n        /* \"custodian.sol\":2574:2576  id */\n      dup8\n        /* \"custodian.sol\":2567:2577  trades[id] */\n      dup2\n      mstore\n      0x20\n      add\n      swap1\n      dup2\n      mstore\n      0x20\n      add\n      0x00\n      keccak256\n        /* \"custodian.sol\":2567:2589  trades[id].collaterals */\n      0x04\n      add\n        /* \"custodian.sol\":2590:2591  i */\n      dup3\n        /* \"custodian.sol\":2567:2592  trades[id].collaterals[i] */\n      dup2\n      sload\n      dup2\n      lt\n      tag_73\n      jumpi\n      mstore(0x00, 0x4e487b7100000000000000000000000000000000000000000000000000000000)\n      mstore(0x04, 0x32)\n      revert(0x00, 0x24)\n    tag_73:\n      swap1\n      0x00\n      mstore\n      keccak256(0x00, 0x20)\n      swap1\n      0x04\n      mul\n      add\n        /* \"custodian.sol\":2567:2601  trades[id].collaterals[i].quantity */\n      0x02\n      add\n      sload\n        /* \"custodian.sol\":2567:2635  trades[id].collaterals[i].quantity * trades[id].collaterals[i].price */\n      tag_75\n      swap2\n      swap1\n      tag_76\n      jump\t// in\n    tag_75:\n        /* \"custodian.sol\":2550:2635  totalValuation+= trades[id].collaterals[i].quantity * trades[id].collaterals[i].price */\n      dup3\n      tag_77\n      swap2\n      swap1\n      tag_78\n      jump\t// in\n    tag_77:\n      swap2\n      pop\n        /* \"custodian.sol\":2531:2534  ++i */\n      dup1\n      tag_79\n      swap1\n      tag_43\n      jump\t// in\n    tag_79:\n      swap1\n      pop\n        /* \"custodian.sol\":2479:2646  for (uint i = 0; i < trades[id].collaterals.length; ++i) {... */\n      jump(tag_68)\n    tag_69:\n      pop\n        /* \"custodian.sol\":2664:2678  totalValuation */\n      dup1\n        /* \"custodian.sol\":2657:2678  return totalValuation */\n      swap3\n      pop\n      pop\n        /* \"custodian.sol\":2357:2685  function valuateCollateral(uint id ) public restricted(id)  view returns (uint)  {... */\n      pop\n      swap2\n      swap1\n      pop\n      jump\t// out\n        /* \"custodian.sol\":2691:2828  function approveContractByBorrower(bool approve,uint id ) public restricted(id){... */\n    tag_35:\n        /* \"custodian.sol\":2767:2769  id */\n      dup1\n        /* \"custodian.sol\":715:721  trades */\n      0x02\n        /* \"custodian.sol\":715:725  trades[id] */\n      0x00\n        /* \"custodian.sol\":722:724  id */\n      dup3\n        /* \"custodian.sol\":715:725  trades[id] */\n      dup2\n      mstore\n      0x20\n      add\n      swap1\n      dup2\n      mstore\n      0x20\n      add\n      0x00\n      keccak256\n        /* \"custodian.sol\":715:740  trades[id].borrowerAdress */\n      0x01\n      add\n      0x00\n      swap1\n      sload\n      swap1\n      0x0100\n      exp\n      swap1\n      div\n      0xffffffffffffffffffffffffffffffffffffffff\n      and\n        /* \"custodian.sol\":701:740  msg.sender == trades[id].borrowerAdress */\n      0xffffffffffffffffffffffffffffffffffffffff\n      and\n        /* \"custodian.sol\":701:711  msg.sender */\n      caller\n        /* \"custodian.sol\":701:740  msg.sender == trades[id].borrowerAdress */\n      0xffffffffffffffffffffffffffffffffffffffff\n      and\n      eq\n        /* \"custodian.sol\":701:781  msg.sender == trades[id].borrowerAdress || msg.sender == trades[id].lenderAdress */\n      dup1\n      tag_81\n      jumpi\n      pop\n        /* \"custodian.sol\":758:764  trades */\n      0x02\n        /* \"custodian.sol\":758:768  trades[id] */\n      0x00\n        /* \"custodian.sol\":765:767  id */\n      dup3\n        /* \"custodian.sol\":758:768  trades[id] */\n      dup2\n      mstore\n      0x20\n      add\n      swap1\n      dup2\n      mstore\n      0x20\n      add\n      0x00\n      keccak256\n        /* \"custodian.sol\":758:781  trades[id].lenderAdress */\n      0x02\n      add\n      0x00\n      swap1\n      sload\n      swap1\n      0x0100\n      exp\n      swap1\n      div\n      0xffffffffffffffffffffffffffffffffffffffff\n      and\n        /* \"custodian.sol\":744:781  msg.sender == trades[id].lenderAdress */\n      0xffffffffffffffffffffffffffffffffffffffff\n      and\n        /* \"custodian.sol\":744:754  msg.sender */\n      caller\n        /* \"custodian.sol\":744:781  msg.sender == trades[id].lenderAdress */\n      0xffffffffffffffffffffffffffffffffffffffff\n      and\n      eq\n        /* \"custodian.sol\":701:781  msg.sender == trades[id].borrowerAdress || msg.sender == trades[id].lenderAdress */\n    tag_81:\n        /* \"custodian.sol\":693:801  require(msg.sender == trades[id].borrowerAdress || msg.sender == trades[id].lenderAdress, \"privilege acces\") */\n      tag_82\n      jumpi\n      mload(0x40)\n      0x08c379a000000000000000000000000000000000000000000000000000000000\n      dup2\n      mstore\n      0x04\n      add\n      tag_83\n      swap1\n      tag_48\n      jump\t// in\n    tag_83:\n      mload(0x40)\n      dup1\n      swap2\n      sub\n      swap1\n      revert\n    tag_82:\n        /* \"custodian.sol\":2814:2821  approve */\n      dup3\n        /* \"custodian.sol\":2780:2786  trades */\n      0x02\n        /* \"custodian.sol\":2780:2790  trades[id] */\n      0x00\n        /* \"custodian.sol\":2787:2789  id */\n      dup5\n        /* \"custodian.sol\":2780:2790  trades[id] */\n      dup2\n      mstore\n      0x20\n      add\n      swap1\n      dup2\n      mstore\n      0x20\n      add\n      0x00\n      keccak256\n        /* \"custodian.sol\":2780:2813  trades[id].approvedByCounterParty */\n      0x08\n      add\n      0x00\n        /* \"custodian.sol\":2780:2821  trades[id].approvedByCounterParty=approve */\n      0x0100\n      exp\n      dup2\n      sload\n      dup2\n      0xff\n      mul\n      not\n      and\n      swap1\n      dup4\n      iszero\n      iszero\n      mul\n      or\n      swap1\n      sstore\n      pop\n        /* \"custodian.sol\":2691:2828  function approveContractByBorrower(bool approve,uint id ) public restricted(id){... */\n      pop\n      pop\n      pop\n      jump\t// out\n        /* \"custodian.sol\":2142:2351  function submitCashToBorrower(uint id) public restricted(id) fullyCollateralized(id,msg.value) payable {... */\n    tag_38:\n        /* \"custodian.sol\":2199:2201  id */\n      dup1\n        /* \"custodian.sol\":715:721  trades */\n      0x02\n        /* \"custodian.sol\":715:725  trades[id] */\n      0x00\n        /* \"custodian.sol\":722:724  id */\n      dup3\n        /* \"custodian.sol\":715:725  trades[id] */\n      dup2\n      mstore\n      0x20\n      add\n      swap1\n      dup2\n      mstore\n      0x20\n      add\n      0x00\n      keccak256\n        /* \"custodian.sol\":715:740  trades[id].borrowerAdress */\n      0x01\n      add\n      0x00\n      swap1\n      sload\n      swap1\n      0x0100\n      exp\n      swap1\n      div\n      0xffffffffffffffffffffffffffffffffffffffff\n      and\n        /* \"custodian.sol\":701:740  msg.sender == trades[id].borrowerAdress */\n      0xffffffffffffffffffffffffffffffffffffffff\n      and\n        /* \"custodian.sol\":701:711  msg.sender */\n      caller\n        /* \"custodian.sol\":701:740  msg.sender == trades[id].borrowerAdress */\n      0xffffffffffffffffffffffffffffffffffffffff\n      and\n      eq\n        /* \"custodian.sol\":701:781  msg.sender == trades[id].borrowerAdress || msg.sender == trades[id].lenderAdress */\n      dup1\n      tag_86\n      jumpi\n      pop\n        /* \"custodian.sol\":758:764  trades */\n      0x02\n        /* \"custodian.sol\":758:768  trades[id] */\n      0x00\n        /* \"custodian.sol\":765:767  id */\n      dup3\n        /* \"custodian.sol\":758:768  trades[id] */\n      dup2\n      mstore\n      0x20\n      add\n      swap1\n      dup2\n      mstore\n      0x20\n      add\n      0x00\n      keccak256\n        /* \"custodian.sol\":758:781  trades[id].lenderAdress */\n      0x02\n      add\n      0x00\n      swap1\n      sload\n      swap1\n      0x0100\n      exp\n      swap1\n      div\n      0xffffffffffffffffffffffffffffffffffffffff\n      and\n        /* \"custodian.sol\":744:781  msg.sender == trades[id].lenderAdress */\n      0xffffffffffffffffffffffffffffffffffffffff\n      and\n        /* \"custodian.sol\":744:754  msg.sender */\n      caller\n        /* \"custodian.sol\":744:781  msg.sender == trades[id].lenderAdress */\n      0xffffffffffffffffffffffffffffffffffffffff\n      and\n      eq\n        /* \"custodian.sol\":701:781  msg.sender == trades[id].borrowerAdress || msg.sender == trades[id].lenderAdress */\n    tag_86:\n        /* \"custodian.sol\":693:801  require(msg.sender == trades[id].borrowerAdress || msg.sender == trades[id].lenderAdress, \"privilege acces\") */\n      tag_87\n      jumpi\n      mload(0x40)\n      0x08c379a000000000000000000000000000000000000000000000000000000000\n      dup2\n      mstore\n      0x04\n      add\n      tag_88\n      swap1\n      tag_48\n      jump\t// in\n    tag_88:\n      mload(0x40)\n      dup1\n      swap2\n      sub\n      swap1\n      revert\n    tag_87:\n        /* \"custodian.sol\":2223:2225  id */\n      dup2\n        /* \"custodian.sol\":2226:2235  msg.value */\n      callvalue\n        /* \"custodian.sol\":1232:1253  valuateCollateral(id) */\n      tag_90\n        /* \"custodian.sol\":1250:1252  id */\n      dup3\n        /* \"custodian.sol\":1232:1249  valuateCollateral */\n      tag_28\n        /* \"custodian.sol\":1232:1253  valuateCollateral(id) */\n      jump\t// in\n    tag_90:\n        /* \"custodian.sol\":1227:1231  cash */\n      dup2\n        /* \"custodian.sol\":1227:1253  cash>valuateCollateral(id) */\n      gt\n        /* \"custodian.sol\":1219:1320  require(cash>valuateCollateral(id), \"Cash not fully collateralized,borrower can add more collateral\") */\n      tag_91\n      jumpi\n      mload(0x40)\n      0x08c379a000000000000000000000000000000000000000000000000000000000\n      dup2\n      mstore\n      0x04\n      add\n      tag_92\n      swap1\n      tag_93\n      jump\t// in\n    tag_92:\n      mload(0x40)\n      dup1\n      swap2\n      sub\n      swap1\n      revert\n    tag_91:\n        /* \"custodian.sol\":2255:2279  address payable borrower */\n      0x00\n        /* \"custodian.sol\":2281:2287  trades */\n      0x02\n        /* \"custodian.sol\":2281:2291  trades[id] */\n      0x00\n        /* \"custodian.sol\":2288:2290  id */\n      dup7\n        /* \"custodian.sol\":2281:2291  trades[id] */\n      dup2\n      mstore\n      0x20\n      add\n      swap1\n      dup2\n      mstore\n      0x20\n      add\n      0x00\n      keccak256\n        /* \"custodian.sol\":2281:2306  trades[id].borrowerAdress */\n      0x01\n      add\n      0x00\n      swap1\n      sload\n      swap1\n      0x0100\n      exp\n      swap1\n      div\n      0xffffffffffffffffffffffffffffffffffffffff\n      and\n        /* \"custodian.sol\":2255:2306  address payable borrower =trades[id].borrowerAdress */\n      swap1\n      pop\n        /* \"custodian.sol\":2316:2324  borrower */\n      dup1\n        /* \"custodian.sol\":2316:2333  borrower.transfer */\n      0xffffffffffffffffffffffffffffffffffffffff\n      and\n        /* \"custodian.sol\":2316:2344  borrower.transfer(msg.value) */\n      0x08fc\n        /* \"custodian.sol\":2334:2343  msg.value */\n      callvalue\n        /* \"custodian.sol\":2316:2344  borrower.transfer(msg.value) */\n      swap1\n      dup2\n      iszero\n      mul\n      swap1\n      mload(0x40)\n      0x00\n      mload(0x40)\n      dup1\n      dup4\n      sub\n      dup2\n      dup6\n      dup9\n      dup9\n      call\n      swap4\n      pop\n      pop\n      pop\n      pop\n      iszero\n      dup1\n      iszero\n      tag_96\n      jumpi\n      returndatasize\n      0x00\n      dup1\n      returndatacopy\n      revert(0x00, returndatasize)\n    tag_96:\n      pop\n        /* \"custodian.sol\":1330:1331  _ */\n      pop\n        /* \"custodian.sol\":811:812  _ */\n      pop\n      pop\n        /* \"custodian.sol\":2142:2351  function submitCashToBorrower(uint id) public restricted(id) fullyCollateralized(id,msg.value) payable {... */\n      pop\n      pop\n      jump\t// out\n        /* \"custodian.sol\":2836:2974  function random() private view returns (uint) {... */\n    tag_41:\n        /* \"custodian.sol\":2876:2880  uint */\n      0x00\n        /* \"custodian.sol\":2931:2947  block.difficulty */\n      difficulty\n        /* \"custodian.sol\":2949:2964  block.timestamp */\n      timestamp\n        /* \"custodian.sol\":2914:2965  abi.encodePacked(block.difficulty, block.timestamp) */\n      add(0x20, mload(0x40))\n      tag_98\n      swap3\n      swap2\n      swap1\n      tag_99\n      jump\t// in\n    tag_98:\n      mload(0x40)\n      0x20\n      dup2\n      dup4\n      sub\n      sub\n      dup2\n      mstore\n      swap1\n      0x40\n      mstore\n        /* \"custodian.sol\":2904:2966  keccak256(abi.encodePacked(block.difficulty, block.timestamp)) */\n      dup1\n      mload\n      swap1\n      0x20\n      add\n      keccak256\n        /* \"custodian.sol\":2899:2967  uint(keccak256(abi.encodePacked(block.difficulty, block.timestamp))) */\n      0x00\n      shr\n        /* \"custodian.sol\":2892:2967  return uint(keccak256(abi.encodePacked(block.difficulty, block.timestamp))) */\n      swap1\n      pop\n        /* \"custodian.sol\":2836:2974  function random() private view returns (uint) {... */\n      swap1\n      jump\t// out\n    tag_61:\n      dup3\n      dup1\n      sload\n      tag_100\n      swap1\n      tag_101\n      jump\t// in\n    tag_100:\n      swap1\n      0x00\n      mstore\n      keccak256(0x00, 0x20)\n      swap1\n      0x1f\n      add\n      0x20\n      swap1\n      div\n      dup2\n      add\n      swap3\n      dup3\n      tag_103\n      jumpi\n      0x00\n      dup6\n      sstore\n      jump(tag_102)\n    tag_103:\n      dup3\n      0x1f\n      lt\n      tag_104\n      jumpi\n      dup1\n      mload\n      not(0xff)\n      and\n      dup4\n      dup1\n      add\n      or\n      dup6\n      sstore\n      jump(tag_102)\n    tag_104:\n      dup3\n      dup1\n      add\n      0x01\n      add\n      dup6\n      sstore\n      dup3\n      iszero\n      tag_102\n      jumpi\n      swap2\n      dup3\n      add\n    tag_105:\n      dup3\n      dup2\n      gt\n      iszero\n      tag_106\n      jumpi\n      dup3\n      mload\n      dup3\n      sstore\n      swap2\n      0x20\n      add\n      swap2\n      swap1\n      0x01\n      add\n      swap1\n      jump(tag_105)\n    tag_106:\n    tag_102:\n      pop\n      swap1\n      pop\n      tag_107\n      swap2\n      swap1\n      tag_108\n      jump\t// in\n    tag_107:\n      pop\n      swap1\n      jump\t// out\n    tag_108:\n    tag_109:\n      dup1\n      dup3\n      gt\n      iszero\n      tag_110\n      jumpi\n      0x00\n      dup2\n      0x00\n      swap1\n      sstore\n      pop\n      0x01\n      add\n      jump(tag_109)\n    tag_110:\n      pop\n      swap1\n      jump\t// out\n        /* \"#utility.yul\":7:351   */\n    tag_112:\n      0x00\n        /* \"#utility.yul\":110:175   */\n      tag_114\n        /* \"#utility.yul\":125:174   */\n      tag_115\n        /* \"#utility.yul\":167:173   */\n      dup5\n        /* \"#utility.yul\":125:174   */\n      tag_116\n      jump\t// in\n    tag_115:\n        /* \"#utility.yul\":110:175   */\n      tag_117\n      jump\t// in\n    tag_114:\n        /* \"#utility.yul\":101:175   */\n      swap1\n      pop\n        /* \"#utility.yul\":198:204   */\n      dup3\n        /* \"#utility.yul\":191:196   */\n      dup2\n        /* \"#utility.yul\":184:205   */\n      mstore\n        /* \"#utility.yul\":236:240   */\n      0x20\n        /* \"#utility.yul\":229:234   */\n      dup2\n        /* \"#utility.yul\":225:241   */\n      add\n        /* \"#utility.yul\":274:277   */\n      dup5\n        /* \"#utility.yul\":265:271   */\n      dup5\n        /* \"#utility.yul\":260:263   */\n      dup5\n        /* \"#utility.yul\":256:272   */\n      add\n        /* \"#utility.yul\":253:278   */\n      gt\n        /* \"#utility.yul\":250:252   */\n      iszero\n      tag_118\n      jumpi\n        /* \"#utility.yul\":291:292   */\n      0x00\n        /* \"#utility.yul\":288:289   */\n      dup1\n        /* \"#utility.yul\":281:293   */\n      revert\n        /* \"#utility.yul\":250:252   */\n    tag_118:\n        /* \"#utility.yul\":304:345   */\n      tag_119\n        /* \"#utility.yul\":338:344   */\n      dup5\n        /* \"#utility.yul\":333:336   */\n      dup3\n        /* \"#utility.yul\":328:331   */\n      dup6\n        /* \"#utility.yul\":304:345   */\n      tag_120\n      jump\t// in\n    tag_119:\n        /* \"#utility.yul\":91:351   */\n      pop\n      swap4\n      swap3\n      pop\n      pop\n      pop\n      jump\t// out\n        /* \"#utility.yul\":357:512   */\n    tag_121:\n      0x00\n        /* \"#utility.yul\":449:455   */\n      dup2\n        /* \"#utility.yul\":436:456   */\n      calldataload\n        /* \"#utility.yul\":427:456   */\n      swap1\n      pop\n        /* \"#utility.yul\":465:506   */\n      tag_123\n        /* \"#utility.yul\":500:505   */\n      dup2\n        /* \"#utility.yul\":465:506   */\n      tag_124\n      jump\t// in\n    tag_123:\n        /* \"#utility.yul\":417:512   */\n      swap3\n      swap2\n      pop\n      pop\n      jump\t// out\n        /* \"#utility.yul\":518:651   */\n    tag_125:\n      0x00\n        /* \"#utility.yul\":599:605   */\n      dup2\n        /* \"#utility.yul\":586:606   */\n      calldataload\n        /* \"#utility.yul\":577:606   */\n      swap1\n      pop\n        /* \"#utility.yul\":615:645   */\n      tag_127\n        /* \"#utility.yul\":639:644   */\n      dup2\n        /* \"#utility.yul\":615:645   */\n      tag_128\n      jump\t// in\n    tag_127:\n        /* \"#utility.yul\":567:651   */\n      swap3\n      swap2\n      pop\n      pop\n      jump\t// out\n        /* \"#utility.yul\":671:944   */\n    tag_129:\n      0x00\n        /* \"#utility.yul\":776:779   */\n      dup3\n        /* \"#utility.yul\":769:773   */\n      0x1f\n        /* \"#utility.yul\":761:767   */\n      dup4\n        /* \"#utility.yul\":757:774   */\n      add\n        /* \"#utility.yul\":753:780   */\n      slt\n        /* \"#utility.yul\":743:745   */\n      tag_131\n      jumpi\n        /* \"#utility.yul\":794:795   */\n      0x00\n        /* \"#utility.yul\":791:792   */\n      dup1\n        /* \"#utility.yul\":784:796   */\n      revert\n        /* \"#utility.yul\":743:745   */\n    tag_131:\n        /* \"#utility.yul\":834:840   */\n      dup2\n        /* \"#utility.yul\":821:841   */\n      calldataload\n        /* \"#utility.yul\":859:938   */\n      tag_132\n        /* \"#utility.yul\":934:937   */\n      dup5\n        /* \"#utility.yul\":926:932   */\n      dup3\n        /* \"#utility.yul\":919:923   */\n      0x20\n        /* \"#utility.yul\":911:917   */\n      dup7\n        /* \"#utility.yul\":907:924   */\n      add\n        /* \"#utility.yul\":859:938   */\n      tag_112\n      jump\t// in\n    tag_132:\n        /* \"#utility.yul\":850:938   */\n      swap2\n      pop\n        /* \"#utility.yul\":733:944   */\n      pop\n      swap3\n      swap2\n      pop\n      pop\n      jump\t// out\n        /* \"#utility.yul\":985:1924   */\n    tag_133:\n      0x00\n        /* \"#utility.yul\":1104:1108   */\n      0x80\n        /* \"#utility.yul\":1092:1101   */\n      dup3\n        /* \"#utility.yul\":1087:1090   */\n      dup5\n        /* \"#utility.yul\":1083:1102   */\n      sub\n        /* \"#utility.yul\":1079:1109   */\n      slt\n        /* \"#utility.yul\":1076:1078   */\n      iszero\n      tag_135\n      jumpi\n        /* \"#utility.yul\":1122:1123   */\n      0x00\n        /* \"#utility.yul\":1119:1120   */\n      dup1\n        /* \"#utility.yul\":1112:1124   */\n      revert\n        /* \"#utility.yul\":1076:1078   */\n    tag_135:\n        /* \"#utility.yul\":1144:1164   */\n      tag_136\n        /* \"#utility.yul\":1159:1163   */\n      0x80\n        /* \"#utility.yul\":1144:1164   */\n      tag_117\n      jump\t// in\n    tag_136:\n        /* \"#utility.yul\":1135:1164   */\n      swap1\n      pop\n        /* \"#utility.yul\":1252:1253   */\n      0x00\n        /* \"#utility.yul\":1241:1250   */\n      dup3\n        /* \"#utility.yul\":1237:1254   */\n      add\n        /* \"#utility.yul\":1224:1255   */\n      calldataload\n        /* \"#utility.yul\":1282:1300   */\n      0xffffffffffffffff\n        /* \"#utility.yul\":1274:1280   */\n      dup2\n        /* \"#utility.yul\":1271:1301   */\n      gt\n        /* \"#utility.yul\":1268:1270   */\n      iszero\n      tag_137\n      jumpi\n        /* \"#utility.yul\":1314:1315   */\n      0x00\n        /* \"#utility.yul\":1311:1312   */\n      dup1\n        /* \"#utility.yul\":1304:1316   */\n      revert\n        /* \"#utility.yul\":1268:1270   */\n    tag_137:\n        /* \"#utility.yul\":1357:1416   */\n      tag_138\n        /* \"#utility.yul\":1412:1415   */\n      dup5\n        /* \"#utility.yul\":1403:1409   */\n      dup3\n        /* \"#utility.yul\":1392:1401   */\n      dup6\n        /* \"#utility.yul\":1388:1410   */\n      add\n        /* \"#utility.yul\":1357:1416   */\n      tag_129\n      jump\t// in\n    tag_138:\n        /* \"#utility.yul\":1350:1354   */\n      0x00\n        /* \"#utility.yul\":1343:1348   */\n      dup4\n        /* \"#utility.yul\":1339:1355   */\n      add\n        /* \"#utility.yul\":1332:1417   */\n      mstore\n        /* \"#utility.yul\":1174:1428   */\n      pop\n        /* \"#utility.yul\":1488:1490   */\n      0x20\n        /* \"#utility.yul\":1529:1578   */\n      tag_139\n        /* \"#utility.yul\":1574:1577   */\n      dup5\n        /* \"#utility.yul\":1565:1571   */\n      dup3\n        /* \"#utility.yul\":1554:1563   */\n      dup6\n        /* \"#utility.yul\":1550:1572   */\n      add\n        /* \"#utility.yul\":1529:1578   */\n      tag_140\n      jump\t// in\n    tag_139:\n        /* \"#utility.yul\":1522:1526   */\n      0x20\n        /* \"#utility.yul\":1515:1520   */\n      dup4\n        /* \"#utility.yul\":1511:1527   */\n      add\n        /* \"#utility.yul\":1504:1579   */\n      mstore\n        /* \"#utility.yul\":1438:1590   */\n      pop\n        /* \"#utility.yul\":1653:1655   */\n      0x40\n        /* \"#utility.yul\":1694:1743   */\n      tag_141\n        /* \"#utility.yul\":1739:1742   */\n      dup5\n        /* \"#utility.yul\":1730:1736   */\n      dup3\n        /* \"#utility.yul\":1719:1728   */\n      dup6\n        /* \"#utility.yul\":1715:1737   */\n      add\n        /* \"#utility.yul\":1694:1743   */\n      tag_140\n      jump\t// in\n    tag_141:\n        /* \"#utility.yul\":1687:1691   */\n      0x40\n        /* \"#utility.yul\":1680:1685   */\n      dup4\n        /* \"#utility.yul\":1676:1692   */\n      add\n        /* \"#utility.yul\":1669:1744   */\n      mstore\n        /* \"#utility.yul\":1600:1755   */\n      pop\n        /* \"#utility.yul\":1815:1817   */\n      0x60\n        /* \"#utility.yul\":1856:1905   */\n      tag_142\n        /* \"#utility.yul\":1901:1904   */\n      dup5\n        /* \"#utility.yul\":1892:1898   */\n      dup3\n        /* \"#utility.yul\":1881:1890   */\n      dup6\n        /* \"#utility.yul\":1877:1899   */\n      add\n        /* \"#utility.yul\":1856:1905   */\n      tag_140\n      jump\t// in\n    tag_142:\n        /* \"#utility.yul\":1849:1853   */\n      0x60\n        /* \"#utility.yul\":1842:1847   */\n      dup4\n        /* \"#utility.yul\":1838:1854   */\n      add\n        /* \"#utility.yul\":1831:1906   */\n      mstore\n        /* \"#utility.yul\":1765:1917   */\n      pop\n        /* \"#utility.yul\":1066:1924   */\n      swap3\n      swap2\n      pop\n      pop\n      jump\t// out\n        /* \"#utility.yul\":1930:2069   */\n    tag_140:\n      0x00\n        /* \"#utility.yul\":2014:2020   */\n      dup2\n        /* \"#utility.yul\":2001:2021   */\n      calldataload\n        /* \"#utility.yul\":1992:2021   */\n      swap1\n      pop\n        /* \"#utility.yul\":2030:2063   */\n      tag_144\n        /* \"#utility.yul\":2057:2062   */\n      dup2\n        /* \"#utility.yul\":2030:2063   */\n      tag_145\n      jump\t// in\n    tag_144:\n        /* \"#utility.yul\":1982:2069   */\n      swap3\n      swap2\n      pop\n      pop\n      jump\t// out\n        /* \"#utility.yul\":2075:2935   */\n    tag_18:\n      0x00\n      dup1\n      0x00\n      dup1\n      0x00\n        /* \"#utility.yul\":2259:2262   */\n      0xa0\n        /* \"#utility.yul\":2247:2256   */\n      dup7\n        /* \"#utility.yul\":2238:2245   */\n      dup9\n        /* \"#utility.yul\":2234:2257   */\n      sub\n        /* \"#utility.yul\":2230:2263   */\n      slt\n        /* \"#utility.yul\":2227:2229   */\n      iszero\n      tag_147\n      jumpi\n        /* \"#utility.yul\":2276:2277   */\n      0x00\n        /* \"#utility.yul\":2273:2274   */\n      dup1\n        /* \"#utility.yul\":2266:2278   */\n      revert\n        /* \"#utility.yul\":2227:2229   */\n    tag_147:\n        /* \"#utility.yul\":2319:2320   */\n      0x00\n        /* \"#utility.yul\":2344:2405   */\n      tag_148\n        /* \"#utility.yul\":2397:2404   */\n      dup9\n        /* \"#utility.yul\":2388:2394   */\n      dup3\n        /* \"#utility.yul\":2377:2386   */\n      dup10\n        /* \"#utility.yul\":2373:2395   */\n      add\n        /* \"#utility.yul\":2344:2405   */\n      tag_121\n      jump\t// in\n    tag_148:\n        /* \"#utility.yul\":2334:2405   */\n      swap6\n      pop\n        /* \"#utility.yul\":2290:2415   */\n      pop\n        /* \"#utility.yul\":2454:2456   */\n      0x20\n        /* \"#utility.yul\":2480:2533   */\n      tag_149\n        /* \"#utility.yul\":2525:2532   */\n      dup9\n        /* \"#utility.yul\":2516:2522   */\n      dup3\n        /* \"#utility.yul\":2505:2514   */\n      dup10\n        /* \"#utility.yul\":2501:2523   */\n      add\n        /* \"#utility.yul\":2480:2533   */\n      tag_140\n      jump\t// in\n    tag_149:\n        /* \"#utility.yul\":2470:2533   */\n      swap5\n      pop\n        /* \"#utility.yul\":2425:2543   */\n      pop\n        /* \"#utility.yul\":2582:2584   */\n      0x40\n        /* \"#utility.yul\":2608:2661   */\n      tag_150\n        /* \"#utility.yul\":2653:2660   */\n      dup9\n        /* \"#utility.yul\":2644:2650   */\n      dup3\n        /* \"#utility.yul\":2633:2642   */\n      dup10\n        /* \"#utility.yul\":2629:2651   */\n      add\n        /* \"#utility.yul\":2608:2661   */\n      tag_140\n      jump\t// in\n    tag_150:\n        /* \"#utility.yul\":2598:2661   */\n      swap4\n      pop\n        /* \"#utility.yul\":2553:2671   */\n      pop\n        /* \"#utility.yul\":2710:2712   */\n      0x60\n        /* \"#utility.yul\":2736:2789   */\n      tag_151\n        /* \"#utility.yul\":2781:2788   */\n      dup9\n        /* \"#utility.yul\":2772:2778   */\n      dup3\n        /* \"#utility.yul\":2761:2770   */\n      dup10\n        /* \"#utility.yul\":2757:2779   */\n      add\n        /* \"#utility.yul\":2736:2789   */\n      tag_140\n      jump\t// in\n    tag_151:\n        /* \"#utility.yul\":2726:2789   */\n      swap3\n      pop\n        /* \"#utility.yul\":2681:2799   */\n      pop\n        /* \"#utility.yul\":2838:2841   */\n      0x80\n        /* \"#utility.yul\":2865:2918   */\n      tag_152\n        /* \"#utility.yul\":2910:2917   */\n      dup9\n        /* \"#utility.yul\":2901:2907   */\n      dup3\n        /* \"#utility.yul\":2890:2899   */\n      dup10\n        /* \"#utility.yul\":2886:2908   */\n      add\n        /* \"#utility.yul\":2865:2918   */\n      tag_140\n      jump\t// in\n    tag_152:\n        /* \"#utility.yul\":2855:2918   */\n      swap2\n      pop\n        /* \"#utility.yul\":2809:2928   */\n      pop\n        /* \"#utility.yul\":2217:2935   */\n      swap3\n      swap6\n      pop\n      swap3\n      swap6\n      swap1\n      swap4\n      pop\n      jump\t// out\n        /* \"#utility.yul\":2941:3342   */\n    tag_34:\n      0x00\n      dup1\n        /* \"#utility.yul\":3063:3065   */\n      0x40\n        /* \"#utility.yul\":3051:3060   */\n      dup4\n        /* \"#utility.yul\":3042:3049   */\n      dup6\n        /* \"#utility.yul\":3038:3061   */\n      sub\n        /* \"#utility.yul\":3034:3066   */\n      slt\n        /* \"#utility.yul\":3031:3033   */\n      iszero\n      tag_154\n      jumpi\n        /* \"#utility.yul\":3079:3080   */\n      0x00\n        /* \"#utility.yul\":3076:3077   */\n      dup1\n        /* \"#utility.yul\":3069:3081   */\n      revert\n        /* \"#utility.yul\":3031:3033   */\n    tag_154:\n        /* \"#utility.yul\":3122:3123   */\n      0x00\n        /* \"#utility.yul\":3147:3197   */\n      tag_155\n        /* \"#utility.yul\":3189:3196   */\n      dup6\n        /* \"#utility.yul\":3180:3186   */\n      dup3\n        /* \"#utility.yul\":3169:3178   */\n      dup7\n        /* \"#utility.yul\":3165:3187   */\n      add\n        /* \"#utility.yul\":3147:3197   */\n      tag_125\n      jump\t// in\n    tag_155:\n        /* \"#utility.yul\":3137:3197   */\n      swap3\n      pop\n        /* \"#utility.yul\":3093:3207   */\n      pop\n        /* \"#utility.yul\":3246:3248   */\n      0x20\n        /* \"#utility.yul\":3272:3325   */\n      tag_156\n        /* \"#utility.yul\":3317:3324   */\n      dup6\n        /* \"#utility.yul\":3308:3314   */\n      dup3\n        /* \"#utility.yul\":3297:3306   */\n      dup7\n        /* \"#utility.yul\":3293:3315   */\n      add\n        /* \"#utility.yul\":3272:3325   */\n      tag_140\n      jump\t// in\n    tag_156:\n        /* \"#utility.yul\":3262:3325   */\n      swap2\n      pop\n        /* \"#utility.yul\":3217:3335   */\n      pop\n        /* \"#utility.yul\":3021:3342   */\n      swap3\n      pop\n      swap3\n      swap1\n      pop\n      jump\t// out\n        /* \"#utility.yul\":3348:3900   */\n    tag_23:\n      0x00\n      dup1\n        /* \"#utility.yul\":3499:3501   */\n      0x40\n        /* \"#utility.yul\":3487:3496   */\n      dup4\n        /* \"#utility.yul\":3478:3485   */\n      dup6\n        /* \"#utility.yul\":3474:3497   */\n      sub\n        /* \"#utility.yul\":3470:3502   */\n      slt\n        /* \"#utility.yul\":3467:3469   */\n      iszero\n      tag_158\n      jumpi\n        /* \"#utility.yul\":3515:3516   */\n      0x00\n        /* \"#utility.yul\":3512:3513   */\n      dup1\n        /* \"#utility.yul\":3505:3517   */\n      revert\n        /* \"#utility.yul\":3467:3469   */\n    tag_158:\n        /* \"#utility.yul\":3586:3587   */\n      0x00\n        /* \"#utility.yul\":3575:3584   */\n      dup4\n        /* \"#utility.yul\":3571:3588   */\n      add\n        /* \"#utility.yul\":3558:3589   */\n      calldataload\n        /* \"#utility.yul\":3616:3634   */\n      0xffffffffffffffff\n        /* \"#utility.yul\":3608:3614   */\n      dup2\n        /* \"#utility.yul\":3605:3635   */\n      gt\n        /* \"#utility.yul\":3602:3604   */\n      iszero\n      tag_159\n      jumpi\n        /* \"#utility.yul\":3648:3649   */\n      0x00\n        /* \"#utility.yul\":3645:3646   */\n      dup1\n        /* \"#utility.yul\":3638:3650   */\n      revert\n        /* \"#utility.yul\":3602:3604   */\n    tag_159:\n        /* \"#utility.yul\":3676:3755   */\n      tag_160\n        /* \"#utility.yul\":3747:3754   */\n      dup6\n        /* \"#utility.yul\":3738:3744   */\n      dup3\n        /* \"#utility.yul\":3727:3736   */\n      dup7\n        /* \"#utility.yul\":3723:3745   */\n      add\n        /* \"#utility.yul\":3676:3755   */\n      tag_133\n      jump\t// in\n    tag_160:\n        /* \"#utility.yul\":3666:3755   */\n      swap3\n      pop\n        /* \"#utility.yul\":3529:3765   */\n      pop\n        /* \"#utility.yul\":3804:3806   */\n      0x20\n        /* \"#utility.yul\":3830:3883   */\n      tag_161\n        /* \"#utility.yul\":3875:3882   */\n      dup6\n        /* \"#utility.yul\":3866:3872   */\n      dup3\n        /* \"#utility.yul\":3855:3864   */\n      dup7\n        /* \"#utility.yul\":3851:3873   */\n      add\n        /* \"#utility.yul\":3830:3883   */\n      tag_140\n      jump\t// in\n    tag_161:\n        /* \"#utility.yul\":3820:3883   */\n      swap2\n      pop\n        /* \"#utility.yul\":3775:3893   */\n      pop\n        /* \"#utility.yul\":3457:3900   */\n      swap3\n      pop\n      swap3\n      swap1\n      pop\n      jump\t// out\n        /* \"#utility.yul\":3906:4168   */\n    tag_11:\n      0x00\n        /* \"#utility.yul\":4014:4016   */\n      0x20\n        /* \"#utility.yul\":4002:4011   */\n      dup3\n        /* \"#utility.yul\":3993:4000   */\n      dup5\n        /* \"#utility.yul\":3989:4012   */\n      sub\n        /* \"#utility.yul\":3985:4017   */\n      slt\n        /* \"#utility.yul\":3982:3984   */\n      iszero\n      tag_163\n      jumpi\n        /* \"#utility.yul\":4030:4031   */\n      0x00\n        /* \"#utility.yul\":4027:4028   */\n      dup1\n        /* \"#utility.yul\":4020:4032   */\n      revert\n        /* \"#utility.yul\":3982:3984   */\n    tag_163:\n        /* \"#utility.yul\":4073:4074   */\n      0x00\n        /* \"#utility.yul\":4098:4151   */\n      tag_164\n        /* \"#utility.yul\":4143:4150   */\n      dup5\n        /* \"#utility.yul\":4134:4140   */\n      dup3\n        /* \"#utility.yul\":4123:4132   */\n      dup6\n        /* \"#utility.yul\":4119:4141   */\n      add\n        /* \"#utility.yul\":4098:4151   */\n      tag_140\n      jump\t// in\n    tag_164:\n        /* \"#utility.yul\":4088:4151   */\n      swap2\n      pop\n        /* \"#utility.yul\":4044:4161   */\n      pop\n        /* \"#utility.yul\":3972:4168   */\n      swap3\n      swap2\n      pop\n      pop\n      jump\t// out\n        /* \"#utility.yul\":4174:4316   */\n    tag_165:\n        /* \"#utility.yul\":4277:4309   */\n      tag_167\n        /* \"#utility.yul\":4303:4308   */\n      dup2\n        /* \"#utility.yul\":4277:4309   */\n      tag_168\n      jump\t// in\n    tag_167:\n        /* \"#utility.yul\":4272:4275   */\n      dup3\n        /* \"#utility.yul\":4265:4310   */\n      mstore\n        /* \"#utility.yul\":4255:4316   */\n      pop\n      pop\n      jump\t// out\n        /* \"#utility.yul\":4322:4440   */\n    tag_169:\n        /* \"#utility.yul\":4409:4433   */\n      tag_171\n        /* \"#utility.yul\":4427:4432   */\n      dup2\n        /* \"#utility.yul\":4409:4433   */\n      tag_172\n      jump\t// in\n    tag_171:\n        /* \"#utility.yul\":4404:4407   */\n      dup3\n        /* \"#utility.yul\":4397:4434   */\n      mstore\n        /* \"#utility.yul\":4387:4440   */\n      pop\n      pop\n      jump\t// out\n        /* \"#utility.yul\":4446:4555   */\n    tag_173:\n        /* \"#utility.yul\":4527:4548   */\n      tag_175\n        /* \"#utility.yul\":4542:4547   */\n      dup2\n        /* \"#utility.yul\":4527:4548   */\n      tag_176\n      jump\t// in\n    tag_175:\n        /* \"#utility.yul\":4522:4525   */\n      dup3\n        /* \"#utility.yul\":4515:4549   */\n      mstore\n        /* \"#utility.yul\":4505:4555   */\n      pop\n      pop\n      jump\t// out\n        /* \"#utility.yul\":4561:4874   */\n    tag_177:\n      0x00\n        /* \"#utility.yul\":4724:4791   */\n      tag_179\n        /* \"#utility.yul\":4788:4790   */\n      0x0f\n        /* \"#utility.yul\":4783:4786   */\n      dup4\n        /* \"#utility.yul\":4724:4791   */\n      tag_180\n      jump\t// in\n    tag_179:\n        /* \"#utility.yul\":4717:4791   */\n      swap2\n      pop\n        /* \"#utility.yul\":4821:4838   */\n      0x70726976696c6567652061636365730000000000000000000000000000000000\n        /* \"#utility.yul\":4817:4818   */\n      0x00\n        /* \"#utility.yul\":4812:4815   */\n      dup4\n        /* \"#utility.yul\":4808:4819   */\n      add\n        /* \"#utility.yul\":4801:4839   */\n      mstore\n        /* \"#utility.yul\":4865:4867   */\n      0x20\n        /* \"#utility.yul\":4860:4863   */\n      dup3\n        /* \"#utility.yul\":4856:4868   */\n      add\n        /* \"#utility.yul\":4849:4868   */\n      swap1\n      pop\n        /* \"#utility.yul\":4707:4874   */\n      swap2\n      swap1\n      pop\n      jump\t// out\n        /* \"#utility.yul\":4880:5205   */\n    tag_181:\n      0x00\n        /* \"#utility.yul\":5043:5110   */\n      tag_183\n        /* \"#utility.yul\":5107:5109   */\n      0x1b\n        /* \"#utility.yul\":5102:5105   */\n      dup4\n        /* \"#utility.yul\":5043:5110   */\n      tag_180\n      jump\t// in\n    tag_183:\n        /* \"#utility.yul\":5036:5110   */\n      swap2\n      pop\n        /* \"#utility.yul\":5140:5169   */\n      0x636f6c6c61746572616c206973206e6f74207065726d69747465640000000000\n        /* \"#utility.yul\":5136:5137   */\n      0x00\n        /* \"#utility.yul\":5131:5134   */\n      dup4\n        /* \"#utility.yul\":5127:5138   */\n      add\n        /* \"#utility.yul\":5120:5170   */\n      mstore\n        /* \"#utility.yul\":5196:5198   */\n      0x20\n        /* \"#utility.yul\":5191:5194   */\n      dup3\n        /* \"#utility.yul\":5187:5199   */\n      add\n        /* \"#utility.yul\":5180:5199   */\n      swap1\n      pop\n        /* \"#utility.yul\":5026:5205   */\n      swap2\n      swap1\n      pop\n      jump\t// out\n        /* \"#utility.yul\":5211:5577   */\n    tag_184:\n      0x00\n        /* \"#utility.yul\":5374:5441   */\n      tag_186\n        /* \"#utility.yul\":5438:5440   */\n      0x22\n        /* \"#utility.yul\":5433:5436   */\n      dup4\n        /* \"#utility.yul\":5374:5441   */\n      tag_180\n      jump\t// in\n    tag_186:\n        /* \"#utility.yul\":5367:5441   */\n      swap2\n      pop\n        /* \"#utility.yul\":5471:5505   */\n      0x7472616465206e6f7420617070726f76656420627920626f7468207061727469\n        /* \"#utility.yul\":5467:5468   */\n      0x00\n        /* \"#utility.yul\":5462:5465   */\n      dup4\n        /* \"#utility.yul\":5458:5469   */\n      add\n        /* \"#utility.yul\":5451:5506   */\n      mstore\n        /* \"#utility.yul\":5537:5541   */\n      0x6573000000000000000000000000000000000000000000000000000000000000\n        /* \"#utility.yul\":5532:5534   */\n      0x20\n        /* \"#utility.yul\":5527:5530   */\n      dup4\n        /* \"#utility.yul\":5523:5535   */\n      add\n        /* \"#utility.yul\":5516:5542   */\n      mstore\n        /* \"#utility.yul\":5568:5570   */\n      0x40\n        /* \"#utility.yul\":5563:5566   */\n      dup3\n        /* \"#utility.yul\":5559:5571   */\n      add\n        /* \"#utility.yul\":5552:5571   */\n      swap1\n      pop\n        /* \"#utility.yul\":5357:5577   */\n      swap2\n      swap1\n      pop\n      jump\t// out\n        /* \"#utility.yul\":5583:5977   */\n    tag_187:\n      0x00\n        /* \"#utility.yul\":5746:5813   */\n      tag_189\n        /* \"#utility.yul\":5810:5812   */\n      0x3e\n        /* \"#utility.yul\":5805:5808   */\n      dup4\n        /* \"#utility.yul\":5746:5813   */\n      tag_180\n      jump\t// in\n    tag_189:\n        /* \"#utility.yul\":5739:5813   */\n      swap2\n      pop\n        /* \"#utility.yul\":5843:5877   */\n      0x43617368206e6f742066756c6c7920636f6c6c61746572616c697a65642c626f\n        /* \"#utility.yul\":5839:5840   */\n      0x00\n        /* \"#utility.yul\":5834:5837   */\n      dup4\n        /* \"#utility.yul\":5830:5841   */\n      add\n        /* \"#utility.yul\":5823:5878   */\n      mstore\n        /* \"#utility.yul\":5909:5941   */\n      0x72726f7765722063616e20616464206d6f726520636f6c6c61746572616c0000\n        /* \"#utility.yul\":5904:5906   */\n      0x20\n        /* \"#utility.yul\":5899:5902   */\n      dup4\n        /* \"#utility.yul\":5895:5907   */\n      add\n        /* \"#utility.yul\":5888:5942   */\n      mstore\n        /* \"#utility.yul\":5968:5970   */\n      0x40\n        /* \"#utility.yul\":5963:5966   */\n      dup3\n        /* \"#utility.yul\":5959:5971   */\n      add\n        /* \"#utility.yul\":5952:5971   */\n      swap1\n      pop\n        /* \"#utility.yul\":5729:5977   */\n      swap2\n      swap1\n      pop\n      jump\t// out\n        /* \"#utility.yul\":6039:6744   */\n    tag_190:\n        /* \"#utility.yul\":6176:6180   */\n      0x60\n        /* \"#utility.yul\":6171:6174   */\n      dup3\n        /* \"#utility.yul\":6167:6181   */\n      add\n        /* \"#utility.yul\":6276:6280   */\n      0x00\n        /* \"#utility.yul\":6269:6274   */\n      dup3\n        /* \"#utility.yul\":6265:6281   */\n      add\n        /* \"#utility.yul\":6259:6282   */\n      mload\n        /* \"#utility.yul\":6295:6358   */\n      tag_192\n        /* \"#utility.yul\":6352:6356   */\n      0x00\n        /* \"#utility.yul\":6347:6350   */\n      dup6\n        /* \"#utility.yul\":6343:6357   */\n      add\n        /* \"#utility.yul\":6329:6341   */\n      dup3\n        /* \"#utility.yul\":6295:6358   */\n      tag_193\n      jump\t// in\n    tag_192:\n        /* \"#utility.yul\":6191:6368   */\n      pop\n        /* \"#utility.yul\":6461:6465   */\n      0x20\n        /* \"#utility.yul\":6454:6459   */\n      dup3\n        /* \"#utility.yul\":6450:6466   */\n      add\n        /* \"#utility.yul\":6444:6467   */\n      mload\n        /* \"#utility.yul\":6480:6543   */\n      tag_194\n        /* \"#utility.yul\":6537:6541   */\n      0x20\n        /* \"#utility.yul\":6532:6535   */\n      dup6\n        /* \"#utility.yul\":6528:6542   */\n      add\n        /* \"#utility.yul\":6514:6526   */\n      dup3\n        /* \"#utility.yul\":6480:6543   */\n      tag_193\n      jump\t// in\n    tag_194:\n        /* \"#utility.yul\":6378:6553   */\n      pop\n        /* \"#utility.yul\":6645:6649   */\n      0x40\n        /* \"#utility.yul\":6638:6643   */\n      dup3\n        /* \"#utility.yul\":6634:6650   */\n      add\n        /* \"#utility.yul\":6628:6651   */\n      mload\n        /* \"#utility.yul\":6664:6727   */\n      tag_195\n        /* \"#utility.yul\":6721:6725   */\n      0x40\n        /* \"#utility.yul\":6716:6719   */\n      dup6\n        /* \"#utility.yul\":6712:6726   */\n      add\n        /* \"#utility.yul\":6698:6710   */\n      dup3\n        /* \"#utility.yul\":6664:6727   */\n      tag_193\n      jump\t// in\n    tag_195:\n        /* \"#utility.yul\":6563:6737   */\n      pop\n        /* \"#utility.yul\":6145:6744   */\n      pop\n      pop\n      pop\n      jump\t// out\n        /* \"#utility.yul\":6750:6858   */\n    tag_193:\n        /* \"#utility.yul\":6827:6851   */\n      tag_197\n        /* \"#utility.yul\":6845:6850   */\n      dup2\n        /* \"#utility.yul\":6827:6851   */\n      tag_198\n      jump\t// in\n    tag_197:\n        /* \"#utility.yul\":6822:6825   */\n      dup3\n        /* \"#utility.yul\":6815:6852   */\n      mstore\n        /* \"#utility.yul\":6805:6858   */\n      pop\n      pop\n      jump\t// out\n        /* \"#utility.yul\":6864:6982   */\n    tag_199:\n        /* \"#utility.yul\":6951:6975   */\n      tag_201\n        /* \"#utility.yul\":6969:6974   */\n      dup2\n        /* \"#utility.yul\":6951:6975   */\n      tag_198\n      jump\t// in\n    tag_201:\n        /* \"#utility.yul\":6946:6949   */\n      dup3\n        /* \"#utility.yul\":6939:6976   */\n      mstore\n        /* \"#utility.yul\":6929:6982   */\n      pop\n      pop\n      jump\t// out\n        /* \"#utility.yul\":6988:7145   */\n    tag_202:\n        /* \"#utility.yul\":7093:7138   */\n      tag_204\n        /* \"#utility.yul\":7113:7137   */\n      tag_205\n        /* \"#utility.yul\":7131:7136   */\n      dup3\n        /* \"#utility.yul\":7113:7137   */\n      tag_198\n      jump\t// in\n    tag_205:\n        /* \"#utility.yul\":7093:7138   */\n      tag_206\n      jump\t// in\n    tag_204:\n        /* \"#utility.yul\":7088:7091   */\n      dup3\n        /* \"#utility.yul\":7081:7139   */\n      mstore\n        /* \"#utility.yul\":7071:7145   */\n      pop\n      pop\n      jump\t// out\n        /* \"#utility.yul\":7151:7548   */\n    tag_99:\n      0x00\n        /* \"#utility.yul\":7306:7381   */\n      tag_208\n        /* \"#utility.yul\":7377:7380   */\n      dup3\n        /* \"#utility.yul\":7368:7374   */\n      dup6\n        /* \"#utility.yul\":7306:7381   */\n      tag_202\n      jump\t// in\n    tag_208:\n        /* \"#utility.yul\":7406:7408   */\n      0x20\n        /* \"#utility.yul\":7401:7404   */\n      dup3\n        /* \"#utility.yul\":7397:7409   */\n      add\n        /* \"#utility.yul\":7390:7409   */\n      swap2\n      pop\n        /* \"#utility.yul\":7419:7494   */\n      tag_209\n        /* \"#utility.yul\":7490:7493   */\n      dup3\n        /* \"#utility.yul\":7481:7487   */\n      dup5\n        /* \"#utility.yul\":7419:7494   */\n      tag_202\n      jump\t// in\n    tag_209:\n        /* \"#utility.yul\":7519:7521   */\n      0x20\n        /* \"#utility.yul\":7514:7517   */\n      dup3\n        /* \"#utility.yul\":7510:7522   */\n      add\n        /* \"#utility.yul\":7503:7522   */\n      swap2\n      pop\n        /* \"#utility.yul\":7539:7542   */\n      dup2\n        /* \"#utility.yul\":7532:7542   */\n      swap1\n      pop\n        /* \"#utility.yul\":7295:7548   */\n      swap4\n      swap3\n      pop\n      pop\n      pop\n      jump\t// out\n        /* \"#utility.yul\":7554:7973   */\n    tag_48:\n      0x00\n        /* \"#utility.yul\":7758:7760   */\n      0x20\n        /* \"#utility.yul\":7747:7756   */\n      dup3\n        /* \"#utility.yul\":7743:7761   */\n      add\n        /* \"#utility.yul\":7735:7761   */\n      swap1\n      pop\n        /* \"#utility.yul\":7807:7816   */\n      dup2\n        /* \"#utility.yul\":7801:7805   */\n      dup2\n        /* \"#utility.yul\":7797:7817   */\n      sub\n        /* \"#utility.yul\":7793:7794   */\n      0x00\n        /* \"#utility.yul\":7782:7791   */\n      dup4\n        /* \"#utility.yul\":7778:7795   */\n      add\n        /* \"#utility.yul\":7771:7818   */\n      mstore\n        /* \"#utility.yul\":7835:7966   */\n      tag_211\n        /* \"#utility.yul\":7961:7965   */\n      dup2\n        /* \"#utility.yul\":7835:7966   */\n      tag_177\n      jump\t// in\n    tag_211:\n        /* \"#utility.yul\":7827:7966   */\n      swap1\n      pop\n        /* \"#utility.yul\":7725:7973   */\n      swap2\n      swap1\n      pop\n      jump\t// out\n        /* \"#utility.yul\":7979:8398   */\n    tag_56:\n      0x00\n        /* \"#utility.yul\":8183:8185   */\n      0x20\n        /* \"#utility.yul\":8172:8181   */\n      dup3\n        /* \"#utility.yul\":8168:8186   */\n      add\n        /* \"#utility.yul\":8160:8186   */\n      swap1\n      pop\n        /* \"#utility.yul\":8232:8241   */\n      dup2\n        /* \"#utility.yul\":8226:8230   */\n      dup2\n        /* \"#utility.yul\":8222:8242   */\n      sub\n        /* \"#utility.yul\":8218:8219   */\n      0x00\n        /* \"#utility.yul\":8207:8216   */\n      dup4\n        /* \"#utility.yul\":8203:8220   */\n      add\n        /* \"#utility.yul\":8196:8243   */\n      mstore\n        /* \"#utility.yul\":8260:8391   */\n      tag_213\n        /* \"#utility.yul\":8386:8390   */\n      dup2\n        /* \"#utility.yul\":8260:8391   */\n      tag_181\n      jump\t// in\n    tag_213:\n        /* \"#utility.yul\":8252:8391   */\n      swap1\n      pop\n        /* \"#utility.yul\":8150:8398   */\n      swap2\n      swap1\n      pop\n      jump\t// out\n        /* \"#utility.yul\":8404:8823   */\n    tag_52:\n      0x00\n        /* \"#utility.yul\":8608:8610   */\n      0x20\n        /* \"#utility.yul\":8597:8606   */\n      dup3\n        /* \"#utility.yul\":8593:8611   */\n      add\n        /* \"#utility.yul\":8585:8611   */\n      swap1\n      pop\n        /* \"#utility.yul\":8657:8666   */\n      dup2\n        /* \"#utility.yul\":8651:8655   */\n      dup2\n        /* \"#utility.yul\":8647:8667   */\n      sub\n        /* \"#utility.yul\":8643:8644   */\n      0x00\n        /* \"#utility.yul\":8632:8641   */\n      dup4\n        /* \"#utility.yul\":8628:8645   */\n      add\n        /* \"#utility.yul\":8621:8668   */\n      mstore\n        /* \"#utility.yul\":8685:8816   */\n      tag_215\n        /* \"#utility.yul\":8811:8815   */\n      dup2\n        /* \"#utility.yul\":8685:8816   */\n      tag_184\n      jump\t// in\n    tag_215:\n        /* \"#utility.yul\":8677:8816   */\n      swap1\n      pop\n        /* \"#utility.yul\":8575:8823   */\n      swap2\n      swap1\n      pop\n      jump\t// out\n        /* \"#utility.yul\":8829:9248   */\n    tag_93:\n      0x00\n        /* \"#utility.yul\":9033:9035   */\n      0x20\n        /* \"#utility.yul\":9022:9031   */\n      dup3\n        /* \"#utility.yul\":9018:9036   */\n      add\n        /* \"#utility.yul\":9010:9036   */\n      swap1\n      pop\n        /* \"#utility.yul\":9082:9091   */\n      dup2\n        /* \"#utility.yul\":9076:9080   */\n      dup2\n        /* \"#utility.yul\":9072:9092   */\n      sub\n        /* \"#utility.yul\":9068:9069   */\n      0x00\n        /* \"#utility.yul\":9057:9066   */\n      dup4\n        /* \"#utility.yul\":9053:9070   */\n      add\n        /* \"#utility.yul\":9046:9093   */\n      mstore\n        /* \"#utility.yul\":9110:9241   */\n      tag_217\n        /* \"#utility.yul\":9236:9240   */\n      dup2\n        /* \"#utility.yul\":9110:9241   */\n      tag_187\n      jump\t// in\n    tag_217:\n        /* \"#utility.yul\":9102:9241   */\n      swap1\n      pop\n        /* \"#utility.yul\":9000:9248   */\n      swap2\n      swap1\n      pop\n      jump\t// out\n        /* \"#utility.yul\":9254:9476   */\n    tag_30:\n      0x00\n        /* \"#utility.yul\":9385:9387   */\n      0x20\n        /* \"#utility.yul\":9374:9383   */\n      dup3\n        /* \"#utility.yul\":9370:9388   */\n      add\n        /* \"#utility.yul\":9362:9388   */\n      swap1\n      pop\n        /* \"#utility.yul\":9398:9469   */\n      tag_219\n        /* \"#utility.yul\":9466:9467   */\n      0x00\n        /* \"#utility.yul\":9455:9464   */\n      dup4\n        /* \"#utility.yul\":9451:9468   */\n      add\n        /* \"#utility.yul\":9442:9448   */\n      dup5\n        /* \"#utility.yul\":9398:9469   */\n      tag_199\n      jump\t// in\n    tag_219:\n        /* \"#utility.yul\":9352:9476   */\n      swap3\n      swap2\n      pop\n      pop\n      jump\t// out\n        /* \"#utility.yul\":9482:10357   */\n    tag_14:\n      0x00\n        /* \"#utility.yul\":9803:9806   */\n      0x0100\n        /* \"#utility.yul\":9792:9801   */\n      dup3\n        /* \"#utility.yul\":9788:9807   */\n      add\n        /* \"#utility.yul\":9780:9807   */\n      swap1\n      pop\n        /* \"#utility.yul\":9817:9888   */\n      tag_221\n        /* \"#utility.yul\":9885:9886   */\n      0x00\n        /* \"#utility.yul\":9874:9883   */\n      dup4\n        /* \"#utility.yul\":9870:9887   */\n      add\n        /* \"#utility.yul\":9861:9867   */\n      dup10\n        /* \"#utility.yul\":9817:9888   */\n      tag_199\n      jump\t// in\n    tag_221:\n        /* \"#utility.yul\":9898:9986   */\n      tag_222\n        /* \"#utility.yul\":9982:9984   */\n      0x20\n        /* \"#utility.yul\":9971:9980   */\n      dup4\n        /* \"#utility.yul\":9967:9985   */\n      add\n        /* \"#utility.yul\":9958:9964   */\n      dup9\n        /* \"#utility.yul\":9898:9986   */\n      tag_165\n      jump\t// in\n    tag_222:\n        /* \"#utility.yul\":9996:10068   */\n      tag_223\n        /* \"#utility.yul\":10064:10066   */\n      0x40\n        /* \"#utility.yul\":10053:10062   */\n      dup4\n        /* \"#utility.yul\":10049:10067   */\n      add\n        /* \"#utility.yul\":10040:10046   */\n      dup8\n        /* \"#utility.yul\":9996:10068   */\n      tag_169\n      jump\t// in\n    tag_223:\n        /* \"#utility.yul\":10078:10150   */\n      tag_224\n        /* \"#utility.yul\":10146:10148   */\n      0x60\n        /* \"#utility.yul\":10135:10144   */\n      dup4\n        /* \"#utility.yul\":10131:10149   */\n      add\n        /* \"#utility.yul\":10122:10128   */\n      dup7\n        /* \"#utility.yul\":10078:10150   */\n      tag_199\n      jump\t// in\n    tag_224:\n        /* \"#utility.yul\":10160:10273   */\n      tag_225\n        /* \"#utility.yul\":10268:10271   */\n      0x80\n        /* \"#utility.yul\":10257:10266   */\n      dup4\n        /* \"#utility.yul\":10253:10272   */\n      add\n        /* \"#utility.yul\":10244:10250   */\n      dup6\n        /* \"#utility.yul\":10160:10273   */\n      tag_190\n      jump\t// in\n    tag_225:\n        /* \"#utility.yul\":10283:10350   */\n      tag_226\n        /* \"#utility.yul\":10345:10348   */\n      0xe0\n        /* \"#utility.yul\":10334:10343   */\n      dup4\n        /* \"#utility.yul\":10330:10349   */\n      add\n        /* \"#utility.yul\":10321:10327   */\n      dup5\n        /* \"#utility.yul\":10283:10350   */\n      tag_173\n      jump\t// in\n    tag_226:\n        /* \"#utility.yul\":9770:10357   */\n      swap8\n      swap7\n      pop\n      pop\n      pop\n      pop\n      pop\n      pop\n      pop\n      jump\t// out\n        /* \"#utility.yul\":10363:10646   */\n    tag_117:\n      0x00\n        /* \"#utility.yul\":10429:10431   */\n      0x40\n        /* \"#utility.yul\":10423:10432   */\n      mload\n        /* \"#utility.yul\":10413:10432   */\n      swap1\n      pop\n        /* \"#utility.yul\":10471:10475   */\n      dup2\n        /* \"#utility.yul\":10463:10469   */\n      dup2\n        /* \"#utility.yul\":10459:10476   */\n      add\n        /* \"#utility.yul\":10578:10584   */\n      dup2\n        /* \"#utility.yul\":10566:10576   */\n      dup2\n        /* \"#utility.yul\":10563:10585   */\n      lt\n        /* \"#utility.yul\":10542:10560   */\n      0xffffffffffffffff\n        /* \"#utility.yul\":10530:10540   */\n      dup3\n        /* \"#utility.yul\":10527:10561   */\n      gt\n        /* \"#utility.yul\":10524:10586   */\n      or\n        /* \"#utility.yul\":10521:10523   */\n      iszero\n      tag_228\n      jumpi\n        /* \"#utility.yul\":10589:10607   */\n      tag_229\n      tag_230\n      jump\t// in\n    tag_229:\n        /* \"#utility.yul\":10521:10523   */\n    tag_228:\n        /* \"#utility.yul\":10629:10639   */\n      dup1\n        /* \"#utility.yul\":10625:10627   */\n      0x40\n        /* \"#utility.yul\":10618:10640   */\n      mstore\n        /* \"#utility.yul\":10403:10646   */\n      pop\n      swap2\n      swap1\n      pop\n      jump\t// out\n        /* \"#utility.yul\":10652:10984   */\n    tag_116:\n      0x00\n        /* \"#utility.yul\":10804:10822   */\n      0xffffffffffffffff\n        /* \"#utility.yul\":10796:10802   */\n      dup3\n        /* \"#utility.yul\":10793:10823   */\n      gt\n        /* \"#utility.yul\":10790:10792   */\n      iszero\n      tag_232\n      jumpi\n        /* \"#utility.yul\":10826:10844   */\n      tag_233\n      tag_230\n      jump\t// in\n    tag_233:\n        /* \"#utility.yul\":10790:10792   */\n    tag_232:\n        /* \"#utility.yul\":10911:10915   */\n      0x1f\n        /* \"#utility.yul\":10907:10916   */\n      not\n        /* \"#utility.yul\":10900:10904   */\n      0x1f\n        /* \"#utility.yul\":10892:10898   */\n      dup4\n        /* \"#utility.yul\":10888:10905   */\n      add\n        /* \"#utility.yul\":10884:10917   */\n      and\n        /* \"#utility.yul\":10876:10917   */\n      swap1\n      pop\n        /* \"#utility.yul\":10972:10976   */\n      0x20\n        /* \"#utility.yul\":10966:10970   */\n      dup2\n        /* \"#utility.yul\":10962:10977   */\n      add\n        /* \"#utility.yul\":10954:10977   */\n      swap1\n      pop\n        /* \"#utility.yul\":10719:10984   */\n      swap2\n      swap1\n      pop\n      jump\t// out\n        /* \"#utility.yul\":10990:11159   */\n    tag_180:\n      0x00\n        /* \"#utility.yul\":11108:11114   */\n      dup3\n        /* \"#utility.yul\":11103:11106   */\n      dup3\n        /* \"#utility.yul\":11096:11115   */\n      mstore\n        /* \"#utility.yul\":11148:11152   */\n      0x20\n        /* \"#utility.yul\":11143:11146   */\n      dup3\n        /* \"#utility.yul\":11139:11153   */\n      add\n        /* \"#utility.yul\":11124:11153   */\n      swap1\n      pop\n        /* \"#utility.yul\":11086:11159   */\n      swap3\n      swap2\n      pop\n      pop\n      jump\t// out\n        /* \"#utility.yul\":11165:11470   */\n    tag_78:\n      0x00\n        /* \"#utility.yul\":11224:11244   */\n      tag_236\n        /* \"#utility.yul\":11242:11243   */\n      dup3\n        /* \"#utility.yul\":11224:11244   */\n      tag_198\n      jump\t// in\n    tag_236:\n        /* \"#utility.yul\":11219:11244   */\n      swap2\n      pop\n        /* \"#utility.yul\":11258:11278   */\n      tag_237\n        /* \"#utility.yul\":11276:11277   */\n      dup4\n        /* \"#utility.yul\":11258:11278   */\n      tag_198\n      jump\t// in\n    tag_237:\n        /* \"#utility.yul\":11253:11278   */\n      swap3\n      pop\n        /* \"#utility.yul\":11412:11413   */\n      dup3\n        /* \"#utility.yul\":11344:11410   */\n      0xffffffffffffffffffffffffffffffffffffffffffffffffffffffffffffffff\n        /* \"#utility.yul\":11340:11414   */\n      sub\n        /* \"#utility.yul\":11337:11338   */\n      dup3\n        /* \"#utility.yul\":11334:11415   */\n      gt\n        /* \"#utility.yul\":11331:11333   */\n      iszero\n      tag_238\n      jumpi\n        /* \"#utility.yul\":11418:11436   */\n      tag_239\n      tag_240\n      jump\t// in\n    tag_239:\n        /* \"#utility.yul\":11331:11333   */\n    tag_238:\n        /* \"#utility.yul\":11462:11463   */\n      dup3\n        /* \"#utility.yul\":11459:11460   */\n      dup3\n        /* \"#utility.yul\":11455:11464   */\n      add\n        /* \"#utility.yul\":11448:11464   */\n      swap1\n      pop\n        /* \"#utility.yul\":11209:11470   */\n      swap3\n      swap2\n      pop\n      pop\n      jump\t// out\n        /* \"#utility.yul\":11476:11824   */\n    tag_76:\n      0x00\n        /* \"#utility.yul\":11539:11559   */\n      tag_242\n        /* \"#utility.yul\":11557:11558   */\n      dup3\n        /* \"#utility.yul\":11539:11559   */\n      tag_198\n      jump\t// in\n    tag_242:\n        /* \"#utility.yul\":11534:11559   */\n      swap2\n      pop\n        /* \"#utility.yul\":11573:11593   */\n      tag_243\n        /* \"#utility.yul\":11591:11592   */\n      dup4\n        /* \"#utility.yul\":11573:11593   */\n      tag_198\n      jump\t// in\n    tag_243:\n        /* \"#utility.yul\":11568:11593   */\n      swap3\n      pop\n        /* \"#utility.yul\":11761:11762   */\n      dup2\n        /* \"#utility.yul\":11693:11759   */\n      0xffffffffffffffffffffffffffffffffffffffffffffffffffffffffffffffff\n        /* \"#utility.yul\":11689:11763   */\n      div\n        /* \"#utility.yul\":11686:11687   */\n      dup4\n        /* \"#utility.yul\":11683:11764   */\n      gt\n        /* \"#utility.yul\":11678:11679   */\n      dup3\n        /* \"#utility.yul\":11671:11680   */\n      iszero\n        /* \"#utility.yul\":11664:11681   */\n      iszero\n        /* \"#utility.yul\":11660:11765   */\n      and\n        /* \"#utility.yul\":11657:11659   */\n      iszero\n      tag_244\n      jumpi\n        /* \"#utility.yul\":11768:11786   */\n      tag_245\n      tag_240\n      jump\t// in\n    tag_245:\n        /* \"#utility.yul\":11657:11659   */\n    tag_244:\n        /* \"#utility.yul\":11816:11817   */\n      dup3\n        /* \"#utility.yul\":11813:11814   */\n      dup3\n        /* \"#utility.yul\":11809:11818   */\n      mul\n        /* \"#utility.yul\":11798:11818   */\n      swap1\n      pop\n        /* \"#utility.yul\":11524:11824   */\n      swap3\n      swap2\n      pop\n      pop\n      jump\t// out\n        /* \"#utility.yul\":11830:11926   */\n    tag_172:\n      0x00\n        /* \"#utility.yul\":11896:11920   */\n      tag_247\n        /* \"#utility.yul\":11914:11919   */\n      dup3\n        /* \"#utility.yul\":11896:11920   */\n      tag_248\n      jump\t// in\n    tag_247:\n        /* \"#utility.yul\":11885:11920   */\n      swap1\n      pop\n        /* \"#utility.yul\":11875:11926   */\n      swap2\n      swap1\n      pop\n      jump\t// out\n        /* \"#utility.yul\":11932:12036   */\n    tag_168:\n      0x00\n        /* \"#utility.yul\":12006:12030   */\n      tag_250\n        /* \"#utility.yul\":12024:12029   */\n      dup3\n        /* \"#utility.yul\":12006:12030   */\n      tag_248\n      jump\t// in\n    tag_250:\n        /* \"#utility.yul\":11995:12030   */\n      swap1\n      pop\n        /* \"#utility.yul\":11985:12036   */\n      swap2\n      swap1\n      pop\n      jump\t// out\n        /* \"#utility.yul\":12042:12132   */\n    tag_176:\n      0x00\n        /* \"#utility.yul\":12119:12124   */\n      dup2\n        /* \"#utility.yul\":12112:12125   */\n      iszero\n        /* \"#utility.yul\":12105:12126   */\n      iszero\n        /* \"#utility.yul\":12094:12126   */\n      swap1\n      pop\n        /* \"#utility.yul\":12084:12132   */\n      swap2\n      swap1\n      pop\n      jump\t// out\n        /* \"#utility.yul\":12138:12264   */\n    tag_248:\n      0x00\n        /* \"#utility.yul\":12215:12257   */\n      0xffffffffffffffffffffffffffffffffffffffff\n        /* \"#utility.yul\":12208:12213   */\n      dup3\n        /* \"#utility.yul\":12204:12258   */\n      and\n        /* \"#utility.yul\":12193:12258   */\n      swap1\n      pop\n        /* \"#utility.yul\":12183:12264   */\n      swap2\n      swap1\n      pop\n      jump\t// out\n        /* \"#utility.yul\":12270:12347   */\n    tag_198:\n      0x00\n        /* \"#utility.yul\":12336:12341   */\n      dup2\n        /* \"#utility.yul\":12325:12341   */\n      swap1\n      pop\n        /* \"#utility.yul\":12315:12347   */\n      swap2\n      swap1\n      pop\n      jump\t// out\n        /* \"#utility.yul\":12353:12507   */\n    tag_120:\n        /* \"#utility.yul\":12437:12443   */\n      dup3\n        /* \"#utility.yul\":12432:12435   */\n      dup2\n        /* \"#utility.yul\":12427:12430   */\n      dup4\n        /* \"#utility.yul\":12414:12444   */\n      calldatacopy\n        /* \"#utility.yul\":12499:12500   */\n      0x00\n        /* \"#utility.yul\":12490:12496   */\n      dup4\n        /* \"#utility.yul\":12485:12488   */\n      dup4\n        /* \"#utility.yul\":12481:12497   */\n      add\n        /* \"#utility.yul\":12474:12501   */\n      mstore\n        /* \"#utility.yul\":12404:12507   */\n      pop\n      pop\n      pop\n      jump\t// out\n        /* \"#utility.yul\":12513:12833   */\n    tag_101:\n      0x00\n        /* \"#utility.yul\":12594:12595   */\n      0x02\n        /* \"#utility.yul\":12588:12592   */\n      dup3\n        /* \"#utility.yul\":12584:12596   */\n      div\n        /* \"#utility.yul\":12574:12596   */\n      swap1\n      pop\n        /* \"#utility.yul\":12641:12642   */\n      0x01\n        /* \"#utility.yul\":12635:12639   */\n      dup3\n        /* \"#utility.yul\":12631:12643   */\n      and\n        /* \"#utility.yul\":12662:12680   */\n      dup1\n        /* \"#utility.yul\":12652:12654   */\n      tag_256\n      jumpi\n        /* \"#utility.yul\":12718:12722   */\n      0x7f\n        /* \"#utility.yul\":12710:12716   */\n      dup3\n        /* \"#utility.yul\":12706:12723   */\n      and\n        /* \"#utility.yul\":12696:12723   */\n      swap2\n      pop\n        /* \"#utility.yul\":12652:12654   */\n    tag_256:\n        /* \"#utility.yul\":12780:12782   */\n      0x20\n        /* \"#utility.yul\":12772:12778   */\n      dup3\n        /* \"#utility.yul\":12769:12783   */\n      lt\n        /* \"#utility.yul\":12749:12767   */\n      dup2\n        /* \"#utility.yul\":12746:12784   */\n      eq\n        /* \"#utility.yul\":12743:12745   */\n      iszero\n      tag_257\n      jumpi\n        /* \"#utility.yul\":12799:12817   */\n      tag_258\n      tag_259\n      jump\t// in\n    tag_258:\n        /* \"#utility.yul\":12743:12745   */\n    tag_257:\n        /* \"#utility.yul\":12564:12833   */\n      pop\n      swap2\n      swap1\n      pop\n      jump\t// out\n        /* \"#utility.yul\":12839:13072   */\n    tag_43:\n      0x00\n        /* \"#utility.yul\":12901:12925   */\n      tag_261\n        /* \"#utility.yul\":12919:12924   */\n      dup3\n        /* \"#utility.yul\":12901:12925   */\n      tag_198\n      jump\t// in\n    tag_261:\n        /* \"#utility.yul\":12892:12925   */\n      swap2\n      pop\n        /* \"#utility.yul\":12947:13013   */\n      0xffffffffffffffffffffffffffffffffffffffffffffffffffffffffffffffff\n        /* \"#utility.yul\":12940:12945   */\n      dup3\n        /* \"#utility.yul\":12937:13014   */\n      eq\n        /* \"#utility.yul\":12934:12936   */\n      iszero\n      tag_262\n      jumpi\n        /* \"#utility.yul\":13017:13035   */\n      tag_263\n      tag_240\n      jump\t// in\n    tag_263:\n        /* \"#utility.yul\":12934:12936   */\n    tag_262:\n        /* \"#utility.yul\":13064:13065   */\n      0x01\n        /* \"#utility.yul\":13057:13062   */\n      dup3\n        /* \"#utility.yul\":13053:13066   */\n      add\n        /* \"#utility.yul\":13046:13066   */\n      swap1\n      pop\n        /* \"#utility.yul\":12882:13072   */\n      swap2\n      swap1\n      pop\n      jump\t// out\n        /* \"#utility.yul\":13078:13157   */\n    tag_206:\n      0x00\n        /* \"#utility.yul\":13146:13151   */\n      dup2\n        /* \"#utility.yul\":13135:13151   */\n      swap1\n      pop\n        /* \"#utility.yul\":13125:13157   */\n      swap2\n      swap1\n      pop\n      jump\t// out\n        /* \"#utility.yul\":13163:13343   */\n    tag_240:\n        /* \"#utility.yul\":13211:13288   */\n      0x4e487b7100000000000000000000000000000000000000000000000000000000\n        /* \"#utility.yul\":13208:13209   */\n      0x00\n        /* \"#utility.yul\":13201:13289   */\n      mstore\n        /* \"#utility.yul\":13308:13312   */\n      0x11\n        /* \"#utility.yul\":13305:13306   */\n      0x04\n        /* \"#utility.yul\":13298:13313   */\n      mstore\n        /* \"#utility.yul\":13332:13336   */\n      0x24\n        /* \"#utility.yul\":13329:13330   */\n      0x00\n        /* \"#utility.yul\":13322:13337   */\n      revert\n        /* \"#utility.yul\":13349:13529   */\n    tag_259:\n        /* \"#utility.yul\":13397:13474   */\n      0x4e487b7100000000000000000000000000000000000000000000000000000000\n        /* \"#utility.yul\":13394:13395   */\n      0x00\n        /* \"#utility.yul\":13387:13475   */\n      mstore\n        /* \"#utility.yul\":13494:13498   */\n      0x22\n        /* \"#utility.yul\":13491:13492   */\n      0x04\n        /* \"#utility.yul\":13484:13499   */\n      mstore\n        /* \"#utility.yul\":13518:13522   */\n      0x24\n        /* \"#utility.yul\":13515:13516   */\n      0x00\n        /* \"#utility.yul\":13508:13523   */\n      revert\n        /* \"#utility.yul\":13535:13715   */\n    tag_230:\n        /* \"#utility.yul\":13583:13660   */\n      0x4e487b7100000000000000000000000000000000000000000000000000000000\n        /* \"#utility.yul\":13580:13581   */\n      0x00\n        /* \"#utility.yul\":13573:13661   */\n      mstore\n        /* \"#utility.yul\":13680:13684   */\n      0x41\n        /* \"#utility.yul\":13677:13678   */\n      0x04\n        /* \"#utility.yul\":13670:13685   */\n      mstore\n        /* \"#utility.yul\":13704:13708   */\n      0x24\n        /* \"#utility.yul\":13701:13702   */\n      0x00\n        /* \"#utility.yul\":13694:13709   */\n      revert\n        /* \"#utility.yul\":13721:13859   */\n    tag_124:\n        /* \"#utility.yul\":13802:13834   */\n      tag_269\n        /* \"#utility.yul\":13828:13833   */\n      dup2\n        /* \"#utility.yul\":13802:13834   */\n      tag_168\n      jump\t// in\n    tag_269:\n        /* \"#utility.yul\":13795:13800   */\n      dup2\n        /* \"#utility.yul\":13792:13835   */\n      eq\n        /* \"#utility.yul\":13782:13784   */\n      tag_270\n      jumpi\n        /* \"#utility.yul\":13849:13850   */\n      0x00\n        /* \"#utility.yul\":13846:13847   */\n      dup1\n        /* \"#utility.yul\":13839:13851   */\n      revert\n        /* \"#utility.yul\":13782:13784   */\n    tag_270:\n        /* \"#utility.yul\":13772:13859   */\n      pop\n      jump\t// out\n        /* \"#utility.yul\":13865:13981   */\n    tag_128:\n        /* \"#utility.yul\":13935:13956   */\n      tag_272\n        /* \"#utility.yul\":13950:13955   */\n      dup2\n        /* \"#utility.yul\":13935:13956   */\n      tag_176\n      jump\t// in\n    tag_272:\n        /* \"#utility.yul\":13928:13933   */\n      dup2\n        /* \"#utility.yul\":13925:13957   */\n      eq\n        /* \"#utility.yul\":13915:13917   */\n      tag_273\n      jumpi\n        /* \"#utility.yul\":13971:13972   */\n      0x00\n        /* \"#utility.yul\":13968:13969   */\n      dup1\n        /* \"#utility.yul\":13961:13973   */\n      revert\n        /* \"#utility.yul\":13915:13917   */\n    tag_273:\n        /* \"#utility.yul\":13905:13981   */\n      pop\n      jump\t// out\n        /* \"#utility.yul\":13987:14109   */\n    tag_145:\n        /* \"#utility.yul\":14060:14084   */\n      tag_275\n        /* \"#utility.yul\":14078:14083   */\n      dup2\n        /* \"#utility.yul\":14060:14084   */\n      tag_198\n      jump\t// in\n    tag_275:\n        /* \"#utility.yul\":14053:14058   */\n      dup2\n        /* \"#utility.yul\":14050:14085   */\n      eq\n        /* \"#utility.yul\":14040:14042   */\n      tag_276\n      jumpi\n        /* \"#utility.yul\":14099:14100   */\n      0x00\n        /* \"#utility.yul\":14096:14097   */\n      dup1\n        /* \"#utility.yul\":14089:14101   */\n      revert\n        /* \"#utility.yul\":14040:14042   */\n    tag_276:\n        /* \"#utility.yul\":14030:14109   */\n      pop\n      jump\t// out\n\n    auxdata: 0xa26469706673582212207d81c0ca14e37971ba9c0d09085df025d770fae5175e00005f5e45827d0e036564736f6c63430008000033\n}\n",
    "bytecode": {
      "linkReferences": {},
      "object": "608060405260008055600060015534801561001957600080fd5b50611472806100296000396000f3fe6080604052600436106100555760003560e01c80631e6c598e1461005a5780633bc36a951461009c5780635885c655146100c557806394a53f7c146100ee578063e40c7cc01461012b578063f62d915a14610154575b600080fd5b34801561006657600080fd5b50610081600480360381019061007c9190610e18565b610170565b604051610093969594939291906110f8565b60405180910390f35b3480156100a857600080fd5b506100c360048036038101906100be9190610d11565b610221565b005b3480156100d157600080fd5b506100ec60048036038101906100e79190610dc4565b610320565b005b3480156100fa57600080fd5b5061011560048036038101906101109190610e18565b6105b3565b60405161012291906110dd565b60405180910390f35b34801561013757600080fd5b50610152600480360381019061014d9190610d88565b6107de565b005b61016e60048036038101906101699190610e18565b610922565b005b60026020528060005260406000206000915090508060000154908060010160009054906101000a900473ffffffffffffffffffffffffffffffffffffffff16908060020160009054906101000a900473ffffffffffffffffffffffffffffffffffffffff1690806003015490806005016040518060600160405290816000820154815260200160018201548152602001600282015481525050908060080160009054906101000a900460ff16905086565b600061022b610b08565b90506000600260008381526020019081526020016000209050818160000181905550338160020160006101000a81548173ffffffffffffffffffffffffffffffffffffffff021916908373ffffffffffffffffffffffffffffffffffffffff160217905550868160010160006101000a81548173ffffffffffffffffffffffffffffffffffffffff021916908373ffffffffffffffffffffffffffffffffffffffff16021790555085816003018190555084816005016000018190555083816005016001018190555082816005016002018190555060008081548092919061031290611317565b919050555050505050505050565b806002600082815260200190815260200160002060010160009054906101000a900473ffffffffffffffffffffffffffffffffffffffff1673ffffffffffffffffffffffffffffffffffffffff163373ffffffffffffffffffffffffffffffffffffffff1614806103f257506002600082815260200190815260200160002060020160009054906101000a900473ffffffffffffffffffffffffffffffffffffffff1673ffffffffffffffffffffffffffffffffffffffff163373ffffffffffffffffffffffffffffffffffffffff16145b610431576040517f08c379a00000000000000000000000000000000000000000000000000000000081526004016104289061105d565b60405180910390fd5b816002600082815260200190815260200160002060080160009054906101000a900460ff16610495576040517f08c379a000000000000000000000000000000000000000000000000000000000815260040161048c9061109d565b60405180910390fd5b828480606001516002600084815260200190815260200160002060050160020154146104f6576040517f08c379a00000000000000000000000000000000000000000000000000000000081526004016104ed9061107d565b60405180910390fd5b856002600087815260200190815260200160002060040160015481548110610547577f4e487b7100000000000000000000000000000000000000000000000000000000600052603260045260246000fd5b90600052602060002090600402016000820151816000019080519060200190610571929190610b3b565b50602082015181600101556040820151816002015560608201518160030155905050600160008154809291906105a690611317565b9190505550505050505050565b6000816002600082815260200190815260200160002060010160009054906101000a900473ffffffffffffffffffffffffffffffffffffffff1673ffffffffffffffffffffffffffffffffffffffff163373ffffffffffffffffffffffffffffffffffffffff16148061068757506002600082815260200190815260200160002060020160009054906101000a900473ffffffffffffffffffffffffffffffffffffffff1673ffffffffffffffffffffffffffffffffffffffff163373ffffffffffffffffffffffffffffffffffffffff16145b6106c6576040517f08c379a00000000000000000000000000000000000000000000000000000000081526004016106bd9061105d565b60405180910390fd5b6000805b60026000868152602001908152602001600020600401805490508110156107d357600260008681526020019081526020016000206004018181548110610739577f4e487b7100000000000000000000000000000000000000000000000000000000600052603260045260246000fd5b906000526020600020906004020160010154600260008781526020019081526020016000206004018281548110610799577f4e487b7100000000000000000000000000000000000000000000000000000000600052603260045260246000fd5b9060005260206000209060040201600201546107b59190611222565b826107c091906111cc565b9150806107cc90611317565b90506106ca565b508092505050919050565b806002600082815260200190815260200160002060010160009054906101000a900473ffffffffffffffffffffffffffffffffffffffff1673ffffffffffffffffffffffffffffffffffffffff163373ffffffffffffffffffffffffffffffffffffffff1614806108b057506002600082815260200190815260200160002060020160009054906101000a900473ffffffffffffffffffffffffffffffffffffffff1673ffffffffffffffffffffffffffffffffffffffff163373ffffffffffffffffffffffffffffffffffffffff16145b6108ef576040517f08c379a00000000000000000000000000000000000000000000000000000000081526004016108e69061105d565b60405180910390fd5b826002600084815260200190815260200160002060080160006101000a81548160ff021916908315150217905550505050565b806002600082815260200190815260200160002060010160009054906101000a900473ffffffffffffffffffffffffffffffffffffffff1673ffffffffffffffffffffffffffffffffffffffff163373ffffffffffffffffffffffffffffffffffffffff1614806109f457506002600082815260200190815260200160002060020160009054906101000a900473ffffffffffffffffffffffffffffffffffffffff1673ffffffffffffffffffffffffffffffffffffffff163373ffffffffffffffffffffffffffffffffffffffff16145b610a33576040517f08c379a0000000000000000000000000000000000000000000000000000000008152600401610a2a9061105d565b60405180910390fd5b8134610a3e826105b3565b8111610a7f576040517f08c379a0000000000000000000000000000000000000000000000000000000008152600401610a76906110bd565b60405180910390fd5b60006002600086815260200190815260200160002060010160009054906101000a900473ffffffffffffffffffffffffffffffffffffffff1690508073ffffffffffffffffffffffffffffffffffffffff166108fc349081150290604051600060405180830381858888f19350505050158015610b00573d6000803e3d6000fd5b505050505050565b60004442604051602001610b1d929190611031565b6040516020818303038152906040528051906020012060001c905090565b828054610b47906112e5565b90600052602060002090601f016020900481019282610b695760008555610bb0565b82601f10610b8257805160ff1916838001178555610bb0565b82800160010185558215610bb0579182015b82811115610baf578251825591602001919060010190610b94565b5b509050610bbd9190610bc1565b5090565b5b80821115610bda576000816000905550600101610bc2565b5090565b6000610bf1610bec8461118b565b61115a565b905082815260208101848484011115610c0957600080fd5b610c148482856112d6565b509392505050565b600081359050610c2b816113f7565b92915050565b600081359050610c408161140e565b92915050565b600082601f830112610c5757600080fd5b8135610c67848260208601610bde565b91505092915050565b600060808284031215610c8257600080fd5b610c8c608061115a565b9050600082013567ffffffffffffffff811115610ca857600080fd5b610cb484828501610c46565b6000830152506020610cc884828501610cfc565b6020830152506040610cdc84828501610cfc565b6040830152506060610cf084828501610cfc565b60608301525092915050565b600081359050610d0b81611425565b92915050565b600080600080600060a08688031215610d2957600080fd5b6000610d3788828901610c1c565b9550506020610d4888828901610cfc565b9450506040610d5988828901610cfc565b9350506060610d6a88828901610cfc565b9250506080610d7b88828901610cfc565b9150509295509295909350565b60008060408385031215610d9b57600080fd5b6000610da985828601610c31565b9250506020610dba85828601610cfc565b9150509250929050565b60008060408385031215610dd757600080fd5b600083013567ffffffffffffffff811115610df157600080fd5b610dfd85828601610c70565b9250506020610e0e85828601610cfc565b9150509250929050565b600060208284031215610e2a57600080fd5b6000610e3884828501610cfc565b91505092915050565b610e4a8161128e565b82525050565b610e598161127c565b82525050565b610e68816112a0565b82525050565b6000610e7b600f836111bb565b91507f70726976696c65676520616363657300000000000000000000000000000000006000830152602082019050919050565b6000610ebb601b836111bb565b91507f636f6c6c61746572616c206973206e6f74207065726d697474656400000000006000830152602082019050919050565b6000610efb6022836111bb565b91507f7472616465206e6f7420617070726f76656420627920626f746820706172746960008301527f65730000000000000000000000000000000000000000000000000000000000006020830152604082019050919050565b6000610f61603e836111bb565b91507f43617368206e6f742066756c6c7920636f6c6c61746572616c697a65642c626f60008301527f72726f7765722063616e20616464206d6f726520636f6c6c61746572616c00006020830152604082019050919050565b606082016000820151610fd06000850182610ffc565b506020820151610fe36020850182610ffc565b506040820151610ff66040850182610ffc565b50505050565b611005816112cc565b82525050565b611014816112cc565b82525050565b61102b611026826112cc565b611360565b82525050565b600061103d828561101a565b60208201915061104d828461101a565b6020820191508190509392505050565b6000602082019050818103600083015261107681610e6e565b9050919050565b6000602082019050818103600083015261109681610eae565b9050919050565b600060208201905081810360008301526110b681610eee565b9050919050565b600060208201905081810360008301526110d681610f54565b9050919050565b60006020820190506110f2600083018461100b565b92915050565b60006101008201905061110e600083018961100b565b61111b6020830188610e41565b6111286040830187610e50565b611135606083018661100b565b6111426080830185610fba565b61114f60e0830184610e5f565b979650505050505050565b6000604051905081810181811067ffffffffffffffff82111715611181576111806113c8565b5b8060405250919050565b600067ffffffffffffffff8211156111a6576111a56113c8565b5b601f19601f8301169050602081019050919050565b600082825260208201905092915050565b60006111d7826112cc565b91506111e2836112cc565b9250827fffffffffffffffffffffffffffffffffffffffffffffffffffffffffffffffff038211156112175761121661136a565b5b828201905092915050565b600061122d826112cc565b9150611238836112cc565b9250817fffffffffffffffffffffffffffffffffffffffffffffffffffffffffffffffff04831182151516156112715761127061136a565b5b828202905092915050565b6000611287826112ac565b9050919050565b6000611299826112ac565b9050919050565b60008115159050919050565b600073ffffffffffffffffffffffffffffffffffffffff82169050919050565b6000819050919050565b82818337600083830152505050565b600060028204905060018216806112fd57607f821691505b6020821081141561131157611310611399565b5b50919050565b6000611322826112cc565b91507fffffffffffffffffffffffffffffffffffffffffffffffffffffffffffffffff8214156113555761135461136a565b5b600182019050919050565b6000819050919050565b7f4e487b7100000000000000000000000000000000000000000000000000000000600052601160045260246000fd5b7f4e487b7100000000000000000000000000000000000000000000000000000000600052602260045260246000fd5b7f4e487b7100000000000000000000000000000000000000000000000000000000600052604160045260246000fd5b6114008161128e565b811461140b57600080fd5b50565b611417816112a0565b811461142257600080fd5b50565b61142e816112cc565b811461143957600080fd5b5056fea26469706673582212207d81c0ca14e37971ba9c0d09085df025d770fae5175e00005f5e45827d0e036564736f6c63430008000033",
      "opcodes": "PUSH1 0x80 PUSH1 0x40 MSTORE PUSH1 0x0 DUP1 SSTORE PUSH1 0x0 PUSH1 0x1 SSTORE CALLVALUE DUP1 ISZERO PUSH2 0x19 JUMPI PUSH1 0x0 DUP1 REVERT JUMPDEST POP PUSH2 0x1472 DUP1 PUSH2 0x29 PUSH1 0x0 CODECOPY PUSH1 0x0 RETURN INVALID PUSH1 0x80 PUSH1 0x40 MSTORE PUSH1 0x4 CALLDATASIZE LT PUSH2 0x55 JUMPI PUSH1 0x0 CALLDATALOAD PUSH1 0xE0 SHR DUP1 PUSH4 0x1E6C598E EQ PUSH2 0x5A JUMPI DUP1 PUSH4 0x3BC36A95 EQ PUSH2 0x9C JUMPI DUP1 PUSH4 0x5885C655 EQ PUSH2 0xC5 JUMPI DUP1 PUSH4 0x94A53F7C EQ PUSH2 0xEE JUMPI DUP1 PUSH4 0xE40C7CC0 EQ PUSH2 0x12B JUMPI DUP1 PUSH4 0xF62D915A EQ PUSH2 0x154 JUMPI JUMPDEST PUSH1 0x0 DUP1 REVERT JUMPDEST CALLVALUE DUP1 ISZERO PUSH2 0x66 JUMPI PUSH1 0x0 DUP1 REVERT JUMPDEST POP PUSH2 0x81 PUSH1 0x4 DUP1 CALLDATASIZE SUB DUP2 ADD SWAP1 PUSH2 0x7C SWAP2 SWAP1 PUSH2 0xE18 JUMP JUMPDEST PUSH2 0x170 JUMP JUMPDEST PUSH1 0x40 MLOAD PUSH2 0x93 SWAP7 SWAP6 SWAP5 SWAP4 SWAP3 SWAP2 SWAP1 PUSH2 0x10F8 JUMP JUMPDEST PUSH1 0x40 MLOAD DUP1 SWAP2 SUB SWAP1 RETURN JUMPDEST CALLVALUE DUP1 ISZERO PUSH2 0xA8 JUMPI PUSH1 0x0 DUP1 REVERT JUMPDEST POP PUSH2 0xC3 PUSH1 0x4 DUP1 CALLDATASIZE SUB DUP2 ADD SWAP1 PUSH2 0xBE SWAP2 SWAP1 PUSH2 0xD11 JUMP JUMPDEST PUSH2 0x221 JUMP JUMPDEST STOP JUMPDEST CALLVALUE DUP1 ISZERO PUSH2 0xD1 JUMPI PUSH1 0x0 DUP1 REVERT JUMPDEST POP PUSH2 0xEC PUSH1 0x4 DUP1 CALLDATASIZE SUB DUP2 ADD SWAP1 PUSH2 0xE7 SWAP2 SWAP1 PUSH2 0xDC4 JUMP JUMPDEST PUSH2 0x320 JUMP JUMPDEST STOP JUMPDEST CALLVALUE DUP1 ISZERO PUSH2 0xFA JUMPI PUSH1 0x0 DUP1 REVERT JUMPDEST POP PUSH2 0x115 PUSH1 0x4 DUP1 CALLDATASIZE SUB DUP2 ADD SWAP1 PUSH2 0x110 SWAP2 SWAP1 PUSH2 0xE18 JUMP JUMPDEST PUSH2 0x5B3 JUMP JUMPDEST PUSH1 0x40 MLOAD PUSH2 0x122 SWAP2 SWAP1 PUSH2 0x10DD JUMP JUMPDEST PUSH1 0x40 MLOAD DUP1 SWAP2 SUB SWAP1 RETURN JUMPDEST CALLVALUE DUP1 ISZERO PUSH2 0x137 JUMPI PUSH1 0x0 DUP1 REVERT JUMPDEST POP PUSH2 0x152 PUSH1 0x4 DUP1 CALLDATASIZE SUB DUP2 ADD SWAP1 PUSH2 0x14D SWAP2 SWAP1 PUSH2 0xD88 JUMP JUMPDEST PUSH2 0x7DE JUMP JUMPDEST STOP JUMPDEST PUSH2 0x16E PUSH1 0x4 DUP1 CALLDATASIZE SUB DUP2 ADD SWAP1 PUSH2 0x169 SWAP2 SWAP1 PUSH2 0xE18 JUMP JUMPDEST PUSH2 0x922 JUMP JUMPDEST STOP JUMPDEST PUSH1 0x2 PUSH1 0x20 MSTORE DUP1 PUSH1 0x0 MSTORE PUSH1 0x40 PUSH1 0x0 KECCAK256 PUSH1 0x0 SWAP2 POP SWAP1 POP DUP1 PUSH1 0x0 ADD SLOAD SWAP1 DUP1 PUSH1 0x1 ADD PUSH1 0x0 SWAP1 SLOAD SWAP1 PUSH2 0x100 EXP SWAP1 DIV PUSH20 0xFFFFFFFFFFFFFFFFFFFFFFFFFFFFFFFFFFFFFFFF AND SWAP1 DUP1 PUSH1 0x2 ADD PUSH1 0x0 SWAP1 SLOAD SWAP1 PUSH2 0x100 EXP SWAP1 DIV PUSH20 0xFFFFFFFFFFFFFFFFFFFFFFFFFFFFFFFFFFFFFFFF AND SWAP1 DUP1 PUSH1 0x3 ADD SLOAD SWAP1 DUP1 PUSH1 0x5 ADD PUSH1 0x40 MLOAD DUP1 PUSH1 0x60 ADD PUSH1 0x40 MSTORE SWAP1 DUP2 PUSH1 0x0 DUP3 ADD SLOAD DUP2 MSTORE PUSH1 0x20 ADD PUSH1 0x1 DUP3 ADD SLOAD DUP2 MSTORE PUSH1 0x20 ADD PUSH1 0x2 DUP3 ADD SLOAD DUP2 MSTORE POP POP SWAP1 DUP1 PUSH1 0x8 ADD PUSH1 0x0 SWAP1 SLOAD SWAP1 PUSH2 0x100 EXP SWAP1 DIV PUSH1 0xFF AND SWAP1 POP DUP7 JUMP JUMPDEST PUSH1 0x0 PUSH2 0x22B PUSH2 0xB08 JUMP JUMPDEST SWAP1 POP PUSH1 0x0 PUSH1 0x2 PUSH1 0x0 DUP4 DUP2 MSTORE PUSH1 0x20 ADD SWAP1 DUP2 MSTORE PUSH1 0x20 ADD PUSH1 0x0 KECCAK256 SWAP1 POP DUP2 DUP2 PUSH1 0x0 ADD DUP2 SWAP1 SSTORE POP CALLER DUP2 PUSH1 0x2 ADD PUSH1 0x0 PUSH2 0x100 EXP DUP2 SLOAD DUP2 PUSH20 0xFFFFFFFFFFFFFFFFFFFFFFFFFFFFFFFFFFFFFFFF MUL NOT AND SWAP1 DUP4 PUSH20 0xFFFFFFFFFFFFFFFFFFFFFFFFFFFFFFFFFFFFFFFF AND MUL OR SWAP1 SSTORE POP DUP7 DUP2 PUSH1 0x1 ADD PUSH1 0x0 PUSH2 0x100 EXP DUP2 SLOAD DUP2 PUSH20 0xFFFFFFFFFFFFFFFFFFFFFFFFFFFFFFFFFFFFFFFF MUL NOT AND SWAP1 DUP4 PUSH20 0xFFFFFFFFFFFFFFFFFFFFFFFFFFFFFFFFFFFFFFFF AND MUL OR SWAP1 SSTORE POP DUP6 DUP2 PUSH1 0x3 ADD DUP2 SWAP1 SSTORE POP DUP5 DUP2 PUSH1 0x5 ADD PUSH1 0x0 ADD DUP2 SWAP1 SSTORE POP DUP4 DUP2 PUSH1 0x5 ADD PUSH1 0x1 ADD DUP2 SWAP1 SSTORE POP DUP3 DUP2 PUSH1 0x5 ADD PUSH1 0x2 ADD DUP2 SWAP1 SSTORE POP PUSH1 0x0 DUP1 DUP2 SLOAD DUP1 SWAP3 SWAP2 SWAP1 PUSH2 0x312 SWAP1 PUSH2 0x1317 JUMP JUMPDEST SWAP2 SWAP1 POP SSTORE POP POP POP POP POP POP POP POP JUMP JUMPDEST DUP1 PUSH1 0x2 PUSH1 0x0 DUP3 DUP2 MSTORE PUSH1 0x20 ADD SWAP1 DUP2 MSTORE PUSH1 0x20 ADD PUSH1 0x0 KECCAK256 PUSH1 0x1 ADD PUSH1 0x0 SWAP1 SLOAD SWAP1 PUSH2 0x100 EXP SWAP1 DIV PUSH20 0xFFFFFFFFFFFFFFFFFFFFFFFFFFFFFFFFFFFFFFFF AND PUSH20 0xFFFFFFFFFFFFFFFFFFFFFFFFFFFFFFFFFFFFFFFF AND CALLER PUSH20 0xFFFFFFFFFFFFFFFFFFFFFFFFFFFFFFFFFFFFFFFF AND EQ DUP1 PUSH2 0x3F2 JUMPI POP PUSH1 0x2 PUSH1 0x0 DUP3 DUP2 MSTORE PUSH1 0x20 ADD SWAP1 DUP2 MSTORE PUSH1 0x20 ADD PUSH1 0x0 KECCAK256 PUSH1 0x2 ADD PUSH1 0x0 SWAP1 SLOAD SWAP1 PUSH2 0x100 EXP SWAP1 DIV PUSH20 0xFFFFFFFFFFFFFFFFFFFFFFFFFFFFFFFFFFFFFFFF AND PUSH20 0xFFFFFFFFFFFFFFFFFFFFFFFFFFFFFFFFFFFFFFFF AND CALLER PUSH20 0xFFFFFFFFFFFFFFFFFFFFFFFFFFFFFFFFFFFFFFFF AND EQ JUMPDEST PUSH2 0x431 JUMPI PUSH1 0x40 MLOAD PUSH32 0x8C379A000000000000000000000000000000000000000000000000000000000 DUP2 MSTORE PUSH1 0x4 ADD PUSH2 0x428 SWAP1 PUSH2 0x105D JUMP JUMPDEST PUSH1 0x40 MLOAD DUP1 SWAP2 SUB SWAP1 REVERT JUMPDEST DUP2 PUSH1 0x2 PUSH1 0x0 DUP3 DUP2 MSTORE PUSH1 0x20 ADD SWAP1 DUP2 MSTORE PUSH1 0x20 ADD PUSH1 0x0 KECCAK256 PUSH1 0x8 ADD PUSH1 0x0 SWAP1 SLOAD SWAP1 PUSH2 0x100 EXP SWAP1 DIV PUSH1 0xFF AND PUSH2 0x495 JUMPI PUSH1 0x40 MLOAD PUSH32 0x8C379A000000000000000000000000000000000000000000000000000000000 DUP2 MSTORE PUSH1 0x4 ADD PUSH2 0x48C SWAP1 PUSH2 0x109D JUMP JUMPDEST PUSH1 0x40 MLOAD DUP1 SWAP2 SUB SWAP1 REVERT JUMPDEST DUP3 DUP5 DUP1 PUSH1 0x60 ADD MLOAD PUSH1 0x2 PUSH1 0x0 DUP5 DUP2 MSTORE PUSH1 0x20 ADD SWAP1 DUP2 MSTORE PUSH1 0x20 ADD PUSH1 0x0 KECCAK256 PUSH1 0x5 ADD PUSH1 0x2 ADD SLOAD EQ PUSH2 0x4F6 JUMPI PUSH1 0x40 MLOAD PUSH32 0x8C379A000000000000000000000000000000000000000000000000000000000 DUP2 MSTORE PUSH1 0x4 ADD PUSH2 0x4ED SWAP1 PUSH2 0x107D JUMP JUMPDEST PUSH1 0x40 MLOAD DUP1 SWAP2 SUB SWAP1 REVERT JUMPDEST DUP6 PUSH1 0x2 PUSH1 0x0 DUP8 DUP2 MSTORE PUSH1 0x20 ADD SWAP1 DUP2 MSTORE PUSH1 0x20 ADD PUSH1 0x0 KECCAK256 PUSH1 0x4 ADD PUSH1 0x1 SLOAD DUP2 SLOAD DUP2 LT PUSH2 0x547 JUMPI PUSH32 0x4E487B7100000000000000000000000000000000000000000000000000000000 PUSH1 0x0 MSTORE PUSH1 0x32 PUSH1 0x4 MSTORE PUSH1 0x24 PUSH1 0x0 REVERT JUMPDEST SWAP1 PUSH1 0x0 MSTORE PUSH1 0x20 PUSH1 0x0 KECCAK256 SWAP1 PUSH1 0x4 MUL ADD PUSH1 0x0 DUP3 ADD MLOAD DUP2 PUSH1 0x0 ADD SWAP1 DUP1 MLOAD SWAP1 PUSH1 0x20 ADD SWAP1 PUSH2 0x571 SWAP3 SWAP2 SWAP1 PUSH2 0xB3B JUMP JUMPDEST POP PUSH1 0x20 DUP3 ADD MLOAD DUP2 PUSH1 0x1 ADD SSTORE PUSH1 0x40 DUP3 ADD MLOAD DUP2 PUSH1 0x2 ADD SSTORE PUSH1 0x60 DUP3 ADD MLOAD DUP2 PUSH1 0x3 ADD SSTORE SWAP1 POP POP PUSH1 0x1 PUSH1 0x0 DUP2 SLOAD DUP1 SWAP3 SWAP2 SWAP1 PUSH2 0x5A6 SWAP1 PUSH2 0x1317 JUMP JUMPDEST SWAP2 SWAP1 POP SSTORE POP POP POP POP POP POP POP JUMP JUMPDEST PUSH1 0x0 DUP2 PUSH1 0x2 PUSH1 0x0 DUP3 DUP2 MSTORE PUSH1 0x20 ADD SWAP1 DUP2 MSTORE PUSH1 0x20 ADD PUSH1 0x0 KECCAK256 PUSH1 0x1 ADD PUSH1 0x0 SWAP1 SLOAD SWAP1 PUSH2 0x100 EXP SWAP1 DIV PUSH20 0xFFFFFFFFFFFFFFFFFFFFFFFFFFFFFFFFFFFFFFFF AND PUSH20 0xFFFFFFFFFFFFFFFFFFFFFFFFFFFFFFFFFFFFFFFF AND CALLER PUSH20 0xFFFFFFFFFFFFFFFFFFFFFFFFFFFFFFFFFFFFFFFF AND EQ DUP1 PUSH2 0x687 JUMPI POP PUSH1 0x2 PUSH1 0x0 DUP3 DUP2 MSTORE PUSH1 0x20 ADD SWAP1 DUP2 MSTORE PUSH1 0x20 ADD PUSH1 0x0 KECCAK256 PUSH1 0x2 ADD PUSH1 0x0 SWAP1 SLOAD SWAP1 PUSH2 0x100 EXP SWAP1 DIV PUSH20 0xFFFFFFFFFFFFFFFFFFFFFFFFFFFFFFFFFFFFFFFF AND PUSH20 0xFFFFFFFFFFFFFFFFFFFFFFFFFFFFFFFFFFFFFFFF AND CALLER PUSH20 0xFFFFFFFFFFFFFFFFFFFFFFFFFFFFFFFFFFFFFFFF AND EQ JUMPDEST PUSH2 0x6C6 JUMPI PUSH1 0x40 MLOAD PUSH32 0x8C379A000000000000000000000000000000000000000000000000000000000 DUP2 MSTORE PUSH1 0x4 ADD PUSH2 0x6BD SWAP1 PUSH2 0x105D JUMP JUMPDEST PUSH1 0x40 MLOAD DUP1 SWAP2 SUB SWAP1 REVERT JUMPDEST PUSH1 0x0 DUP1 JUMPDEST PUSH1 0x2 PUSH1 0x0 DUP7 DUP2 MSTORE PUSH1 0x20 ADD SWAP1 DUP2 MSTORE PUSH1 0x20 ADD PUSH1 0x0 KECCAK256 PUSH1 0x4 ADD DUP1 SLOAD SWAP1 POP DUP2 LT ISZERO PUSH2 0x7D3 JUMPI PUSH1 0x2 PUSH1 0x0 DUP7 DUP2 MSTORE PUSH1 0x20 ADD SWAP1 DUP2 MSTORE PUSH1 0x20 ADD PUSH1 0x0 KECCAK256 PUSH1 0x4 ADD DUP2 DUP2 SLOAD DUP2 LT PUSH2 0x739 JUMPI PUSH32 0x4E487B7100000000000000000000000000000000000000000000000000000000 PUSH1 0x0 MSTORE PUSH1 0x32 PUSH1 0x4 MSTORE PUSH1 0x24 PUSH1 0x0 REVERT JUMPDEST SWAP1 PUSH1 0x0 MSTORE PUSH1 0x20 PUSH1 0x0 KECCAK256 SWAP1 PUSH1 0x4 MUL ADD PUSH1 0x1 ADD SLOAD PUSH1 0x2 PUSH1 0x0 DUP8 DUP2 MSTORE PUSH1 0x20 ADD SWAP1 DUP2 MSTORE PUSH1 0x20 ADD PUSH1 0x0 KECCAK256 PUSH1 0x4 ADD DUP3 DUP2 SLOAD DUP2 LT PUSH2 0x799 JUMPI PUSH32 0x4E487B7100000000000000000000000000000000000000000000000000000000 PUSH1 0x0 MSTORE PUSH1 0x32 PUSH1 0x4 MSTORE PUSH1 0x24 PUSH1 0x0 REVERT JUMPDEST SWAP1 PUSH1 0x0 MSTORE PUSH1 0x20 PUSH1 0x0 KECCAK256 SWAP1 PUSH1 0x4 MUL ADD PUSH1 0x2 ADD SLOAD PUSH2 0x7B5 SWAP2 SWAP1 PUSH2 0x1222 JUMP JUMPDEST DUP3 PUSH2 0x7C0 SWAP2 SWAP1 PUSH2 0x11CC JUMP JUMPDEST SWAP2 POP DUP1 PUSH2 0x7CC SWAP1 PUSH2 0x1317 JUMP JUMPDEST SWAP1 POP PUSH2 0x6CA JUMP JUMPDEST POP DUP1 SWAP3 POP POP POP SWAP2 SWAP1 POP JUMP JUMPDEST DUP1 PUSH1 0x2 PUSH1 0x0 DUP3 DUP2 MSTORE PUSH1 0x20 ADD SWAP1 DUP2 MSTORE PUSH1 0x20 ADD PUSH1 0x0 KECCAK256 PUSH1 0x1 ADD PUSH1 0x0 SWAP1 SLOAD SWAP1 PUSH2 0x100 EXP SWAP1 DIV PUSH20 0xFFFFFFFFFFFFFFFFFFFFFFFFFFFFFFFFFFFFFFFF AND PUSH20 0xFFFFFFFFFFFFFFFFFFFFFFFFFFFFFFFFFFFFFFFF AND CALLER PUSH20 0xFFFFFFFFFFFFFFFFFFFFFFFFFFFFFFFFFFFFFFFF AND EQ DUP1 PUSH2 0x8B0 JUMPI POP PUSH1 0x2 PUSH1 0x0 DUP3 DUP2 MSTORE PUSH1 0x20 ADD SWAP1 DUP2 MSTORE PUSH1 0x20 ADD PUSH1 0x0 KECCAK256 PUSH1 0x2 ADD PUSH1 0x0 SWAP1 SLOAD SWAP1 PUSH2 0x100 EXP SWAP1 DIV PUSH20 0xFFFFFFFFFFFFFFFFFFFFFFFFFFFFFFFFFFFFFFFF AND PUSH20 0xFFFFFFFFFFFFFFFFFFFFFFFFFFFFFFFFFFFFFFFF AND CALLER PUSH20 0xFFFFFFFFFFFFFFFFFFFFFFFFFFFFFFFFFFFFFFFF AND EQ JUMPDEST PUSH2 0x8EF JUMPI PUSH1 0x40 MLOAD PUSH32 0x8C379A000000000000000000000000000000000000000000000000000000000 DUP2 MSTORE PUSH1 0x4 ADD PUSH2 0x8E6 SWAP1 PUSH2 0x105D JUMP JUMPDEST PUSH1 0x40 MLOAD DUP1 SWAP2 SUB SWAP1 REVERT JUMPDEST DUP3 PUSH1 0x2 PUSH1 0x0 DUP5 DUP2 MSTORE PUSH1 0x20 ADD SWAP1 DUP2 MSTORE PUSH1 0x20 ADD PUSH1 0x0 KECCAK256 PUSH1 0x8 ADD PUSH1 0x0 PUSH2 0x100 EXP DUP2 SLOAD DUP2 PUSH1 0xFF MUL NOT AND SWAP1 DUP4 ISZERO ISZERO MUL OR SWAP1 SSTORE POP POP POP POP JUMP JUMPDEST DUP1 PUSH1 0x2 PUSH1 0x0 DUP3 DUP2 MSTORE PUSH1 0x20 ADD SWAP1 DUP2 MSTORE PUSH1 0x20 ADD PUSH1 0x0 KECCAK256 PUSH1 0x1 ADD PUSH1 0x0 SWAP1 SLOAD SWAP1 PUSH2 0x100 EXP SWAP1 DIV PUSH20 0xFFFFFFFFFFFFFFFFFFFFFFFFFFFFFFFFFFFFFFFF AND PUSH20 0xFFFFFFFFFFFFFFFFFFFFFFFFFFFFFFFFFFFFFFFF AND CALLER PUSH20 0xFFFFFFFFFFFFFFFFFFFFFFFFFFFFFFFFFFFFFFFF AND EQ DUP1 PUSH2 0x9F4 JUMPI POP PUSH1 0x2 PUSH1 0x0 DUP3 DUP2 MSTORE PUSH1 0x20 ADD SWAP1 DUP2 MSTORE PUSH1 0x20 ADD PUSH1 0x0 KECCAK256 PUSH1 0x2 ADD PUSH1 0x0 SWAP1 SLOAD SWAP1 PUSH2 0x100 EXP SWAP1 DIV PUSH20 0xFFFFFFFFFFFFFFFFFFFFFFFFFFFFFFFFFFFFFFFF AND PUSH20 0xFFFFFFFFFFFFFFFFFFFFFFFFFFFFFFFFFFFFFFFF AND CALLER PUSH20 0xFFFFFFFFFFFFFFFFFFFFFFFFFFFFFFFFFFFFFFFF AND EQ JUMPDEST PUSH2 0xA33 JUMPI PUSH1 0x40 MLOAD PUSH32 0x8C379A000000000000000000000000000000000000000000000000000000000 DUP2 MSTORE PUSH1 0x4 ADD PUSH2 0xA2A SWAP1 PUSH2 0x105D JUMP JUMPDEST PUSH1 0x40 MLOAD DUP1 SWAP2 SUB SWAP1 REVERT JUMPDEST DUP2 CALLVALUE PUSH2 0xA3E DUP3 PUSH2 0x5B3 JUMP JUMPDEST DUP2 GT PUSH2 0xA7F JUMPI PUSH1 0x40 MLOAD PUSH32 0x8C379A000000000000000000000000000000000000000000000000000000000 DUP2 MSTORE PUSH1 0x4 ADD PUSH2 0xA76 SWAP1 PUSH2 0x10BD JUMP JUMPDEST PUSH1 0x40 MLOAD DUP1 SWAP2 SUB SWAP1 REVERT JUMPDEST PUSH1 0x0 PUSH1 0x2 PUSH1 0x0 DUP7 DUP2 MSTORE PUSH1 0x20 ADD SWAP1 DUP2 MSTORE PUSH1 0x20 ADD PUSH1 0x0 KECCAK256 PUSH1 0x1 ADD PUSH1 0x0 SWAP1 SLOAD SWAP1 PUSH2 0x100 EXP SWAP1 DIV PUSH20 0xFFFFFFFFFFFFFFFFFFFFFFFFFFFFFFFFFFFFFFFF AND SWAP1 POP DUP1 PUSH20 0xFFFFFFFFFFFFFFFFFFFFFFFFFFFFFFFFFFFFFFFF AND PUSH2 0x8FC CALLVALUE SWAP1 DUP2 ISZERO MUL SWAP1 PUSH1 0x40 MLOAD PUSH1 0x0 PUSH1 0x40 MLOAD DUP1 DUP4 SUB DUP2 DUP6 DUP9 DUP9 CALL SWAP4 POP POP POP POP ISZERO DUP1 ISZERO PUSH2 0xB00 JUMPI RETURNDATASIZE PUSH1 0x0 DUP1 RETURNDATACOPY RETURNDATASIZE PUSH1 0x0 REVERT JUMPDEST POP POP POP POP POP POP JUMP JUMPDEST PUSH1 0x0 DIFFICULTY TIMESTAMP PUSH1 0x40 MLOAD PUSH1 0x20 ADD PUSH2 0xB1D SWAP3 SWAP2 SWAP1 PUSH2 0x1031 JUMP JUMPDEST PUSH1 0x40 MLOAD PUSH1 0x20 DUP2 DUP4 SUB SUB DUP2 MSTORE SWAP1 PUSH1 0x40 MSTORE DUP1 MLOAD SWAP1 PUSH1 0x20 ADD KECCAK256 PUSH1 0x0 SHR SWAP1 POP SWAP1 JUMP JUMPDEST DUP3 DUP1 SLOAD PUSH2 0xB47 SWAP1 PUSH2 0x12E5 JUMP JUMPDEST SWAP1 PUSH1 0x0 MSTORE PUSH1 0x20 PUSH1 0x0 KECCAK256 SWAP1 PUSH1 0x1F ADD PUSH1 0x20 SWAP1 DIV DUP2 ADD SWAP3 DUP3 PUSH2 0xB69 JUMPI PUSH1 0x0 DUP6 SSTORE PUSH2 0xBB0 JUMP JUMPDEST DUP3 PUSH1 0x1F LT PUSH2 0xB82 JUMPI DUP1 MLOAD PUSH1 0xFF NOT AND DUP4 DUP1 ADD OR DUP6 SSTORE PUSH2 0xBB0 JUMP JUMPDEST DUP3 DUP1 ADD PUSH1 0x1 ADD DUP6 SSTORE DUP3 ISZERO PUSH2 0xBB0 JUMPI SWAP2 DUP3 ADD JUMPDEST DUP3 DUP2 GT ISZERO PUSH2 0xBAF JUMPI DUP3 MLOAD DUP3 SSTORE SWAP2 PUSH1 0x20 ADD SWAP2 SWAP1 PUSH1 0x1 ADD SWAP1 PUSH2 0xB94 JUMP JUMPDEST JUMPDEST POP SWAP1 POP PUSH2 0xBBD SWAP2 SWAP1 PUSH2 0xBC1 JUMP JUMPDEST POP SWAP1 JUMP JUMPDEST JUMPDEST DUP1 DUP3 GT ISZERO PUSH2 0xBDA JUMPI PUSH1 0x0 DUP2 PUSH1 0x0 SWAP1 SSTORE POP PUSH1 0x1 ADD PUSH2 0xBC2 JUMP JUMPDEST POP SWAP1 JUMP JUMPDEST PUSH1 0x0 PUSH2 0xBF1 PUSH2 0xBEC DUP5 PUSH2 0x118B JUMP JUMPDEST PUSH2 0x115A JUMP JUMPDEST SWAP1 POP DUP3 DUP2 MSTORE PUSH1 0x20 DUP2 ADD DUP5 DUP5 DUP5 ADD GT ISZERO PUSH2 0xC09 JUMPI PUSH1 0x0 DUP1 REVERT JUMPDEST PUSH2 0xC14 DUP5 DUP3 DUP6 PUSH2 0x12D6 JUMP JUMPDEST POP SWAP4 SWAP3 POP POP POP JUMP JUMPDEST PUSH1 0x0 DUP2 CALLDATALOAD SWAP1 POP PUSH2 0xC2B DUP2 PUSH2 0x13F7 JUMP JUMPDEST SWAP3 SWAP2 POP POP JUMP JUMPDEST PUSH1 0x0 DUP2 CALLDATALOAD SWAP1 POP PUSH2 0xC40 DUP2 PUSH2 0x140E JUMP JUMPDEST SWAP3 SWAP2 POP POP JUMP JUMPDEST PUSH1 0x0 DUP3 PUSH1 0x1F DUP4 ADD SLT PUSH2 0xC57 JUMPI PUSH1 0x0 DUP1 REVERT JUMPDEST DUP2 CALLDATALOAD PUSH2 0xC67 DUP5 DUP3 PUSH1 0x20 DUP7 ADD PUSH2 0xBDE JUMP JUMPDEST SWAP2 POP POP SWAP3 SWAP2 POP POP JUMP JUMPDEST PUSH1 0x0 PUSH1 0x80 DUP3 DUP5 SUB SLT ISZERO PUSH2 0xC82 JUMPI PUSH1 0x0 DUP1 REVERT JUMPDEST PUSH2 0xC8C PUSH1 0x80 PUSH2 0x115A JUMP JUMPDEST SWAP1 POP PUSH1 0x0 DUP3 ADD CALLDATALOAD PUSH8 0xFFFFFFFFFFFFFFFF DUP2 GT ISZERO PUSH2 0xCA8 JUMPI PUSH1 0x0 DUP1 REVERT JUMPDEST PUSH2 0xCB4 DUP5 DUP3 DUP6 ADD PUSH2 0xC46 JUMP JUMPDEST PUSH1 0x0 DUP4 ADD MSTORE POP PUSH1 0x20 PUSH2 0xCC8 DUP5 DUP3 DUP6 ADD PUSH2 0xCFC JUMP JUMPDEST PUSH1 0x20 DUP4 ADD MSTORE POP PUSH1 0x40 PUSH2 0xCDC DUP5 DUP3 DUP6 ADD PUSH2 0xCFC JUMP JUMPDEST PUSH1 0x40 DUP4 ADD MSTORE POP PUSH1 0x60 PUSH2 0xCF0 DUP5 DUP3 DUP6 ADD PUSH2 0xCFC JUMP JUMPDEST PUSH1 0x60 DUP4 ADD MSTORE POP SWAP3 SWAP2 POP POP JUMP JUMPDEST PUSH1 0x0 DUP2 CALLDATALOAD SWAP1 POP PUSH2 0xD0B DUP2 PUSH2 0x1425 JUMP JUMPDEST SWAP3 SWAP2 POP POP JUMP JUMPDEST PUSH1 0x0 DUP1 PUSH1 0x0 DUP1 PUSH1 0x0 PUSH1 0xA0 DUP7 DUP9 SUB SLT ISZERO PUSH2 0xD29 JUMPI PUSH1 0x0 DUP1 REVERT JUMPDEST PUSH1 0x0 PUSH2 0xD37 DUP9 DUP3 DUP10 ADD PUSH2 0xC1C JUMP JUMPDEST SWAP6 POP POP PUSH1 0x20 PUSH2 0xD48 DUP9 DUP3 DUP10 ADD PUSH2 0xCFC JUMP JUMPDEST SWAP5 POP POP PUSH1 0x40 PUSH2 0xD59 DUP9 DUP3 DUP10 ADD PUSH2 0xCFC JUMP JUMPDEST SWAP4 POP POP PUSH1 0x60 PUSH2 0xD6A DUP9 DUP3 DUP10 ADD PUSH2 0xCFC JUMP JUMPDEST SWAP3 POP POP PUSH1 0x80 PUSH2 0xD7B DUP9 DUP3 DUP10 ADD PUSH2 0xCFC JUMP JUMPDEST SWAP2 POP POP SWAP3 SWAP6 POP SWAP3 SWAP6 SWAP1 SWAP4 POP JUMP JUMPDEST PUSH1 0x0 DUP1 PUSH1 0x40 DUP4 DUP6 SUB SLT ISZERO PUSH2 0xD9B JUMPI PUSH1 0x0 DUP1 REVERT JUMPDEST PUSH1 0x0 PUSH2 0xDA9 DUP6 DUP3 DUP7 ADD PUSH2 0xC31 JUMP JUMPDEST SWAP3 POP POP PUSH1 0x20 PUSH2 0xDBA DUP6 DUP3 DUP7 ADD PUSH2 0xCFC JUMP JUMPDEST SWAP2 POP POP SWAP3 POP SWAP3 SWAP1 POP JUMP JUMPDEST PUSH1 0x0 DUP1 PUSH1 0x40 DUP4 DUP6 SUB SLT ISZERO PUSH2 0xDD7 JUMPI PUSH1 0x0 DUP1 REVERT JUMPDEST PUSH1 0x0 DUP4 ADD CALLDATALOAD PUSH8 0xFFFFFFFFFFFFFFFF DUP2 GT ISZERO PUSH2 0xDF1 JUMPI PUSH1 0x0 DUP1 REVERT JUMPDEST PUSH2 0xDFD DUP6 DUP3 DUP7 ADD PUSH2 0xC70 JUMP JUMPDEST SWAP3 POP POP PUSH1 0x20 PUSH2 0xE0E DUP6 DUP3 DUP7 ADD PUSH2 0xCFC JUMP JUMPDEST SWAP2 POP POP SWAP3 POP SWAP3 SWAP1 POP JUMP JUMPDEST PUSH1 0x0 PUSH1 0x20 DUP3 DUP5 SUB SLT ISZERO PUSH2 0xE2A JUMPI PUSH1 0x0 DUP1 REVERT JUMPDEST PUSH1 0x0 PUSH2 0xE38 DUP5 DUP3 DUP6 ADD PUSH2 0xCFC JUMP JUMPDEST SWAP2 POP POP SWAP3 SWAP2 POP POP JUMP JUMPDEST PUSH2 0xE4A DUP2 PUSH2 0x128E JUMP JUMPDEST DUP3 MSTORE POP POP JUMP JUMPDEST PUSH2 0xE59 DUP2 PUSH2 0x127C JUMP JUMPDEST DUP3 MSTORE POP POP JUMP JUMPDEST PUSH2 0xE68 DUP2 PUSH2 0x12A0 JUMP JUMPDEST DUP3 MSTORE POP POP JUMP JUMPDEST PUSH1 0x0 PUSH2 0xE7B PUSH1 0xF DUP4 PUSH2 0x11BB JUMP JUMPDEST SWAP2 POP PUSH32 0x70726976696C6567652061636365730000000000000000000000000000000000 PUSH1 0x0 DUP4 ADD MSTORE PUSH1 0x20 DUP3 ADD SWAP1 POP SWAP2 SWAP1 POP JUMP JUMPDEST PUSH1 0x0 PUSH2 0xEBB PUSH1 0x1B DUP4 PUSH2 0x11BB JUMP JUMPDEST SWAP2 POP PUSH32 0x636F6C6C61746572616C206973206E6F74207065726D69747465640000000000 PUSH1 0x0 DUP4 ADD MSTORE PUSH1 0x20 DUP3 ADD SWAP1 POP SWAP2 SWAP1 POP JUMP JUMPDEST PUSH1 0x0 PUSH2 0xEFB PUSH1 0x22 DUP4 PUSH2 0x11BB JUMP JUMPDEST SWAP2 POP PUSH32 0x7472616465206E6F7420617070726F76656420627920626F7468207061727469 PUSH1 0x0 DUP4 ADD MSTORE PUSH32 0x6573000000000000000000000000000000000000000000000000000000000000 PUSH1 0x20 DUP4 ADD MSTORE PUSH1 0x40 DUP3 ADD SWAP1 POP SWAP2 SWAP1 POP JUMP JUMPDEST PUSH1 0x0 PUSH2 0xF61 PUSH1 0x3E DUP4 PUSH2 0x11BB JUMP JUMPDEST SWAP2 POP PUSH32 0x43617368206E6F742066756C6C7920636F6C6C61746572616C697A65642C626F PUSH1 0x0 DUP4 ADD MSTORE PUSH32 0x72726F7765722063616E20616464206D6F726520636F6C6C61746572616C0000 PUSH1 0x20 DUP4 ADD MSTORE PUSH1 0x40 DUP3 ADD SWAP1 POP SWAP2 SWAP1 POP JUMP JUMPDEST PUSH1 0x60 DUP3 ADD PUSH1 0x0 DUP3 ADD MLOAD PUSH2 0xFD0 PUSH1 0x0 DUP6 ADD DUP3 PUSH2 0xFFC JUMP JUMPDEST POP PUSH1 0x20 DUP3 ADD MLOAD PUSH2 0xFE3 PUSH1 0x20 DUP6 ADD DUP3 PUSH2 0xFFC JUMP JUMPDEST POP PUSH1 0x40 DUP3 ADD MLOAD PUSH2 0xFF6 PUSH1 0x40 DUP6 ADD DUP3 PUSH2 0xFFC JUMP JUMPDEST POP POP POP POP JUMP JUMPDEST PUSH2 0x1005 DUP2 PUSH2 0x12CC JUMP JUMPDEST DUP3 MSTORE POP POP JUMP JUMPDEST PUSH2 0x1014 DUP2 PUSH2 0x12CC JUMP JUMPDEST DUP3 MSTORE POP POP JUMP JUMPDEST PUSH2 0x102B PUSH2 0x1026 DUP3 PUSH2 0x12CC JUMP JUMPDEST PUSH2 0x1360 JUMP JUMPDEST DUP3 MSTORE POP POP JUMP JUMPDEST PUSH1 0x0 PUSH2 0x103D DUP3 DUP6 PUSH2 0x101A JUMP JUMPDEST PUSH1 0x20 DUP3 ADD SWAP2 POP PUSH2 0x104D DUP3 DUP5 PUSH2 0x101A JUMP JUMPDEST PUSH1 0x20 DUP3 ADD SWAP2 POP DUP2 SWAP1 POP SWAP4 SWAP3 POP POP POP JUMP JUMPDEST PUSH1 0x0 PUSH1 0x20 DUP3 ADD SWAP1 POP DUP2 DUP2 SUB PUSH1 0x0 DUP4 ADD MSTORE PUSH2 0x1076 DUP2 PUSH2 0xE6E JUMP JUMPDEST SWAP1 POP SWAP2 SWAP1 POP JUMP JUMPDEST PUSH1 0x0 PUSH1 0x20 DUP3 ADD SWAP1 POP DUP2 DUP2 SUB PUSH1 0x0 DUP4 ADD MSTORE PUSH2 0x1096 DUP2 PUSH2 0xEAE JUMP JUMPDEST SWAP1 POP SWAP2 SWAP1 POP JUMP JUMPDEST PUSH1 0x0 PUSH1 0x20 DUP3 ADD SWAP1 POP DUP2 DUP2 SUB PUSH1 0x0 DUP4 ADD MSTORE PUSH2 0x10B6 DUP2 PUSH2 0xEEE JUMP JUMPDEST SWAP1 POP SWAP2 SWAP1 POP JUMP JUMPDEST PUSH1 0x0 PUSH1 0x20 DUP3 ADD SWAP1 POP DUP2 DUP2 SUB PUSH1 0x0 DUP4 ADD MSTORE PUSH2 0x10D6 DUP2 PUSH2 0xF54 JUMP JUMPDEST SWAP1 POP SWAP2 SWAP1 POP JUMP JUMPDEST PUSH1 0x0 PUSH1 0x20 DUP3 ADD SWAP1 POP PUSH2 0x10F2 PUSH1 0x0 DUP4 ADD DUP5 PUSH2 0x100B JUMP JUMPDEST SWAP3 SWAP2 POP POP JUMP JUMPDEST PUSH1 0x0 PUSH2 0x100 DUP3 ADD SWAP1 POP PUSH2 0x110E PUSH1 0x0 DUP4 ADD DUP10 PUSH2 0x100B JUMP JUMPDEST PUSH2 0x111B PUSH1 0x20 DUP4 ADD DUP9 PUSH2 0xE41 JUMP JUMPDEST PUSH2 0x1128 PUSH1 0x40 DUP4 ADD DUP8 PUSH2 0xE50 JUMP JUMPDEST PUSH2 0x1135 PUSH1 0x60 DUP4 ADD DUP7 PUSH2 0x100B JUMP JUMPDEST PUSH2 0x1142 PUSH1 0x80 DUP4 ADD DUP6 PUSH2 0xFBA JUMP JUMPDEST PUSH2 0x114F PUSH1 0xE0 DUP4 ADD DUP5 PUSH2 0xE5F JUMP JUMPDEST SWAP8 SWAP7 POP POP POP POP POP POP POP JUMP JUMPDEST PUSH1 0x0 PUSH1 0x40 MLOAD SWAP1 POP DUP2 DUP2 ADD DUP2 DUP2 LT PUSH8 0xFFFFFFFFFFFFFFFF DUP3 GT OR ISZERO PUSH2 0x1181 JUMPI PUSH2 0x1180 PUSH2 0x13C8 JUMP JUMPDEST JUMPDEST DUP1 PUSH1 0x40 MSTORE POP SWAP2 SWAP1 POP JUMP JUMPDEST PUSH1 0x0 PUSH8 0xFFFFFFFFFFFFFFFF DUP3 GT ISZERO PUSH2 0x11A6 JUMPI PUSH2 0x11A5 PUSH2 0x13C8 JUMP JUMPDEST JUMPDEST PUSH1 0x1F NOT PUSH1 0x1F DUP4 ADD AND SWAP1 POP PUSH1 0x20 DUP2 ADD SWAP1 POP SWAP2 SWAP1 POP JUMP JUMPDEST PUSH1 0x0 DUP3 DUP3 MSTORE PUSH1 0x20 DUP3 ADD SWAP1 POP SWAP3 SWAP2 POP POP JUMP JUMPDEST PUSH1 0x0 PUSH2 0x11D7 DUP3 PUSH2 0x12CC JUMP JUMPDEST SWAP2 POP PUSH2 0x11E2 DUP4 PUSH2 0x12CC JUMP JUMPDEST SWAP3 POP DUP3 PUSH32 0xFFFFFFFFFFFFFFFFFFFFFFFFFFFFFFFFFFFFFFFFFFFFFFFFFFFFFFFFFFFFFFFF SUB DUP3 GT ISZERO PUSH2 0x1217 JUMPI PUSH2 0x1216 PUSH2 0x136A JUMP JUMPDEST JUMPDEST DUP3 DUP3 ADD SWAP1 POP SWAP3 SWAP2 POP POP JUMP JUMPDEST PUSH1 0x0 PUSH2 0x122D DUP3 PUSH2 0x12CC JUMP JUMPDEST SWAP2 POP PUSH2 0x1238 DUP4 PUSH2 0x12CC JUMP JUMPDEST SWAP3 POP DUP2 PUSH32 0xFFFFFFFFFFFFFFFFFFFFFFFFFFFFFFFFFFFFFFFFFFFFFFFFFFFFFFFFFFFFFFFF DIV DUP4 GT DUP3 ISZERO ISZERO AND ISZERO PUSH2 0x1271 JUMPI PUSH2 0x1270 PUSH2 0x136A JUMP JUMPDEST JUMPDEST DUP3 DUP3 MUL SWAP1 POP SWAP3 SWAP2 POP POP JUMP JUMPDEST PUSH1 0x0 PUSH2 0x1287 DUP3 PUSH2 0x12AC JUMP JUMPDEST SWAP1 POP SWAP2 SWAP1 POP JUMP JUMPDEST PUSH1 0x0 PUSH2 0x1299 DUP3 PUSH2 0x12AC JUMP JUMPDEST SWAP1 POP SWAP2 SWAP1 POP JUMP JUMPDEST PUSH1 0x0 DUP2 ISZERO ISZERO SWAP1 POP SWAP2 SWAP1 POP JUMP JUMPDEST PUSH1 0x0 PUSH20 0xFFFFFFFFFFFFFFFFFFFFFFFFFFFFFFFFFFFFFFFF DUP3 AND SWAP1 POP SWAP2 SWAP1 POP JUMP JUMPDEST PUSH1 0x0 DUP2 SWAP1 POP SWAP2 SWAP1 POP JUMP JUMPDEST DUP3 DUP2 DUP4 CALLDATACOPY PUSH1 0x0 DUP4 DUP4 ADD MSTORE POP POP POP JUMP JUMPDEST PUSH1 0x0 PUSH1 0x2 DUP3 DIV SWAP1 POP PUSH1 0x1 DUP3 AND DUP1 PUSH2 0x12FD JUMPI PUSH1 0x7F DUP3 AND SWAP2 POP JUMPDEST PUSH1 0x20 DUP3 LT DUP2 EQ ISZERO PUSH2 0x1311 JUMPI PUSH2 0x1310 PUSH2 0x1399 JUMP JUMPDEST JUMPDEST POP SWAP2 SWAP1 POP JUMP JUMPDEST PUSH1 0x0 PUSH2 0x1322 DUP3 PUSH2 0x12CC JUMP JUMPDEST SWAP2 POP PUSH32 0xFFFFFFFFFFFFFFFFFFFFFFFFFFFFFFFFFFFFFFFFFFFFFFFFFFFFFFFFFFFFFFFF DUP3 EQ ISZERO PUSH2 0x1355 JUMPI PUSH2 0x1354 PUSH2 0x136A JUMP JUMPDEST JUMPDEST PUSH1 0x1 DUP3 ADD SWAP1 POP SWAP2 SWAP1 POP JUMP JUMPDEST PUSH1 0x0 DUP2 SWAP1 POP SWAP2 SWAP1 POP JUMP JUMPDEST PUSH32 0x4E487B7100000000000000000000000000000000000000000000000000000000 PUSH1 0x0 MSTORE PUSH1 0x11 PUSH1 0x4 MSTORE PUSH1 0x24 PUSH1 0x0 REVERT JUMPDEST PUSH32 0x4E487B7100000000000000000000000000000000000000000000000000000000 PUSH1 0x0 MSTORE PUSH1 0x22 PUSH1 0x4 MSTORE PUSH1 0x24 PUSH1 0x0 REVERT JUMPDEST PUSH32 0x4E487B7100000000000000000000000000000000000000000000000000000000 PUSH1 0x0 MSTORE PUSH1 0x41 PUSH1 0x4 MSTORE PUSH1 0x24 PUSH1 0x0 REVERT JUMPDEST PUSH2 0x1400 DUP2 PUSH2 0x128E JUMP JUMPDEST DUP2 EQ PUSH2 0x140B JUMPI PUSH1 0x0 DUP1 REVERT JUMPDEST POP JUMP JUMPDEST PUSH2 0x1417 DUP2 PUSH2 0x12A0 JUMP JUMPDEST DUP2 EQ PUSH2 0x1422 JUMPI PUSH1 0x0 DUP1 REVERT JUMPDEST POP JUMP JUMPDEST PUSH2 0x142E DUP2 PUSH2 0x12CC JUMP JUMPDEST DUP2 EQ PUSH2 0x1439 JUMPI PUSH1 0x0 DUP1 REVERT JUMPDEST POP JUMP INVALID LOG2 PUSH5 0x6970667358 0x22 SLT KECCAK256 PUSH30 0x81C0CA14E37971BA9C0D09085DF025D770FAE5175E00005F5E45827D0E03 PUSH6 0x64736F6C6343 STOP ADDMOD STOP STOP CALLER "
    },
    "gasEstimates": {
      "creation": {
        "codeDepositCost": "1046800",
        "executionCost": "11099",
        "totalCost": "1057899"
      },
      "external": {
        "approveContractByBorrower(bool,uint256)": "23520",
        "initiateContract(address,uint256,uint256,uint256,uint256)": "infinite",
        "submitCashToBorrower(uint256)": "infinite",
        "submitCollateral((string,uint256,uint256,uint256),uint256)": "infinite",
        "trades(uint256)": "infinite",
        "valuateCollateral(uint256)": "infinite"
      },
      "internal": {
        "random()": "infinite"
      }
    },
    "methodIdentifiers": {
      "approveContractByBorrower(bool,uint256)": "e40c7cc0",
      "initiateContract(address,uint256,uint256,uint256,uint256)": "3bc36a95",
      "submitCashToBorrower(uint256)": "f62d915a",
      "submitCollateral((string,uint256,uint256,uint256),uint256)": "5885c655",
      "trades(uint256)": "1e6c598e",
      "valuateCollateral(uint256)": "94a53f7c"
    }
  },
  "storageLayout": {
    "storage": [
      {
        "astId": 38,
        "contract": "custodian.sol:Custodian",
        "label": "tradeIndex",
        "offset": 0,
        "slot": "0",
        "type": "t_uint256"
      },
      {
        "astId": 41,
        "contract": "custodian.sol:Custodian",
        "label": "indexColl",
        "offset": 0,
        "slot": "1",
        "type": "t_uint256"
      },
      {
        "astId": 46,
        "contract": "custodian.sol:Custodian",
        "label": "trades",
        "offset": 0,
        "slot": "2",
        "type": "t_mapping(t_uint256,t_struct(Trade)35_storage)"
      }
    ],
    "types": {
      "t_address": {
        "encoding": "inplace",
        "label": "address",
        "numberOfBytes": "20"
      },
      "t_address_payable": {
        "encoding": "inplace",
        "label": "address payable",
        "numberOfBytes": "20"
      },
      "t_array(t_struct(Collateral)17_storage)dyn_storage": {
        "base": "t_struct(Collateral)17_storage",
        "encoding": "dynamic_array",
        "label": "struct Custodian.Collateral[]",
        "numberOfBytes": "32"
      },
      "t_bool": {
        "encoding": "inplace",
        "label": "bool",
        "numberOfBytes": "1"
      },
      "t_mapping(t_uint256,t_struct(Trade)35_storage)": {
        "encoding": "mapping",
        "key": "t_uint256",
        "label": "mapping(uint256 => struct Custodian.Trade)",
        "numberOfBytes": "32",
        "value": "t_struct(Trade)35_storage"
      },
      "t_string_storage": {
        "encoding": "bytes",
        "label": "string",
        "numberOfBytes": "32"
      },
      "t_struct(Collateral)17_storage": {
        "encoding": "inplace",
        "label": "struct Custodian.Collateral",
        "members": [
          {
            "astId": 10,
            "contract": "custodian.sol:Custodian",
            "label": "cusip",
            "offset": 0,
            "slot": "0",
            "type": "t_string_storage"
          },
          {
            "astId": 12,
            "contract": "custodian.sol:Custodian",
            "label": "price",
            "offset": 0,
            "slot": "1",
            "type": "t_uint256"
          },
          {
            "astId": 14,
            "contract": "custodian.sol:Custodian",
            "label": "quantity",
            "offset": 0,
            "slot": "2",
            "type": "t_uint256"
          },
          {
            "astId": 16,
            "contract": "custodian.sol:Custodian",
            "label": "grade",
            "offset": 0,
            "slot": "3",
            "type": "t_uint256"
          }
        ],
        "numberOfBytes": "128"
      },
      "t_struct(Rules)8_storage": {
        "encoding": "inplace",
        "label": "struct Custodian.Rules",
        "members": [
          {
            "astId": 3,
            "contract": "custodian.sol:Custodian",
            "label": "maintenanceMargin",
            "offset": 0,
            "slot": "0",
            "type": "t_uint256"
          },
          {
            "astId": 5,
            "contract": "custodian.sol:Custodian",
            "label": "liquidationTime",
            "offset": 0,
            "slot": "1",
            "type": "t_uint256"
          },
          {
            "astId": 7,
            "contract": "custodian.sol:Custodian",
            "label": "gradePermitted",
            "offset": 0,
            "slot": "2",
            "type": "t_uint256"
          }
        ],
        "numberOfBytes": "96"
      },
      "t_struct(Trade)35_storage": {
        "encoding": "inplace",
        "label": "struct Custodian.Trade",
        "members": [
          {
            "astId": 19,
            "contract": "custodian.sol:Custodian",
            "label": "id",
            "offset": 0,
            "slot": "0",
            "type": "t_uint256"
          },
          {
            "astId": 21,
            "contract": "custodian.sol:Custodian",
            "label": "borrowerAdress",
            "offset": 0,
            "slot": "1",
            "type": "t_address_payable"
          },
          {
            "astId": 23,
            "contract": "custodian.sol:Custodian",
            "label": "lenderAdress",
            "offset": 0,
            "slot": "2",
            "type": "t_address"
          },
          {
            "astId": 25,
            "contract": "custodian.sol:Custodian",
            "label": "cashBorrowed",
            "offset": 0,
            "slot": "3",
            "type": "t_uint256"
          },
          {
            "astId": 29,
            "contract": "custodian.sol:Custodian",
            "label": "collaterals",
            "offset": 0,
            "slot": "4",
            "type": "t_array(t_struct(Collateral)17_storage)dyn_storage"
          },
          {
            "astId": 32,
            "contract": "custodian.sol:Custodian",
            "label": "rules",
            "offset": 0,
            "slot": "5",
            "type": "t_struct(Rules)8_storage"
          },
          {
            "astId": 34,
            "contract": "custodian.sol:Custodian",
            "label": "approvedByCounterParty",
            "offset": 0,
            "slot": "8",
            "type": "t_bool"
          }
        ],
        "numberOfBytes": "288"
      },
      "t_uint256": {
        "encoding": "inplace",
        "label": "uint256",
        "numberOfBytes": "32"
      }
    }
  },
  "userdoc": {
    "kind": "user",
    "methods": {},
    "version": 1
  }
}